:100000000C9434000C9451000C9451000C94510049
:100010000C9451000C9451000C9451000C9451001C
:100020000C9451000C94AD120C9451000C9451009E
:100030000C9451000C9451000C9451000C945100FC
:100040000C94A60D0C9451000C94FA110C945100D0
:100050000C9451000C9451000C9451000C945100DC
:100060000C9451000C94510011241FBECFEFD8E026
:10007000DEBFCDBF11E0A0E0B1E0ECE9FDE202C0DF
:1000800005900D92AE3AB107D9F712E0AEEAB1E0B1
:1000900001C01D92AC37B107E1F70E9453000C94E8
:1000A000CC160C94000088EE93E00E94400D0E9454
:1000B00088000E945E000E944D0DFBCF0E94CD0380
:1000C00080E00E94DA0C882311F00E9445160E94FD
:1000D0004C160E9428040E9459118823C1F00E94E6
:1000E0006111AC0160E070E080E091E00E94E010FE
:1000F0000E946711AC0160E070E087E091E00E942F
:10010000E0100E949F110E94AE0E0E94D11208952D
:1001100060E071EE80E090E00E94E4120E946916B7
:1001200083EC90E00E9437168AEB90E00E9437162D
:1001300081EB90E00E94371688EA90E00E94371623
:1001400080E045E050E060E070E00E942F0B0895F1
:100150008EE091E046E250E060E070E00E94B01076
:10016000089585E191E046E950E060E070E00E948A
:10017000B01008958CE191E040E057E060E070E05D
:100180000E94B010089583E291E045E250E060E003
:1001900070E00E94B010089588E092E0909307020A
:1001A0008093060281E090E0909309028093080218
:1001B00010920B0210920A0210921702109216026D
:1001C000109218021092190210921A0210921B0239
:1001D00010921C0210921D0210921E0210921F0219
:1001E0001092110210921002109212021092130239
:1001F00010921402109215021092200210920C021A
:1002000010920D0210920E0210920F021092210213
:1002100010922202109223021092240210922502C0
:1002200010922602109227021092280210922902A0
:1002300010922A0210924002109241021092420241
:10024000109243021092440210924502109246020C
:1002500010924702109248021092490210924A02EC
:1002600010924B0210924C0210924D0210924E02CC
:1002700010924F021092500210922B0210922C02F8
:1002800010922D0210922E0210922F021092300224
:100290001092310210923202109233021092340204
:1002A00010923502109236021092370210923802E4
:1002B0001092390210923A0210923B0210923C02C4
:1002C00010923D0210923E0210923F0208958F92CA
:1002D0009F92BF92CF92DF92EF92FF920F931F9364
:1002E000DF93CF93CDB7DEB72A970FB6F894DEBF72
:1002F0000FBECDBF4C01DE011196EAE2F1E08AE0CB
:1003000001900D928150E1F7940140E050E060E0EF
:100310007BE187EB90E00E94B116B22EC32ED42E63
:10032000052F7E010894E11CF11CC901DA019C0132
:10033000AD0110E013C0F701219131917F0140E040
:1003400050E06B2D7C2D8D2D902F0E94B116C90190
:10035000DA019C01AD011F5F153031F02F3F3105EF
:100360004105510509F03CF7812F815014BC15BCA3
:1003700010926E0015BA17BC18BC16BC17BC8823A7
:1003800011F481E00FC0813011F482E00BC08230A3
:1003900011F483E007C0833011F484E003C084309B
:1003A00011F485E085BDE0910602F09107028FEF20
:1003B00090E0821B930B938382838281938186BD1D
:1003C00081E080936E007894918280822A960FB6A5
:1003D000F894DEBF0FBECDBFCF91DF911F910F917B
:1003E000FF90EF90DF90CF90BF909F908F900895F7
:1003F00014BC15BC10926E0087E085BB17BC18BCFE
:1004000016BC0895F894089578940895E091060232
:10041000F091070226853785C9010895E09106020B
:10042000F09107022089318942895389B901CA01B3
:100430000895E0910602F0910702248935894689E2
:100440005789B901CA010895E0910602F0910702A7
:1004500020853185C9010895E0910602F0910702D7
:100460002285338544855585B901CA010895E091F7
:100470000602F0910702918780870895E0910602B5
:10048000F0910702978786870895E0910602F09120
:100490000702608B718B828B938B0895E09106022B
:1004A000F091070262877387848795870895E091AA
:1004B0000602F091070226853785868597852817DD
:1004C0003907C9F7C9010895E0910602F0910702C2
:1004D000208931894289538980899189A289B38988
:1004E000281739074A075B0799F7B901CA01089528
:1004F000E0910602F09107022489358946895789DF
:1005000084899589A689B789281739074A075B071F
:1005100099F7B901CA010895E0910602F091070226
:10052000808D8823E1F42685378586859785281771
:100530003907C9F731872087248935894689578942
:1005400084899589A689B789281739074A075B07DF
:1005500099F7228733874487558781E0808F0895F4
:100560008F929F92AF92BF92CF92DF92EF92FF92C3
:100570000F931F93CF93DF935C01C0910602D0913C
:100580000702CE84DF848E859F85C816D906C9F7F9
:10059000EC88FD880E891F898C899D89AE89BF8969
:1005A000E816F9060A071B0799F72881398140E008
:1005B00050E0C801B7010E947016760100E010E01B
:1005C000950140E050E0E20EF31E041F151FE60EF9
:1005D000F71E081F191F20E030E040E050E025C062
:1005E0008E849F848E859F8588169906C9F7AC886E
:1005F000BD88CE88DF888C899D89AE89BF89A81681
:10060000B906CA06DB0699F72881398140E050E037
:10061000C601B5010E9470169B01AC01C401A0E0A7
:10062000B0E0280F391F4A1F5B1F2E153F054007FA
:100630005107B4F2DF91CF911F910F91FF90EF908E
:10064000DF90CF90BF90AF909F908F900895CF9301
:10065000DF93EC01E0910602F09107026685778551
:100660008685978568177907C9F707C066857785F6
:100670008685978568177907C9F724813581468172
:100680005781CB01A0E0B0E082179307A407B5071C
:1006900069F7268537858685978528173907C9F72D
:1006A000C901A0E0B0E084839583A683B783248149
:1006B000358146815781CE01A0E0B0E0820F931FC3
:1006C000A41FB51F84839583A683B78324813581B6
:1006D0004681578180819181A0E0B0E028173907D9
:1006E0004A075B0784F024813581468157818081E8
:1006F0009181A0E0B0E0281B390B4A0B5B0B2483EF
:10070000358346835783DF91CF910895EF92FF920F
:100710000F931F93BC01E0910602F0910702248918
:1007200035894689578984899589A689B789281783
:1007300039074A075B0799F77B0100E010E0E20EFA
:10074000F31E041F151F20E030E040E050E00DC014
:10075000248935894689578984899589A689B789E5
:10076000281739074A075B0799F72E153F054007F9
:10077000510774F31F910F91FF90EF900895E0914E
:100780000602F0910702118E128E138E148E158EB2
:10079000168E178E10A211A20895E0910602F09114
:1007A000070281A18823A1F4F89484899589A689F8
:1007B000B789818F928FA38FB48F86859785A0E0AC
:1007C000B0E0858F968FA78FB0A3789481E081A346
:1007D0000895EF92FF920F931F93CF93DF93C091F1
:1007E0000602D091070289A1813021F0EE24FF2476
:1007F000870125C0F8942C893D894E895F898E85B3
:100800009F857C0100E010E07894898D9A8DAB8DF6
:10081000BC8D281B390B4A0B5B0B6881798180E00A
:1008200090E00E9470162D8D3E8D4F8D58A1E21ADA
:10083000F30A040B150BE60EF71E081F191FB7016C
:10084000C801DF91CF911F910F91FF90EF90089514
:100850000E94E903282FE0910602F091070281A18E
:10086000813049F4118E128E138E148E158E168ED1
:10087000178E10A211A2822F0895E0910602F09126
:10088000070290E025E130E0AC01429FC001439FA8
:10089000900D529F900D1124E80FF91F83A18695AA
:1008A0008F700895E0910602F091070290E025E133
:1008B00030E0AC01429FC001439F900D529F900DCC
:1008C0001124E80FF91F6F70660F83A1817E862BBC
:1008D00083A30895E0910602F091070290E025E1DC
:1008E00030E0AC01429FC001439F900D529F900D9C
:1008F0001124E80FF91FDF019C9664A511967C91E5
:10090000119712968C91129713969C910895E091ED
:100910000602F091070290E025E130E0DC01A29FA1
:10092000C001A39F900DB29F900D1124E80FF91FF5
:1009300044A755A766A777A70895E0910602F0910E
:10094000070290E025E130E0AC01429FC001439FE7
:10095000900D529F900D1124E80FF91FDF0194961E
:1009600064A111967C91119712968C91129713960F
:100970009C910895E0910602F091070290E025E134
:1009800030E0AC01429FC001439F900D529F900DFB
:100990001124E80FF91FDF01989660A511967C914C
:1009A000119712968C91129713969C910895E0914D
:1009B0000602F091070290E025E130E0DC01A29F01
:1009C000C001A39F900DB29F900D1124E80FF91F55
:1009D00044A355A366A377A30895E0910602F0917E
:1009E000070290E025E130E0DC01A29FC001A39F57
:1009F000900DB29F900D1124E80FF91F40A751A749
:100A000062A773A70895E0910602F091070290E0B3
:100A100025E130E0AC01429FC001439F900D529F01
:100A2000900D1124E80FF91FDF01D09660A91196EF
:100A30007C91119712968C91129713969C91089520
:100A4000E0910602F0910702282F30E077FF11C0F5
:100A500085E190E0AC01249FC001259F900D349F5B
:100A6000900D1124E80FF91F10AA11AA12AA13AAB7
:100A7000089585E190E0DC012A9FC0012B9F900D35
:100A80003A9F900D1124E80FF91F40AB51AB62ABB8
:100A900073AB0895E0910602F091070290E025E122
:100AA00030E0AC01429FC001439F900D529F900DDA
:100AB0001124E80FF91F83A181700895E0910602C7
:100AC000F091070290E025E130E0AC01429FC001C7
:100AD000439F900D529F900D1124E80FF91F83A1A1
:100AE000816083A30895E0910602F091070290E0EF
:100AF00025E130E0AC01429FC001439F900D529F21
:100B0000900D1124E80FF91F83A18E7F83A3089510
:100B1000E0910602F091070290E025E130E0AC019F
:100B2000429FC001439F900D529F900D1124E80FEA
:100B3000F91FDF01D49664A911967C911197129642
:100B40008C91129713969C910895E0910602F09172
:100B5000070290E025E130E0DC01A29FC001A39FE5
:100B6000900DB29F900D1124E80FF91F44AB55ABC7
:100B700066AB77AB0895E0910602F091070290E032
:100B800025E130E0AC01429FC001439F900D529F90
:100B9000900D1124E80FF91F10A611A612A613A696
:100BA00014A215A216A217A214A615A616A617A679
:100BB00083A1807E83A314AA15AA16AA17AA089552
:100BC000E0910602F091070290E025E130E0AC01EF
:100BD000429FC001439F900D529F900D1124E80F3A
:100BE000F91F10A611A612A613A614A215A216A2EA
:100BF00017A214A615A616A617A683A1807E83A306
:100C000014AA15AA16AA17AA0895E0910602F0914F
:100C1000070290E025E130E0AC01429FC001439F14
:100C2000900D529F900D1124E80FF91F93A1892F69
:100C300086958F70813019F0917E926093A308950C
:100C4000E0910602F091070290E025E130E0AC016E
:100C5000429FC001439F900D529F900D1124E80FB9
:100C6000F91F93A1892F86958F70823019F0917E9C
:100C7000946093A308952F923F924F925F926F9248
:100C80007F928F929F92AF92BF92CF92DF92EF921C
:100C9000FF920F931F93DF93CF93CDB7DEB72897C3
:100CA0000FB6F894DEBF0FBECDBF1A012B01209105
:100CB00006023091070238872F83A82FB0E0BA834D
:100CC000A98385E190E0A89FF001A99FF00DB89F4E
:100CD000F00D1124E20FF31F83A186958F7009F0A8
:100CE00080C044A755A766A777A7F901C084D1841F
:100CF000D9011A968D919D910D90BC91A02D8B8359
:100D00009C83AD83BE832081318140E050E0C201ED
:100D1000B1010E94B1167B018C01EF81F885208121
:100D2000318140E050E0C201B1010E94B116C90119
:100D3000DA013C014D015601CC24DD24AE0CBF1C70
:100D4000C01ED11EAF81B8858D919C91A0E0B0E00E
:100D5000A816B906CA06DB06A4F00894611C711C2B
:100D6000811C911CEF81F8852081318140E050E0A9
:100D7000C601B5010E94B116AC01CB01DA015C01DC
:100D80006D0185E190E029813A81289FA001299F8A
:100D9000500D389F500D11248F819885480F591F91
:100DA0008B819C81AD81BE81860D971DA81DB91DCB
:100DB000FA0184A395A3A6A3B7A3DA019896AD92EE
:100DC000BD92CD92DC929B9724AA35AA46AA57AA37
:100DD00093A1892F86958F70813019F0917E926052
:100DE00093A328960FB6F894DEBF0FBECDBFCF9168
:100DF000DF911F910F91FF90EF90DF90CF90BF9008
:100E0000AF909F908F907F906F905F904F903F90AA
:100E10002F900895CF92DF92EF92FF920F931F933E
:100E20007A018B01E0910602F0910702482F50E011
:100E300025E130E0429F6001439FD00C529FD00CCF
:100E40001124EC0DFD1D10A611A612A613A614A2C6
:100E500015A216A217A214A615A616A617A693A148
:100E6000907E93A314AA15AA16AA17AAB801A701DF
:100E70000E943B06E0910602F0910702EC0DFD1D79
:100E8000E4AAF5AA06AB17AB1F910F91FF90EF9064
:100E9000DF90CF9008952F923F924F925F926F9282
:100EA0007F928F929F92AF92BF92CF92DF92EF92FA
:100EB000FF920F931F93CF93DF93E0910602F0917F
:100EC000070290E025E130E0829FE001839FD00D92
:100ED000929FD00D1124CE0FDF1F8BA186958F70AE
:100EE000813009F048C0E084F18400E010E08285A0
:100EF0009385A485B5852CA13DA14EA15FA1281B9A
:100F0000390B4A0B5B0B6081718180E090E00E949D
:100F100070166E197F09800B910B28A539A54AA57B
:100F20005BA5620F731F841F951F6CA77DA78EA7FB
:100F30009FA716161706180619060CF44CC08CA9A4
:100F40009DA9AEA9BFA918A619A61AA61BA61CA2E0
:100F50001DA21EA21FA21CA61DA61EA61FA62BA177
:100F60002E7F2BA38CAB9DABAEABBFAB8BA1817E99
:100F700088608BA330C0823071F560847184E28414
:100F8000F384048515852CA43DA44EA45FA4208180
:100F90003181A080B18040E050E0C201B1010E94E7
:100FA000B116E20EF31E041F151FECA2FDA20EA344
:100FB0001FA3CC24DD24C201B101A60195010E942A
:100FC000B11688249924660E771E881E991E68A67D
:100FD00079A68AA69BA6DF91CF911F910F91FF90D2
:100FE000EF90DF90CF90BF90AF909F908F907F90C9
:100FF0006F905F904F903F902F90089540E0E09168
:101000000602F091070290E025E130E0BC01629F0A
:10101000C001639F900D729F900D1124E80FF91F7E
:1010200083A186958F70843009F441E0842F089560
:10103000E0910602F091070290E025E130E0AC017A
:10104000429FC001439F900D529F900D1124E80FC5
:10105000F91F83A186958F70843011F080E0089588
:1010600010A611A612A613A614A215A216A217A2C4
:1010700014A615A616A617A683A1807E83A314AA7C
:1010800015AA16AA17AA81E008950E9418080895C3
:10109000A82FE0910602F0910702282F30E085E1A9
:1010A00090E0AC01249FC001259F900D349F900DCE
:1010B0001124E80FF91F83A186958F70843011F0F9
:1010C00080E0089544A955A966A977A910A611A69C
:1010D00012A613A614A215A216A217A214A615A64C
:1010E00016A617A683A1807E83A314AA15AA16AA02
:1010F00017AA8A2F0E943B0681E00895CF93DF93C1
:10110000C0910602D0910702282F30E085E190E0DF
:10111000289FF001299FF00D389FF00D1124EC0F4E
:10112000FD1F83A180FD21C084A595A5A6A5B7A517
:10113000841B950BA60BB70BB7FF05C010AA11AA0D
:1011400012AA13AA04C080AB91ABA2ABB3AB85E1EA
:1011500090E0289FF001299FF00D389FF00D112499
:10116000EC0FFD1F83A1816083A3DF91CF910895D0
:10117000E0910602F091070290E025E130E0AC0139
:10118000429FC001439F900D529F900D1124E80F84
:10119000F91F24A535A546A557A580A991A9A2A9FF
:1011A000B3A9281B390B4A0B5B0B57FF04C020E087
:1011B00030E040E050E0B901CA010895CF93DF93D9
:1011C000C0910602D0910702682F70E085E190E09F
:1011D000689FF001699FF00D789FF00D1124EC0FCE
:1011E000FD1F24A535A546A557A580A991A9A2A9AB
:1011F000B3A9281B390B4A0B5B0B57FD07C0211500
:1012000031054105510511F020E012C020E085E1D3
:1012100090E0AC01649FC001659F900D749F900D9C
:101220001124C80FD91F8BA180FF21E081E028275E
:10123000822FDF91CF9108951F93182F0E94DE080F
:10124000813011F080E016C0E0910602F0910702B3
:10125000212F30E085E190E0AC01249FC001259F63
:10126000900D349F900D1124E80FF91F83A18E7FFC
:1012700083A381E01F91089580E00E944B070895A9
:10128000E0910602F091070210A611A612A613A67D
:1012900014A215A216A217A214A615A616A617A682
:1012A00083A1807E83A314AA15AA16AA17AA08955B
:1012B000E0910602F091070290E09C0144E0220FC9
:1012C000331F4A95E1F7280F391FE20FF31F80AD56
:1012D00086958F700895E0910602F091070290E0E4
:1012E0009C0154E0220F331F5A95E1F7280F391F54
:1012F000E20FF31F6F70660F80AD817E862B80AF8B
:101300000895E0910602F091070290E09C0164E0EC
:10131000220F331F6A95E1F7280F391FE20FF31FE1
:10132000FD9660817181828193810895E09106022A
:10133000F091070290E09C01A4E0220F331FAA95D0
:10134000E1F7280F391FE20FF31FFD964083518309
:10135000628373830895E0910602F091070290E0A2
:101360009C01B4E0220F331FBA95E1F7280F391F13
:10137000E20FF31FDF01D99661AD11967C911197B1
:1013800012968C91129713969C910895E091060203
:10139000F091070290E09C01A4E0220F331FAA9570
:1013A000E1F7280F391FE20FF31F41AF52AF63AFD0
:1013B00074AF0895E0910602F091070290E09C015D
:1013C000B4E0220F331FBA95E1F7280F391FE20F5F
:1013D000F31FEF5BFF4F60817181828193810895DC
:1013E000E0910602F0910702282F30E077FF11C04C
:1013F000C901B4E0880F991FBA95E1F7820F931FD6
:10140000E80FF91FEF5BFF4F1082118212821382E7
:101410000895C901A4E0880F991FAA95E1F7820FEA
:10142000931FE80FF91FEF5BFF4F408351836283E7
:1014300073830895E0910602F091070290E09C0109
:1014400044E0220F331F4A95E1F7280F391FE20FBE
:10145000F31F80AD81700895E0910602F0910702BC
:1014600090E09C0154E0220F331F5A95E1F7280FBA
:10147000391FE20FF31F80AD816080AF0895E091C6
:101480000602F091070290E09C0164E0220F331FF6
:101490006A95E1F7280F391FE20FF31F80AD8E7FA9
:1014A00080AF0895E0910602F091070290E09C0160
:1014B00074E0220F331F7A95E1F7280F391FE20FEE
:1014C000F31FEB5BFF4F60817181828193810895EF
:1014D000E0910602F091070290E09C01A4E0220F47
:1014E000331FAA95E1F7280F391FE20FF31FEB5BBB
:1014F000FF4F40835183628373830895E091060216
:10150000F091070290E09C01B4E0220F331FBA95DE
:10151000E1F7280F391FE20FF31F11AE12AE13AE21
:1015200014AEFD961082118212821382FD9780AD57
:10153000807E80AFEB5BFF4F10821182128213829C
:101540000895E0910602F091070290E09C0144E0CA
:10155000220F331F4A95E1F7280F391FE20FF31FBF
:1015600011AE12AE13AE14AEFD961082118212822D
:101570001382FD9780AD807E80AFEB5BFF4F1082C2
:101580001182128213820895E0910602F0910702FF
:1015900090E09C0154E0220F331F5A95E1F7280F89
:1015A000391FE20FF31F90AD892F86958F70813020
:1015B00019F0917E926090AF0895E0910602F0914B
:1015C000070290E09C0164E0220F331F6A95E1F767
:1015D000280F391FE20FF31F90AD892F86958F706A
:1015E000823019F0917E946090AF0895A091060228
:1015F000B091070290E0FC0124E0EE0FFF1F2A9556
:10160000E1F7E80FF91FEA0FFB1F80AD86958F7099
:1016100029F5FD964083518362837383FD971A9663
:101620008D919D910D90BC91A02D840F951FA61FAB
:10163000B71F81AF92AFA3AFB4AFEB5BFF4F408357
:10164000518362837383E554F04090AD892F869572
:101650008F70813019F0917E926090AF0895CF9293
:10166000DF92EF92FF920F931F936A017B01E0914B
:101670000602F0910702282F30E0890144E0000FB4
:10168000111F4A95E1F7020F131FE00FF11F11AE72
:1016900012AE13AE14AEFD96108211821282138226
:1016A000FD9790AD907E90AFEB5BFF4F1082118263
:1016B00012821382B701A6010E94F60AE091060287
:1016C000F0910702E00FF11FEB5BFF4FC082D18268
:1016D000E282F3821F910F91FF90EF90DF90CF9005
:1016E0000895CF93DF93E0910602F091070290E016
:1016F000EC0154E0CC0FDD1F5A95E1F7C80FD91F5C
:10170000CE0FDF1F88AD86958F708130B1F52285B1
:1017100033854485558589AD9AADABADBCAD821B93
:10172000930BA40BB50BBE01635C7F4FFB01808361
:101730009183A283B383181619061A061B068CF12F
:10174000FE01EB5BFF4F208131814281538119AE55
:101750001AAE1BAE1CAEDB011D921D921D921C9297
:10176000139788AD8E7F88AF208331834283538364
:1017700088AD817E886088AF14C0823091F4828504
:101780009385A485B585ED96288139814A815B8151
:10179000ED97820F931FA41FB51F89AF9AAFABAF10
:1017A000BCAFDF91CF91089540E0E0910602F09147
:1017B000070290E09C0164E0220F331F6A95E1F775
:1017C000280F391FE20FF31F80AD86958F7084308C
:1017D00009F441E0842F0895E0910602F091070298
:1017E00090E09C0174E0220F331F7A95E1F7280FF7
:1017F000391FE20FF31F80AD86958F70843011F092
:1018000080E0089511AE12AE13AE14AEFD961082B4
:10181000118212821382FD9780AD807E80AFEB5BD8
:10182000FF4F108211821282138281E00895CF93BC
:10183000DF93C0910602D0910702282F30E0F90112
:10184000B4E0EE0FFF1FBA95E1F7E20FF31FEC0FC4
:10185000FD1F80AD80FD21C0FD9681919191A191E8
:10186000B191841B950BA60BB70BB7FF05C0108277
:1018700011821282138204C080839183A283B38376
:10188000F901A4E0EE0FFF1FAA95E1F7E20FF31FA5
:10189000EC0FFD1F80AD816080AFDF91CF91089587
:1018A000E0910602F091070290E09C0144E0220FD3
:1018B000331F4A95E1F7280F391FE20FF31FDF01AD
:1018C000AF5BBF4FFD9620813181428153818D9165
:1018D0009D910D90BC91A02D281B390B4A0B5B0BE1
:1018E00057FF04C020E030E040E050E0B901CA01F9
:1018F0000895CF93DF93C0910602D0910702682F1D
:1019000070E0FB01A4E0EE0FFF1FAA95E1F7E60FE0
:10191000F71FEC0FFD1FDF01AF5BBF4FFD9620816E
:101920003181428153818D919D910D90BC91A02D6B
:10193000281B390B4A0B5B0B57FD07C021153105DE
:101940004105510511F020E010C020E0CB0154E02A
:10195000880F991F5A95E1F7860F971FC80FD91F57
:1019600088AD80FF21E081E02827822FDF91CF9191
:1019700008951F93182F0E94790C813011F080E098
:1019800014C0E0910602F0910702212F30E0C90156
:10199000B4E0880F991FBA95E1F7820F931FE80F03
:1019A000F91F80AD8E7F80AF81E01F9108950E9466
:1019B000EC0B08951F93182FA0910602B091070217
:1019C00090E09C0144E0220F331F4A95E1F7280F75
:1019D000391FA20FB31FD8968C91D89786958F7018
:1019E000843011F080E022C0FD01EB5BFF4F4081AD
:1019F000518162817381D9961D921D921D921C9214
:101A0000DC97DD961D921D921D921C921397DD9717
:101A1000D8968C91D897807ED8968C93108211821C
:101A200012821382812F0E94F60A81E01F9108958D
:101A300080E00E94710B0895E0910602F091070288
:101A400011AE12AE13AE14AEFD9610821182128248
:101A50001382FD9780AD807E80AFEB5BFF4F1082DD
:101A60001182128213820895E0910602F09107021A
:101A700082A108950E9440090E941C0D08950895B6
:101A80000F931F938C010E94CC00C8010E94670134
:101A90000E943A0D1F910F910895E0910602F09176
:101AA000070282A183FF0BC00E948C020E943C09A6
:101AB000E0910602F091070282A1877F82A3E09164
:101AC0000602F091070282A181FF0BC00E948C02E6
:101AD0000E94180DE0910602F091070282A18D7F0D
:101AE00082A3E0910602F0910702108E0895E09122
:101AF0000602F0910702868597850196978786876B
:101B000080899189A289B3890196A11DB11D808B1D
:101B1000918BA28BB38B82A1886082A326853785A7
:101B2000808191812817390780F01786168684896D
:101B30009589A689B7890196A11DB11D848B958BC6
:101B4000A68BB78B82A1826082A308951F920F9209
:101B50000FB60F9211242F933F934F935F936F9380
:101B60007F938F939F93AF93BF93EF93FF93E091F6
:101B70000602F09107028281938186BD0E94770D53
:101B8000FF91EF91BF91AF919F918F917F916F9155
:101B90005F914F913F912F910F900FBE0F901F902B
:101BA000189508951092AE01EFEAF1E0119281E0EC
:101BB000E73BF807D9F71082118280E490E0909318
:101BC000FA018093F9011092FC011092FB0120E0D0
:101BD00004C0E255FE4F13862F5F8091F90190916A
:101BE000FA01E22FF0E0E817F90798F30895109250
:101BF00000021092FF011092020210920102109254
:101C000003021092040281E0809305020895089572
:101C100008959B01AC0160E673EE86E190E00E94BE
:101C20008F162150304040405040E0ECF0E0808181
:101C300082608083BB27A52F942F832F8093C500BC
:101C40002093C4000895E1ECF0E0808188608083F7
:101C500086E08093C2000895E1ECF0E0808180612D
:101C6000808386E08093C2000895E1ECF0E08081FB
:101C700080688083789408950895982F8091C0009B
:101C800085FFFCCF9093C6000895DF93CF930F920A
:101C9000CDB7DEB719828091C00084FF05C0809166
:101CA000C600898381E008C08091C00083FF07C01F
:101CB0008091C600898382E08093AE0105C0809147
:101CC000C60089831092AE0189810F90CF91DF9178
:101CD00008951092FD011092FE01089584E0809312
:101CE000FE018BEF8093FE011092B6001092B000BF
:101CF0001092B100E0E7F0E010821092B2008FEF96
:101D000087BB81E080837894089587E08093B10059
:101D100008951092B10008958091FD010895809179
:101D2000B20090E008958091FE018093B200089582
:101D30000895AC0120E030E070E00CC0FA01E20F41
:101D4000F31FE0818091C00085FFFCCFE093C600C7
:101D50002F5F3F4F2617370788F308958091C00003
:101D600085FFFCCF8DE08093C6008091C00085FF89
:101D7000FCCF8AE08093C60008958091C00085FF63
:101D8000FCCF80E28093C60008958091C00085FF5B
:101D9000FCCF8CE28093C6000895AC0120E007C020
:101DA0008091C00085FFFCCFE093C6002F5FFA0151
:101DB000E20FF11DE081EE2399F708950E94CD0E08
:101DC0000E94AE0E08950E94CD0E8091C00085FF46
:101DD000FCCF80E28093C60008950E94CD0E8091D2
:101DE000C00085FFFCCF8CE28093C6000895BF92AF
:101DF000CF92DF92EF92FF920F931F936B017C01C2
:101E0000611571058105910531F41092AF0181E0F2
:101E10008093B70123C0BB240B2D10E002551E4F49
:101E2000C701B6012AE030E040E050E00E948F1682
:101E3000F8016183C701B6012AE030E040E050E0DC
:101E40000E948F16C901DA016C017D01B394C1149F
:101E5000D104E104F10401F7B092B7011F910F9191
:101E6000FF90EF90DF90CF90BF900895E091B70181
:101E70000FC02E2F2150E22FF0E0E255FE4F91814E
:101E80008091C00085FFFCCF905D9093C600E22F4B
:101E9000EE2379F708959B01AC0197FF0EC0809166
:101EA000C00085FFFCCF8DE28093C6005095409521
:101EB000309521953F4F4F4F5F4FCA01B9010E94A6
:101EC000F70E0E94360F08951F93CF93DF93AB0157
:101ED000BC014F3F51056105710509F028F4E8E0A8
:101EE000F0E0C2E0D0E011C0403080E0580781E06F
:101EF000680780E0780728F0E0E2F0E0C8E0D0E092
:101F000004C0E0E1F0E0C4E0D0E08091C00085FFD3
:101F1000FCCF80E38093C6008091C00085FFFCCF9A
:101F200088E78093C60010E01FC03497DB01CA0128
:101F30000E2E04C0B695A795979587950A94D2F76B
:101F400090E08F7090708A30910520F09C01295CA0
:101F50003F4F03C09C01205D3F4F8091C00085FF33
:101F6000FCCF2093C6001F5F812F90E08C179D0748
:101F7000E0F2DF91CF911F910895CF92DF92EF921F
:101F8000FF920F931F93CF93DF93AB01BC014F3FA1
:101F900051056105710509F010F497E00BC0403060
:101FA00080E0580781E0680780E0780710F09FE143
:101FB00001C09FE08091C00085FFFCCF80E380934B
:101FC000C6008091C00085FFFCCF82E68093C600EA
:101FD00020E030E0E92FF0E000E311E3EF0121968B
:101FE000CF01821B930B6A017B0104C0F694E79436
:101FF000D794C7948A95D2F7D701C60181709070A3
:10200000892B39F08091C00085FFFCCF1093C6006A
:1020100006C08091C00085FFFCCF0093C6002F5FF3
:102020003F4F2C173D07E1F6DF91CF911F910F91A4
:10203000FF90EF90DF90CF9008950E944B0F0E9489
:10204000AE0E08950E944B0F8091C00085FFFCCF1B
:1020500080E28093C60008950E944B0F8091C000DB
:1020600085FFFCCF8CE28093C60008950E94640F28
:102070000E94AE0E08950E94640F8091C00085FFFB
:10208000FCCF80E28093C60008950E94640F809187
:10209000C00085FFFCCF8CE28093C60008950E94AB
:1020A000BD0F0E94AE0E08950E94BD0F8091C0002A
:1020B00085FFFCCF80E28093C60008950E94BD0F8B
:1020C0008091C00085FFFCCF8CE28093C60008950C
:1020D000EF92FF920F931F937A018B010E94CD0E16
:1020E0008091C00085FFFCCF80E28093C600C801CC
:1020F000B7010E941D101F910F91FF90EF9008955E
:10210000EF92FF920F931F937A018B010E94CD0EE5
:102110008091C00085FFFCCF80E28093C600C8019B
:10212000B7010E9422101F910F91FF90EF90089528
:10213000EF92FF920F931F937A018B010E94CD0EB5
:102140008091C00085FFFCCF80E28093C600C8016B
:10215000B7010E942C101F910F91FF90EF900895EE
:10216000EF92FF920F931F937A018B010E94CD0E85
:102170008091C00085FFFCCF80E28093C600C8013B
:10218000B7010E9436101F910F91FF90EF900895B4
:10219000EF92FF920F931F937A018B010E94CD0E55
:1021A0008091C00085FFFCCF80E28093C600C8010B
:1021B000B7010E943B101F910F91FF90EF9008957F
:1021C000EF92FF920F931F937A018B010E94CD0E25
:1021D0008091C00085FFFCCF80E28093C600C801DB
:1021E000B7010E9445101F910F91FF90EF90089545
:1021F000EF92FF920F931F937A018B010E94CD0EF5
:102200008091C00085FFFCCF80E28093C600C801AA
:10221000B7010E944F101F910F91FF90EF9008950A
:10222000EF92FF920F931F937A018B010E94CD0EC4
:102230008091C00085FFFCCF80E28093C600C8017A
:10224000B7010E9454101F910F91FF90EF900895D5
:10225000EF92FF920F931F937A018B010E94CD0E94
:102260008091C00085FFFCCF80E28093C600C8014A
:10227000B7010E945E101F910F91FF90EF9008959B
:1022800080E090E0FC01E255FE4F13860196803419
:102290009105C1F71092FC011092FB010895FC0119
:1022A000E255FE4F838508958091FB019091FC01DA
:1022B00008958091040208958091FB019091FC01A2
:1022C00008952091FF0130910002C90108952091E5
:1022D000010230910202C90108958091030208951C
:1022E00080910502089510920402089580E090E024
:1022F000FC01E255FE4F1386019680349105C1F72B
:102300001092FC011092FB0181E080930502089578
:10231000AC0120E030E00AC0F901E255FE4F8385B0
:10232000FA01E20FF31F80832F5F3F4F8091FB0183
:102330009091FC0190E02817390770F3089520E090
:1023400030E00CC0F901E255FE4F93858091C0004A
:1023500085FFFCCF9093C6002F5F3F4F8091FB011C
:102360009091FC0190E02817390760F30E94AE0EAF
:1023700008958091AE0108951092AE0108950E94D3
:10238000450E8093B8018091AE01882311F5E0914C
:10239000FB01F091FC018091B801E255FE4F83876B
:1023A0008091FB019091FC0101969093FC01809338
:1023B000FB012091FB013091FC018091F90190918A
:1023C000FA012817390738F01092FC011092FB012E
:1023D00002C01092B8018091FE018093B2008091FA
:1023E000FD01882331F487E08093B10081E0809380
:1023F000FD0108951F920F920FB60F9211242F9393
:102400003F934F935F936F937F938F939F93AF937C
:10241000BF93EF93FF930E94BF11FF91EF91BF9184
:10242000AF919F918F917F916F915F914F913F916C
:102430002F910F900FBE0F901F901895362F20E010
:102440002827392740E061E270E1C901880F991F10
:1024500037FF04C09C012627372701C09C014F5F2E
:10246000483099F7C90108950F931F93CF93DF93D5
:10247000062FEC0120E030E010E006C0C9016991B0
:102480000E941E129C011F5F1017C0F3C901DF914B
:10249000CF911F910F9108958091FB019091FC01C4
:1024A000823028F440E050E020E030E01FC060912E
:1024B000FB017091FC01625089EB91E00E943412A3
:1024C000AC01E091FB01F091FC01F0E0E455FE4F1E
:1024D0002385922F80E0E091FB01F091FC01F0E078
:1024E000E355FE4F238530E0282B392B5093000213
:1024F0004093FF0130930202209301022091FF01DB
:102500003091000280910102909102022817390750
:1025100021F481E08093030208951092030208954C
:102520008091FD01813021F41092B1001092FD01E3
:102530008091FB019091FC01882371F0809105024C
:10254000882319F480E18093AE010E944C1281E04F
:10255000809304021092050208951F920F920FB605
:102560000F9211242F933F934F935F936F937F9319
:102570008F939F93AF93BF93EF93FF930E9490121B
:10258000FF91EF91BF91AF919F918F917F916F914B
:102590005F914F913F912F910F900FBE0F901F9021
:1025A000189580E090E0FC01E255FE4F13860196FD
:1025B00080349105C1F71092FC011092FB0110923A
:1025C00004020E9476110895EF92FF920F931F93D9
:1025D0007B018C010E94D20D109200021092FF012B
:1025E0001092020210920102109203021092040251
:1025F00081E0809305021092FD011092FE01C80156
:10260000B7010E94090E8091C10088608093C100CB
:1026100096E09093C2008091C10080618093C100D8
:102620009093C2008091C10080688093C10078942B
:102630000E946E0E80E090E0FC01E255FE4F138692
:10264000019680349105C1F71092FC011092FB01B4
:102650001F910F91FF90EF90089510923401109206
:102660003501109236011092370110923801109204
:10267000390110923A0110923B0110923C011092E4
:102680003D0110923E0110923F01109240011092C4
:1026900041011092420110924301109244011092A4
:1026A0004501109246011092470110924801109284
:1026B000490110924A0110924B0110924C01109264
:1026C0004D0110924E0110924F0110925001109244
:1026D0005101109252011092530110925401109224
:1026E0005501109256011092570110925801109204
:1026F000590110925A0110925B0110925C011092E4
:102700005D0110925E0110925F01109260011092C3
:1027100061011092620110926301109264011092A3
:102720006501109266011092670110926801109283
:10273000690110926A0110926B0110926C01109263
:102740006D0110926E0110926F0110927001109243
:102750007101109272011092730108956093340117
:1027600070933501809336019093370108956093FB
:1027700038017093390180933A0190933B01089599
:1027800060933C0170933D0180933E0190933F0123
:102790000895EF92FF920F931F936093340170930B
:1027A000350180933601909337012093380130939F
:1027B000390140933A0150933B01E0923C01F09281
:1027C0003D0100933E0110933F011F910F91FF9037
:1027D000EF9008956093400170934101809342010E
:1027E0009093430108956093440170934501809351
:1027F00046019093470108956093540170935501E9
:1028000080935601909357010895609368017093E7
:10281000690180936A0190936B01089510925001B1
:102820001092510110925201109253010895EF92AB
:10283000FF920F931F9320914001309141014091ED
:102840004201509143018091440190914501A09132
:102850004601B0914701281B390B4A0B5B0B2093B3
:1028600048013093490140934A0150934B018091B4
:10287000580190915901A0915A01B0915B017901E1
:102880008A01E81AF90A0A0B1B0BE0924C01F0923C
:102890004D0100934E0110934F0120935801309346
:1028A000590140935A0150935B01E0905001F09020
:1028B00051010091520110915301E20EF31E041FC9
:1028C000151FE0925001F0925101009352011093B4
:1028D00053018091540190915501A0915601B091FE
:1028E00057018E159F05A007B1074CF48093500146
:1028F00090935101A0935201B093530114C0222729
:102900003327A901281B390B4A0B5B0BE216F30690
:102910000407150744F4209350013093510140936C
:102920005201509353011F910F91FF90EF90089522
:102930006F927F928F929F92AF92BF92CF92DF92CF
:10294000EF92FF920F931F936091380170913901BC
:1029500080913A0190913B012091500130915101B9
:1029600040915201509153010E9470163B014C015D
:1029700060913C0170913D0180913E0190913F0139
:1029800020914C0130914D0140914E0150914F01E9
:102990000E9470165B016C01E0906801F090690183
:1029A00000916A0110916B016091340170913501C1
:1029B0008091360190913701209148013091490171
:1029C00040914A0150914B010E947016A801970155
:1029D0000E94B11620935C0130935D0140935E012B
:1029E00050935F01C401B301A80197010E94B11681
:1029F0002093600130936101409362015093630121
:102A0000C601B501A80197010E94B1162093640187
:102A10003093650140936601509367011F910F91B8
:102A2000FF90EF90DF90CF90BF90AF909F908F90EE
:102A30007F906F9008950E9417140E94981420911F
:102A40005C0130915D0140915E0150915F01809188
:102A5000600190916101A0916201B0916301280F22
:102A6000391F4A1F5B1F8091640190916501A091FD
:102A70006601B0916701280F391F4A1F5B1F209321
:102A80006C0130936D0140936E0150936F0157FFBD
:102A900009C010927001109271011092720110928F
:102AA0007301089520937001309371014093720176
:102AB00050937301089560913401709135018091B4
:102AC0003601909137010895609138017091390174
:102AD00080913A0190913B01089560913C01709181
:102AE0003D0180913E0190913F0108956091400128
:102AF000709141018091420190914301089560914C
:102B000044017091450180914601909147010895DB
:102B1000609148017091490180914A0190914B0167
:102B200008956091500170915101809152019091EE
:102B30005301089560914C0170914D0180914E01B7
:102B400090914F01089560915401709155018091C9
:102B5000560190915701089560915C0170915D015B
:102B600080915E0190915F01089560916001709184
:102B70006101809162019091630108956091640107
:102B8000709165018091660190916701089560914F
:102B900068017091690180916A0190916B010895BB
:102BA00060916C0170916D0180916E0190916F0147
:102BB00008956091700170917101809172019091FE
:102BC000730108950E942D130895AF92BF92CF9282
:102BD000DF92EF92FF920F931F93DF93CF93CDB7C6
:102BE000DEB7609334017093350180933601909382
:102BF0003701209338013093390140933A015093C3
:102C00003B01E0923C01F0923D0100933E011093A4
:102C10003F01A0925401B0925501C0925601D0924A
:102C200057018D859E85AF85B88980936801909303
:102C30006901A0936A01B0936B0110925001109248
:102C400051011092520110925301CF91DF911F91C7
:102C50000F91FF90EF90DF90CF90BF90AF900895CD
:102C60001092790210927A0210927B0208952091BC
:102C70007902E22FF0E0EE0FFF1FEF5AFD4F918334
:102C800080832F5F20937902089581E080937B02F7
:102C9000089510927B02089580917B028130C1F4E7
:102CA000E0917A02F0E0EE0FFF1FEF5AFD4F019026
:102CB000F081E02D099580917A028F5F80937A02EE
:102CC00090917902891720F010927A0210927B027B
:102CD00008951092790210927A0210927B02089560
:102CE000629FD001739FF001829FE00DF11D649FF0
:102CF000E00DF11D929FF00D839FF00D749FF00D7C
:102D0000659FF00D9927729FB00DE11DF91F639F1C
:102D1000B00DE11DF91FBD01CF0111240895A1E2FD
:102D20001A2EAA1BBB1BFD010DC0AA1FBB1FEE1F45
:102D3000FF1FA217B307E407F50720F0A21BB30B90
:102D4000E40BF50B661F771F881F991F1A9469F70C
:102D500060957095809590959B01AC01BD01CF0168
:102D6000089597FB092E05260ED057FD04D0D7DF16
:102D70000AD0001C38F450954095309521953F4F6E
:102D80004F4F5F4F0895F6F7909580957095619538
:0C2D90007F4F8F4F9F4F0895F894FFCFA6
:102D9C0043616C435243005265634352430050728B
:102DAC00696E7433005072696E7432005072696EC1
:102DBC007431005072696E743000010008004000DC
:102DCC0000010004000000000000000000000000F2
:102DDC0000000000000000000000000000000000E7
:102DEC0000000000000000000000000000000000D7
:102DFC0000000000000000000000000000000000C7
:102E0C0000000000AE13B713C013C913EA13F31379
:102E1C00FC1305140E14171498141B155B1564156C
:102E2C006D1576157F15881588159A15A315AC1593
:0E2E3C00B515BE15C715D015D915E215E5154B
:00000001FF
