:100000000C9434000C9446000C9446000C9446006A
:100010000C9446000C9446000C9446000C94460048
:100020000C9446000C9446000C9446000C94460038
:100030000C9446000C9446000C9477010C944600F6
:100040000C9446000C9446000C9446000C94460018
:100050000C9446000C9446000C9446000C94460008
:100060000C9446000C94460011241FBECFEFD8E03C
:10007000DEBFCDBF11E0A0E0B1E001C01D92A23112
:10008000B107E1F70E9448000C94BD010C940000F8
:1000900088EE93E00E943601FFCF82E091E09093DA
:1000A000010180930001109202018091020184609D
:1000B000809302018091020187708093020181E0A8
:1000C00090E0909304018093030110920901109233
:1000D0000A0110920B0110920C0110920D01109266
:1000E0000E0110920F011092100110920501109252
:1000F0000601109207011092080110921101089553
:100100009C01E0910001F0910101808180FF31C0EC
:100110002130310511F496E019C02230310511F477
:1001200095E014C02430310511F494E00FC028305C
:10013000310511F493E00AC02031310511F492E049
:1001400005C090E02032310509F491E0F89484B7BD
:10015000877F84BF80916000806880936000809179
:100160006000886180936000906490936000789450
:1001700015C081FD13C082FF11C014BC15BC1092C4
:100180006E0015BA17BC18BC16BC8AEF87BD92E08A
:1001900094BD83E085BD90936E0078943283218373
:1001A0000895E0910001F09101012381348145819E
:1001B000568187819085A185B285281739074A071E
:1001C0005B0799F387819085A185B28583839483AA
:1001D000A583B6830895E0910001F0910101878520
:1001E0000895E0910001F091010187858F3318F4A3
:1001F00087858F5F87870895E0910001F091010165
:100200008785882319F08785815087870895E09135
:100210000001F091010117860895E0910001F0912D
:1002200001012781308541855285B901CA010895B0
:10023000E0910001F09101012385348545855685C3
:10024000B901CA010895E0910001F09101016783AD
:100250007087818792870895E0910001F0910101F4
:100260006387748785879687089508950F931F93F2
:100270008C010E944D00C8010E9480001F910F91C7
:1002800008950895CF93DF93C0910001D0910101AB
:100290008F819885A985BA850196A11DB11D8F838F
:1002A0009887A987BA876F81788589859A852981FA
:1002B0003A8140E050E00E949B0161157105810583
:1002C000910591F48B859C85AD85BE850196A11D18
:1002D000B11D8B879C87AD87BE878F85882321F4CE
:1002E0001F82188619861A86DF91CF9108951F9272
:1002F0000F920FB60F9211242F933F934F935F935A
:100300006F937F938F939F93AF93BF93EF93FF93DD
:100310000E944201FF91EF91BF91AF919F918F9108
:100320007F916F915F914F913F912F910F900FBEF1
:100330000F901F901895A1E21A2EAA1BBB1BFD015E
:100340000DC0AA1FBB1FEE1FFF1FA217B307E407B4
:10035000F50720F0A21BB30BE40BF50B661F771F0C
:10036000881F991F1A9469F76095709580959095EC
:0E0370009B01AC01BD01CF010895F894FFCFB1
:00000001FF
