:100000000C9434000C9451000C9451000C94510049
:100010000C9451000C9451000C9451000C9451001C
:100020000C9451000C9451000C9451000C9451000C
:100030000C9451000C9451000C9451000C945100FC
:100040000C9451000C9451000C9451000C945100EC
:100050000C9451000C9451000C9451000C945100DC
:100060000C9451000C94510011241FBECFEFD8E026
:10007000DEBFCDBF11E0A0E0B1E0EEEFF6E002C0E0
:1000800005900D92AA33B107D9F711E0AAE3B1E0C8
:1000900001C01D92A736B107E1F70E9453000C94EE
:1000A0007D030C940000CF93DF930E945003C8ECB3
:1000B000D0E080E091E04DE750E060E070E00E9429
:1000C000D70188EE93E0FE013197F1F70197D9F758
:1000D000F0CF10923A0110923B0181E080933C01F5
:1000E00080E090E0FC01E65CFE4F138201968032D6
:1000F0009105C1F710925D01EEE5F1E0119281E00A
:10010000E636F807D9F71082089514BC15BC109292
:100110006E008FEF85BB08958FEF85BBEEE6F0E0B4
:10012000108288EC86BD84E085BD81E085BB80833C
:10013000089510926E0015BC16BC0895519A599AF4
:100140000895599A089559980895813011F4599A4B
:1001500008955998089589B190E025E0969587957E
:100160002A95E1F781700895AC0116BC80910801D1
:1001700085BD20910A0130910B0186B590E0821770
:100180009307D8F316BC86B590E084179507D8F38B
:1001900015BC089580910C0190910D010E94B4004E
:1001A0000895DF92EF92FF920F931F93DF93CF9307
:1001B000CDB7DEB72A970FB6F894DEBF0FBECDBF1E
:1001C000FE0131969AE0DF011D929A95E9F791E0E0
:1001D0009A87FE01329620E030E0482F50E061E03F
:1001E000CA01022E02C0959587950A94E2F780FF16
:1001F00002C0608301C010822F5F3F4F31962830CC
:10020000310571F7DFB6F8948E010F5F1F4F3BE0A9
:10021000E32EF12CEC0EFD1EF8018081813011F4EB
:10022000599A01C059980E94CA000F5F1F4F0E15BE
:100230001F0591F7DFBE2A960FB6F894DEBF0FBEFA
:10024000CDBFCF91DF911F910F91FF90EF90DF9085
:1002500008958DE00E94D1008AE00E94D1000895A7
:1002600080E20E94D10008958CE20E94D10008959E
:100270001F93CF93DF93EC0110E003C00E94D100E5
:100280001F5FFE01E10FF11D80818823B9F7DF9127
:10029000CF911F9108950E9438010E94290108956D
:1002A0000E9438010E94300108950E9438010E9486
:1002B00034010895BF92CF92DF92EF92FF920F9395
:1002C0001F936B017C01611571058105910531F466
:1002D00010925E0181E08093660123C0BB240B2D48
:1002E00010E0065C1E4FC701B6012AE030E040E096
:1002F00050E00E945B03F80164A3C701B6012AE045
:1003000030E040E050E00E945B03C901DA016C017B
:100310007D01B394C114D104E104F10401F7B0925A
:1003200066011F910F91FF90EF90DF90CF90BF90EB
:1003300008951F931091660109C01150E12FF0E05C
:10034000E65CFE4F84A1805D0E94D1001123A9F7D5
:100350001F910895EF92FF920F931F937B018C01E1
:1003600097FF0BC08DE20E94D10010950095F0948C
:10037000E094E11CF11C011D111DC801B7010E9490
:100380005A010E9499011F910F91FF90EF900895DB
:100390000E94AA010E94290108950E94AA010E94B8
:1003A000300108950E94AA010E9434010895EF923D
:1003B000FF920F931F937A018B010E9438010E94D4
:1003C0003001C801B7010E94C8011F910F91FF9031
:1003D000EF900895EF92FF920F931F937A018B0194
:1003E0000E9438010E943001C801B7010E94CD016E
:1003F0001F910F91FF90EF900895EF92FF920F934E
:100400001F937A018B010E9438010E943001C801BC
:10041000B7010E94D2011F910F91FF90EF900895B4
:10042000BF92CF92DF92EF92FF920F931F93CF93E1
:10043000DF937B018C018FEFE816F10401051105B4
:1004400009F030F4C8E0D0E062E0C62ED12C14C030
:1004500080E0E81680E0F80681E0080780E01807F1
:1004600030F0C0E2D0E058E0C52ED12C05C0C0E18C
:10047000D0E044E0C42ED12C80E30E94D10088E774
:100480000E94D100BB2417C02497D801C7010C2EAD
:1004900004C0B695A795979587950A94D2F790E0F2
:1004A0008F7090708A30910510F0C79601C0C09689
:1004B0000E94D100B3948B2D90E08C159D0520F304
:1004C000DF91CF911F910F91FF90EF90DF90CF9030
:1004D000BF9008950E9410020E94290108950E9471
:1004E00010020E94300108950E9410020E943401FF
:1004F0000895EF92FF920F931F937A018B010E9450
:1005000038010E943001C801B7010E946A021F91A0
:100510000F91FF90EF900895EF92FF920F931F932A
:100520007A018B010E9438010E943001C801B70195
:100530000E946F021F910F91FF90EF900895EF922C
:10054000FF920F931F937A018B010E9438010E9442
:100550003001C801B7010E9474021F910F91FF90F2
:10056000EF900895AF92BF92CF92DF92EF92FF92F9
:100570000F931F93CF93DF937B018C016F3F710526
:100580008105910509F018F4F7E0DF2E0DC0603009
:1005900030E0730731E0830730E0930718F0EFE1B4
:1005A000DE2E02C07FE0D72E80E30E94D10082E6DB
:1005B0000E94D100C0E0D0E0CD2CDD24560108948B
:1005C000A11CB11CC6018C1B9D0BA801970104C086
:1005D00056954795379527958A95D2F7DA01C9013F
:1005E00081709070892B11F081E301C080E30E943B
:1005F000D1002196CA15DB0529F7DF91CF911F9114
:100600000F91FF90EF90DF90CF90BF90AF90089543
:100610000E94B2020E94290108950E94B2020E9423
:10062000300108950E94B2020E9434010895EF92B1
:10063000FF920F931F937A018B010E9438010E9451
:100640003001C801B7010E9408031F910F91FF906C
:10065000EF900895EF92FF920F931F937A018B0111
:100660000E9438010E943001C801B7010E940D03A9
:100670001F910F91FF90EF900895EF92FF920F93CB
:100680001F937A018B010E9438010E943001C8013A
:10069000B7010E9412031F910F91FF90EF900895F0
:1006A0000E94690014BC15BC10926E008FEF85BBD0
:1006B000519A599A0895A1E21A2EAA1BBB1BFD015B
:1006C0000DC0AA1FBB1FEE1FFF1FA217B307E40731
:1006D000F50720F0A21BB30BE40BF50B661F771F89
:1006E000881F991F1A9469F7609570958095909569
:0E06F0009B01AC01BD01CF010895F894FFCF2E
:1006FE004144435F56414C00020028006D009C04AB
:10070E004E02020028001F003A02E60001006400BB
:10071E00A000D2001400010064003100D2001400C9
:0A072E0001000A002800D2001400A8
:00000001FF
