:100000000C9434000C9451000C9451000C94510049
:100010000C9451000C9451000C94C70D0C94510099
:100020000C9451000C9451000C9451000C9451000C
:100030000C9451000C9451000C9451000C945100FC
:100040000C947B0D0C9451000C9451000C945100B5
:100050000C9451000C9451000C9451000C945100DC
:100060000C9451000C94510011241FBECFEFD8E026
:10007000DEBFCDBF11E0A0E0B1E0EAE2F0E202C0F5
:1000800005900D92A231B107D9F711E0A2E1B1E0DC
:1000900001C01D92A236B107E1F70E9453000C94F3
:1000A00013100C94000088EE93E00E94230D0E9430
:1000B0006C000E945E000E94360DFBCF80E00E9423
:1000C000FD07882341F00E9491030E94840F80E085
:1000D00091E00E94150F089560E071EE80E090E0DD
:1000E0000E949E0F509A589880E042E350E060E0F2
:1000F00070E00E94F00580E045E050E060E070E0D4
:100100000E94AD0A08958EE191E090931D018093C5
:100110001C0181E090E090931F0180931E011092DA
:1001200023011092220110922F0110922E011092A1
:10013000300110923101109232011092330110926D
:1001400029011092280110922A0110922B0110927D
:100150002C0110922D011092340110922401109262
:10016000250110922601109227011092360110925B
:100170003501109237011092380110923901109216
:100180003A01909321018093200110923B0110923B
:100190003C0110923D0110923E0110923F011092DD
:1001A00040011092410110924201109243011092BD
:1001B000440110924501109246011092470110929D
:1001C00048011092490110924A0110924B0110927D
:1001D0004C0110924D0110924E0110924F0110925D
:1001E000500110925101109252011092530110923D
:1001F000540110925501109256011092570110921D
:1002000058011092590110925A0110925B011092FC
:100210005C0110925D0110925E0110925F011092DC
:1002200060011092610108958F929F92BF92CF92C8
:10023000DF92EF92FF920F931F93DF93CF93CDB78F
:10024000DEB72A970FB6F894DEBF0FBECDBF4C01C4
:10025000DE011196E3E0F1E08AE001900D92815019
:10026000E1F7940140E050E060E07BE187EB90E053
:100270000E94F80FB22EC32ED42E052F7E010894B3
:10028000E11CF11CC901DA019C01AD0110E013C0B1
:10029000F701219131917F0140E050E06B2D7C2DE1
:1002A0008D2D902F0E94F80FC901DA019C01AD013C
:1002B0001F5F153031F02F3F31054105510509F021
:1002C0003CF7812F815014BC15BC10926E0015BAFA
:1002D00017BC18BC16BC17BC882311F481E00FC0F2
:1002E000813011F482E00BC0823011F483E007C04A
:1002F000833011F484E003C0843011F485E085BDBF
:10030000E0911C01F0911D018FEF90E0821B930B97
:10031000958384838481958186BD81E080936E007E
:100320007894918280822A960FB6F894DEBF0FBE31
:10033000CDBFCF91DF911F910F91FF90EF90DF9094
:10034000CF90BF909F908F90089514BC15BC1092D1
:100350006E0087E085BB17BC18BC16BC08959C01D5
:100360008130910511F496E019C08230910511F4A5
:1003700095E014C08430910511F494E00FC08830EA
:10038000910511F493E00AC08031910511F492E0D7
:1003900005C090E02032310509F491E0F89484B76B
:1003A000877F84BF80916000806880936000809127
:1003B00060008861809360009064909360007894FE
:1003C000E0911C01F0911D01338322830895F8947C
:1003D00084B7877F84BFE0E6F0E080818068808317
:1003E000808188618083108278940895F8940895BC
:1003F00078940895E0911C01F0911D0120893189C4
:10040000C9010895E0911C01F0911D0122893389F1
:1004100044895589B901CA010895E0911C01F09100
:100420001D0122853385C9010895E0911C01F091D9
:100430001D012485358546855785B901CA01089572
:10044000E0911C01F0911D01938782870895E0914E
:100450001C01F0911D016487758786879787089531
:10046000E0911C01F0911D012089318980899189D9
:1004700028173907C9F7C9010895E0911C01F091C7
:100480001D01228933894489558982899389A489E8
:10049000B589281739074A075B0799F7B901CA01D7
:1004A0000895E0911C01F0911D0186898823E1F4F3
:1004B000208931898089918928173907C9F73387BD
:1004C0002287228933894489558982899389A4891D
:1004D000B589281739074A075B0799F724873587B5
:1004E0004687578781E0868B08958F929F92AF92BF
:1004F000BF92CF92DF92EF92FF920F931F93CF9311
:10050000DF935C01C0911C01D0911D01C888D9887E
:1005100088899989C816D906C9F7EA88FB880C89A1
:100520001D898A899B89AC89BD89E816F9060A0765
:100530001B0799F72881398140E050E0C801B701D5
:100540000E94B70F760100E010E0950140E050E016
:10055000E20EF31E041F151FE60EF71E081F191FDB
:1005600020E030E040E050E025C088889988888904
:10057000998988169906C9F7AA88BB88CC88DD882E
:100580008A899B89AC89BD89A816B906CA06DB068B
:1005900099F72881398140E050E0C601B5010E94F9
:1005A000B70F9B01AC01C401A0E0B0E0280F391FD8
:1005B0004A1F5B1F2E153F0540075107B4F2DF911C
:1005C000CF911F910F91FF90EF90DF90CF90BF9050
:1005D000AF909F908F900895CF93DF93EC01E091BF
:1005E0001C01F0911D0160897189808991896817CA
:1005F0007907C9F707C0608971898089918968176F
:100600007907C9F72681378140855185CB01A0E064
:10061000B0E082179307A407B50769F720893189ED
:100620008089918928173907C9F7C901A0E0B0E08E
:1006300086839783A087B18726813781408551853E
:10064000CE01A0E0B0E0820F931FA41FB51F8683E8
:100650009783A087B1872681378140855185808126
:100660009181A0E0B0E0281739074A075B0784F0C2
:10067000268137814085518580819181A0E0B0E05D
:10068000281B390B4A0B5B0B268337834087518726
:10069000DF91CF910895EF92FF920F931F93BC01CA
:1006A000E0911C01F0911D0122893389448955890B
:1006B00082899389A489B589281739074A075B0776
:1006C00099F77B0100E010E0E20EF31E041F151FF6
:1006D00020E030E040E050E00DC0228933894489B9
:1006E000558982899389A489B589281739074A07CA
:1006F0005B0799F72E153F054007510774F31F91CB
:100700000F91FF90EF900895E0911C01F0911D0171
:100710002789308D8789908D28173907C9F7C90136
:100720000895E0911C01F0911D01218D328D438DC2
:10073000548D818D928DA38DB48D281739074A076A
:100740005B0799F7B901CA010895E0911C01F09186
:100750001D01908F878B0895E0911C01F0911D0180
:10076000618F728F838F948F0895EF92FF920F9312
:100770001F93BC01F894E0911C01F0911D01218DA3
:10078000328D438D548D818D928DA38DB48D28171C
:1007900039074A075B0799F778947B0100E010E07E
:1007A000E20EF31E041F151F20E030E040E050E091
:1007B0000FC0F894218D328D438D548D818D928D93
:1007C000A38DB48D281739074A075B0799F77894EA
:1007D0002E153F054007510764F31F910F91FF90BD
:1007E000EF900895E0911C01F0911D0190E025E14A
:1007F00030E0AC01429FC001439F900D529F900D8D
:100800001124E80FF91F868D86958F700895E09169
:100810001C01F0911D0190E025E130E0AC01429F08
:10082000C001439F900D529F900D1124E80FF91FB6
:100830006F70660F868D817E862B868F0895E0917E
:100840001C01F0911D0190E025E130E0AC01429FD8
:10085000C001439F900D529F900D1124E80FF91F86
:10086000DF01979667A111967C91119712968C9152
:10087000129713969C910895E0911C01F0911D012F
:1008800090E025E130E0DC01A29FC001A39F900D24
:10089000B29F900D1124E80FF91F47A350A761A73D
:1008A00072A70895E0911C01F0911D0190E025E1EF
:1008B00030E0AC01429FC001439F900D529F900DCC
:1008C0001124E80FF91FDF015F96678D11967C9167
:1008D000119712968C91129713969C910895E0911E
:1008E0001C01F0911D0190E025E130E0AC01429F38
:1008F000C001439F900D529F900D1124E80FF91FE6
:10090000DF01939663A111967C91119712968C91B9
:10091000129713969C910895E0911C01F0911D018E
:1009200090E025E130E0DC01A29FC001A39F900D83
:10093000B29F900D1124E80FF91F478F50A361A3B8
:1009400072A30895E0911C01F0911D0190E025E152
:1009500030E0DC01A29FC001A39F900DB29F900DDB
:100960001124E80FF91F43A354A365A376A30895A8
:10097000E0911C01F0911D0190E025E130E0AC0117
:10098000429FC001439F900D529F900D1124E80F8C
:10099000F91FDF019B9663A511967C911197129622
:1009A0008C91129713969C910895E0911C01F091FF
:1009B0001D01282F30E077FF11C085E190E0AC01E8
:1009C000249FC001259F900D349F900D1124E80FA6
:1009D000F91F13A614A615A616A6089585E190E0A2
:1009E000DC012A9FC0012B9F900D3A9F900D11248E
:1009F000E80FF91F43A754A765A776A70895E091CC
:100A00001C01F0911D0190E025E130E0AC01429F16
:100A1000C001439F900D529F900D1124E80FF91FC4
:100A2000868D81700895E0911C01F0911D0190E088
:100A300025E130E0AC01429FC001439F900D529FE1
:100A4000900D1124E80FF91F868D8160868F08951F
:100A5000E0911C01F0911D0190E025E130E0AC0136
:100A6000429FC001439F900D529F900D1124E80FAB
:100A7000F91F868D8E7F868F0895E0911C01F0917D
:100A80001D0190E025E130E0AC01429FC001439F91
:100A9000900D529F900D1124E80FF91FDF019F96D2
:100AA00067A511967C91119712968C9112971396C7
:100AB0009C910895E0911C01F0911D0190E025E1C9
:100AC00030E0DC01A29FC001A39F900DB29F900D6A
:100AD0001124E80FF91F47A750AB61AB72AB089523
:100AE000E0911C01F0911D0190E025E130E0AC01A6
:100AF000429FC001439F900D529F900D1124E80F1B
:100B0000F91F13A214A215A216A2178E10A211A2E9
:100B100012A217A210A611A612A6868D807E868F1D
:100B200017A610AA11AA12AA0895E0911C01F0912B
:100B30001D0190E025E130E0AC01429FC001439FE0
:100B4000900D529F900D1124E80FF91F13A214A2CB
:100B500015A216A2178E10A211A212A217A210A6F9
:100B600011A612A6868D807E868F17A610AA11AABE
:100B700012AA0895E0911C01F0911D0190E025E179
:100B800030E0AC01429FC001439F900D529F900DF9
:100B90001124E80FF91F968D892F86958F7081306B
:100BA00019F0917E9260968F0895E0911C01F0916A
:100BB0001D0190E025E130E0AC01429FC001439F60
:100BC000900D529F900D1124E80FF91F968D892FDB
:100BD00086958F70823019F0917E9460968F08957B
:100BE0002F923F924F925F926F927F928F929F923D
:100BF000AF92BF92CF92DF92EF92FF920F931F932B
:100C0000DF93CF93CDB7DEB728970FB6F894DEBF4A
:100C10000FBECDBF1A012B0120911C0130911D0187
:100C200038872F83A82FB0E0BA83A98385E190E0AD
:100C3000A89FF001A99FF00DB89FF00D1124E20FBD
:100C4000F31F868D86958F7009F080C047A350A74B
:100C500061A772A7F901C284D384D9011C968D9132
:100C60009D910D90BC91A02D8B839C83AD83BE8301
:100C70002081318140E050E0C201B1010E94F80FB3
:100C80007B018C01EF81F8852081318140E050E0CB
:100C9000C201B1010E94F80FC901DA013C014D0106
:100CA0005601CC24DD24AE0CBF1CC01ED11EAF816A
:100CB000B8858D919C91A0E0B0E0A816B906CA064F
:100CC000DB06A4F00894611C711C811C911CEF814F
:100CD000F8852081318140E050E0C601B5010E94D5
:100CE000F80FAC01CB01DA015C016D0185E190E008
:100CF00029813A81289FA001299F500D389F500DCE
:100D000011248F819885480F591F8B819C81AD815B
:100D1000BE81860D971DA81DB91DFA01878F90A36E
:100D2000A1A3B2A3DA019396AD92BD92CD92DC92CB
:100D3000969727A630AA41AA52AA968D892F869502
:100D40008F70813019F0917E9260968F28960FB641
:100D5000F894DEBF0FBECDBFCF91DF911F910F91F1
:100D6000FF90EF90DF90CF90BF90AF909F908F90CB
:100D70007F906F905F904F903F902F900895CF920B
:100D8000DF92EF92FF920F931F937A018B01E09114
:100D90001C01F0911D01482F50E025E130E0429FF9
:100DA0006001439FD00C529FD00C1124EC0DFD1D0F
:100DB00013A214A215A216A2178E10A211A212A29B
:100DC00017A210A611A612A6968D907E968F17A632
:100DD00010AA11AA12AAB801A7010E94F005E09179
:100DE0001C01F0911D01EC0DFD1DE7A6F0AA01AB61
:100DF00012AB1F910F91FF90EF90DF90CF9008956D
:100E00002F923F924F925F926F927F928F929F921A
:100E1000AF92BF92CF92DF92EF92FF920F931F9308
:100E2000CF93DF93E0911C01F0911D0190E025E14B
:100E300030E0829FE001839FD00D929FD00D11245E
:100E4000CE0FDF1F8E8D86958F70813009F048C0E0
:100E5000E284F38400E010E084859585A685B7855B
:100E60002F8D38A149A15AA1281B390B4A0B5B0BC6
:100E70006081718180E090E00E94B70F6E197F0958
:100E8000800B910B2BA13CA14DA15EA1620F731FA2
:100E9000841F951F6FA378A789A79AA71616170610
:100EA000180619060CF44CC08FA598A9A9A9BAA9CF
:100EB0001BA21CA21DA21EA21F8E18A219A21AA25A
:100EC0001FA218A619A61AA62E8D2E7F2E8F8FA7C9
:100ED00098ABA9ABBAAB8E8D817E88608E8F30C007
:100EE000823071F562847384E484F5840685178505
:100EF0002FA038A449A45AA420813181A080B180B8
:100F000040E050E0C201B1010E94F80FE20EF31E72
:100F1000041F151FEF8EF8A209A31AA3CC24DD2409
:100F2000C201B101A60195010E94F80F88249924FD
:100F3000660E771E881E991E6BA27CA28DA29EA2B1
:100F4000DF91CF911F910F91FF90EF90DF90CF90A5
:100F5000BF90AF909F908F907F906F905F904F90D9
:100F60003F902F90089540E0E0911C01F0911D0109
:100F700090E025E130E0BC01629FC001639F900DCD
:100F8000729F900D1124E80FF91F868D86958F7042
:100F9000843009F441E0842F0895E0911C01F09120
:100FA0001D0190E025E130E0AC01429FC001439F6C
:100FB000900D529F900D1124E80FF91F868D869594
:100FC0008F70843011F080E0089513A214A215A24E
:100FD00016A2178E10A211A212A217A210A611A675
:100FE00012A6868D807E868F17A610AA11AA12AA35
:100FF00081E008950E94CD070895A82FE0911C017B
:10100000F0911D01282F30E085E190E0AC01249F94
:10101000C001259F900D349F900D1124E80FF91FFA
:10102000868D86958F70843011F080E0089547A5F5
:1010300050A961A972A913A214A215A216A2178E13
:1010400010A211A212A217A210A611A612A6868D96
:10105000807E868F17A610AA11AA12AA8A2F0E9434
:10106000F00581E00895CF93DF93C0911C01D091EA
:101070001D01282F30E085E190E0289FF001299F95
:10108000F00D389FF00D1124EC0FFD1F868D80FDB3
:1010900021C087A190A5A1A5B2A5841B950BA60B85
:1010A000B70BB7FF05C013A614A615A616A604C055
:1010B00083A794A7A5A7B6A785E190E0289FF00194
:1010C000299FF00D389FF00D1124EC0FFD1F868D28
:1010D0008160868FDF91CF910895E0911C01F0919E
:1010E0001D0190E025E130E0AC01429FC001439F2B
:1010F000900D529F900D1124E80FF91F27A130A5E4
:1011000041A552A583A594A5A5A5B6A5281B390B75
:101110004A0B5B0B57FF04C020E030E040E050E09A
:10112000B901CA010895CF93DF93C0911C01D091FA
:101130001D01682F70E085E190E0689FF001699FD4
:10114000F00D789FF00D1124EC0FFD1F27A130A5A5
:1011500041A552A583A594A5A5A5B6A5281B390B25
:101160004A0B5B0B57FD07C02115310541055105A1
:1011700011F020E012C020E085E190E0AC01649F16
:10118000C001659F900D749F900D1124C80FD91F49
:101190008E8D80FF21E081E02827822FDF91CF9183
:1011A00008951F93182F0E949308813011F080E05A
:1011B00016C0E0911C01F0911D01212F30E085E166
:1011C00090E0AC01249FC001259F900D349F900DAD
:1011D0001124E80FF91F868D8E7F868F81E01F9185
:1011E000089580E00E9400070895E0911C01F091AD
:1011F0001D0113A214A215A216A2178E10A211A2ED
:1012000012A217A210A611A612A6868D807E868F26
:1012100017A610AA11AA12AA0895E0911C01F09134
:101220001D0190E09C0144E0220F331F4A95E1F735
:10123000280F391FE20FF31F83A986958F70089539
:10124000E0911C01F0911D0190E09C0154E0220FFF
:10125000331F5A95E1F7280F391FE20FF31F6F7004
:10126000660F83A9817E862B83AB0895E0911C01D4
:10127000F0911D0190E09C0164E0220F331F6A95FC
:10128000E1F7280F391FE20FF31FDF01D89660AD99
:1012900011967C91119712968C91129713969C91AE
:1012A0000895E0911C01F0911D0190E09C01A4E0E3
:1012B000220F331FAA95E1F7280F391FE20FF31F02
:1012C00040AF51AF62AF73AF0895E0911C01F09150
:1012D0001D0190E09C01B4E0220F331FBA95E1F7A5
:1012E000280F391FE20FF31FDF01D49664A911966E
:1012F0007C91119712968C91129713969C91089558
:10130000E0911C01F0911D0190E09C01A4E0220FEE
:10131000331FAA95E1F7280F391FE20FF31F44ABE3
:1013200055AB66AB77AB0895E0911C01F0911D01C0
:1013300090E09C01B4E0220F331FBA95E1F7280F2B
:10134000391FE20FF31FDF01DC9664AD11967C912B
:10135000119712968C91129713969C910895E09193
:101360001C01F0911D01282F30E077FF0FC0C9014B
:10137000B4E0880F991FBA95E1F7820F931FE80F29
:10138000F91F14AE15AE16AE17AE0895C901A4E04C
:10139000880F991FAA95E1F7820F931FE80FF91F95
:1013A00044AF55AF66AF77AF0895E0911C01F0915F
:1013B0001D0190E09C0144E0220F331F4A95E1F7A4
:1013C000280F391FE20FF31F83A981700895E09160
:1013D0001C01F0911D0190E09C0154E0220F331F8D
:1013E0005A95E1F7280F391FE20FF31F83A9816097
:1013F00083AB0895E0911C01F0911D0190E09C01E8
:1014000064E0220F331F6A95E1F7280F391FE20FBE
:10141000F31F83A98E7F83AB0895E0911C01F091A7
:101420001D0190E09C0174E0220F331F7A95E1F7D3
:10143000280F391FE20FF31FE05CFF4F60817181BD
:10144000828193810895E0911C01F0911D0190E04B
:101450009C01A4E0220F331FAA95E1F7280F391F42
:10146000E20FF31FE05CFF4F40835183628373837D
:101470000895E0911C01F0911D0190E09C01B4E001
:10148000220F331FBA95E1F7280F391FE20FF31F20
:1014900014AA15AA16AA17AA10AE11AE12AE13AE50
:1014A00083A9807E83ABE05CFF4F108211821282A1
:1014B00013820895E0911C01F0911D0190E09C01C0
:1014C00044E0220F331F4A95E1F7280F391FE20F3E
:1014D000F31F14AA15AA16AA17AA10AE11AE12AEBF
:1014E00013AE83A9807E83ABE05CFF4F1082118234
:1014F000128213820895E0911C01F0911D0190E089
:101500009C0154E0220F331F5A95E1F7280F391F31
:10151000E20FF31F93A9892F86958F70813019F000
:10152000917E926093AB0895E0911C01F0911D01B2
:1015300090E09C0164E0220F331F6A95E1F7280FC9
:10154000391FE20FF31F93A9892F86958F70823080
:1015500019F0917E946093AB0895EF92FF920F93F0
:101560001F93CF93DF937A018B01C0911C01D0911F
:101570001D01682F70E0FB01B4E0EE0FFF1FBA956C
:10158000E1F7E60FF71FEC0FFD1F83A986958F701B
:10159000A1F5E0AEF1AE02AF13AF298D3A8D4B8DC0
:1015A0005C8D898D9A8DAB8DBC8D281739074A07C4
:1015B0005B0799F7FB01A4E0EE0FFF1FAA95E1F787
:1015C000E60FF71FEC0FFD1F2E0D3F1D401F511F93
:1015D00024AB35AB46AB57ABE05CFF4FE082F1820A
:1015E00002831383E054F04093A9892F86958F706E
:1015F000813019F0917E926093ABDF91CF911F9172
:101600000F91FF90EF900895CF92DF92EF92FF92AB
:101610000F931F936A017B01E0911C01F0911D0162
:10162000282F30E0890194E0000F111F9A95E1F70F
:10163000020F131FE00FF11F14AA15AA16AA17AA6A
:1016400010AE11AE12AE13AE93A9907E93ABE05CD8
:10165000FF4F10821182128213820E94AD0AE09124
:101660001C01F0911D01E00FF11FE05CFF4FC082F3
:10167000D182E282F3821F910F91FF90EF90DF9071
:10168000CF900895CF92DF92EF92FF920F931F9326
:10169000CF93DF9360911C0170911D01C82EDD2452
:1016A000F601A4E0EE0FFF1FAA95E1F7EC0DFD1D7A
:1016B000E60FF71F83A986958F708130C1F5E4A8E6
:1016C000F5A806A917A9FB01218D328D438D548DF4
:1016D000818D928DA38DB48D281739074A075B073A
:1016E00091F7D801C701821B930BA40BB50BE60140
:1016F000F4E0CC0FDD1FFA95E1F7CC0DDD1DC60F30
:10170000D71F88AF99AFAAAFBBAF181619061A0634
:101710001B06A4F11CAA1DAA1EAA1FAA18AE19AE68
:101720001AAE1BAE8BA9807E88608BAB27C082303F
:1017300029F5E0ACF1AC02AD13ADFB01218D328D8A
:10174000438D548D818D928DA38DB48D28173907CB
:101750004A075B0791F7C601E4E0880F991FEA95F5
:10176000E1F78C0D9D1D680F791F2E0D3F1D401F49
:10177000511FFB0124AB35AB46AB57ABDF91CF918B
:101780001F910F91FF90EF90DF90CF90089540E070
:10179000E0911C01F0911D0190E09C01B4E0220F4A
:1017A000331FBA95E1F7280F391FE20FF31F83A902
:1017B00086958F70843009F441E0842F0895E0917C
:1017C0001C01F0911D0190E09C0144E0220F331FA9
:1017D0004A95E1F7280F391FE20FF31F83A9869579
:1017E0008F70843011F080E0089514AA15AA16AA0B
:1017F00017AA10AE11AE12AE13AE83A9807E83ABD2
:10180000E05CFF4F108211821282138281E0089502
:101810000E94DF0B08951F93182FA0911C01B09117
:101820001D0190E09C0154E0220F331F5A95E1F70F
:10183000280F391FA20FB31FD3968C91D39786958B
:101840008F70843011F080E021C0FD01E05CFF4F1B
:101850004081518162817381D4961D921D921D92A7
:101860001C92D797D8961D921D921D921C92DB97C1
:10187000D3968C91D397807ED3968C9310821182CD
:1018800012821382812F0E94AD0A81E01F91089578
:10189000CF93DF93C0911C01D0911D01282F30E020
:1018A000F901A4E0EE0FFF1FAA95E1F7E20FF31F85
:1018B000EC0FFD1F83A980FD20C080AD91ADA2ADCE
:1018C000B3AD841B950BA60BB70BB7FF05C014AEC9
:1018D00015AE16AE17AE04C084AF95AFA6AFB7AFC6
:1018E000F90164E0EE0FFF1F6A95E1F7E20FF31FC5
:1018F000EC0FFD1F83A9816083ABDF91CF91089529
:10190000E0911C01F0911D0190E09C01B4E0220FD8
:10191000331FBA95E1F7280F391FE20FF31F20ADEF
:1019200031AD42AD53AD84AD95ADA6ADB7AD281B7D
:10193000390B4A0B5B0B57FF04C020E030E040E05E
:1019400050E0B901CA010895CF93DF93C0911C0103
:10195000D0911D01682F70E0FB0144E0EE0FFF1FE6
:101960004A95E1F7E60FF71FEC0FFD1F20AD31ADF3
:1019700042AD53AD84AD95ADA6ADB7AD281B390BC7
:101980004A0B5B0B57FD07C0211531054105510579
:1019900011F020E010C020E0CB0134E0880F991F47
:1019A0003A95E1F7860F971FC80FD91F8BA980FFC3
:1019B00021E081E02827822FDF91CF9108951F93A6
:1019C000182F0E94A40C813011F080E014C0E09127
:1019D0001C01F0911D01212F30E0C90154E0880F56
:1019E000991F5A95E1F7820F931FE80FF91F83A9FA
:1019F0008E7F83AB81E01F91089580E00E94420BAF
:101A00000895E0911C01F0911D0114AA15AA16AACF
:101A100017AA10AE11AE12AE13AE83A9807E83ABAF
:101A2000E05CFF4F10821182128213820895E091D0
:101A30001C01F0911D01858D08950E94F5080895FF
:101A40000E94010D08950F931F938C010E94830043
:101A5000C8010E9414010E94F50881E090E00E94F4
:101A6000AF010E94010D1F910F910895E0911C019B
:101A7000F0911D01858D83FF0BC00E9451020E94D1
:101A8000F108E0911C01F0911D01858D877F858F04
:101A9000E0911C01F0911D01168A858D85FF09C01A
:101AA0000E94FD0CE0911C01F0911D01858D8F7D40
:101AB000858F0895E0911C01F0911D018089918925
:101AC0000196918B808B858D8860858F20893189E7
:101AD000808191812817390768F0118A108A8289DC
:101AE0009389A489B5890196A11DB11D828B938B21
:101AF000A48BB58B08951F920F920FB60F921124ED
:101B00002F933F934F935F936F937F938F939F9305
:101B1000AF93BF93EF93FF93E0911C01F0911D01F0
:101B20008481958186BD0E945A0DFF91EF91BF91EE
:101B3000AF919F918F917F916F915F914F913F9165
:101B40002F910F900FBE0F901F901895E0911C01E0
:101B5000F0911D018789908D0196908F878B278941
:101B6000308D828193812817390768F0108E178A8B
:101B7000818D928DA38DB48D0196A11DB11D818F94
:101B8000928FA38FB48F858D8062858F08951F9269
:101B90000F920FB60F9211242F933F934F935F93A1
:101BA0006F937F938F939F93AF93BF93EF93FF9325
:101BB000E0E6F0E08081806480830E94A60DFF91C2
:101BC000EF91BF91AF919F918F917F916F915F91B5
:101BD0004F913F912F910F900FBE0F901F9018952E
:101BE00010921201E3E1F1E0119281E0EB31F8078C
:101BF000D9F710820895089508959B01AC0160E61D
:101C000073EE86E190E00E94D60F215030404040B4
:101C10005040E0ECF0E0808182608083BB27A52FFC
:101C2000942F832F8093C5002093C4000895E1EC86
:101C3000F0E080818860808386E08093C200089510
:101C4000E1ECF0E080818061808386E08093C200D7
:101C50000895E1ECF0E080818068808378940895B5
:101C6000982F8091C00085FFFCCF9093C600089507
:101C7000DF93CF930F92CDB7DEB719828091C0006A
:101C800084FF05C08091C600898381E008C08091EF
:101C9000C00083FF07C08091C600898382E08093E3
:101CA000120105C08091C6008983109212018981BA
:101CB0000F90CF91DF9108951F93CF93DF93AB01E6
:101CC000BC014F3F51056105710509F028F4E8E0BA
:101CD000F0E0C2E0D0E011C0403080E0580781E081
:101CE000680780E0780728F0E0E2F0E0C8E0D0E0A4
:101CF00004C0E0E1F0E0C4E0D0E08091C00085FFE6
:101D0000FCCF80E38093C6008091C00085FFFCCFAC
:101D100088E78093C60010E01FC03497DB01CA013A
:101D20000E2E04C0B695A795979587950A94D2F77D
:101D300090E08F7090708A30910520F09C01295CB2
:101D40003F4F03C09C01205D3F4F8091C00085FF45
:101D5000FCCF2093C6001F5F812F90E08C179D075A
:101D6000E0F2DF91CF911F910895CF92DF92EF9231
:101D7000FF920F931F93CF93DF93AB01BC014F3FB3
:101D800051056105710509F010F497E00BC0403072
:101D900080E0580781E0680780E0780710F09FE155
:101DA00001C09FE08091C00085FFFCCF80E380935D
:101DB000C6008091C00085FFFCCF82E68093C600FC
:101DC00020E030E0E92FF0E000E311E3EF0121969D
:101DD000CF01821B930B6A017B0104C0F694E79448
:101DE000D794C7948A95D2F7D701C60181709070B5
:101DF000892B39F08091C00085FFFCCF1093C6007D
:101E000006C08091C00085FFFCCF0093C6002F5F05
:101E10003F4F2C173D07E1F6DF91CF911F910F91B6
:101E2000FF90EF90DF90CF900895AC0120E007C0C5
:101E30008091C00085FFFCCFE093C6002F5FFA01C0
:101E4000E20FF11DE081EE2399F708958DE091E016
:101E50000E94150F089580E191E00E94150F0895EA
:101E6000BF92CF92DF92EF92FF920F931F936B017D
:101E70007C01611571058105910531F41092130102
:101E800081E080931B0123C0BB240B2D10E00E5E6C
:101E90001E4FC701B6012AE030E040E050E00E944A
:101EA000D60FF8016183C701B6012AE030E040E0B7
:101EB00050E00E94D60FC901DA016C017D01B39494
:101EC000C114D104E104F10401F7B0921B011F9188
:101ED0000F91FF90EF90DF90CF90BF900895E09129
:101EE0001B010FC02E2F2150E22FF0E0EE5EFE4FBF
:101EF00091818091C00085FFFCCF905D9093C600DA
:101F0000E22FEE2379F708959B01AC0197FF0EC0F5
:101F10008091C00085FFFCCF8DE28093C600509574
:101F20004095309521953F4F4F4F5F4FCA01B90102
:101F30000E94300F0E946F0F08950895EF92FF9254
:101F40000F931F937B018C010E94F00DC801B70114
:101F50000E94FD0DE1ECF0E080818860808386E0E6
:101F60008093C2001F910F91FF90EF900895629FA0
:101F7000D001739FF001829FE00DF11D649FE00D81
:101F8000F11D929FF00D839FF00D749FF00D659FE2
:101F9000F00D9927729FB00DE11DF91F639FB00DE1
:101FA000E11DF91FBD01CF0111240895A1E21A2EF0
:101FB000AA1BBB1BFD010DC0AA1FBB1FEE1FFF1FED
:101FC000A217B307E407F50720F0A21BB30BE40B3D
:101FD000F50B661F771F881F991F1A9469F7609584
:101FE0007095809590959B01AC01BD01CF0108953E
:101FF00097FB092E05260ED057FD04D0D7DF0AD057
:10200000001C38F450954095309521953F4F4F4F27
:102010005F4F0895F6F790958095709561957F4F85
:0A2020008F4F9F4F0895F894FFCFF3
:10202A000D0A00010008004000000100040D0A002A
:02203A00200084
:00000001FF
