:100000000C9434000C9451000C9451000C94510049
:100010000C9451000C9451000C9451000C9451001C
:100020000C9451000C9451000C9451000C9451000C
:100030000C9451000C9451000C9451000C945100FC
:100040000C94E90D0C9451000C94A8020C945100EE
:100050000C9451000C9451000C9451000C945100DC
:100060000C9451000C94510011241FBECFEFD8E026
:10007000DEBFCDBF11E0A0E0B1E0E2E0FDE102C0F3
:1000800005900D92AC31B107D9F711E0ACE1B1E0C8
:1000900001C01D92AB3FB107E1F70E9453000C94E1
:1000A0007F0E0C940000CF93DF9360E07BE480E050
:1000B00090E00E94CC0288EE93E00E94B30D8AB1DA
:1000C00080668AB98BB18F798BB9CCE2D1E080E0C0
:1000D00091E00E94CA010E947B040E9439028AE0DA
:1000E00091E00E94CA010E947304A0E0B0E0BC014C
:1000F000CD010E9439020E94DB0188EE93E0FE01EF
:100100003197F1F70197D9F75E9A0E94C00D5E987A
:10011000DECF10921C01EDE1F1E0119281E0E532B9
:10012000F807D9F71082118280E290E093A382A3AE
:1001300015A214A220E004C0E45EFE4F13862F5FD8
:100140008091470190914801E22FF0E0E817F9070C
:1001500098F30895089508959B01AC0160E673EE4D
:1001600086E190E00E94420E2150304040405040D5
:10017000E0ECF0E0808182608083BB27A52F942F84
:10018000832F8093C5002093C4000895E1ECF0E034
:1001900080818860808386E08093C2000895E1ECCE
:1001A000F0E080818061808386E08093C2000895C2
:1001B000E1ECF0E080818068808378940895982F46
:1001C0008091C00085FFFCCF9093C6000895DF9317
:1001D000CF930F92CDB7DEB719828091C00084FF14
:1001E00005C08091C600898381E008C08091C0006D
:1001F00083FF07C08091C600898382E080931C0141
:1002000005C08091C600898310921C0189810F90DE
:10021000CF91DF91089580912601089510922601D3
:1002200008951F93CF93DF93AB01BC014F3F51055E
:100230006105710509F028F4E8E0F0E0C2E0D0E0E3
:1002400011C0403080E0580781E0680780E07807FF
:1002500028F0E0E2F0E0C8E0D0E004C0E0E1F0E047
:10026000C4E0D0E08091C00085FFFCCF80E38093A4
:10027000C6008091C00085FFFCCF88E78093C60050
:1002800010E01FC03497DB01CA010E2E04C0B695E2
:10029000A795979587950A94D2F790E08F70907004
:1002A0008A30910520F09C01295C3F4F03C09C01DE
:1002B000205D3F4F8091C00085FFFCCF2093C6009A
:1002C0001F5F812F90E08C179D07E0F2DF91CF91A7
:1002D0001F910895CF92DF92EF92FF920F931F9399
:1002E000CF93DF93AB01BC014F3F51056105710511
:1002F00009F010F497E00BC0403080E0580781E02F
:10030000680780E0780710F09FE101C09FE08091CE
:10031000C00085FFFCCF80E38093C6008091C000C1
:1003200085FFFCCF82E68093C60020E030E0E92F15
:10033000F0E000E311E3EF012196CF01821B930B64
:100340006A017B0104C0F694E794D794C7948A9518
:10035000D2F7D701C60181709070892B39F0809156
:10036000C00085FFFCCF1093C60006C08091C0007E
:1003700085FFFCCF0093C6002F5F3F4F2C173D0732
:10038000E1F6DF91CF911F910F91FF90EF90DF90F9
:10039000CF900895AC0120E007C08091C00085FF98
:1003A000FCCFE093C6002F5FFA01E20FF11DE08160
:1003B000EE2399F708958CE091E00E94CA01089518
:1003C0008FE091E00E94CA010895BF92CF92DF9220
:1003D000EF92FF920F931F936B017C0161157105E2
:1003E0008105910531F410921D0181E08093250172
:1003F00023C0BB240B2D10E0045E1E4FC701B601C5
:100400002AE030E040E050E00E94420EF8016183B3
:10041000C701B6012AE030E040E050E00E94420E01
:10042000C901DA016C017D01B394C114D104E10466
:10043000F10401F7B09225011F910F91FF90EF9009
:10044000DF90CF90BF900895E09125010FC02E2F2F
:100450002150E22FF0E0E45EFE4F91818091C000D8
:1004600085FFFCCF905D9093C600E22FEE2379F7D5
:1004700008959B01AC0197FF0EC08091C00085FFDD
:10048000FCCF8DE28093C600509540953095219524
:100490003F4F4F4F5F4FCA01B9010E94E5010E94D3
:1004A00024020895FC01E45EFE4F838508952091A7
:1004B000490130914A01C901089510921C0120E0C0
:1004C00030E006C0F901E45EFE4F13862F5F3F4F18
:1004D00080914701909148012817390798F31092AD
:1004E0004A01109249010895DF93CF930F92CDB73F
:1004F000DEB719820E94E700898380911C0188235E
:1005000019F5898180932601E0914901F0914A0112
:100510008981E45EFE4F83878091490190914A0171
:10052000019690934A0180934901209149013091AD
:100530004A0180914701909148012817390720F01E
:1005400010924A01109249010F90CF91DF910895C6
:100550001F920F920FB60F9211242F933F934F9338
:100560005F936F937F938F939F93AF93BF93EF931B
:10057000FF930E947402FF91EF91BF91AF919F9101
:100580008F917F916F915F914F913F912F910F903C
:100590000FBE0F901F901895EF92FF920F931F932D
:1005A0007B018C010E948900C801B7010E94AC0048
:1005B000E1ECF0E0808188608083A2ECB0E096E01E
:1005C0009C938081806180839C93808180688083FC
:1005D00078940E945D021F910F91FF90EF90089513
:1005E0008DE491E090934C0180934B0110924D016A
:1005F00080914D01846080934D0180914D01877001
:1006000080934D0181E090E090934F0180934E01E3
:1006100010925001109256011092550110925701FC
:10062000109258011092590110925A0110925101E2
:1006300010925201109253011092540110925B01DA
:1006400010925C0110925D0110925E0110925F01A8
:100650001092600110926101109262011092630188
:1006600010926401ABEBB1E080E090E02DE030E06F
:10067000829FF001839FF00D929FF00D1124E654AC
:10068000FE4F10821D921D921D921C92139714967C
:100690001D921D921D921C92179718961D921D92E5
:1006A0001D921C921B9701961D968530910501F7AE
:1006B000A6E6B1E080E090E0FC0124E0EE0FFF1F31
:1006C0002A95E1F7E80FF91FE35BFE4F108E1D92AC
:1006D0001D921D921C92139714961D921D921D92AD
:1006E0001C92179718961D921D921D921C921B9793
:1006F0001C961D921D921D921C921F970196519659
:1007000085309105C9F608957F928F929F92AF929E
:10071000BF92CF92DF92EF92FF920F931F93DF93DE
:10072000CF93CDB7DEB72A970FB6F894DEBF0FBED2
:10073000CDBF8C01C0904B01D0904C01F60180815F
:1007400080FF31C00130110511F496E019C002306C
:10075000110511F495E014C00430110511F494E072
:100760000FC00830110511F493E00AC000311105E3
:1007700011F492E005C090E00032110509F491E017
:10078000F89484B7877F84BF8091600080688093ED
:100790006000809160008861809360009064909315
:1007A0006000789467C081FD65C082FF63C0DE0190
:1007B0001196E1E1F1E08AE001900D928150E1F7BC
:1007C000980140E050E060E07BE187EB90E00E9420
:1007D000640E722E832E942EE52E5E010894A11CC9
:1007E000B11CC901DA019C01AD01FF2414C0F5015F
:1007F000219131915F0140E050E0672D782D892DE6
:100800009E2D0E94640EC901DA019C01AD01F39492
:10081000F5E0FF1631F02F3F31054105510509F094
:1008200034F78F2D815014BC15BC10926E0015BA90
:1008300017BC18BC16BC17BC882311F481E00FC08C
:10084000813011F482E00BC0823011F483E007C0E4
:10085000833011F484E003C0843011F485E085BD59
:10086000822F8095F6018383838186BD81E080930A
:100870006E007894F601128301832A960FB6F894DD
:10088000DEBF0FBECDBFCF91DF911F910F91FF90C3
:10089000EF90DF90CF90BF90AF909F908F907F9020
:1008A0000895E0914B01F0914C0187890895E09102
:1008B0004B01F0914C0187898F3318F487898F5F42
:1008C000878B0895E0914B01F0914C018789882333
:1008D00019F087898150878B0895E0914B01F09141
:1008E0004C01178A0895E0914B01F0914C0120854D
:1008F0003185C9010895E0914B01F0914C012285A9
:10090000338544855585B901CA010895E0914B01AD
:10091000F0914C01918780870895E0914B01F0910F
:100920004C01628773878487958708959C01E091C5
:100930004B01F0914C0187898F3318F487898F5FC1
:10094000878B80859185A0E0B0E040E050E0280FE3
:10095000391F4A1F5B1F80859185A0E0B0E0821798
:100960009307A407B507BCF38789882319F0878903
:100970008150878B0895BC01E0914B01F0914C01AF
:10098000808591852481358146815781A0E0B0E042
:1009900082179307A407B50799F780859185860F7D
:1009A000971FA0E0B0E084839583A683B78324815A
:1009B00035814681578181819281A0E0B0E028177E
:1009C00039074A075B0784F02481358146815781C6
:1009D00081819281A0E0B0E0281B390B4A0B5B0BB0
:1009E00024833583468357830895EF92FF920F93B4
:1009F0001F93E0914B01F0914C0122853385448592
:100A000055857C0100E010E0E20EF31E041F151F67
:100A100082859385A485B5858E159F05A007B107AE
:100A2000BCF31F910F91FF90EF900895E0914B015F
:100A3000F0914C0116861786108A118A128A138A41
:100A4000148A158A168A0895E0914B01F0914C01A1
:100A50008689882391F482859385A485B5858687C8
:100A60009787A08BB18B80859185A0E0B0E0828BC9
:100A7000938BA48BB58B81E0868B0895EF92FF92C8
:100A80000F931F93CF93DF93C0914B01D0914C01F3
:100A90008E89813021F0EE24FF24870123C02A852E
:100AA0003B854C855D85888599857C0100E010E05B
:100AB0008E859F85A889B989281B390B4A0B5B0B4A
:100AC00069817A8180E090E00E940F0E2A893B893B
:100AD0004C895D89E21AF30A040B150BE60EF71E2A
:100AE000081F191FB701C801DF91CF911F910F9106
:100AF000FF90EF9008950E943E05282FE0914B0152
:100B0000F0914C018689813049F416861786108A47
:100B1000118A128A138A148A158A168A822F0895D6
:100B2000E0914B01F0914C0190E02DE030E0AC0100
:100B3000429FC001439F900D529F900D1124E80FDA
:100B4000F91FE359FF4F808186958F700895E091DA
:100B50004B01F0914C0190E02DE030E0AC01429F60
:100B6000C001439F900D529F900D1124E80FF91F73
:100B7000E359FF4F6F70660F8081817E862B8083E3
:100B80000895E0914B01F0914C0190E02DE030E0B0
:100B9000AC01429FC001439F900D529F900D1124C4
:100BA000E80FF91FEE58FF4F6081718182819381B8
:100BB0000895E0914B01F0914C0190E02DE030E080
:100BC000DC01A29FC001A39F900DB29F900D112444
:100BD000E80FF91FEE58FF4F408351836283738300
:100BE0000895E0914B01F0914C0190E02DE030E050
:100BF000AC01429FC001439F900D529F900D112464
:100C0000E80FF91FE259FF4F608171818281938162
:100C10000895E0914B01F0914C0190E02DE030E01F
:100C2000DC01A29FC001A39F900DB29F900D1124E3
:100C3000E80FF91FE259FF4F4083518362837383AA
:100C40000895E0914B01F0914C0190E02DE030E0EF
:100C5000AC01429FC001439F900D529F900D112403
:100C6000E80FF91FEA58FF4F6081718182819381FB
:100C70000895E0914B01F0914C01282F30E077FF6F
:100C800013C08DE090E0AC01249FC001259F900D22
:100C9000349F900D1124E80FF91FEA58FF4F10827E
:100CA00011821282138208958DE090E0DC012A9F68
:100CB000C0012B9F900D3A9F900D1124E80FF91F52
:100CC000EA58FF4F40835183628373830895E09114
:100CD0004B01F0914C0190E02DE030E0AC01429FDF
:100CE000C001439F900D529F900D1124E80FF91FF2
:100CF000E359FF4F808181700895E0914B01F0919D
:100D00004C0190E02DE030E0AC01429FC001439FD8
:100D1000900D529F900D1124E80FF91FE359FF4FDA
:100D20008081816080830895E0914B01F0914C01B6
:100D300090E02DE030E0AC01429FC001439F900D58
:100D4000529F900D1124E80FF91FE359FF4F808146
:100D50008E7F80830895E0914B01F0914C0190E0EB
:100D60002DE030E0AC01429FC001439F900D529FA7
:100D7000900D1124E80FF91FE259FF4F11921192C3
:100D80001192119210821182128213823597808102
:100D9000807E80830895E0914B01F0914C0190E0BA
:100DA0002DE030E0AC01429FC001439F900D529F67
:100DB000900D1124E80FF91FE259FF4F1192119283
:100DC00011921192108211821282138235978081C2
:100DD000807E80830895E0914B01F0914C0190E07A
:100DE0002DE030E0AC01429FC001439F900D529F27
:100DF000900D1124E80FF91FE359FF4F9081892FBF
:100E000086958F70813019F0917E9260908308955D
:100E1000E0914B01F0914C0190E02DE030E0AC010D
:100E2000429FC001439F900D529F900D1124E80FE7
:100E3000F91FE359FF4F9081892F86958F7082307B
:100E400019F0917E946090830895CF93DF93A091E1
:100E50004B01B0914C0190E02DE030E0829FF00119
:100E6000839FF00D929FF00D1124EA0FFB1FEF01FD
:100E7000C359DF4F888186958F70E9F4EE58FF4F94
:100E800040835183628373831A968D919D910D9057
:100E9000BC91A02D840F951FA61FB71FB293A293DC
:100EA000929382939881892F86958F70813019F063
:100EB000917E92609883DF91CF910895CF93DF93D5
:100EC000E0914B01F0914C01A82FB0E02DE030E013
:100ED000E901AC9F9001AD9F300DBC9F300D1124F6
:100EE000E20FF31FE259FF4F1192119211921192EA
:100EF000108211821282138235979081907E9083A6
:100F00000E942507DF91CF9108950F931F93CF93F0
:100F1000DF93A0914B01B0914C0190E02DE030E0C7
:100F2000829FF001839FF00D929FF00D1124EA0F34
:100F3000FB1F8F0103591F4FE801888186958F7031
:100F4000813069F51A962D913D914D915C911D97D7
:100F5000BF0162597F4FEB0188819981AA81BB81D2
:100F6000821B930BA40BB50BEE58FF4F808391832C
:100F7000A283B383181619061A061B0634F1DB0187
:100F80001D921D921D921C92139710821182128243
:100F90001382E8018881807E8860888316C0823051
:100FA000A1F41A968D919D910D90BC91A02DEE58B3
:100FB000FF4F2081318142815381820F931FA41FF3
:100FC000B51FB293A29392938293DF91CF911F9119
:100FD0000F91089540E0E0914B01F0914C0190E0B9
:100FE0002DE030E0BC01629FC001639F900D729FB5
:100FF000900D1124E80FF91FE359FF4F808186956A
:101000008F70843009F441E0842F0895E0914B0102
:10101000F0914C0190E02DE030E0AC01429FC00126
:10102000439F900D529F900D1124E80FF91FDF018F
:10103000A359BF4F8C9186958F70843011F080E05A
:101040000895E259FF4F119211921192119210825C
:101050001182128213828C91807E8C9381E008959C
:10106000CF93DF93C0914B01D0914C01282F30E0FA
:101070008DE090E0289FF001299FF00D389FF00D42
:101080001124EC0FFD1FE359FF4F8081ED56F04016
:1010900080FD25C0EE58FF4F81919191A191B191B2
:1010A000841B950BA60BB70BB7FF05C010821182EE
:1010B0001282138204C080839183A283B3838DE064
:1010C00090E0289FF001299FF00D389FF00D11242A
:1010D000EC0FFD1FE359FF4F808181608083DF911A
:1010E000CF910895E0914B01F0914C0190E02DE0FB
:1010F00030E0AC01429FC001439F900D529F900D84
:101100001124E80FF91FDF01AA58BF4FEE58FF4F17
:1011100020813181428153818D919D910D90BC91AF
:10112000A02D281B390B4A0B5B0B57FF04C020E096
:1011300030E040E050E0B901CA010895CF93DF9359
:10114000C0914B01D0914C01682F70E08DE090E090
:10115000689FF001699FF00D789FF00D1124EC0F4E
:10116000FD1FDF01AA58BF4FEE58FF4F208131818C
:10117000428153818D919D910D90BC91A02D281B92
:10118000390B4A0B5B0B57FD07C021153105410593
:10119000510511F020E014C020E08DE090E0AC019A
:1011A000649FC001659F900D749F900D1124C80F1E
:1011B000D91FC359DF4F888180FF21E081E02827B4
:1011C000822FDF91CF9108951F93182F0E949E08C0
:1011D000813011F080E018C0E0914B01F0914C019A
:1011E000212F30E08DE090E0AC01249FC001259FCD
:1011F000900D349F900D1124E80FF91FE359FF4F14
:1012000080818E7F808381E01F9108951F9310E07D
:10121000812F0E9485071F5F1530D1F71F91089518
:1012200040914B0150914C01DA01A259BF4F20E08F
:1012300030E06DE070E01D921D921D921C9213979C
:1012400014961D921D921D921C921797269FF001D5
:10125000279FF00D369FF00D1124E40FF51FE35981
:10126000FF4F8081807E80832F5F3F4F1D9625300A
:10127000310509F70895E0914B01F0914C0190E0A0
:101280009C0144E0220F331F4A95E1F7280F391FD4
:10129000E20FF31F808D86958F700895E0914B01CA
:1012A000F0914C0190E09C0154E0220F331F5A95BD
:1012B000E1F7280F391FE20FF31F6F70660F808D63
:1012C000817E862B808F0895E0914B01F0914C0137
:1012D00090E09C0164E0220F331F6A95E1F7280F2C
:1012E000391FE20FF31FDF01919661A111967C91E6
:1012F000119712968C91129713969C910895E091F4
:101300004B01F0914C0190E09C01A4E0220F331FAF
:10131000AA95E1F7280F391FE20FF31F41A352A34B
:1013200063A374A30895E0914B01F0914C0190E008
:101330009C01B4E0220F331FBA95E1F7280F391F43
:10134000E20FF31FDF015996618D11967C91119781
:1013500012968C91129713969C910895E0914B01EF
:10136000F0914C0190E09C0144E0220F331F4A951C
:10137000E1F7280F391FE20FF31FDF015D96658D3E
:1013800011967C91119712968C91129713969C91BD
:101390000895E0914B01F0914C0190E09C01A4E094
:1013A000220F331FAA95E1F7280F391FE20FF31F11
:1013B000418F528F638F748F0895E0914B01F091AC
:1013C0004C0190E09C01B4E0220F331FBA95E1F785
:1013D000280F391FE20FF31F458F568F678F70A3B9
:1013E0000895E0914B01F0914C0190E09C0144E0A4
:1013F000220F331F4A95E1F7280F391FE20FF31F21
:10140000DF01959665A111967C91119712968C91AA
:10141000129713969C910895E0914B01F0914C0125
:10142000282F30E077FF0FC0C901B4E0880F991F63
:10143000BA95E1F7820F931FE80FF91F15A216A2C4
:1014400017A210A60895C901A4E0880F991FAA95B4
:10145000E1F7820F931FE80FF91F45A356A367A377
:1014600070A70895E0914B01F0914C0190E09C0130
:1014700044E0220F331F4A95E1F7280F391FE20F8E
:10148000F31F808D81700895E0914B01F0914C0124
:1014900090E09C0154E0220F331F5A95E1F7280F8A
:1014A000391FE20FF31F808D8160808F0895E091D6
:1014B0004B01F0914C0190E09C0164E0220F331F3E
:1014C0006A95E1F7280F391FE20FF31F808D8E7F99
:1014D000808F0895E0914B01F0914C0190E09C01C8
:1014E00074E0220F331F7A95E1F7280F391FE20FBE
:1014F000F31F158E168E178E10A2118E128E138E5C
:10150000148E11A212A213A214A2808D807E808F4D
:101510000895E0914B01F0914C0190E09C01A4E012
:10152000220F331FAA95E1F7280F391FE20FF31F8F
:10153000158E168E178E10A2118E128E138E148E8B
:1015400011A212A213A214A2808D807E808F089512
:10155000E0914B01F0914C0190E09C01B4E0220F2E
:10156000331FBA95E1F7280F391FE20FF31F908D53
:10157000892F86958F70813019F0917E9260908FBF
:101580000895E0914B01F0914C0190E09C0144E002
:10159000220F331F4A95E1F7280F391FE20FF31F7F
:1015A000908D892F86958F70823019F0917E94608E
:1015B000908F08952F923F924F925F926F927F92F9
:1015C0008F929F92AF92BF92CF92DF92EF92FF9253
:1015D0000F931F93DF93CF9300D000D0CDB7DEB72A
:1015E0004A015B0120914B0130914C013C832B83DC
:1015F000A82FB0E0BA83A983FD0164E0EE0FFF1FBE
:101600006A95E1F7EA0FFB1FE20FF31F808D8695C5
:101610008F7009F078C081A292A2A3A2B4A2F901AE
:10162000C084D184228433844484558421813281CE
:1016300040E050E0C501B4010E94640E7B018C01C2
:10164000AB81BC8111962D913C91129740E050E006
:10165000C501B4010E94640EC901DA013C014D01CB
:101660005601CC24DD24AE0CBF1CC01ED11EEB8164
:10167000FC8181819281A0E0B0E0A816B906CA067B
:10168000DB0694F00894611C711C811C911C218163
:10169000328140E050E0C601B5010E94640EAC0109
:1016A000CB01DA015C016D01E981FA8154E0EE0FB2
:1016B000FF1F5A95E1F729813A81E20FF31F8B81D1
:1016C0009C81E80FF91F260C371C481C591C218EE1
:1016D000328E438E548EDC0118968D919C91199711
:1016E000A0E0B0E08A0D9B1DAC1DBD1D858F968FBF
:1016F000A78FB0A3908D892F86958F70813019F0B8
:10170000917E9260908F0F900F900F900F90CF91DD
:10171000DF911F910F91FF90EF90DF90CF90BF90DE
:10172000AF909F908F907F906F905F904F903F9081
:101730002F900895E0914B01F0914C01A82FB0E05B
:101740009D0194E0220F331F9A95E1F72A0F3B1F6A
:10175000E20FF31F158E168E178E10A2118E128EA9
:10176000138E148E11A212A213A214A2908D907E39
:10177000908F0E94DA0A08952F923F924F925F92C3
:101780006F927F928F929F92AF92BF92CF92DF9291
:10179000EF92FF920F931F93CF93DF9380904B01B3
:1017A00090904C01682E7724E30134E0CC0FDD1FCC
:1017B0003A95E1F7C60DD71DC80DD91D888D8695C0
:1017C0008F70813009F05BC0F401808591855C01E8
:1017D000CC24DD24E284F384048515858D8D9E8DD3
:1017E000AF8DB8A1A81AB90ACA0ADB0A898D9A8DE9
:1017F000AB8DBC8DE81AF90A0A0B1B0B17FF03C04F
:10180000EE24FF248701F4012181328140E050E081
:10181000C801B7010E940F0EFC01A6019501D7FE79
:1018200004C020E030E040E050E0CB01DF01820F57
:10183000931FA41FB51FF30124E0EE0FFF1F2A958D
:10184000E1F7E60DF71DE80DF91D81A392A3A3A30F
:10185000B4A30097A105B10509F042C0158E168EFC
:10186000178E10A2118E128E138E148E11A212A238
:1018700013A214A2808D807E8860808F31C0823058
:1018800079F5F40160847184E284F384048515851C
:1018900029A03AA04BA05CA021813281A180B28016
:1018A00040E050E0C201B1010E94640EE20EF31E5E
:1018B000041F151FE98EFA8E0B8F1C8FCC24DD249C
:1018C000C201B101A60195010E94640E88249924E9
:1018D000660E771E881E991E6D8E7E8E8F8E98A244
:1018E000DF91CF911F910F91FF90EF90DF90CF90FC
:1018F000BF90AF909F908F907F906F905F904F9030
:101900003F902F90089540E0E0914B01F0914C0101
:1019100090E09C0154E0220F331F5A95E1F7280F05
:10192000391FE20FF31F808D86958F70843009F484
:1019300041E0842F0895E0914B01F0914C0190E03B
:101940009C0164E0220F331F6A95E1F7280F391FCD
:10195000E20FF31F808D86958F70843011F080E048
:101960000895158E168E178E10A2118E128E138E5C
:10197000148E11A212A213A214A2808D807E808FD9
:1019800081E00895CF93DF93C0914B01D0914C013A
:10199000282F30E0F901A4E0EE0FFF1FAA95E1F730
:1019A000E20FF31FEC0FFD1F808D80FD20C081A191
:1019B00092A1A3A1B4A1841B950BA60BB70BB7FFF3
:1019C00005C015A216A217A210A604C085A396A34F
:1019D000A7A3B0A7F90174E0EE0FFF1F7A95E1F716
:1019E000E20FF31FEC0FFD1F808D8160808FDF9170
:1019F000CF910895E0914B01F0914C0190E09C0152
:101A0000B4E0220F331FBA95E1F7280F391FE20F18
:101A1000F31F21A132A143A154A185A196A1A7A1A1
:101A2000B0A5281B390B4A0B5B0B57FF04C020E005
:101A300030E040E050E0B901CA010895CF93DF9350
:101A4000C0914B01D0914C01682F70E0FB0144E044
:101A5000EE0FFF1F4A95E1F7E60FF71FEC0FFD1F92
:101A600021A132A143A154A185A196A1A7A1B0A50E
:101A7000281B390B4A0B5B0B57FD07C0211531059D
:101A80004105510511F020E010C020E0CB0134E009
:101A9000880F991F3A95E1F7860F971FC80FD91F36
:101AA000888D80FF21E081E02827822FDF91CF9170
:101AB00008951F93182F0E941E0D813011F080E0B1
:101AC00014C0E0914B01F0914C01212F30E0C9018D
:101AD00054E0880F991F5A95E1F7820F931FE80F82
:101AE000F91F808D8E7F808F81E01F9108951F9355
:101AF00010E0812F0E94BC0B1F5F1530D1F71F91A2
:101B0000089540914B0150914C01DA01599620E023
:101B100030E014961D921D921D921C9217971D92F3
:101B20001D921D921C92139718961D921D921D9244
:101B30001C921B97F90164E0EE0FFF1F6A95E1F715
:101B4000E20FF31FE40FF51F808D807E808F2F5FE3
:101B50003F4F519625303105E1F608950E94810DE1
:101B60000E94100908950F931F938C010E94F002A8
:101B7000C8010E9484030E94AE0D1F910F91089529
:101B80000E94770D0E9406090895E0914B01F091A3
:101B90004C0180859185019691878087838186BDE0
:101BA00080859185618172810E942E0E892B81F43E
:101BB00082859385A485B5850196A11DB11D828777
:101BC0009387A487B5878789882311F411861086A7
:101BD00008951F920F920FB60F9211242F933F93E7
:101BE0004F935F936F937F938F939F93AF93BF9325
:101BF000EF93FF935D9A0E94C50D5D98FF91EF9161
:101C0000BF91AF919F918F917F916F915F914F9114
:101C10003F912F910F900FBE0F901F901895629FCC
:101C2000D001739FF001829FE00DF11D649FE00DD4
:101C3000F11D929FF00D839FF00D749FF00D659F35
:101C4000F00D9927729FB00DE11DF91F639FB00D34
:101C5000E11DF91FBD01CF0111240895AA1BBB1B73
:101C600051E107C0AA1FBB1FA617B70710F0A61B9C
:101C7000B70B881F991F5A95A9F780959095BC01BD
:101C8000CD010895A1E21A2EAA1BBB1BFD010DC0B8
:101C9000AA1FBB1FEE1FFF1FA217B307E407F5071C
:101CA00020F0A21BB30BE40BF50B661F771F881FF8
:101CB000991F1A9469F760957095809590959B018E
:101CC000AC01BD01CF01089597FB092E05260ED06A
:101CD00057FD04D0D7DF0AD0001C38F4509540954A
:101CE000309521953F4F4F4F5F4F0895F6F79095F0
:101CF0008095709561957F4F8F4F9F4F0895F89411
:021D0000FFCF13
:101D020054696D6562617365200020000D0A002030
:0C1D120000010008004000000100040077
:00000001FF
