:100000000C9434000C9446000C9446000C9446006A
:100010000C9446000C9446000C9446000C94460048
:100020000C9446000C9446000C9446000C94460038
:100030000C9446000C9446000C94D8080C9446008E
:100040000C9446000C9446000C9446000C94460018
:100050000C9446000C9446000C9446000C94460008
:100060000C9446000C94460011241FBECFEFD8E03C
:10007000DEBFCDBF11E0A0E0B1E001C01D92A13410
:10008000B107E1F70E9448000C941E090C9400008F
:1000900088EE93E00E949108FFCF82E091E0909378
:1000A000010180930001109202018091020184609D
:1000B000809302018091020187708093020181E0A8
:1000C00090E0909304018093030110920901109233
:1000D0000A0110920B0110920C0110920D01109266
:1000E0000E0110920F011092100110920501109252
:1000F000060110920701109208011092110110924E
:100100001201109213011092140110921501109215
:1001100016011092170110921801109219011092F5
:100120001A0110921B0110921C0110921D011092D5
:100130001E0110921F0110922001109221011092B5
:100140002201109223011092240110922501109295
:100150002601109227011092280110922901109275
:100160002A0110922B0110922C0110922D01109255
:100170002E0110922F011092300110923101109235
:100180003201109233011092340110923501109215
:1001900036011092370110923801109239011092F5
:1001A0003A0110923B0110923C0110923D011092D5
:1001B0003E0110923F011092400108959C01E09190
:1001C0000001F0910101808180FF31C021303105B3
:1001D00011F496E019C02230310511F495E014C0F5
:1001E0002430310511F494E00FC02830310511F4AA
:1001F00093E00AC02031310511F492E005C090E08F
:100200002032310509F491E0F89484B7877F84BFE8
:1002100080916000806880936000809160008861B8
:1002200080936000906490936000789415C081FD85
:1002300013C082FF11C014BC15BC10926E0015BA19
:1002400017BC18BC16BC8AEF87BD92E094BD83E052
:1002500085BD90936E007894328321830895E09158
:100260000001F091010187850895E0910001F0916E
:10027000010187858F3318F487858F5F87870895FD
:10028000E0910001F09101018785882319F08785AD
:10029000815087870895E0910001F0910101178650
:1002A0000895E0910001F091010127813085418599
:1002B0005285B901CA010895E0910001F091010150
:1002C0002385348545855685B901CA010895E09195
:1002D0000001F091010167837087818792870895FB
:1002E000E0910001F091010163877487858796870B
:1002F00008959C01E0910001F091010187858F3301
:1003000018F487858F5F878787819085A185B2855F
:1003100040E050E0280F391F4A1F5B1F87819085FE
:10032000A185B28582179307A407B507B8F387851F
:10033000882319F087858150878708959C01E09173
:100340000001F091010187858F3318F487858F5F55
:10035000878783859485A585B68540E050E0280F82
:10036000391F4A1F5B1F87819085A185B28582173F
:100370009307A407B507B8F38785882319F0878505
:10038000815087870895E0910001F091010190E08C
:1003900025E130E0AC01429FC001439F900D529F88
:1003A000900D1124E80FF91F808986958F700895AC
:1003B000E0910001F091010190E025E130E0AC0115
:1003C000429FC001439F900D529F900D1124E80F52
:1003D000F91F6F70660F8089817E862B808B089550
:1003E000E0910001F091010190E025E130E0AC01E5
:1003F000429FC001439F900D529F900D1124E80F22
:10040000F91FDF015D96658D11967C91119712960B
:100410008C91129713969C910895E0910001F091B0
:10042000010190E025E130E0DC01A29FC001A39F23
:10043000900DB29F900D1124E80FF91F458F568F34
:10044000678F70A30895E0910001F091010190E0A1
:1004500025E130E0AC01429FC001439F900D529FC7
:10046000900D1124E80FF91FDF0151966189119653
:100470007C91119712968C91129713969C910895E6
:10048000E0910001F091010190E025E130E0DC0114
:10049000A29FC001A39F900DB29F900D1124E80F61
:1004A000F91F418B528B638B748B0895E09100018F
:1004B000F091010190E0019625E130E0AC01429F0E
:1004C000C001439F900D529F900D1124E80FF91F1A
:1004D00060817181828193810895E0910001F091A2
:1004E000010190E0019625E130E0DC01A29FC0010E
:1004F000A39F900DB29F900D1124E80FF91F408328
:100500005183628373830895E0910001F0910101AA
:1005100090E025E130E0AC01429FC001439F900D87
:10052000529F900D1124E80FF91FDF015996618D3C
:1005300011967C91119712968C91129713969C911B
:100540000895E0910001F091010190E025E130E093
:10055000DC01A29FC001A39F900DB29F900D1124BA
:10056000E80FF91F418F528F638F748F0895E091C8
:100570000001F091010190E025E130E0AC01429FE3
:10058000C001439F900D529F900D1124E80FF91F59
:10059000DF01919661A111967C91119712968C9131
:1005A000129713969C910895E0910001F09101013A
:1005B00090E025E130E0DC01A29FC001A39F900DF7
:1005C000B29F900D1124E80FF91F41A352A363A31A
:1005D00074A30895E0910001F091010190E025E1FC
:1005E00030E0AC01429FC001439F900D529F900D9F
:1005F0001124E80FF91F808981700895E0910001AE
:10060000F091010190E025E130E0AC01429FC00192
:10061000439F900D529F900D1124E80FF91F808980
:100620008160808B0895E0910001F091010190E0DC
:1006300025E130E0AC01429FC001439F900D529FE5
:10064000900D1124E80FF91F80898E7F808B08950B
:10065000A0910001B091010190E045E150E0849F3C
:10066000F001859FF00D949FF00D1124EA0FFB1F00
:100670002089217E208B158E168E178E10A2118A4E
:10068000128A138A148A01969C01249FC001259F17
:10069000900D349F900D1124A80FB91F1D921D922B
:1006A0001D921C921397118E128E138E148E11A20E
:1006B00012A213A214A280898E7F808B08950E94BB
:1006C00028030895E0910001F091010190E025E1F7
:1006D00030E0AC01429FC001439F900D529F900DAE
:1006E0001124E80FF91F9089892F86958F7081302A
:1006F00019F0917E9260908B0895E0910001F09145
:10070000010190E025E130E0AC01429FC001439F30
:10071000900D529F900D1124E80FF91F9089892F99
:1007200086958F70823019F0917E9460908B089539
:100730000F931F93CF93DF93A0910001B09101011C
:10074000282F30E005E110E0209FE001219FD00D2F
:10075000309FD00D1124CA0FDB1F888986958F70BA
:1007600071F51D8E1E8E1F8E18A2198E1A8E1B8E6D
:100770001C8E2F5F3F4F209FF001219FF00D309F77
:10078000F00D1124EA0FFB1F4083518362837383B2
:100790001B968D919D910D90BC91A02D840F951F5E
:1007A000A61FB71F898B9A8BAB8BBC8B9889892F1F
:1007B00086958F70813019F0917E9260988BDF91D1
:1007C000CF911F910F910895DF92EF92FF920F93B7
:1007D0001F93D82E7A018B010E9428038D2DB8011A
:1007E000A7010E9498031F910F91FF90EF90DF9057
:1007F0000895EF92FF920F931F93CF93DF93C091D1
:100800000001D0910101682F70E005E110E0609FC8
:10081000F001619FF00D709FF00D1124EC0FFD1F92
:10082000808986958F70813009F03FC08B859C85CB
:10083000AD85BE852189328943895489281B390BAE
:100840004A0B5B0B218F328F438F548F6F5F7F4F2B
:10085000609FC001619F900D709F900D1124C80F83
:10086000D91FE880F9800A811B81D801C701821B4A
:10087000930BA40BB50B858F968FA78FB0A3211573
:10088000310541055105D1F5118A128A138A148A5E
:10089000118E128E138E148EE58EF68E078F10A396
:1008A0008089817E8860808B29C0823039F58B8574
:1008B0009C85AD85BE85218D328D438D548D820FF3
:1008C000931FA41FB51F818B928BA38BB48B6F5F7B
:1008D0007F4F609FC001619F900D709F900D11240C
:1008E000C80FD91F88819981AA81BB81821B930B74
:1008F000A40BB50B858F968FA78FB0A3DF91CF91F7
:100900001F910F91FF90EF90089540E0E09100015A
:10091000F091010190E025E130E0BC01629FC0014F
:10092000639F900D729F900D1124E80FF91F80892D
:1009300086958F70843009F441E0842F0895482F04
:10094000E0910001F0910101282F30E085E190E075
:10095000BC01269FC001279F900D369F900D11244A
:10096000E80FF91F808986958F70843011F080E040
:100970000895842F0E94280381E00895E0910001EA
:10098000F091010190E025E130E0DC01A29FC0017F
:10099000A39F900DB29F900D1124E80FF91F80893D
:1009A00080FD0FC0858D968DA78DB0A1840F951FFA
:1009B000A61FB71F81A392A3A3A3B4A380898160BC
:1009C000808B0895E0910001F091010190E025E114
:1009D00030E0AC01429FC001439F900D529F900DAB
:1009E0001124E80FF91F21A132A143A154A1858D43
:1009F000968DA78DB0A1281B390B4A0B5B0B57FFB7
:100A000004C020E030E040E050E0B901CA010895A0
:100A1000CF93DF93C0910001D0910101682F70E066
:100A200085E190E0689FF001699FF00D789FF00DDF
:100A30001124EC0FFD1F21A132A143A154A1858DEA
:100A4000968DA78DB0A1281B390B4A0B5B0B57FD68
:100A500007C0211531054105510511F020E012C0F4
:100A600020E085E190E0AC01649FC001659F900D9E
:100A7000749F900D1124C80FD91F888980FF21E031
:100A800081E02827822FDF91CF9108951F93182F9F
:100A90000E940805813011F080E016C0E09100014D
:100AA000F0910101212F30E085E190E0AC01249F1D
:100AB000C001259F900D349F900D1124E80FF91F60
:100AC00080898E7F808B81E01F91089580E00E9455
:100AD000F903089580E00E9428030895E091000141
:100AE000F091010190E02DE030E0AC01429FC001A7
:100AF000439F900D529F900D1124E80FF91F85A17F
:100B000086958F700895E0910001F091010190E0C9
:100B10002DE030E0AC01429FC001439F900D529FF9
:100B2000900D1124E80FF91F6F70660F85A1817E6B
:100B3000862B85A30895E0910001F091010190E0DA
:100B40002DE030E0AC01429FC001439F900D529FC9
:100B5000900D1124E80FF91FDF019A9662A51196F6
:100B60007C91119712968C91129713969C910895EF
:100B7000E0910001F091010190E02DE030E0DC0116
:100B8000A29FC001A39F900DB29F900D1124E80F6A
:100B9000F91F42A753A764A775A70895E091000124
:100BA000F091010190E02DE030E0AC01429FC001E6
:100BB000439F900D529F900D1124E80FF91FDF0104
:100BC000969666A111967C91119712968C91129728
:100BD00013969C910895E0910001F091010190E03D
:100BE0002DE030E0DC01A29FC001A39F900DB29FD9
:100BF000900D1124E80FF91F46A357A360A771A712
:100C00000895E0910001F091010190E02DE030E0C5
:100C1000AC01429FC001439F900D529F900D112443
:100C2000E80FF91FDF019E9666A511967C9111973A
:100C300012968C91129713969C910895E091000161
:100C4000F091010190E02DE030E0DC01A29FC001B5
:100C5000A39F900DB29F900D1124E80FF91F46A796
:100C600057A760AB71AB0895E0910001F0910101CD
:100C700090E02DE030E0AC01429FC001439F900D19
:100C8000529F900D1124E80FF91F85A181700895DE
:100C9000E0910001F091010190E02DE030E0AC0125
:100CA000429FC001439F900D529F900D1124E80F69
:100CB000F91F85A1816085A30895E0910001F0915D
:100CC000010190E02DE030E0AC01429FC001439F64
:100CD000900D529F900D1124E80FF91F85A18E7F72
:100CE00085A30895E0910001F091010190E02DE0CD
:100CF00030E0AC01429FC001439F900D529F900D88
:100D00001124E80FF91F16A217A210A611A612A609
:100D100013A614A615A685A1807E85A30895E0914B
:100D20000001F091010190E02DE030E0AC01429F24
:100D3000C001439F900D529F900D1124E80FF91FA1
:100D400016A217A210A611A612A613A614A615A6DF
:100D500085A1807E85A30895E0910001F0910101B5
:100D600090E02DE030E0AC01429FC001439F900D28
:100D7000529F900D1124E80FF91F95A1892F869598
:100D80008F70813019F0917E926095A30895E09163
:100D90000001F091010190E02DE030E0AC01429FB4
:100DA000C001439F900D529F900D1124E80FF91F31
:100DB00095A1892F86958F70823019F0917E94606D
:100DC00095A30895A0910001B091010190E02DE05C
:100DD00030E0829FF001839FF00D929FF00D11246F
:100DE000EA0FFB1F85A186958F70D9F442A753A700
:100DF00064A775A71B968D919D910D90BC91A02D18
:100E0000840F951FA61FB71F86A397A3A0A7B1A7FE
:100E100095A1892F86958F70813019F0917E92600F
:100E200095A30895CF93DF93E0910001F091010124
:100E3000A82FB0E02DE030E0E901AC9F9001AD9F1C
:100E4000300DBC9F300D1124E20FF31F16A217A224
:100E500010A611A612A613A614A615A695A1907EFB
:100E600095A30E94E206DF91CF910895A091000121
:100E7000B091010190E02DE030E0829FF001839F6E
:100E8000F00D929FF00D1124EA0FFB1F85A18695AE
:100E90008F70813019F51B962D913D914D915C918C
:100EA0001E9786A197A1A0A5B1A5821B930BA40BA9
:100EB000B50B82A793A7A4A7B5A70097A105B10575
:100EC00009F516A217A210A611A612A613A614A61B
:100ED00015A685A1807E886085A30895823091F44F
:100EE0001B962D913D914D915C911E9782A593A5E6
:100EF000A4A5B5A5820F931FA41FB51F86A397A312
:100F0000A0A7B1A7089540E0E0910001F091010190
:100F100090E02DE030E0BC01629FC001639F900D26
:100F2000729F900D1124E80FF91F85A186958F708F
:100F3000843009F441E0842F0895E0910001F0919C
:100F4000010190E02DE030E0AC01429FC001439FE1
:100F5000900D529F900D1124E80FF91F85A18695E1
:100F60008F70843011F080E0089516A217A210A6A9
:100F700011A612A613A614A615A685A1807E85A388
:100F800081E00895E0910001F091010190E02DE0F1
:100F900030E0DC01A29FC001A39F900DB29F900D95
:100FA0001124E80FF91F85A180FD0FC082A593A52C
:100FB000A4A5B5A5841B950BA60BB70B86A797A771
:100FC000A0ABB1AB85A1816085A30895E09100013C
:100FD000F091010190E02DE030E0AC01429FC001B2
:100FE000439F900D529F900D1124E80FF91F22A5E9
:100FF00033A544A555A586A597A5A0A9B1A9281BE9
:10100000390B4A0B5B0B57FF04C020E030E040E097
:1010100050E0B901CA010895CF93DF93C091000158
:10102000D0910101682F70E08DE090E0689FF001A1
:10103000699FF00D789FF00D1124EC0FFD1F22A584
:1010400033A544A555A586A597A5A0A9B1A9281B98
:10105000390B4A0B5B0B57FD07C0211531054105C4
:10106000510511F020E012C020E08DE090E0AC01CD
:10107000649FC001659F900D749F900D1124C80F4F
:10108000D91F8DA180FF21E081E02827822FDF91E9
:10109000CF9108951F93182F0E940C08813011F0F2
:1010A00080E016C0E0910001F0910101212F30E0B5
:1010B0008DE090E0AC01249FC001259F900D349FEE
:1010C000900D1124E80FF91F85A18E7F85A381E083
:1010D0001F91089580E00E94360781E00E94360744
:1010E0000895E0910001F091010116A217A210A647
:1010F00011A612A613A614A615A685A1807E85A307
:1011000013AA14AA15AA16AA17AA10AE11AE12AEE7
:1011100082A9807E82AB08950E946A050E947108B0
:1011200008950F931F938C010E944D00C8010E94E7
:10113000DE000E948C081F910F9108950E946605A1
:101140000E946A080895CF93DF93C0910001D09167
:1011500001018F819885A985BA850196A11DB11DD0
:101160008F839887A987BA876F81788589859A85C3
:1011700029813A8140E050E00E94FC086115710528
:101180008105910591F48B859C85AD85BE85019681
:10119000A11DB11D8B879C87AD87BE878F85882356
:1011A00021F41F82188619861A86DF91CF9108953F
:1011B0001F920F920FB60F9211242F933F934F93CC
:1011C0005F936F937F938F939F93AF93BF93EF93AF
:1011D000FF930E94A308FF91EF91BF91AF919F9160
:1011E0008F917F916F915F914F913F912F910F90D0
:1011F0000FBE0F901F901895A1E21A2EAA1BBB1BC1
:10120000FD010DC0AA1FBB1FEE1FFF1FA217B307D2
:10121000E407F50720F0A21BB30BE40BF50B661FE8
:10122000771F881F991F1A9469F7609570958095AC
:1012300090959B01AC01BD01CF010895F894FFCFBB
:00000001FF
