:100000000C9434000C9451000C9451000C94510049
:100010000C9451000C9451000C9451000C9451001C
:100020000C9451000C9451000C9451000C9451000C
:100030000C9451000C9451000C9451000C945100FC
:100040000C94F9160C9451000C94B4020C945100C9
:100050000C9451000C9451000C9451000C945100DC
:100060000C9451000C94510011241FBECFEFD8E026
:10007000DEBFCDBF11E0A0E0B1E0EAE2FFE202C0E6
:1000800005900D92AA31B107D9F711E0AAE1B1E0CC
:1000900001C01D92A03BB107E1F70E9453000C94F0
:1000A00093170C94000060E071EE80E090E00E94F5
:1000B000D80288EE93E00E948A168AB180668AB9D7
:1000C0008BB18F798BB988E893E12CE231E0F901AB
:1000D0003197F1F70197D9F780E040E157E260E00E
:1000E00070E00E94AF0F81E040E45FE160E070E00B
:1000F0000E94AF0F82E040E757E160E070E00E94AD
:10010000AF0F83E040EA5FE060E070E00E94AF0F75
:1001100084E690E00E94570580E091E00E94D601BD
:100120005E9A0E9497165E98F3CF10921A01EBE147
:10013000F1E0119281E0E332F807D9F710821182E1
:1001400080E290E093A382A315A214A220E004C051
:10015000E65EFE4F13862F5F809145019091460128
:10016000E22FF0E0E817F90798F30895089508954D
:100170009B01AC0160E673EE86E190E00E945617A9
:100180002150304040405040E0ECF0E080818260FF
:100190008083BB27A52F942F832F8093C5002093A6
:1001A000C4000895E1ECF0E080818860808386E0FF
:1001B0008093C2000895E1ECF0E08081806180834B
:1001C00086E08093C2000895E1ECF0E080818068D1
:1001D000808378940895982F8091C00085FFFCCF8C
:1001E0009093C6000895DF93CF930F92CDB7DEB7FB
:1001F00019828091C00084FF05C08091C600898368
:1002000081E008C08091C00083FF07C08091C600D4
:10021000898382E080931A0105C08091C60089839A
:1002200010921A0189810F90CF91DF9108958091EA
:10023000240108951092240108951F93CF93DF9312
:10024000AB01BC014F3F51056105710509F028F470
:10025000E8E0F0E0C2E0D0E011C0403080E05807B4
:1002600081E0680780E0780728F0E0E2F0E0C8E08D
:10027000D0E004C0E0E1F0E0C4E0D0E08091C00054
:1002800085FFFCCF80E38093C6008091C00085FF8E
:10029000FCCF88E78093C60010E01FC03497DB01D5
:1002A000CA010E2E04C0B695A795979587950A9416
:1002B000D2F790E08F7090708A30910520F09C0109
:1002C000295C3F4F03C09C01205D3F4F8091C000DF
:1002D00085FFFCCF2093C6001F5F812F90E08C1715
:1002E0009D07E0F2DF91CF911F910895CF92DF92A9
:1002F000EF92FF920F931F93CF93DF93AB01BC015B
:100300004F3F51056105710509F010F497E00BC0EE
:10031000403080E0580781E0680780E0780710F0FF
:100320009FE101C09FE08091C00085FFFCCF80E38A
:100330008093C6008091C00085FFFCCF82E6809349
:10034000C60020E030E0E92FF0E000E311E3EF0128
:100350002196CF01821B930B6A017B0104C0F694A6
:10036000E794D794C7948A95D2F7D701C6018170D4
:100370009070892B39F08091C00085FFFCCF1093DD
:10038000C60006C08091C00085FFFCCF0093C60068
:100390002F5F3F4F2C173D07E1F6DF91CF911F9163
:1003A0000F91FF90EF90DF90CF900895AC0120E087
:1003B00007C08091C00085FFFCCFE093C6002F5F8F
:1003C000FA01E20FF11DE081EE2399F708958BE029
:1003D00091E00E94D60108958EE091E00E94D6013E
:1003E0000895BF92CF92DF92EF92FF920F931F93E7
:1003F0006B017C01611571058105910531F4109245
:100400001B0181E08093230123C0BB240B2D10E04E
:10041000065E1E4FC701B6012AE030E040E050E022
:100420000E945617F8016183C701B6012AE030E047
:1004300040E050E00E945617C901DA016C017D01CD
:10044000B394C114D104E104F10401F7B092230183
:100450001F910F91FF90EF90DF90CF90BF90089584
:10046000E09123010FC02E2F2150E22FF0E0E65E35
:10047000FE4F91818091C00085FFFCCF905D9093ED
:10048000C600E22FEE2379F708959B01AC0197FF98
:100490000EC08091C00085FFFCCF8DE28093C60026
:1004A00050954095309521953F4F4F4F5F4FCA0172
:1004B000B9010E94F1010E9430020895FC01E65E3C
:1004C000FE4F838508952091470130914801C9016D
:1004D000089510921A0120E030E006C0F901E65EAE
:1004E000FE4F13862F5F3F4F80914501909146014B
:1004F0002817390798F31092480110924701089580
:10050000DF93CF930F92CDB7DEB719820E94F3002D
:10051000898380911A01882319F5898180932401A8
:10052000E0914701F09148018981E65EFE4F8387A3
:1005300080914701909148010196909348018093E2
:1005400047012091470130914801809145019091E8
:1005500046012817390720F01092480110924701F0
:100560000F90CF91DF9108951F920F920FB60F92C7
:1005700011242F933F934F935F936F937F938F93A8
:100580009F93AF93BF93EF93FF930E948002FF91DD
:10059000EF91BF91AF919F918F917F916F915F91FB
:1005A0004F913F912F910F900FBE0F901F90189574
:1005B000EF92FF920F931F937B018C010E94950095
:1005C000C801B7010E94B800E1ECF0E080818860CA
:1005D0008083A2ECB0E096E09C9380818061808370
:1005E0009C9380818068808378940E9469021F9127
:1005F0000F91FF90EF9008958BE491E090934A0162
:100600008093490110924B0180914B01846080934B
:100610004B0180914B01877080934B0181E090E00A
:1006200090934D0180934C0110924E011092540111
:1006300010925301109255011092560110925701D9
:100640001092580110924F011092500110925101D6
:10065000109252011092590110925A0110925B01AE
:1006600010925C0110925D0110925E0110925F0188
:100670001092600110926101109262011092630168
:1006800010927D0110927E0110927F0110928001E4
:1006900010928101109282011092830110928401C4
:1006A00010928501109286011092870110928801A4
:1006B0001092890110928A0110928B0110928C0184
:1006C00010928D0110928E0110928F011092900164
:1006D00010929101109264011092650110926601CE
:1006E00010926701109268011092690110926A01DC
:1006F00010926B0110926C0110926D0110926E01BC
:1007000010926F011092700110927101109272019B
:10071000109273011092740110927501109276017B
:1007200010927701109278011092790110927A015B
:1007300010927B0110927C011092A3011092A401EF
:100740001092A5011092A6011092A7011092A80183
:100750001092A9011092AA011092AB011092AC0163
:100760001092AD011092AE011092AF011092920161
:10077000109293011092940110929501109296019B
:1007800010929701109298011092990110929A017B
:1007900010929B0110929C0110929D0110929E015B
:1007A00010929F011092A0011092A1011092A2013B
:1007B00008957F928F929F92AF92BF92CF92DF92D5
:1007C000EF92FF920F931F93DF93CF93CDB7DEB7D6
:1007D0002A970FB6F894DEBF0FBECDBF8C01C09034
:1007E0004901D0904A01F601808180FF31C001307B
:1007F000110511F496E019C00230110511F495E0CD
:1008000014C00430110511F494E00FC00830110534
:1008100011F493E00AC00031110511F492E005C013
:1008200090E00032110509F491E0F89484B7877FD5
:1008300084BF809160008068809360008091600038
:10084000886180936000906490936000789467C0A2
:1008500081FD65C082FF63C0DE011196E0E1F1E039
:100860008AE001900D928150E1F7980140E050E05C
:1008700060E07BE187EB90E00E947817722E832E78
:10088000942EE52E5E010894A11CB11CC901DA0169
:100890009C01AD01FF2414C0F501219131915F014C
:1008A00040E050E0672D782D892D9E2D0E9478170D
:1008B000C901DA019C01AD01F394F5E0FF1631F0B6
:1008C0002F3F31054105510509F034F78F2D815037
:1008D00014BC15BC10926E0015BA17BC18BC16BC1F
:1008E00017BC882311F481E00FC0813011F482E03D
:1008F0000BC0823011F483E007C0833011F484E030
:1009000003C0843011F485E085BD822F8095F60107
:100910008383838186BD81E080936E007894F601A5
:10092000128301832A960FB6F894DEBF0FBECDBFA7
:10093000CF91DF911F910F91FF90EF90DF90CF90BB
:10094000BF90AF909F908F907F900895F8940895F6
:1009500078940895E0914901F0914A01808D0895BD
:10096000E0914901F0914A01808D8F3318F4808D18
:100970008F5F808F0895E0914901F0914A01808D49
:10098000882319F0808D8150808F0895E09149016E
:10099000F0914A01108E0895F894E0914901F09188
:1009A0004A01208531857894C9010895F894E09131
:1009B0004901F0914A012285338544855585789413
:1009C000B901CA010895F894E0914901F0914A01F2
:1009D0009187808778940895F894E0914901F09187
:1009E0004A016287738784879587789408956F9208
:1009F0007F928F929F92AF92BF92CF92DF92EF92AF
:100A0000FF920F931F93CF93DF935C01F894C091F3
:100A10004901D0914A01E884F9847894F8942A85B0
:100A20003B854C855D85789469817A8180E090E092
:100A30000E9423173B014C0100E010E06E0C7F1C6C
:100A4000801E911ECC24DD246A0C7B1C8C1C9D1CFA
:100A500060E070E080E090E016C0F894E884F984EB
:100A60007894F8942A853B854C855D8578946981D6
:100A70007A8180E090E00E94231700E010E06E0D84
:100A80007F1D801F911F66157705880599052CF33A
:100A9000DF91CF911F910F91FF90EF90DF90CF905A
:100AA000BF90AF909F908F907F906F900895BC0102
:100AB000E0914901F0914A01F894808591857894FC
:100AC0002481358146815781A0E0B0E082179307E9
:100AD000A407B50789F7F894808591857894860FE7
:100AE000971FA0E0B0E084839583A683B783248119
:100AF00035814681578181819281A0E0B0E028173D
:100B000039074A075B0784F0248135814681578184
:100B100081819281A0E0B0E0281B390B4A0B5B0B6E
:100B200024833583468357830895F894E0914901DF
:100B3000F0914A0122853385448555857894A0E05B
:100B4000B0E0820F931FA41FB51F20E030E040E00B
:100B500050E006C0F8942285338544855585789405
:100B6000281739074A075B07ACF30895E09149015C
:100B7000F0914A0116861786108A118A128A138A02
:100B8000148A158A168A0895E0914901F0914A0164
:100B900086898823B1F4F89482859385A485B585E8
:100BA000789486879787A08BB18BF8948085918500
:100BB0007894A0E0B0E0828B938BA48BB58B81E01E
:100BC000868B0895EF92FF920F931F93CF93DF933D
:100BD000C0914901D0914A018E89813021F0EE24E3
:100BE000FF24870127C0F8942A853B854C855D85C5
:100BF0007894F8948885998578947C0100E010E0D9
:100C00008E859F85A889B989281B390B4A0B5B0BF8
:100C100069817A8180E090E00E9423172A893B89CC
:100C20004C895D89E21AF30A040B150BE60EF71ED8
:100C3000081F191FB701C801DF91CF911F910F91B4
:100C4000FF90EF9008950E94E205282FE09149015E
:100C5000F0914A018689813049F416861786108AF8
:100C6000118A128A138A148A158A168A822F089585
:100C7000E0914901F0914A0190E0019629E130E0CC
:100C8000AC01429FC001439F900D529F900D1124D3
:100C9000E80FF91F808186958F700895E0914901D2
:100CA000F0914A0190E0019629E130E0AC01429FC9
:100CB000C001439F900D529F900D1124E80FF91F22
:100CC0006F70660F8081817E862B80830895E0910E
:100CD0004901F0914A0190E029E130E0AC01429FE6
:100CE000C001439F900D529F900D1124E80FF91FF2
:100CF000DF019A9662A511967C91119712968C91BC
:100D0000129713969C910895E0914901F0914A0140
:100D100090E029E130E0DC01A29FC001A39F900D8B
:100D2000B29F900D1124E80FF91F42A753A764A7A3
:100D300075A70895E0914901F0914A0190E029E1F9
:100D400030E0AC01429FC001439F900D529F900D37
:100D50001124E80FF91FDF015A96628D11967C91DC
:100D6000119712968C91129713969C910895E09189
:100D70004901F0914A0190E029E130E0AC01429F45
:100D8000C001439F900D529F900D1124E80FF91F51
:100D9000DF015E96668D11967C91119712968C916B
:100DA000129713969C910895E0914901F0914A01A0
:100DB00090E029E130E0DC01A29FC001A39F900DEB
:100DC000B29F900D1124E80FF91F428F538F648F4B
:100DD000758F0895E0914901F0914A0190E029E171
:100DE00030E0DC01A29FC001A39F900DB29F900D47
:100DF0001124E80FF91F468F578F60A371A3089540
:100E0000E0914901F0914A0190E029E130E0AC0124
:100E1000429FC001439F900D529F900D1124E80FF7
:100E2000F91FDF01929662A111967C91119712969B
:100E30008C91129713969C910895E0914901F0913D
:100E40004A0190E029E130E0DC01A29FC001A39FAC
:100E5000900DB29F900D1124E80FF91F42A353A3E8
:100E600064A375A30895E0914901F0914A0190E0CF
:100E700029E130E0AC01429FC001439F900D529F99
:100E8000900D1124E80FF91FDF01969666A11196C7
:100E90007C91119712968C91129713969C910895BC
:100EA000E0914901F0914A0190E029E130E0DC0154
:100EB000A29FC001A39F900DB29F900D1124E80F37
:100EC000F91F46A357A360A771A70895E0914901B0
:100ED000F0914A0190E029E130E0AC01429FC0016D
:100EE000439F900D529F900D1124E80FF91FDF01D1
:100EF0009E9666A511967C91119712968C911297E9
:100F000013969C910895E0914901F0914A0190E077
:100F100029E130E0DC01A29FC001A39F900DB29FA8
:100F2000900D1124E80FF91F46A757A760AB71ABCE
:100F30000895E0914901F0914A0190E0019629E17C
:100F400030E0AC01429FC001439F900D529F900D35
:100F50001124E80FF91F808181700895E091490103
:100F6000F0914A0190E0019629E130E0AC01429F06
:100F7000C001439F900D529F900D1124E80FF91F5F
:100F80008081816080830895E0914901F0914A0158
:100F900090E0019629E130E0AC01429FC001439FFF
:100FA000900D529F900D1124E80FF91F80818E7FC4
:100FB000808308956091490170914A0190E0019603
:100FC00049E150E0849FD001859FB00D949FB00D02
:100FD00011240197A60FB71F2C91217E2C93849F7B
:100FE000F001859FF00D949FF00D1124E60FF71F7F
:100FF00012A613A614A615A6128E138E148E158E85
:10100000168E178E10A211A212A213A214A215A25C
:1010100016A217A210A611A616A617A610AA11AA04
:101020008C918E7F8C9308950E94DA070895E09149
:101030004901F0914A0190E0019629E130E0AC01CC
:10104000429FC001439F900D529F900D1124E80FC5
:10105000F91F9081892F86958F70813019F0917ECC
:10106000926090830895E0914901F0914A0190E0E7
:10107000019629E130E0AC01429FC001439F900DF1
:10108000529F900D1124E80FF91F9081892F8695AA
:101090008F70823019F0917E946090830895CF9381
:1010A000DF93A0914901B0914A01282F30E02F5FD2
:1010B0003F4FC9E1D0E02C9FF0012D9FF00D3C9FE8
:1010C000F00D112421503040EA0FFB1F80818695DE
:1010D0008F7099F52C9FF0012D9FF00D3C9FF00D26
:1010E0001124EA0FFB1F12A613A614A615A616A21A
:1010F00017A210A611A642A353A364A375A3F89444
:101100001A964D915D916D917C911D9778942F5F0A
:101110003F4F89E190E0289FF001299FF00D389F13
:10112000F00D1124EA0FFB1F9081892F86958F7097
:10113000813019F0917E92609083DF91CF91089574
:10114000DF92EF92FF920F931F93D82E7A018B01BB
:101150000E94DA078D2DB801A7010E944F081F9148
:101160000F91FF90EF90DF900895CF92DF92EF9272
:10117000FF920F931F93CF93DF93C0914901D091BA
:101180004A01682F70E06F5F7F4F89E190E0689FB0
:10119000F001699FF00D789FF00D112461507040AF
:1011A000EC0FFD1FE081E695EF70E13009F041C0E2
:1011B000F8948A859B85AC85BD85789489E1C82E95
:1011C000D12C6C9DF0016D9DF00D7C9DF00D1124D6
:1011D000EC0FFD1FE2A0F3A004A115A126A137A1E9
:1011E00040A551A5D801C701821B930BA40BB50BD9
:1011F00082A793A7A4A7B5A712161306140615066F
:10120000DCF116A217A210A611A6E2A6F3A604A767
:1012100015A76F5F7F4F6C9DF0016D9DF00D7C9D5C
:10122000F00D1124EC0FFD1F8081817E886080838A
:1012300023C0E23009F5F8948A859B85AC85BD858D
:10124000789489E190E0689FF001699FF00D789FA4
:10125000F00D1124EC0FFD1F82A193A1A4A1B5A153
:1012600026A137A140A551A5821B930BA40BB50B5A
:1012700082A793A7A4A7B5A7DF91CF911F910F9144
:10128000FF90EF90DF90CF90089540E0E09149010A
:10129000F0914A0190E0019629E130E0BC01629FA3
:1012A000C001639F900D729F900D1124E80FF91FEC
:1012B000808186958F70843009F441E0842F0895F1
:1012C000482FE0914901F0914A0190E0019629E10F
:1012D00030E0BC01629FC001639F900D729F900D32
:1012E0001124E80FF91F808186958F70843011F0EA
:1012F00080E00895842F0E94DA0781E008950F931B
:101300001F93CF93DF93A0914901B0914A01282FF9
:1013100030E02F5F3F4F09E110E0209FE001219F67
:10132000D00D309FD00D112421503040CA0FDB1F4B
:10133000888180FD18C0209FF001219FF00D309F13
:10134000F00D1124EA0FFB1F82A593A5A4A5B5A556
:10135000840F951FA61FB71F86A797A7A0ABB1AB99
:10136000888181608883DF91CF911F910F910895CB
:10137000E0914901F0914A0190E029E130E0AC01AF
:10138000429FC001439F900D529F900D1124E80F82
:10139000F91F26A537A540A951A982A593A5A4A503
:1013A000B5A5281B390B4A0B5B0B57FF04C020E087
:1013B00030E040E050E0B901CA010895CF93DF93D7
:1013C000C0914901D0914A01682F70E089E190E015
:1013D000689FF001699FF00D789FF00D1124EC0FCC
:1013E000FD1F26A537A540A951A982A593A5A4A5AF
:1013F000B5A5281B390B4A0B5B0B57FD07C0211500
:1014000031054105510511F020E014C020E06F5F67
:101410007F4F89E190E0AC01649FC001659F900D12
:10142000749F900D1124C80FD91F888180FF21E07F
:1014300081E02827822FDF91CF9108951F93182FE5
:101440000E94DE09813011F080E017C0E09149016F
:10145000F0914A01812F90E0019629E130E0AC0142
:10146000429FC001439F900D529F900D1124E80FA1
:10147000F91F80818E7F808381E01F91089580E035
:101480000E94B508089580E00E94DA070895E0916F
:101490004901F0914A0190E025E130E0AC01429F22
:1014A000C001439F900D529F900D1124E80FF91F2A
:1014B00082A986958F700895E0914901F0914A01C3
:1014C00090E025E130E0AC01429FC001439F900DC8
:1014D000529F900D1124E80FF91F6F70660F82A9BB
:1014E000817E862B82AB0895E0914901F0914A01FB
:1014F00090E025E130E0AC01429FC001439F900D98
:10150000529F900D1124E80FF91FFF9660817181A1
:10151000828193810895E0914901F0914A0190E020
:1015200025E130E0DC01A29FC001A39F900DB29F96
:10153000900D1124E80FF91FFF96408351836283B9
:1015400073830895E0914901F0914A0190E025E10B
:1015500030E0AC01429FC001439F900D529F900D1F
:101560001124E80FF91FDF01D39663A911967C912E
:10157000119712968C91129713969C910895E09171
:101580004901F0914A0190E025E130E0DC01A29FA1
:10159000C001A39F900DB29F900D1124E80FF91F79
:1015A00043AB54AB65AB76AB0895E0914901F09144
:1015B0004A0190E025E130E0AC01429FC001439F29
:1015C000900D529F900D1124E80FF91FDF01D7965F
:1015D00067A911967C91119712968C911297139688
:1015E0009C910895E0914901F0914A0190E025E134
:1015F00030E0DC01A29FC001A39F900DB29F900D2F
:101600001124E80FF91F47AB50AF61AF72AF0895D7
:10161000E0914901F0914A0190E025E130E0AC0110
:10162000429FC001439F900D529F900D1124E80FDF
:10163000F91FDF01DB9663AD11967C91119712962D
:101640008C91129713969C910895E0914901F09125
:101650004A0190E025E130E0DC01A29FC001A39F98
:10166000900DB29F900D1124E80FF91F43AF54AFB6
:1016700065AF76AF0895E0914901F0914A0190E09D
:1016800025E130E0AC01429FC001439F900D529F85
:10169000900D1124E80FF91FED5BFF4F6081718100
:1016A000828193810895E0914901F0914A0190E08F
:1016B00025E130E0DC01A29FC001A39F900DB29F05
:1016C000900D1124E80FF91FED5BFF4F408351830C
:1016D000628373830895E0914901F0914A0190E09B
:1016E00025E130E0AC01429FC001439F900D529F25
:1016F000900D1124E80FF91F82A981700895E091DF
:101700004901F0914A0190E025E130E0AC01429FAF
:10171000C001439F900D529F900D1124E80FF91FB7
:1017200082A9816082AB0895E0914901F0914A015C
:1017300090E025E130E0AC01429FC001439F900D55
:10174000529F900D1124E80FF91F82A98E7F82AB62
:101750000895E0914901F0914A0190E025E130E0DF
:10176000AC01429FC001439F900D529F900D1124E8
:10177000E80FF91F82A9FF9610821182128213824C
:10178000FF9713AA14AA15AA16AA17AA10AE11AE8B
:1017900012AE13AE14AE15AE16AEED5BFF4F108257
:1017A000118212821382E354F040807E82AB08954E
:1017B0000E94A90B0895E0914901F0914A0190E03F
:1017C00025E130E0AC01429FC001439F900D529F44
:1017D000900D1124E80FF91F92A9892F86958F701B
:1017E000813019F0917E926092AB0895E0914901A9
:1017F000F0914A0190E025E130E0AC01429FC00148
:10180000439F900D529F900D1124E80FF91F92A94C
:10181000892F86958F70823019F0917E946092ABFB
:1018200008950F931F93CF93DF93C0914901D091F7
:101830004A01082F10E085E190E0089FF001099F20
:10184000F00D189FF00D1124EC0FFD1F82A9869555
:101850008F7081F5FF961082118212821382FF979A
:1018600013AE14AE15AE16AE47AB50AF61AF72AF4C
:10187000F8948A859B85AC85BD85789425E130E018
:10188000029FF001039FF00D129FF00D1124EC0F49
:10189000FD1F840F951FA61FB71F83AB94ABA5AB8D
:1018A000B6AB92A9892F86958F70813019F0917E01
:1018B000926092ABDF91CF911F910F910895DF92CB
:1018C000EF92FF920F931F93D82E7A018B010E9403
:1018D000A90B8D2DB801A7010E94110C1F910F912A
:1018E000FF90EF90DF900895EF92FF920F931F9378
:1018F000CF93DF93C0914901D0914A01482F50E026
:1019000085E190E0489FF001499FF00D589FF00D50
:101910001124EC0FFD1F82A986958F70813009F08C
:1019200044C0F894EA84FB840C851D85789485E195
:1019300090E0489FF001499FF00D589FF00D112451
:10194000EC0FFD1F23A934A945A956A92E193F095B
:10195000400B510B23AF34AF45AF56AFEF01EF96BD
:10196000E7A8F0AC01AD12ADD801C701821B930B03
:10197000A40BB50B88839983AA83BB831216130625
:10198000140615060CF43DC013AA14AA15AA16AA2B
:1019900013AE14AE15AE16AEE882F9820A831B832D
:1019A00082A9817E886082AB2CC0823051F5F89488
:1019B0008A859B85AC85BD85789425E130E0429F82
:1019C000F001439FF00D529FF00D1124EC0FFD1F0D
:1019D00023AD34AD45AD56AD820F931FA41FB51F87
:1019E00083AB94ABA5ABB6AB87A990ADA1ADB2ADBF
:1019F000821B930BA40BB50BFF9680839183A2836C
:101A0000B383DF91CF911F910F91FF90EF900895D5
:101A100040E0E0914901F0914A0190E025E130E099
:101A2000BC01629FC001639F900D729F900D1124B5
:101A3000E80FF91F82A986958F70843009F441E080
:101A4000842F0895482FE0914901F0914A01282FF1
:101A500030E085E190E0BC01269FC001279F900DFA
:101A6000369F900D1124E80FF91F82A986958F707B
:101A7000843011F080E00895842F0E94A90B81E04A
:101A80000895CF93DF93C0914901D0914A0190E02E
:101A900025E130E0FC01E29FC001E39F900DF29F41
:101AA000900D1124C80FD91F8AA980FD14C0FE0112
:101AB000ED5BFF4FEF9688819981AA81BB81EF97FB
:101AC000840F951FA61FB71F80839183A283B383C2
:101AD0008AA981608AABDF91CF910895E091490195
:101AE000F0914A0190E025E130E0AC01429FC00155
:101AF000439F900D529F900D1124E80FF91FDF01B5
:101B0000DF96ED5BFF4F20813181428153818D91C2
:101B10009D910D90BC91A02D281B390B4A0B5B0B9E
:101B200057FF04C020E030E040E050E0B901CA01B6
:101B30000895CF93DF93C0914901D0914A01682F56
:101B400070E085E190E0689FF001699FF00D789F5B
:101B5000F00D1124EC0FFD1FDF01DF96ED5BFF4F51
:101B600020813181428153818D919D910D90BC9155
:101B7000A02D281B390B4A0B5B0B57FD07C0211505
:101B800031054105510511F020E012C020E085E14A
:101B900090E0AC01649FC001659F900D749F900D13
:101BA0001124C80FD91F8AA980FF21E081E02827CE
:101BB000822FDF91CF9108951F93182F0E94990DC6
:101BC000813011F080E016C0E0914901F0914A01A6
:101BD000212F30E085E190E0AC01249FC001259FDA
:101BE000900D349F900D1124E80FF91F82A98E7F6C
:101BF00082AB81E01F91089580E00E94740C0895EB
:101C000080E00E94A90B0895E0914901F0914A01FA
:101C100090E09C0144E0220F331F4A95E1F7280F22
:101C2000391FE20FF31FE95BFF4F808186958F70AC
:101C30000895E0914901F0914A0190E09C0154E03F
:101C4000220F331F5A95E1F7280F391FE20FF31FB8
:101C5000E95BFF4F6F70660F8081817E862B8083EA
:101C60000895E0914901F0914A0190E09C0164E0FF
:101C7000220F331F6A95E1F7280F391FE20FF31F78
:101C8000E05BFF4F60817181828193810895E091D3
:101C90004901F0914A0190E09C01A4E0220F331F1A
:101CA000AA95E1F7280F391FE20FF31FE05BFF4F02
:101CB00040835183628373830895E0914901F091D9
:101CC0004A0190E09C01B4E0220F331FBA95E1F77E
:101CD000280F391FE20FF31FE85BFF4F608171810E
:101CE000828193810895E0914901F0914A0190E049
:101CF0009C0144E0220F331F4A95E1F7280F391F5A
:101D0000E20FF31FE45BFF4F608171818281938159
:101D10000895E0914901F0914A0190E09C01A4E00E
:101D2000220F331FAA95E1F7280F391FE20FF31F87
:101D3000E85BFF4F40835183628373830895E09192
:101D40004901F0914A0190E09C01B4E0220F331F59
:101D5000BA95E1F7280F391FE20FF31FE45BFF4F3D
:101D600040835183628373830895E0914901F09128
:101D70004A0190E09C0144E0220F331F4A95E1F7AD
:101D8000280F391FE20FF31FEC5AFF4F608171815A
:101D9000828193810895E0914901F0914A01282FB1
:101DA00030E077FF11C0C901B4E0880F991FBA95E0
:101DB000E1F7820F931FE80FF91FEC5AFF4F1082D3
:101DC0001182128213820895C901A4E0880F991F1D
:101DD000AA95E1F7820F931FE80FF91FEC5AFF4F06
:101DE00040835183628373830895E0914901F091A8
:101DF0004A0190E09C0144E0220F331F4A95E1F72D
:101E0000280F391FE20FF31FE95BFF4F80818170BC
:101E10000895E0914901F0914A0190E09C0154E05D
:101E2000220F331F5A95E1F7280F391FE20FF31FD6
:101E3000E95BFF4F8081816080830895E0914901D3
:101E4000F0914A0190E09C0164E0220F331F6A95F3
:101E5000E1F7280F391FE20FF31FE95BFF4F808185
:101E60008E7F80830895E0914901F0914A0190E0CE
:101E70009C0174E0220F331F7A95E1F7280F391F78
:101E8000E20FF31FE45BFF4F108211821282138274
:101E9000129212921292129238961082118212822B
:101EA000138239978081807E80830895E091490173
:101EB000F0914A0190E09C01A4E0220F331FAA9503
:101EC000E1F7280F391FE20FF31FE45BFF4F108289
:101ED00011821282138212921292129212923896E8
:101EE000108211821282138239978081807E8083D2
:101EF0000895E0914901F0914A0190E09C01B4E01D
:101F0000220F331FBA95E1F7280F391FE20FF31F95
:101F1000E95BFF4F9081892F86958F70813019F092
:101F2000917E926090830895E0914901F0914A0179
:101F300090E09C0144E0220F331F4A95E1F7280FFF
:101F4000391FE20FF31FE95BFF4F9081892F8695C0
:101F50008F70823019F0917E9460908308952F9253
:101F60003F924F925F926F927F928F929F92AF9229
:101F7000BF92CF92DF92EF92FF920F931F93DF9366
:101F8000CF9300D000D0CDB7DEB74A015B012091DE
:101F9000490130914A013C832B83A82FB0E0BA83DA
:101FA000A983FD0164E0EE0FFF1F6A95E1F7EA0FD8
:101FB000FB1FE20FF31FE95BFF4F8081E754F04006
:101FC00086958F7009F076C0E05BFF4F808291822A
:101FD000A282B382F894F901C084D1847894F894F1
:101FE000228433844484558478942181328140E072
:101FF00050E0C501B4010E9478177B018C01AB81D0
:10200000BC8111962D913C91129740E050E0C501A2
:10201000B4010E947817C901DA013C014D01560153
:10202000CC24DD24AE0CBF1CC01ED11EEB81FC8174
:1020300081819281A0E0B0E0A816B906CA06DB064D
:1020400094F00894611C711C811C911C21813281C7
:1020500040E050E0C601B5010E947817AC01CB0109
:10206000DA015C016D01E981FA8154E0EE0FFF1F96
:102070005A95E1F729813A81E20FF31F8B819C8108
:10208000E80FF91FE85BFF4F260C371C481C591C52
:102090002192319241925192A082B182C282D38226
:1020A00035979081892F86958F70813019F0917EB8
:1020B000926090830F900F900F900F90CF91DF91CF
:1020C0001F910F91FF90EF90DF90CF90BF90AF9056
:1020D0009F908F907F906F905F904F903F902F9048
:1020E0000895E0914901F0914A01A82FB0E09D01C7
:1020F00094E0220F331F9A95E1F72A0F3B1FE20F5E
:10210000F31FE45BFF4F108211821282138212923E
:1021100012921292129238961082118212821382B7
:1021200039979081907E90830E94AF0F08954F92CF
:102130005F926F927F928F929F92AF92BF92CF9257
:10214000DF92EF92FF920F931F93DF93CF9300D014
:1021500000D0CDB7DEB76090490170904A01C82E1B
:10216000DD24F60154E0EE0FFF1F5A95E1F7EC0D68
:10217000FD1DE60DF71DE95BFF4FE081E695EF7071
:10218000E13009F075C0F894D30118968D919C91B7
:10219000199778944C01AA24BB24F894F301828502
:1021A0009385A485B5857894F60144E0EE0FFF1F72
:1021B0004A95E1F7EC0DFD1DE60DF71DE85BFF4FBD
:1021C000E080F18002811381E81AF90A0A0B1B0BE7
:1021D00017FF03C0EE24FF248701D30111962D9130
:1021E0003C91129740E050E0C801B7010E942317CC
:1021F000F60134E0EE0FFF1F3A95E1F7EC0DFD1DFF
:10220000E60DF71D8F01045B1F4FD8012D913D9105
:102210004D915C91281939094A095B09260F371F2E
:10222000481F591FCF01805B9F4FDC012D933D93C9
:102230004D935C93139712161306140615060CF4AF
:102240006AC0D8011D921D921D921C921397E85BE3
:10225000FF4F1082118212821382DC011D921D92A7
:102260001D921C9213978291807E8860808353C058
:10227000E23009F050C0F894F3014084518478941E
:10228000F894D3011A968D909D90AD90BC901D97B7
:102290007894860124E0000F111F2A95E1F70C0DB8
:1022A0001D1D060D171D005B1F4FD8018D919D91BF
:1022B0000D90BC91A02D89839A83AB83BC83F301DD
:1022C00021813281C180D2800850104040E050E02E
:1022D000BC01CD010E947817820E931EA41EB51E6C
:1022E000D8018D929D92AD92BD928D01EE24FF2476
:1022F00069817A818B819C81A70196010E94781760
:1023000066247724460E571E681E791EF801408207
:102310005182628273820F900F900F900F90CF9135
:10232000DF911F910F91FF90EF90DF90CF90BF90C2
:10233000AF909F908F907F906F905F904F90089597
:1023400040E0E0914901F0914A0190E09C0164E095
:10235000220F331F6A95E1F7280F391FE20FF31F91
:10236000E95BFF4F808186958F70843009F441E0EE
:10237000842F0895E0914901F0914A0190E09C0179
:1023800074E0220F331F7A95E1F7280F391FE20F0F
:10239000F31FDF01A95BBF4F8C9186958F7084304E
:1023A00011F080E00895E45BFF4F108211821282E9
:1023B0001382129212921292129238961082118205
:1023C000128213828C91807E8C9381E00895CF934A
:1023D000DF93C0914901D0914A01282F30E0F901E3
:1023E000B4E0EE0FFF1FBA95E1F7E20FF31FEC0F19
:1023F000FD1FE95BFF4F8081E754F04080FD24C062
:10240000E05BFF4F81919191A191B191841B950B5C
:10241000A60BB70BB7FF05C0108211821282138280
:1024200004C080839183A283B383F901A4E0EE0FFB
:10243000FF1FAA95E1F7E20FF31FEC0FFD1FE95B09
:10244000FF4F808181608083DF91CF910895E0917B
:102450004901F0914A0190E09C0144E0220F331FB2
:102460004A95E1F7280F391FE20FF31FDF01AC5A3D
:10247000BF4FE05BFF4F20813181428153818D91BD
:102480009D910D90BC91A02D281B390B4A0B5B0B25
:1024900057FF04C020E030E040E050E0B901CA013D
:1024A0000895CF93DF93C0914901D0914A01682FDD
:1024B00070E0FB01A4E0EE0FFF1FAA95E1F7E60F25
:1024C000F71FEC0FFD1FDF01AC5ABF4FE05BFF4F62
:1024D00020813181428153818D919D910D90BC91DC
:1024E000A02D281B390B4A0B5B0B57FD07C021158C
:1024F00031054105510511F020E012C020E0CB016B
:1025000054E0880F991F5A95E1F7860F971FC80F5F
:10251000D91FC95BDF4F888180FF21E081E0282738
:10252000822FDF91CF9108951F93182F0E9451128F
:10253000813011F080E016C0E0914901F0914A012C
:10254000212F30E0C901B4E0880F991FBA95E1F757
:10255000820F931FE80FF91FE95BFF4F80818E7F89
:10256000808381E01F91089580E00E949710089574
:10257000E0914901F0914A01E45BFF4F1082118222
:102580001282138212921292129212923896108232
:1025900011821282138239978081807E8083089510
:1025A000E0914901F0914A0190E02DE030E0AC016A
:1025B000429FC001439F900D529F900D1124E80F40
:1025C000F91FE85AFF4F808186958F700895E0913A
:1025D0004901F0914A0190E02DE030E0AC01429FCA
:1025E000C001439F900D529F900D1124E80FF91FD9
:1025F000E85AFF4F6F70660F8081817E862B808343
:102600000895E0914901F0914A0190E02DE030E019
:10261000AC01429FC001439F900D529F900D112429
:10262000E80FF91FE35AFF4F608171818281938126
:102630000895E0914901F0914A0190E02DE030E0E9
:10264000DC01A29FC001A39F900DB29F900D1124A9
:10265000E80FF91FE35AFF4F40835183628373836E
:102660000895E0914901F0914A0190E02DE030E0B9
:10267000AC01429FC001439F900D529F900D1124C9
:10268000E80FF91FE75AFF4F6081718182819381C2
:102690000895E0914901F0914A0190E02DE030E089
:1026A000DC01A29FC001A39F900DB29F900D112449
:1026B000E80FF91FE75AFF4F40835183628373830A
:1026C0000895E0914901F0914A0190E02DE030E059
:1026D000AC01429FC001439F900D529F900D112469
:1026E000E80FF91FEF59FF4F60817181828193815B
:1026F0000895E0914901F0914A01282F30E077FFD9
:1027000013C08DE090E0AC01249FC001259F900D87
:10271000349F900D1124E80FF91FEF59FF4F1082DD
:1027200011821282138208958DE090E0DC012A9FCD
:10273000C0012B9F900D3A9F900D1124E80FF91FB7
:10274000EF59FF4F40835183628373830895E09173
:102750004901F0914A0190E02DE030E0AC01429F48
:10276000C001439F900D529F900D1124E80FF91F57
:10277000E85AFF4F808181700895E0914901F091FE
:102780004A0190E02DE030E0AC01429FC001439F40
:10279000900D529F900D1124E80FF91FE85AFF4F3A
:1027A0008081816080830895E0914901F0914A0120
:1027B00090E02DE030E0AC01429FC001439F900DBE
:1027C000529F900D1124E80FF91FE85AFF4F8081A6
:1027D0008E7F80830895E0914901F0914A0190E055
:1027E0002DE030E0AC01429FC001439F900D529F0D
:1027F000900D1124E80FF91FE75AFF4F1192119223
:102800001192119210821182128213823597808167
:10281000807E80830895E0914901F0914A0190E023
:102820002DE030E0AC01429FC001439F900D529FCC
:10283000900D1124E80FF91FE75AFF4F11921192E2
:102840001192119210821182128213823597808127
:10285000807E80830895E0914901F0914A0190E0E3
:102860002DE030E0AC01429FC001439F900D529F8C
:10287000900D1124E80FF91FE85AFF4F9081892F1E
:1028800086958F70813019F0917E926090830895C3
:10289000E0914901F0914A0190E02DE030E0AC0177
:1028A000429FC001439F900D529F900D1124E80F4D
:1028B000F91FE85AFF4F9081892F86958F708230DB
:1028C00019F0917E9460908308950F931F93CF9396
:1028D000DF93C0914901D0914A01082F10E08DE0AB
:1028E00090E0089FF001099FF00D189FF00D112452
:1028F000EC0FFD1FE85AFF4F8081E855F0408695A8
:102900008F7051F5E35AFF4F408351836283738385
:10291000F8948A859B85AC85BD8578942DE030E060
:10292000029FF001039FF00D129FF00D1124EC0F98
:10293000FD1FE75AFF4F840F951FA61FB71F808307
:102940009183A283B3839291892F86958F70813072
:1029500019F0917E92609083DF91CF911F910F913A
:102960000895CF93DF93E0914901F0914A01A82F98
:10297000B0E02DE030E0E901AC9F9001AD9F300D5B
:10298000BC9F300D1124E20FF31FE75AFF4F119245
:102990001192119211921082118212821382359734
:1029A0009081907E90830E946514DF91CF9108956D
:1029B000CF93DF93C0914901D0914A01682F70E015
:1029C0008DE090E0689FF001699FF00D789FF00D19
:1029D0001124EC0FFD1FE85AFF4FE081E695EF70E0
:1029E000E130D1F5F8942A853B854C855D85789456
:1029F0008DE090E0689FF001699FF00D789FF00DE9
:102A00001124EC0FFD1FBF01675A7F4FEB01888136
:102A10009981AA81BB81821B930BA40BB50BEF019B
:102A2000C35ADF4F88839983AA83BB83181619067C
:102A30001A061B0694F1DB011D921D921D921C9239
:102A40001397188219821A821B82E85AFF4F8081DD
:102A5000807E8860808321C0E230F9F4F8948A8512
:102A60009B85AC85BD8578942DE030E0629FF001B8
:102A7000639FF00D729FF00D1124EC0FFD1FE35AC0
:102A8000FF4F2081318142815381820F931FA41F08
:102A9000B51FB293A29392938293DF91CF91089541
:102AA00040E0E0914901F0914A0190E02DE030E0F2
:102AB000BC01629FC001639F900D729F900D112415
:102AC000E80FF91FE85AFF4F808186958F70843098
:102AD00009F441E0842F0895E0914901F0914A0101
:102AE00090E02DE030E0AC01429FC001439F900D8B
:102AF000529F900D1124E80FF91FDF01A85ABF4F14
:102B00008C9186958F70843011F080E00895E75A9B
:102B1000FF4F119211921192119210821182128222
:102B200013828C91807E8C9381E00895CF93DF9304
:102B3000C0914901D0914A01282F30E08DE090E00A
:102B4000289FF001299FF00D389FF00D1124EC0F04
:102B5000FD1FE85AFF4F8081E855F04080FD25C0F9
:102B6000E35AFF4F81919191A191B191841B950BF3
:102B7000A60BB70BB7FF05C0108211821282138219
:102B800004C080839183A283B3838DE090E0289F6B
:102B9000F001299FF00D389FF00D1124EC0FFD1F5F
:102BA000E85AFF4F808181608083DF91CF91089543
:102BB000E0914901F0914A0190E02DE030E0AC0154
:102BC000429FC001439F900D529F900D1124E80F2A
:102BD000F91FDF01AF59BF4FE35AFF4F2081318109
:102BE000428153818D919D910D90BC91A02D281B08
:102BF000390B4A0B5B0B57FF04C020E030E040E08C
:102C000050E0B901CA010895CF93DF93C091490103
:102C1000D0914A01682F70E08DE090E0689FF0014C
:102C2000699FF00D789FF00D1124EC0FFD1FDF015F
:102C3000AF59BF4FE35AFF4F208131814281538109
:102C40008D919D910D90BC91A02D281B390B4A0BA5
:102C50005B0B57FD07C0211531054105510511F0EA
:102C600020E014C020E08DE090E0AC01649FC00142
:102C7000659F900D749F900D1124C80FD91FC85ADD
:102C8000DF4F888180FF21E081E02827822FDF91BC
:102C9000CF9108951F93182F0E940416813011F0D0
:102CA00080E018C0E0914901F0914A01212F30E005
:102CB0008DE090E0AC01249FC001259F900D349FD2
:102CC000900D1124E80FF91FE85AFF4F80818E7F85
:102CD000808381E01F91089580E00E94D8140895B8
:102CE000E0914901F0914A01E75AFF4F1192119288
:102CF0001192119210821182128213823597808173
:102D0000807E808308950E94000E0E94B8120E9467
:102D1000701608950F931F938C010E94FC02C80146
:102D20000E94D9030E9483161F910F910895E0918C
:102D30004901F0914A01878982FF03C087898B7F0F
:102D4000878B878980FF09C00E94FC0DE0914901B3
:102D5000F0914A0187898E7F878BE0914901F0913C
:102D60004A01878983FF09C00E94B412E09149019A
:102D7000F0914A018789877F878BE0914901F09123
:102D80004A01878981FF09C00E946C16E0914901C0
:102D9000F0914A0187898D7F878B0895E0914901E1
:102DA000F0914A0180859185019691878087878976
:102DB0008460878B87898860878B80859185618116
:102DC00072810E944217892B99F482859385A4858C
:102DD000B5850196A11DB11D82879387A487B5870C
:102DE0001186108687898160878B87898260878BAF
:102DF00008951F920F920FB60F9211242F933F93B5
:102E00004F935F936F937F938F939F93AF93BF93F2
:102E1000EF93FF93E0914901F0914A01838186BDD0
:102E20000E94CE16FF91EF91BF91AF919F918F912C
:102E30007F916F915F914F913F912F910F900FBEB6
:102E40000F901F901895629FD001739FF001829F91
:102E5000E00DF11D649FE00DF11D929FF00D839F29
:102E6000F00D749FF00D659FF00D9927729FB00DC6
:102E7000E11DF91F639FB00DE11DF91FBD01CF01D9
:102E800011240895AA1BBB1B51E107C0AA1FBB1F39
:102E9000A617B70710F0A61BB70B881F991F5A95E6
:102EA000A9F780959095BC01CD010895A1E21A2E55
:102EB000AA1BBB1BFD010DC0AA1FBB1FEE1FFF1FDE
:102EC000A217B307E407F50720F0A21BB30BE40B2E
:102ED000F50B661F771F881F991F1A9469F7609575
:102EE0007095809590959B01AC01BD01CF0108952F
:102EF00097FB092E05260ED057FD04D0D7DF0AD048
:102F0000001C38F450954095309521953F4F4F4F18
:102F10005F4F0895F6F790958095709561957F4F76
:0A2F20008F4F9F4F0895F894FFCFE4
:102F2A0054696D65626173650D0A000D0A0020001F
:0A2F3A00010008004000000100043F
:00000001FF
