:100000000C9434000C9451000C9451000C94510049
:100010000C9451000C9451000C9451000C9451001C
:100020000C9451000C9451000C9451000C9451000C
:100030000C9451000C9451000C9451000C945100FC
:100040000C941D180C9451000C94B4020C945100A3
:100050000C9451000C9451000C9451000C945100DC
:100060000C9451000C94510011241FBECFEFD8E026
:10007000DEBFCDBF11E0A0E0B1E0EAE4F1E302C0F1
:1000800005900D92AA31B107D9F711E0AAE1B1E0CC
:1000900001C01D92A73BB107E1F70E9453000C94E9
:1000A000A3180C94000060E071EE80E090E00E94E4
:1000B000D80288EE93E00E949A178AB180668AB9C6
:1000C0008BB18F798BB988E893E12CE231E0F901AB
:1000D0003197F1F70197D9F780E040E157E260E00E
:1000E00070E00E94221181E040E45FE160E070E096
:1000F0000E94221182E040E757E160E070E00E9438
:10010000221183E040EA5FE060E070E00E9422118B
:1001100084E690E00E94840580E091E00E94D60190
:100120005E9A0E94A7175E98F3CF10921A01EBE136
:10013000F1E0119281E0E332F807D9F710821182E1
:1001400080E290E093A382A315A214A220E004C051
:10015000E65EFE4F13862F5F809145019091460128
:10016000E22FF0E0E817F90798F30895089508954D
:100170009B01AC0160E673EE86E190E00E94661898
:100180002150304040405040E0ECF0E080818260FF
:100190008083BB27A52F942F832F8093C5002093A6
:1001A000C4000895E1ECF0E080818860808386E0FF
:1001B0008093C2000895E1ECF0E08081806180834B
:1001C00086E08093C2000895E1ECF0E080818068D1
:1001D000808378940895982F8091C00085FFFCCF8C
:1001E0009093C6000895DF93CF930F92CDB7DEB7FB
:1001F00019828091C00084FF05C08091C600898368
:1002000081E008C08091C00083FF07C08091C600D4
:10021000898382E080931A0105C08091C60089839A
:1002200010921A0189810F90CF91DF9108958091EA
:10023000240108951092240108951F93CF93DF9312
:10024000AB01BC014F3F51056105710509F028F470
:10025000E8E0F0E0C2E0D0E011C0403080E05807B4
:1002600081E0680780E0780728F0E0E2F0E0C8E08D
:10027000D0E004C0E0E1F0E0C4E0D0E08091C00054
:1002800085FFFCCF80E38093C6008091C00085FF8E
:10029000FCCF88E78093C60010E01FC03497DB01D5
:1002A000CA010E2E04C0B695A795979587950A9416
:1002B000D2F790E08F7090708A30910520F09C0109
:1002C000295C3F4F03C09C01205D3F4F8091C000DF
:1002D00085FFFCCF2093C6001F5F812F90E08C1715
:1002E0009D07E0F2DF91CF911F910895CF92DF92A9
:1002F000EF92FF920F931F93CF93DF93AB01BC015B
:100300004F3F51056105710509F010F497E00BC0EE
:10031000403080E0580781E0680780E0780710F0FF
:100320009FE101C09FE08091C00085FFFCCF80E38A
:100330008093C6008091C00085FFFCCF82E6809349
:10034000C60020E030E0E92FF0E000E311E3EF0128
:100350002196CF01821B930B6A017B0104C0F694A6
:10036000E794D794C7948A95D2F7D701C6018170D4
:100370009070892B39F08091C00085FFFCCF1093DD
:10038000C60006C08091C00085FFFCCF0093C60068
:100390002F5F3F4F2C173D07E1F6DF91CF911F9163
:1003A0000F91FF90EF90DF90CF900895AC0120E087
:1003B00007C08091C00085FFFCCFE093C6002F5F8F
:1003C000FA01E20FF11DE081EE2399F708958BE029
:1003D00091E00E94D60108958EE091E00E94D6013E
:1003E0000895BF92CF92DF92EF92FF920F931F93E7
:1003F0006B017C01611571058105910531F4109245
:100400001B0181E08093230123C0BB240B2D10E04E
:10041000065E1E4FC701B6012AE030E040E050E022
:100420000E946618F8016183C701B6012AE030E036
:1004300040E050E00E946618C901DA016C017D01BC
:10044000B394C114D104E104F10401F7B092230183
:100450001F910F91FF90EF90DF90CF90BF90089584
:10046000E09123010FC02E2F2150E22FF0E0E65E35
:10047000FE4F91818091C00085FFFCCF905D9093ED
:10048000C600E22FEE2379F708959B01AC0197FF98
:100490000EC08091C00085FFFCCF8DE28093C60026
:1004A00050954095309521953F4F4F4F5F4FCA0172
:1004B000B9010E94F1010E9430020895FC01E65E3C
:1004C000FE4F838508952091470130914801C9016D
:1004D000089510921A0120E030E006C0F901E65EAE
:1004E000FE4F13862F5F3F4F80914501909146014B
:1004F0002817390798F31092480110924701089580
:10050000DF93CF930F92CDB7DEB719820E94F3002D
:10051000898380911A01882319F5898180932401A8
:10052000E0914701F09148018981E65EFE4F8387A3
:1005300080914701909148010196909348018093E2
:1005400047012091470130914801809145019091E8
:1005500046012817390720F01092480110924701F0
:100560000F90CF91DF9108951F920F920FB60F92C7
:1005700011242F933F934F935F936F937F938F93A8
:100580009F93AF93BF93EF93FF930E948002FF91DD
:10059000EF91BF91AF919F918F917F916F915F91FB
:1005A0004F913F912F910F900FBE0F901F90189574
:1005B000EF92FF920F931F937B018C010E94950095
:1005C000C801B7010E94B800E1ECF0E080818860CA
:1005D0008083A2ECB0E096E09C9380818061808370
:1005E0009C9380818068808378940E9469021F9127
:1005F0000F91FF90EF9008958BE491E090934A0162
:100600008093490110924B0180914B01846080934B
:100610004B0180914B01877080934B0181E090E00A
:1006200090934D0180934C0110924E0110925A010B
:100630001092590110925B0110925C0110925D01C1
:1006400010925E01109254011092530110925501C4
:1006500010925601109257011092580110925F01AA
:1006600010924F01109250011092510110925201BC
:100670001092600110926101109262011092630168
:100680001092640110926501109266011092670148
:10069000109268011092690110926A01109284010F
:1006A00010928501109286011092870110928801A4
:1006B0001092890110928A0110928B0110928C0184
:1006C00010928D0110928E0110928F011092900164
:1006D0001092910110929201109293011092940144
:1006E0001092950110929601109297011092980124
:1006F00010926B0110926C0110926D0110926E01BC
:1007000010926F011092700110927101109272019B
:10071000109273011092740110927501109276017B
:1007200010927701109278011092790110927A015B
:1007300010927B0110927C0110927D0110927E013B
:1007400010927F011092800110928101109282011B
:10075000109283011092AA011092AB011092AC0189
:100760001092AD011092AE011092AF011092B00143
:100770001092B1011092B2011092B3011092B40123
:100780001092B5011092B6011092990110929A013F
:1007900010929B0110929C0110929D0110929E015B
:1007A00010929F011092A0011092A1011092A2013B
:1007B0001092A3011092A4011092A5011092A6011B
:1007C0001092A7011092A8011092A90108957F929A
:1007D0008F929F92AF92BF92CF92DF92EF92FF9251
:1007E0000F931F93DF93CF93CDB7DEB72A970FB642
:1007F000F894DEBF0FBECDBF8C01C0904901D090F0
:100800004A01F601808180FF31C00130110511F4E9
:1008100096E019C00230110511F495E014C00430BF
:10082000110511F494E00FC00830110511F493E0A4
:100830000AC00031110511F492E005C090E00032C9
:10084000110509F491E0F89484B7877F84BF809103
:100850006000806880936000809160008861809370
:100860006000906490936000789467C081FD65C0DB
:1008700082FF63C0DE011196E0E1F1E08AE00190C1
:100880000D928150E1F7980140E050E060E07BE19B
:1008900087EB90E00E948818722E832E942EE52E0E
:1008A0005E010894A11CB11CC901DA019C01AD01D3
:1008B000FF2414C0F501219131915F0140E050E027
:1008C000672D782D892D9E2D0E948818C901DA0187
:1008D0009C01AD01F394F5E0FF1631F02F3F310597
:1008E0004105510509F034F78F2D815014BC15BC1A
:1008F00010926E0015BA17BC18BC16BC17BC882322
:1009000011F481E00FC0813011F482E00BC082301D
:1009100011F483E007C0833011F484E003C0843015
:1009200011F485E085BD822F8095F6018383838154
:1009300086BD81E080936E007894F6011283018376
:100940002A960FB6F894DEBF0FBECDBFCF91DF91D0
:100950001F910F91FF90EF90DF90CF90BF90AF90DD
:100960009F908F907F900895F894089578940895BB
:10097000E0914901F0914A01878D0895E091490184
:10098000F0914A01878D8F3318F4878D8F5F878FA1
:100990000895E0914901F0914A01878D882319F06B
:1009A000878D8150878F0895E0914901F0914A0128
:1009B000178E0895E0914901F0914A012685378507
:1009C000C9010895E0914901F0914A0120893189D6
:1009D00042895389B901CA010895E0914901F09112
:1009E0004A0120853185C9010895E0914901F091BE
:1009F0004A012285338544855585B901CA01089588
:100A0000E0914901F0914A01918780870895E09132
:100A10004901F0914A016287738784879587089519
:100A2000E0914901F0914A018489882381F4F89486
:100A3000868597859187808780899189A289B389E6
:100A400082879387A487B587789481E0848B089503
:100A50006F927F928F929F92AF92BF92CF92DF92CE
:100A6000EF92FF920F931F93CF93DF935C01F89463
:100A7000C0914901D0914A01EE84FF8428893989C7
:100A80004A895B89789469817A8180E090E00E944C
:100A900047183B014C0100E010E06E0C7F1C801EEB
:100AA000911ECC24DD246A0C7B1C8C1C9D1C60E0F8
:100AB00070E080E090E014C0F894EE84FF84288910
:100AC00039894A895B89789469817A8180E090E0EC
:100AD0000E94471800E010E06E0D7F1D801F911FDF
:100AE00066157705880599053CF3DF91CF911F9135
:100AF0000F91FF90EF90DF90CF90BF90AF909F90BD
:100B00008F907F906F900895BC01F894E091490117
:100B1000F0914A0101C0F8948685978578942481E4
:100B2000358146815781A0E0B0E082179307A40782
:100B3000B50789F7F894868597857894A0E0B0E0AA
:100B400084839583A683B783248135814681578129
:100B5000CB01A0E0B0E0820F931FA41FB51F8483D8
:100B60009583A683B783248135814681578181810E
:100B70009281A0E0B0E0281739074A075B0784F0AC
:100B8000248135814681578181819281A0E0B0E046
:100B9000281B390B4A0B5B0B248335834683578311
:100BA0000895F894E0914901F0914A012089318932
:100BB000428953897894A0E0B0E0820F931FA41F6C
:100BC000B51F20E030E040E050E006C0F8942089F6
:100BD0003189428953897894281739074A075B0776
:100BE000ACF30895E0914901F0914A01158A168A03
:100BF000178A108E118E128E138E148E158E0895F4
:100C0000E0914901F0914A01858D8823A1F4F8947F
:100C100080899189A289B389858B968BA78BB08FA8
:100C200086859785A0E0B0E0818F928FA38FB48FE7
:100C3000789481E0858F0895EF92FF920F931F9330
:100C4000CF93DF93C0914901D0914A018D8D8130BE
:100C500021F0EE24FF24870125C0F89428893989E2
:100C60004A895B898E859F857C0100E010E078943D
:100C70008D899E89AF89B88D281B390B4A0B5B0B78
:100C800069817A8180E090E00E944718298D3A8D31
:100C90004B8D5C8DE21AF30A040B150BE60EF71E62
:100CA000081F191FB701C801DF91CF911F910F9144
:100CB000FF90EF9008950E941C06282FE0914901B3
:100CC000F0914A01858D813049F4158A168A178A78
:100CD000108E118E128E138E148E158E822F089503
:100CE000E0914901F0914A0190E029E130E0AC0146
:100CF000429FC001439F900D529F900D1124E80F19
:100D0000F91F80A186958F700895E0914901F091B7
:100D10004A0190E029E130E0AC01429FC001439FCD
:100D2000900D529F900D1124E80FF91F6F70660F00
:100D300080A1817E862B80A30895E0914901F091E6
:100D40004A0190E029E130E0AC01429FC001439F9D
:100D5000900D529F900D1124E80FF91FDF01D196DD
:100D600061A911967C91119712968C911297139606
:100D70009C910895CF93DF93C0914901D0914A018E
:100D800090E029E130E0FC01E29FC001E39F900D7B
:100D9000F29F900D1124C80FD91FCA01DB01B7FFC4
:100DA00004C080E090E0A0E0B0E089AB9AABABABD0
:100DB000BCABDF91CF910895E0914901F0914A01D8
:100DC00090E029E130E0AC01429FC001439F900DCB
:100DD000529F900D1124E80FF91FDF01919661A138
:100DE00011967C91119712968C91129713969C9163
:100DF0000895E0914901F0914A0190E029E130E045
:100E0000AC01429FC001439F900D529F900D112451
:100E1000E80FF91FDF01959665A111967C91119756
:100E200012968C91129713969C910895E091490126
:100E3000F0914A0190E029E130E0DC01A29FC0017D
:100E4000A39F900DB29F900D1124E80FF91F41A3AD
:100E500052A363A374A30895E0914901F0914A015C
:100E600090E029E130E0DC01A29FC001A39F900D3A
:100E7000B29F900D1124E80FF91F45A356A367A355
:100E800070A70895E0914901F0914A0190E029E1AD
:100E900030E0AC01429FC001439F900D529F900DE6
:100EA0001124E80FF91FDF01999661A511967C9135
:100EB000119712968C91129713969C910895E09138
:100EC0004901F0914A0190E029E130E0DC01A29F64
:100ED000C001A39F900DB29F900D1124E80FF91F40
:100EE00041A752A763A774A70895E0914901F09123
:100EF0004A0190E029E130E0AC01429FC001439FEC
:100F0000900D529F900D1124E80FF91FDF019D965F
:100F100065A511967C91119712968C911297139654
:100F20009C910895CF93DF93C0914901D0914A01DC
:100F300090E029E130E0FC01E29FC001E39F900DC9
:100F4000F29F900D1124C80FD91FCA01DB01B7FF12
:100F500004C080E090E0A0E0B0E08DA79EA7AFA71E
:100F6000B8ABDF91CF910895E0914901F0914A012A
:100F700090E029E130E0AC01429FC001439F900D19
:100F8000529F900D1124E80FF91FDF01D59665A936
:100F900011967C91119712968C91129713969C91B1
:100FA0000895E0914901F0914A0190E029E130E093
:100FB000DC01A29FC001A39F900DB29F900D112450
:100FC000E80FF91F45AB56AB67AB70AF0895E091E2
:100FD0004901F0914A0190E029E130E0AC01429FE3
:100FE000C001439F900D529F900D1124E80FF91FEF
:100FF00080A181700895E0914901F0914A0190E04B
:1010000029E130E0AC01429FC001439F900D529F07
:10101000900D1124E80FF91F80A1816080A308952D
:10102000E0914901F0914A0190E029E130E0AC0102
:10103000429FC001439F900D529F900D1124E80FD5
:10104000F91F80A18E7F80A30895E0914901F0915E
:101050004A0190E029E130E0AC01429FC001439F8A
:10106000900D529F900D1124E80FF91F80A111AA35
:1010700012AA13AA14AA11A212A213A214A215A2B0
:1010800016A217A210A611A612A613A614A615A69C
:1010900016A617A610AA15AA16AA17AA10AE807E21
:1010A00080A308950E9425080895E0914901F091D8
:1010B0004A0190E029E130E0AC01429FC001439F2A
:1010C000900D529F900D1124E80FF91F90A1892FC8
:1010D00086958F70813019F0917E926090A308956B
:1010E000E0914901F0914A0190E029E130E0AC0142
:1010F000429FC001439F900D529F900D1124E80F15
:10110000F91F90A1892F86958F70823019F0917EFA
:10111000946090A308952F923F924F925F926F92A6
:101120007F928F929F92AF92BF92CF92DF92EF9277
:10113000FF920F931F93DF93CF9300D000D0CDB7D2
:10114000DEB74A015B012091490130914A013C839D
:101150002B83A82FB0E0BA83A98389E190E0A89FF0
:10116000F001A99FF00DB89FF00D1124E20FF31FBD
:1011700080A186958F7009F075C011AA12AA13AAD2
:1011800014AA15A616A617A610AA41A752A763A7C8
:1011900074A7F901C084D1842284338444845584A3
:1011A0002181328140E050E0C501B4010E948818DD
:1011B0007B018C01AB81BC8111962D913C911297E2
:1011C00040E050E0C501B4010E948818C901DA016D
:1011D0003C014D015601CC24DD24AE0CBF1CC01EC9
:1011E000D11EEB81FC8181819281A0E0B0E0A81644
:1011F000B906CA06DB0694F00894611C711C811CB8
:10120000911C2181328140E050E0C601B5010E946D
:101210008818AC01CB01DA015C016D0189E190E035
:1012200029813A81289FF001299FF00D389FF00D08
:1012300011248B819C81E80FF91F260C371C481C58
:10124000591C21A232A243A254A2A5A2B6A2C7A2AF
:10125000D0A690A1892F86958F70813019F0917E4C
:10126000926090A30F900F900F900F90CF91DF910D
:101270001F910F91FF90EF90DF90CF90BF90AF90B4
:101280009F908F907F906F905F904F903F902F90A6
:101290000895DF92EF92FF920F931F93D82E7A0159
:1012A0008B010E9425088D2DB801A7010E948B0893
:1012B0001F910F91FF90EF90DF9008952F923F9232
:1012C0004F925F926F927F928F929F92AF92BF9256
:1012D000CF92DF92EF92FF920F931F93DF93CF9302
:1012E00000D000D000D0CDB7DEB7209049013090BB
:1012F0004A01282F30E03E832D8389E190E0289F2A
:10130000B001299F700D389F700D1124620D731D5F
:10131000DB0190968C91909786958F70813009F0C3
:10132000B3C0F1012285338544855585808591853B
:101330002C016624772491968D909D90AD90BC9061
:101340009497821A930AA40AB50AB7FE03C08824A8
:1013500099245401D10111962D913C91129789E164
:1013600090E04D815E81489FF001499FF00D589FAC
:10137000F00D1124E20DF31DE5A0F6A007A110A5C4
:10138000E418F5080609170917FF03C0EE24FF2427
:10139000870140E050E0C501B4010E9447186E0D7E
:1013A0007F1D801F911F29E130E0AD81BE81A29F8A
:1013B000F001A39FF00DB29FF00D1124E20DF31D7B
:1013C00065A776A787A790AB21A532A543A554A50D
:1013D000261B370B480B590B57FF04C020E030E0A9
:1013E00040E050E021AB32AB43AB54AB89E190E03D
:1013F000ED81FE81E89FB001E99F700DF89F700DAF
:101400001124620D731DFB0185A596A5A7A5B0A9A2
:10141000181619061A061B060CF4C6C0DB019196B5
:101420001D921D921D921C92949715A216A217A2AE
:1014300010A69D961D921D921D921C92D097B99652
:1014400099962C91318142815381C901DA01B7FF0C
:1014500004C080E090E0A0E0B0E0FB0181AB92AB83
:10146000A3ABB4AB89E190E02D813E81289FF001D0
:10147000299FF00D389FF00D1124E20DF31D80A17E
:10148000817E886080A390C0823009F08DC0D10138
:101490001A968D919D910D90BC91A02D89839A8370
:1014A000AB83BC83F10180849184DB019D96AD9078
:1014B000BD90CD90DC90D0972181328140E050E00A
:1014C000C601B5010E9488187B018C01F1012181C0
:1014D000328140E050E0C601B5010E948818C90180
:1014E000DA012C013D01AA24BB248E0C9F1CA01EF6
:1014F000B11ED10111968D919C911297A0E0B0E0A0
:1015000088169906AA06BB069CF00894411C511C3B
:10151000611C711CF1012181328140E050E0C50164
:10152000B4010E948818AC01CB01DA014C015D01C5
:1015300089E190E02D813E81289F8001299F100D37
:10154000389F100D1124020D131D89819A81AB81E2
:10155000BC81840D951DA61DB71DF80181A392A322
:10156000A3A3B4A3D80195968D929D92AD92BC92FF
:10157000989799962D913D914D915C919C979D9650
:101580008D919D910D90BC91A02D281B390B4A0B7C
:101590005B0B57FF04C020E030E040E050E0F80172
:1015A00021AB32AB43AB54AB26960FB6F894DEBFFB
:1015B0000FBECDBFCF91DF911F910F91FF90EF90A4
:1015C000DF90CF90BF90AF909F908F907F906F9063
:1015D0005F904F903F902F90089540E0E091490137
:1015E000F0914A0190E029E130E0BC01629FC00126
:1015F000639F900D729F900D1124E80FF91F80A139
:1016000086958F70843009F441E0842F0895482F27
:10161000E0914901F0914A01282F30E089E190E002
:10162000BC01269FC001279F900D369F900D11246D
:10163000E80FF91F80A186958F70843011F080E04B
:101640000895842F0E94250881E00895E0914901C2
:10165000F0914A0190E029E130E0DC01A29FC00155
:10166000A39F900DB29F900D1124E80FF91F80A148
:1016700080FD0FC081A992A9A3A9B4A9840F951FC9
:10168000A61FB71F85AB96ABA7ABB0AF80A181609B
:1016900080A30895E0914901F0914A0190E029E189
:1016A00030E0AC01429FC001439F900D529F900DCE
:1016B0001124E80FF91F25A936A947A950AD81A922
:1016C00092A9A3A9B4A9281B390B4A0B5B0B57FF9E
:1016D00004C020E030E040E050E0B901CA010895C4
:1016E000CF93DF93C0914901D0914A01682F70E0F8
:1016F00089E190E0689FF001699FF00D789FF00DFF
:101700001124EC0FFD1F25A936A947A950AD81A9C9
:1017100092A9A3A9B4A9281B390B4A0B5B0B57FD4F
:1017200007C0211531054105510511F020E012C017
:1017300020E089E190E0AC01649FC001659F900DBD
:10174000749F900D1124C80FD91F88A180FF21E03C
:1017500081E02827822FDF91CF9108951F93182FC2
:101760000E94700B813011F080E016C0E0914901B9
:10177000F0914A01212F30E089E190E0AC01249FF3
:10178000C001259F900D349F900D1124E80FF91F83
:1017900080A18E7F80A381E01F91089580E00E9448
:1017A0005E09089580E00E9425080895E0914901AE
:1017B000F0914A0190E025E130E0AC01429FC00188
:1017C000439F900D529F900D1124E80FF91F81AD9A
:1017D00086958F700895E0914901F0914A0190E05B
:1017E00025E130E0AC01429FC001439F900D529F24
:1017F000900D1124E80FF91F6F70660F81AD817E87
:10180000862B81AF0895E0914901F0914A0190E063
:1018100025E130E0AC01429FC001439F900D529FF3
:10182000900D1124E80FF91FEA5BFF4F6081718171
:10183000828193810895E0914901F0914A0190E0FD
:1018400025E130E0DC01A29FC001A39F900DB29F73
:10185000900D1124E80FF91FEA5BFF4F408351837D
:10186000628373830895E0914901F0914A0190E009
:1018700025E130E0AC01429FC001439F900D529F93
:10188000900D1124E80FF91FDF01DA9662AD119671
:101890007C91119712968C91129713969C910895B2
:1018A000E0914901F0914A0190E025E130E0DC014E
:1018B000A29FC001A39F900DB29F900D1124E80F2D
:1018C000F91F42AF53AF64AF75AF0895E09149017E
:1018D000F0914A0190E025E130E0AC01429FC00167
:1018E000439F900D529F900D1124E80FF91FFE9613
:1018F00060817181828193810895E0914901F09125
:101900004A0190E025E130E0DC01A29FC001A39FE5
:10191000900DB29F900D1124E80FF91FFE964083A1
:101920005183628373830895E0914901F0914A01E4
:1019300090E025E130E0AC01429FC001439F900D53
:10194000529F900D1124E80FF91FEE5BFF4F60814D
:101950007181828193810895E0914901F0914A015A
:1019600090E025E130E0DC01A29FC001A39F900D33
:10197000B29F900D1124E80FF91FEE5BFF4F4083DB
:101980005183628373830895E0914901F0914A0184
:1019900090E025E130E0AC01429FC001439F900DF3
:1019A000529F900D1124E80FF91FE65BFF4F6081F5
:1019B0007181828193810895E0914901F0914A01FA
:1019C00090E025E130E0DC01A29FC001A39F900DD3
:1019D000B29F900D1124E80FF91FE65BFF4F408383
:1019E0005183628373830895E0914901F0914A0124
:1019F00090E025E130E0AC01429FC001439F900D93
:101A0000529F900D1124E80FF91F81AD8170089548
:101A1000E0914901F0914A0190E025E130E0AC010C
:101A2000429FC001439F900D529F900D1124E80FDB
:101A3000F91F81AD816081AF0895E0914901F09176
:101A40004A0190E025E130E0AC01429FC001439F94
:101A5000900D529F900D1124E80FF91F81AD8E7FDC
:101A600081AF0895E0914901F0914A0190E025E1AC
:101A700030E0AC01429FC001439F900D529F900DFA
:101A80001124E80FF91F81ADEA5BFF4F108211822C
:101A900012821382E654F04012AE13AE14AE15AEAD
:101AA000FE9611921192119211921082118212825D
:101AB000138238961082118212821382EA54F04007
:101AC000807E81AF08950E94320D0895E091490112
:101AD000F0914A0190E025E130E0AC01429FC00165
:101AE000439F900D529F900D1124E80FF91F91AD67
:101AF000892F86958F70813019F0917E926091AF19
:101B00000895E0914901F0914A0190E025E130E02B
:101B1000AC01429FC001439F900D529F900D112434
:101B2000E80FF91F91AD892F86958F70823019F0DB
:101B3000917E946091AF0895A0914901B0914A01BE
:101B400090E025E130E0829FF001839FF00D929FAD
:101B5000F00D1124EA0FFB1F81AD86958F7031F5D2
:101B6000EA5BFF4F1082118212821382129212924C
:101B7000129212927293629352934293FE971A9624
:101B80008D919D910D90BC91A02D840F951FA61F46
:101B9000B71F82AF93AFA4AFB5AF91AD892F869534
:101BA0008F70813019F0917E926091AF0895DF922D
:101BB000EF92FF920F931F93D82E7A018B010E9410
:101BC000320D8D2DB801A7010E949C0D1F910F9120
:101BD000FF90EF90DF900895EF92FF920F931F9385
:101BE000CF93DF93A0914901B0914A0190E025E1A4
:101BF00030E0829FF001839FF00D929FF00D112441
:101C0000EA0FFB1F81AD86958F70813009F042C0CD
:101C10001A968D919D910D90BC91A02D22AD33AD62
:101C200044AD55AD281B390B4A0B5B0BBF016E5BF6
:101C30007F4FDB012D933D934D935C931397EF0101
:101C4000CA5BDF4FFE96E080F18002811381FE9730
:101C5000D801C701821B930BA40BB50B8883998312
:101C6000AA83BB831216130614061506CCF112AE16
:101C700013AE14AE15AEDB011D921D921D921C9287
:101C80001397E882F9820A831B8381AD817E886085
:101C900081AF26C0823021F51A968D919D910D90CD
:101CA000BC91A02DEE5BFF4F208131814281538199
:101CB000E254F040820F931FA41FB51F82AF93AF71
:101CC000A4AFB5AFFE9680819181A281B381821BC2
:101CD000930BA40BB50B389680839183A283B383B7
:101CE000DF91CF911F910F91FF90EF90089540E009
:101CF000E0914901F0914A0190E025E130E0BC011A
:101D0000629FC001639F900D729F900D1124E80F98
:101D1000F91F81AD86958F70843009F441E0842FDE
:101D20000895482FE0914901F0914A01282F30E0B1
:101D300085E190E0BC01269FC001279F900D369F52
:101D4000900D1124E80FF91F81AD86958F708430B6
:101D500011F080E00895842F0E94320D81E00895F3
:101D6000CF93DF93C0914901D0914A0190E025E1E2
:101D700030E0FC01E29FC001E39F900DF29F900DC7
:101D80001124C80FD91F89AD80FD16C0FE01E65B86
:101D9000FF4FCA5BDF4F88819981AA81BB81C654FE
:101DA000D040840F951FA61FB71F80839183A28305
:101DB000B38389AD816089AFDF91CF910895E091C0
:101DC0004901F0914A0190E025E130E0AC01429FE9
:101DD000C001439F900D529F900D1124E80FF91FF1
:101DE000DF01AA5BBF4FE65BFF4F2081318142815B
:101DF00053818D919D910D90BC91A02D281B390B85
:101E00004A0B5B0B57FF04C020E030E040E050E09D
:101E1000B901CA010895CF93DF93C0914901D091D0
:101E20004A01682F70E085E190E0689FF001699FAA
:101E3000F00D789FF00D1124EC0FFD1FDF01AA5B60
:101E4000BF4FE65BFF4F20813181428153818D91ED
:101E50009D910D90BC91A02D281B390B4A0B5B0B5B
:101E600057FD07C0211531054105510511F020E04E
:101E700012C020E085E190E0AC01649FC001659F45
:101E8000900D749F900D1124C80FD91F89AD80FF4C
:101E900021E081E02827822FDF91CF9108951F93C1
:101EA000182F0E940B0F813011F080E016C0E091D6
:101EB0004901F0914A01212F30E085E190E0AC0129
:101EC000249FC001259F900D349F900D1124E80F91
:101ED000F91F81AD8E7F81AF81E01F91089580E071
:101EE0000E94EC0D089580E00E94320D0895E0916B
:101EF0004901F0914A0190E09C0144E0220F331F18
:101F00004A95E1F7280F391FE20FF31FE25BFF4FFD
:101F1000808186958F700895E0914901F0914A0182
:101F200090E09C0154E0220F331F5A95E1F7280FEF
:101F3000391FE20FF31FE25BFF4F6F70660F808166
:101F4000817E862B80830895E0914901F0914A01BA
:101F500090E09C0164E0220F331F6A95E1F7280F9F
:101F6000391FE20FF31FE95AFF4F608171818281AF
:101F700093810895E0914901F0914A0190E09C011C
:101F8000A4E0220F331FAA95E1F7280F391FE20FB3
:101F9000F31FE95AFF4F408351836283738308958F
:101FA000E0914901F0914A0190E09C01B4E0220FD8
:101FB000331FBA95E1F7280F391FE20FF31FE15BDA
:101FC000FF4F60817181828193810895E091490181
:101FD000F0914A0190E09C0144E0220F331F4A95A2
:101FE000E1F7280F391FE20FF31FED5AFF4F608111
:101FF0007181828193810895E0914901F0914A01B4
:1020000090E09C01A4E0220F331FAA95E1F7280F6E
:10201000391FE20FF31FE15BFF4F4083518362835F
:1020200073830895E0914901F0914A0190E09C0189
:10203000B4E0220F331FBA95E1F7280F391FE20FE2
:10204000F31FED5AFF4F40835183628373830895DA
:10205000E0914901F0914A0190E09C0144E0220F97
:10206000331F4A95E1F7280F391FE20FF31FE55A96
:10207000FF4F60817181828193810895E0914901D0
:10208000F0914A01282F30E077FF11C0C901B4E078
:10209000880F991FBA95E1F7820F931FE80FF91F78
:1020A000E55AFF4F10821182128213820895C901EE
:1020B000A4E0880F991FAA95E1F7820F931FE80FFC
:1020C000F91FE55AFF4F408351836283738308955C
:1020D000E0914901F0914A0190E09C0144E0220F17
:1020E000331F4A95E1F7280F391FE20FF31FE25B18
:1020F000FF4F808181700895E0914901F0914A017C
:1021000090E09C0154E0220F331F5A95E1F7280F0D
:10211000391FE20FF31FE25BFF4F808181608083F4
:102120000895E0914901F0914A0190E09C0164E03A
:10213000220F331F6A95E1F7280F391FE20FF31FB3
:10214000E25BFF4F80818E7F80830895E09149019B
:10215000F0914A0190E09C0174E0220F331F7A95C0
:10216000E1F7280F391FE20FF31FED5AFF4F1082DE
:102170001182128213821292129212921292389645
:10218000108211821282138239978081807E80832F
:102190000895E0914901F0914A0190E09C01A4E08A
:1021A000220F331FAA95E1F7280F391FE20FF31F03
:1021B000ED5AFF4F108211821282138212921292F4
:1021C00012921292389610821182128213823997DB
:1021D0008081807E80830895E0914901F0914A01D9
:1021E00090E09C01B4E0220F331FBA95E1F7280F6D
:1021F000391FE20FF31FE25BFF4F9081892F869515
:102200008F70813019F0917E926090830895E091F3
:102210004901F0914A0190E09C0144E0220F331FF4
:102220004A95E1F7280F391FE20FF31FE25BFF4FDA
:102230009081892F86958F70823019F0917E9460FD
:10224000908308952F923F924F925F926F927F9268
:102250008F929F92AF92BF92CF92DF92EF92FF92B6
:102260000F931F93DF93CF9300D000D0CDB7DEB78D
:102270004A015B012091490130914A013C832B8343
:10228000A82FB0E0BA83A983FD0164E0EE0FFF1F21
:102290006A95E1F7EA0FFB1FE20FF31FE25BFF4FC6
:1022A0008081EE54F04086958F7009F072C0E95A33
:1022B000FF4F80829182A282B382F901C084D184CF
:1022C00022843384448455842181328140E050E06B
:1022D000C501B4010E9488187B018C01AB81BC81CF
:1022E00011962D913C91129740E050E0C501B40148
:1022F0000E948818C901DA013C014D015601CC2425
:10230000DD24AE0CBF1CC01ED11EEB81FC8181817F
:102310009281A0E0B0E0A816B906CA06DB0694F0E8
:102320000894611C711C811C911C2181328140E048
:1023300050E0C601B5010E948818AC01CB01DA015A
:102340005C016D01E981FA8154E0EE0FFF1F5A959F
:10235000E1F729813A81E20FF31F8B819C81E80F1D
:10236000F91FE15BFF4F260C371C481C591C2192BA
:10237000319241925192A082B182C282D38235972A
:102380009081892F86958F70813019F0917E9260AF
:1023900090830F900F900F900F90CF91DF911F912E
:1023A0000F91FF90EF90DF90CF90BF90AF909F90F4
:1023B0008F907F906F905F904F903F902F900895F7
:1023C000E0914901F0914A01A82FB0E09D0194E00D
:1023D000220F331F9A95E1F72A0F3B1FE20FF31FDD
:1023E000ED5AFF4F108211821282138212921292C2
:1023F00012921292389610821182128213823997A9
:102400009081907E90830E94221108952F923F9296
:102410004F925F926F927F928F929F92AF92BF92F4
:10242000CF92DF92EF92FF920F931F93CF93DF93A0
:10243000C0904901D0904A01082F10E0E80134E033
:10244000CC0FDD1F3A95E1F7C00FD11FCC0DDD1D7C
:10245000C25BDF4F8881CE54D04086958F7081302B
:1024600009F05DC0F601808591854C01AA24BB244A
:1024700082859385A485B585C15BDF4F288039802F
:102480004A805B80281A390A4A0A5B0A57FE03C051
:10249000222433242101F6012181328140E050E0E1
:1024A000C201B1010E944718F80124E0EE0FFF1F9E
:1024B0002A95E1F7E00FF11FEC0DFD1DEF01CD5A5C
:1024C000DF4F288139814A815B81281939094A09FE
:1024D0005B09260F371F481F591FDF01A95ABF4F3D
:1024E0002D933D934D935C93139712161306140688
:1024F00015060CF448C0188219821A821B82E15B0F
:10250000FF4F10821182128213821D921D921D9222
:102510001C9213978291807E8860808334C08230C1
:1025200091F5F60160847184E284F3840485158555
:10253000C95ADF4F288039804A805B8021813281EF
:10254000A180B280289740E050E0C201B1010E9412
:102550008818E20EF31E041F151FE992F9920993E1
:102560001993CC24DD24C201B101A60195010E947A
:10257000881888249924660E771E881E991E688202
:1025800079828A829B82DF91CF911F910F91FF9078
:10259000EF90DF90CF90BF90AF909F908F907F9003
:1025A0006F905F904F903F902F90089540E0E091A2
:1025B0004901F0914A0190E09C0154E0220F331F41
:1025C0005A95E1F7280F391FE20FF31FE25BFF4F27
:1025D000808186958F70843009F441E0842F0895BE
:1025E000E0914901F0914A0190E09C0164E0220FE2
:1025F000331F6A95E1F7280F391FE20FF31FDF0140
:10260000A25BBF4F8C9186958F70843011F080E073
:102610000895ED5AFF4F1082118212821382129296
:1026200012921292129238961082118212821382A2
:102630008C91807E8C9381E00895CF93DF93C0913D
:102640004901D0914A01282F30E0F901A4E0EE0FB2
:10265000FF1FAA95E1F7E20FF31FEC0FFD1FE25BEE
:10266000FF4F8081EE54F04080FD24C0E95AFF4FB7
:1026700081919191A191B191841B950BA60BB70B00
:10268000B7FF05C0108211821282138204C08083BA
:102690009183A283B383F90174E0EE0FFF1F7A9553
:1026A000E1F7E20FF31FEC0FFD1FE25BFF4F8081AC
:1026B00081608083DF91CF910895E0914901F0918D
:1026C0004A0190E09C01B4E0220F331FBA95E1F774
:1026D000280F391FE20FF31FDF01A55ABF4FE95A38
:1026E000FF4F20813181428153818D919D910D90C9
:1026F000BC91A02D281B390B4A0B5B0B57FF04C064
:1027000020E030E040E050E0B901CA010895CF93E5
:10271000DF93C0914901D0914A01682F70E0FB011D
:1027200044E0EE0FFF1F4A95E1F7E60FF71FEC0FAD
:10273000FD1FDF01A55ABF4FE95AFF4F20813181AC
:10274000428153818D919D910D90BC91A02D281BAC
:10275000390B4A0B5B0B57FD07C0211531054105AD
:10276000510511F020E012C020E0CB0134E0880FC9
:10277000991F3A95E1F7860F971FC80FD91FC25BC3
:10278000DF4F888180FF21E081E02827822FDF91C1
:10279000CF9108951F93182F0E948713813011F055
:1027A00080E016C0E0914901F0914A01212F30E00C
:1027B000C90154E0880F991F5A95E1F7820F931FC2
:1027C000E80FF91FE25BFF4F80818E7F808381E0FD
:1027D0001F91089580E00E9406120895E09149013A
:1027E000F0914A01ED5AFF4F10821182128213823A
:1027F00012921292129212923896108211821282C2
:10280000138239978081807E80830895E091490109
:10281000F0914A0190E02DE030E0AC01429FC00110
:10282000439F900D529F900D1124E80FF91FE15A1C
:10283000FF4F808186958F700895E0914901F09156
:102840004A0190E02DE030E0AC01429FC001439F7F
:10285000900D529F900D1124E80FF91FE15AFF4F80
:102860006F70660F8081817E862B80830895E09152
:102870004901F0914A0190E02DE030E0AC01429F27
:10288000C001439F900D529F900D1124E80FF91F36
:10289000EC59FF4F60817181828193810895E091AD
:1028A0004901F0914A0190E02DE030E0DC01A29F67
:1028B000C001A39F900DB29F900D1124E80FF91F46
:1028C000EC59FF4F40835183628373830895E091F5
:1028D0004901F0914A0190E02DE030E0AC01429FC7
:1028E000C001439F900D529F900D1124E80FF91FD6
:1028F000E05AFF4F60817181828193810895E09158
:102900004901F0914A0190E02DE030E0DC01A29F06
:10291000C001A39F900DB29F900D1124E80FF91FE5
:10292000E05AFF4F40835183628373830895E0919F
:102930004901F0914A0190E02DE030E0AC01429F66
:10294000C001439F900D529F900D1124E80FF91F75
:10295000E859FF4F60817181828193810895E091F0
:102960004901F0914A01282F30E077FF13C08DE034
:1029700090E0AC01249FC001259F900D349F900DE5
:102980001124E80FF91FE859FF4F108211821282BB
:10299000138208958DE090E0DC012A9FC0012B9FF7
:1029A000900D3A9F900D1124E80FF91FE859FF4F41
:1029B00040835183628373830895E0914901F091CC
:1029C0004A0190E02DE030E0AC01429FC001439FFE
:1029D000900D529F900D1124E80FF91FE15AFF4FFF
:1029E000808181700895E0914901F0914A0190E061
:1029F0002DE030E0AC01429FC001439F900D529FFB
:102A0000900D1124E80FF91FE15AFF4F808181607A
:102A100080830895E0914901F0914A0190E02DE012
:102A200030E0AC01429FC001439F900D529F900D3A
:102A30001124E80FF91FE15AFF4F80818E7F8083B8
:102A40000895E0914901F0914A0190E02DE030E0D5
:102A5000AC01429FC001439F900D529F900D1124E5
:102A6000E80FF91FE05AFF4F119211921192119243
:102A7000108211821282138235978081807E80833A
:102A80000895E0914901F0914A0190E02DE030E095
:102A9000AC01429FC001439F900D529F900D1124A5
:102AA000E80FF91FE05AFF4F119211921192119203
:102AB000108211821282138235978081807E8083FA
:102AC0000895E0914901F0914A0190E02DE030E055
:102AD000AC01429FC001439F900D529F900D112465
:102AE000E80FF91FE15AFF4F9081892F86958F706B
:102AF000813019F0917E926090830895E0914901B0
:102B0000F0914A0190E02DE030E0AC01429FC0011D
:102B1000439F900D529F900D1124E80FF91FE15A29
:102B2000FF4F9081892F86958F70823019F0917EAA
:102B3000946090830895CF93DF93A0914901B09161
:102B40004A0190E02DE030E0829FF001839FF00D7C
:102B5000929FF00D1124EA0FFB1FEF01C15ADF4FC6
:102B6000888186958F70E9F4EC59FF4F408351833B
:102B7000628373831A968D919D910D90BC91A02DC7
:102B8000840F951FA61FB71FB293A29392938293AF
:102B90009881892F86958F70813019F0917E92608F
:102BA0009883DF91CF910895CF93DF93E09149010E
:102BB000F0914A01A82FB0E02DE030E0E901AC9F90
:102BC0009001AD9F300DBC9F300D1124E20FF31F1B
:102BD000E05AFF4F119211921192119210821182BC
:102BE0001282138235979081907E90830E949B156C
:102BF000DF91CF9108950F931F93CF93DF93A0910F
:102C00004901B0914A0190E02DE030E0829FF0014F
:102C1000839FF00D929FF00D1124EA0FFB1F8F018F
:102C2000015A1F4FE801888186958F70813069F5C0
:102C30001A962D913D914D915C911D97BF01605A5F
:102C40007F4FEB0188819981AA81BB81821B930B05
:102C5000A40BB50BEC59FF4F80839183A283B38300
:102C6000181619061A061B0634F1DB011D921D9277
:102C70001D921C9213971082118212821382E80116
:102C80008881807E8860888316C08230A1F41A967D
:102C90008D919D910D90BC91A02DEC59FF4F2081FD
:102CA000318142815381820F931FA41FB51FB293BC
:102CB000A29392938293DF91CF911F910F910895E8
:102CC00040E0E0914901F0914A0190E02DE030E0D0
:102CD000BC01629FC001639F900D729F900D1124F3
:102CE000E80FF91FE15AFF4F808186958F7084307D
:102CF00009F441E0842F0895E0914901F0914A01DF
:102D000090E02DE030E0AC01429FC001439F900D68
:102D1000529F900D1124E80FF91FDF01A15ABF4FF8
:102D20008C9186958F70843011F080E00895E05A80
:102D3000FF4F119211921192119210821182128200
:102D400013828C91807E8C9381E00895CF93DF93E2
:102D5000C0914901D0914A01282F30E08DE090E0E8
:102D6000289FF001299FF00D389FF00D1124EC0FE2
:102D7000FD1FE15AFF4F8081EF55F04080FD25C0D7
:102D8000EC59FF4F81919191A191B191841B950BC9
:102D9000A60BB70BB7FF05C01082118212821382F7
:102DA00004C080839183A283B3838DE090E0289F49
:102DB000F001299FF00D389FF00D1124EC0FFD1F3D
:102DC000E15AFF4F808181608083DF91CF91089528
:102DD000E0914901F0914A0190E02DE030E0AC0132
:102DE000429FC001439F900D529F900D1124E80F08
:102DF000F91FDF01A859BF4FEC59FF4F20813181E6
:102E0000428153818D919D910D90BC91A02D281BE5
:102E1000390B4A0B5B0B57FF04C020E030E040E069
:102E200050E0B901CA010895CF93DF93C0914901E1
:102E3000D0914A01682F70E08DE090E0689FF0012A
:102E4000699FF00D789FF00D1124EC0FFD1FDF013D
:102E5000A859BF4FEC59FF4F2081318142815381E6
:102E60008D919D910D90BC91A02D281B390B4A0B83
:102E70005B0B57FD07C0211531054105510511F0C8
:102E800020E014C020E08DE090E0AC01649FC00120
:102E9000659F900D749F900D1124C80FD91FC15AC2
:102EA000DF4F888180FF21E081E02827822FDF919A
:102EB000CF9108951F93182F0E941417813011F09D
:102EC00080E018C0E0914901F0914A01212F30E0E3
:102ED0008DE090E0AC01249FC001259F900D349FB0
:102EE000900D1124E80FF91FE15AFF4F80818E7F6A
:102EF000808381E01F91089580E00E94FB15089572
:102F0000E0914901F0914A01E05AFF4F119211926C
:102F10001192119210821182128213823597808150
:102F2000807E808308950E94730F0E94EE130E949A
:102F3000801708950F931F938C010E94FC02C80113
:102F40000E94E7030E9493171F910F910895E0914B
:102F50004901F0914A01868D82FF09C00E94100547
:102F6000E0914901F0914A01868D8B7F868FE09137
:102F70004901F0914A01868D80FF0BC00E94100527
:102F80000E946F0FE0914901F0914A01868D8E7F7A
:102F9000868FE0914901F0914A01868D83FF0BC035
:102FA0000E9410050E94EA13E0914901F0914A0144
:102FB000868D877F868FE0914901F0914A01868D49
:102FC00081FF0BC00E9410050E947C17E09149010F
:102FD000F0914A01868D8D7F868FE0914901F091B5
:102FE0004A01148A0895E0914901F0914A018685C9
:102FF0009785019697878687868D8460868F868DD4
:103000008860868F268537858181928128173907C8
:1030100098F080899189A289B3890196A11DB11D7B
:10302000808B918BA28BB38B17861686868D8160E1
:10303000868F868D8260868F08951F920F920FB6BD
:103040000F9211242F933F934F935F936F937F932E
:103050008F939F93AF93BF93EF93FF93E0914901B9
:10306000F0914A01838186BD0E94F317FF91EF9191
:10307000BF91AF919F918F917F916F915F914F9190
:103080003F912F910F900FBE0F901F901895629F48
:10309000D001739FF001829FE00DF11D649FE00D50
:1030A000F11D929FF00D839FF00D749FF00D659FB1
:1030B000F00D9927729FB00DE11DF91F639FB00DB0
:1030C000E11DF91FBD01CF0111240895A1E21A2EBF
:1030D000AA1BBB1BFD010DC0AA1FBB1FEE1FFF1FBC
:1030E000A217B307E407F50720F0A21BB30BE40B0C
:1030F000F50B661F771F881F991F1A9469F7609553
:103100007095809590959B01AC01BD01CF0108950C
:1031100097FB092E05260ED057FD04D0D7DF0AD025
:10312000001C38F450954095309521953F4F4F4FF6
:103130005F4F0895F6F790958095709561957F4F54
:0A3140008F4F9F4F0895F894FFCFC2
:10314A0054696D65626173650D0A000D0A002000FD
:0A315A00010008004000000100041D
:00000001FF
