:100000000C9434000C9451000C9451000C94510049
:100010000C9451000C9451000C9451000C9451001C
:100020000C9451000C9451000C9451000C9451000C
:100030000C9451000C9451000C9451000C945100FC
:100040000C9487150C9451000C94D0170C9451000B
:100050000C9451000C9451000C9451000C945100DC
:100060000C9451000C94510011241FBECFEFD8E026
:10007000DEBFCDBF11E0A0E0B1E0ECEEF0E302C0E6
:1000800005900D92A431B107D9F711E0A4E1B1E0D8
:1000900001C01D92A73AB107E1F70E9453000C94EA
:1000A00074180C94000060E071EE80E090E00E9413
:1000B000F41788EE93E00E9402158AB180668AB92F
:1000C0008BB18F798BB988E893E12CE231E0F901AB
:1000D0003197F1F70197D9F780E040E25EE460E004
:1000E00070E00E94900580E042E150E060E070E046
:1000F0000E94F40A80E040E051E762E070E00E9474
:10010000990E80E04EE050E060E070E00E94031342
:1001100082E390E00E94070380E00E94A2030E9415
:10012000611780E091E00E94F21680E00E940909C8
:100130000E94611780E091E00E94F21680E00E9428
:100140001B0D0E94611780E091E00E94F21680E092
:100150000E949F110E94611782E091E00E94F216B6
:100160005E9A0E940F155E98D3CF85E491E090933C
:1001700044018093430110924501809145018460C0
:10018000809345018091450187708093450181E00E
:1001900090E090934701809346011092480110929D
:1001A0005401109253011092550110925601109271
:1001B00057011092580110924E0110924D01109269
:1001C0004F01109250011092510110925201109261
:1001D00059011092490110924A0110924B0110925C
:1001E0004C0110925A0110927401109275011092F4
:1001F0007601109277011092780110927901109295
:100200007A0110927B0110927C0110927D01109274
:100210007E0110927F011092800110928101109254
:100220008201109283011092840110928501109234
:100230008601109287011092880110925B01109242
:100240005C0110925D0110925E0110925F011092AC
:10025000600110926101109262011092630110928C
:10026000640110926501109266011092670110926C
:1002700068011092690110926A0110926B0110924C
:100280006C0110926D0110926E0110926F0110922C
:10029000700110927101109272011092730110920C
:1002A0009A0110929B0110929C0110929D01109254
:1002B0009E0110929F011092A0011092A101109234
:1002C000A2011092A3011092A4011092A501109214
:1002D000A6011092890110928A0110928B0110924E
:1002E0008C0110928D0110928E0110928F0110924C
:1002F000900110929101109292011092930110922C
:10030000940110929501109296011092970110920B
:1003100098011092990108957F928F929F92AF92C7
:10032000BF92CF92DF92EF92FF920F931F93DF93D2
:10033000CF93CDB7DEB72A970FB6F894DEBF0FBEC6
:10034000CDBF8C01C0904301D0904401F601808163
:1003500080FF31C00130110511F496E019C0023060
:10036000110511F495E014C00430110511F494E066
:100370000FC00830110511F493E00AC000311105D7
:1003800011F492E005C090E00032110509F491E00B
:10039000F89484B7877F84BF8091600080688093E1
:1003A0006000809160008861809360009064909309
:1003B0006000789467C081FD65C082FF63C0DE0184
:1003C0001196E5E0F1E08AE001900D928150E1F7AD
:1003D000980140E050E060E07BE187EB90E00E9414
:1003E0005918722E832E942EE52E5E010894A11CBE
:1003F000B11CC901DA019C01AD01FF2414C0F50153
:10040000219131915F0140E050E0672D782D892DD9
:100410009E2D0E945918C901DA019C01AD01F39487
:10042000F5E0FF1631F02F3F31054105510509F088
:1004300034F78F2D815014BC15BC10926E0015BA84
:1004400017BC18BC16BC17BC882311F481E00FC080
:10045000813011F482E00BC0823011F483E007C0D8
:10046000833011F484E003C0843011F485E085BD4D
:10047000822F8095F6018383838186BD81E08093FE
:100480006E007894F601128301832A960FB6F894D1
:10049000DEBF0FBECDBFCF91DF911F910F91FF90B7
:1004A000EF90DF90CF90BF90AF909F908F907F9014
:1004B0000895F894089578940895E0914301F09197
:1004C000440126853785C9010895E0914301F091E3
:1004D00044012089318942895389B901CA010895AB
:1004E000E0914301F091440120853185C9010895CF
:1004F000E0914301F091440122853385448555857F
:10050000B901CA010895E0914301F0914401918736
:1005100080870895E0914301F091440162877387D9
:10052000848795870895E0914301F091440184897F
:10053000882381F4F89486859785918780878089C0
:100540009189A289B38982879387A487B587789494
:1005500081E0848B08956F927F928F929F92AF92E9
:10056000BF92CF92DF92EF92FF920F931F93CF93A0
:10057000DF935C01F894C0914301D0914401EE8473
:10058000FF84288939894A895B89789469817A81CD
:1005900080E090E00E9418183B014C0100E010E060
:1005A0006E0C7F1C801E911ECC24DD246A0C7B1CEB
:1005B0008C1C9D1C60E070E080E090E014C0F8941A
:1005C000EE84FF84288939894A895B897894698116
:1005D0007A8180E090E00E94181800E010E06E0D33
:1005E0007F1D801F911F66157705880599053CF3CF
:1005F000DF91CF911F910F91FF90EF90DF90CF90FF
:10060000BF90AF909F908F907F906F900895BC01A6
:10061000F894E0914301F091440101C0F89486857B
:10062000978578942481358146815781A0E0B0E098
:1006300082179307A407B50789F7F89486859785ED
:100640007894A0E0B0E084839583A683B783248167
:10065000358146815781CB01A0E0B0E0820F931F26
:10066000A41FB51F84839583A683B7832481358116
:100670004681578181819281A0E0B0E02817390737
:100680004A075B0784F02481358146815781818147
:100690009281A0E0B0E0281B390B4A0B5B0B24834E
:1006A0003583468357830895F894E0914301F09190
:1006B000440120893189428953897894A0E0B0E0CF
:1006C000820F931FA41FB51F20E030E040E050E0F0
:1006D00006C0F89420893189428953897894281773
:1006E00039074A075B07ACF30895E0914301F091A5
:1006F000440190E029E130E0AC01429FC001439FFA
:10070000900D529F900D1124E80FF91F8689869550
:100710008F700895E0914301F091440190E029E148
:1007200030E0AC01429FC001439F900D529F900D5D
:100730001124E80FF91F6F70660F8689817E862B62
:10074000868B0895E0914301F091440190E029E106
:1007500030E0AC01429FC001439F900D529F900D2D
:100760001124E80FF91FDF01979667A111967C917C
:10077000119712968C91129713969C910895CF938E
:10078000DF93C0914301D091440190E029E130E032
:10079000FC01E29FC001E39F900DF29F900D112498
:1007A000C80FD91FCA01DB01B7FF04C080E090E089
:1007B000A0E0B0E08FA398A7A9A7BAA7DF91CF9137
:1007C0000895E0914301F091440190E029E130E087
:1007D000AC01429FC001439F900D529F900D112488
:1007E000E80FF91FDF015796678911967C911197E1
:1007F00012968C91129713969C910895E091430163
:10080000F091440190E029E130E0AC01429FC00149
:10081000439F900D529F900D1124E80FF91FDF01A7
:100820005B96638D11967C91119712968C9112971D
:1008300013969C910895E0914301F091440190E05A
:1008400029E130E0DC01A29FC001A39F900DB29F7F
:10085000900D1124E80FF91F478B508F618F728F15
:100860000895E0914301F091440190E029E130E0E6
:10087000DC01A29FC001A39F900DB29F900D112497
:10088000E80FF91F438F548F658F768F0895E0919D
:100890004301F091440190E029E130E0AC01429F36
:1008A000C001439F900D529F900D1124E80FF91F36
:1008B000DF015F96678D11967C91119712968C914E
:1008C000129713969C910895E0914301F091440191
:1008D00090E029E130E0DC01A29FC001A39F900DD0
:1008E000B29F900D1124E80FF91F478F50A361A309
:1008F00072A30895E0914301F091440190E029E151
:1009000030E0AC01429FC001439F900D529F900D7B
:100910001124E80FF91FDF01939663A111967C91D2
:10092000119712968C91129713969C910895CF93DC
:10093000DF93C0914301D091440190E029E130E080
:10094000FC01E29FC001E39F900DF29F900D1124E6
:10095000C80FD91FCA01DB01B7FF04C080E090E0D7
:10096000A0E0B0E08BA39CA3ADA3BEA3DF91CF9189
:100970000895E0914301F091440190E029E130E0D5
:10098000AC01429FC001439F900D529F900D1124D6
:10099000E80FF91FDF019B9663A511967C911197D3
:1009A00012968C91129713969C910895E0914301B1
:1009B000F091440190E029E130E0DC01A29FC00108
:1009C000A39F900DB29F900D1124E80FF91F43A72C
:1009D00054A765A776A70895E0914301F0914401DB
:1009E00090E029E130E0AC01429FC001439F900DAF
:1009F000529F900D1124E80FF91F86898170089588
:100A0000E0914301F091440190E029E130E0AC0134
:100A1000429FC001439F900D529F900D1124E80FFB
:100A2000F91F86898160868B0895E0914301F091DA
:100A3000440190E029E130E0AC01429FC001439FB6
:100A4000900D529F900D1124E80FF91F86898E7F1B
:100A5000868B0895E0914301F091440190E029E1F3
:100A600030E0AC01429FC001439F900D529F900D1A
:100A70001124E80FF91F868917A210A611A612A645
:100A8000178A108E118E128E138E148E158E168E5E
:100A9000178E10A211A212A213A214A215A216A2BE
:100AA00013A614A615A616A6807E868B08950E940E
:100AB0002A050895E0914301F091440190E029E175
:100AC00030E0AC01429FC001439F900D529F900DBA
:100AD0001124E80FF91F9689892F86958F70813030
:100AE00019F0917E9260968B0895E0914301F09108
:100AF000440190E029E130E0AC01429FC001439FF6
:100B0000900D529F900D1124E80FF91F9689892F9F
:100B100086958F70823019F0917E9460968B08953F
:100B20002F923F924F925F926F927F928F929F92FD
:100B3000AF92BF92CF92DF92EF92FF920F931F93EB
:100B4000DF93CF9300D000D0CDB7DEB74A015B0171
:100B500020914301309144013C832B83A82FB0E0C6
:100B6000BA83A98389E190E0A89FF001A99FF00DC5
:100B7000B89FF00D1124E20FF31F868986958F70C0
:100B800009F075C017A210A611A612A613A214A2EE
:100B900015A216A2478F50A361A372A3F901C084C6
:100BA000D18422843384448455842181328140E07D
:100BB00050E0C501B4010E9459187B018C01AB8142
:100BC000BC8111962D913C91129740E050E0C501F7
:100BD000B4010E945918C901DA013C014D015601C6
:100BE000CC24DD24AE0CBF1CC01ED11EEB81FC81C9
:100BF00081819281A0E0B0E0A816B906CA06DB06A2
:100C000094F00894611C711C811C911C218132811B
:100C100040E050E0C601B5010E945918AC01CB017B
:100C2000DA015C016D0189E190E029813A81289F18
:100C3000F001299FF00D389FF00D11248B819C81CC
:100C4000E80FF91F260C371C481C591C278A308EC8
:100C5000418E528EA38EB48EC58ED68E9689892FE4
:100C600086958F70813019F0917E9260968B0F90EF
:100C70000F900F900F90CF91DF911F910F91FF90E8
:100C8000EF90DF90CF90BF90AF909F908F907F902C
:100C90006F905F904F903F902F900895DF92EF926A
:100CA000FF920F931F93D82E7A018B010E942A0581
:100CB0008D2DB801A7010E9490051F910F91FF9003
:100CC000EF90DF9008952F923F924F925F926F9234
:100CD0007F928F929F92AF92BF92CF92DF92EF92CC
:100CE000FF920F931F93DF93CF9300D000D000D0DB
:100CF000CDB7DEB72090430130904401282F30E07B
:100D00003E832D8389E190E0289FB001299F700DDB
:100D1000389F700D1124620D731DDB0156968C9166
:100D2000569786958F70813009F0B3C0F101228506
:100D3000338544855585808591852C0166247724EB
:100D40005796AD90BD90CD90DC905A97A21AB30AF9
:100D5000C40AD50AD7FE03C0AA24BB246501D10169
:100D600011962D913C91129789E190E04D815E8121
:100D7000489FF001499FF00D589FF00D1124E20D9E
:100D8000F31DE38CF48C058D168DE418F508060927
:100D9000170940E050E0C601B5010E941818E60EA0
:100DA000F71E081F191F17FF03C0EE24FF24870139
:100DB00089E190E0AD81BE81A89FF001A99FF00D6F
:100DC000B89FF00D1124E20DF31DE3A2F4A205A3D8
:100DD00016A3878D90A1A1A1B2A18E199F09A00B86
:100DE000B10BB7FF04C080E090E0A0E0B0E087A3C3
:100DF00090A7A1A7B2A789E190E0ED81FE81E89FCD
:100E0000B001E99F700DF89F700D1124620D731DE4
:100E1000FB0183A194A1A5A1B6A1181619061A0673
:100E20001B060CF4C7C0DB0157961D921D921D9244
:100E30001C925A97138E148E158E168E93961D92B1
:100E40001D921D921C9296977F965F962C913181F0
:100E500042815381C901DA01B7FF04C080E090E00C
:100E6000A0E0B0E0FB0187A390A7A1A7B2A789E10A
:100E700090E02D813E81289FF001299FF00D389F41
:100E8000F00D1124E20DF31D8689817E8860868B2A
:100E900091C0823009F08EC0D1011A968D919D913A
:100EA0000D90BC91A02D89839A83AB83BC83F10103
:100EB00080849184DB019396AD90BD90CD90DC90C1
:100EC00096972181328140E050E0C601B5010E9431
:100ED00059187B018C01F1012181328140E050E001
:100EE000C601B5010E945918C901DA012C013D0162
:100EF0005401CC24DD24AE0CBF1CC01ED11ED10178
:100F000011968D919C911297A0E0B0E0A816B906B9
:100F1000CA06DB069CF00894411C511C611C711C24
:100F2000F1012181328140E050E0C601B5010E940B
:100F30005918AC01CB01DA015C016D0189E190E047
:100F40002D813E81289F8001299F100D389F100D13
:100F50001124020D131D89819A81AB81BC81840DFE
:100F6000951DA61DB71DF801878B908FA18FB28F9D
:100F7000D8015B96AD92BD92CD92DC925E975F9662
:100F80002D913D914D915C91929793968D919D916C
:100F90000D90BC91A02D281B390B4A0B5B0B57FF02
:100FA00004C020E030E040E050E0F80127A330A783
:100FB00041A752A726960FB6F894DEBF0FBECDBF4D
:100FC000CF91DF911F910F91FF90EF90DF90CF9025
:100FD000BF90AF909F908F907F906F905F904F9059
:100FE0003F902F90089540E0E0914301F09144013B
:100FF00090E029E130E0BC01629FC001639F900D49
:10100000729F900D1124E80FF91F868986958F70C5
:10101000843009F441E0842F0895482FE091430182
:10102000F0914401282F30E089E190E0BC01269F37
:10103000C001279F900D369F900D1124E80FF91FD6
:10104000868986958F70843011F080E00895842F12
:101050000E942A0581E00895E0914301F091440146
:1010600090E029E130E0DC01A29FC001A39F900D38
:10107000B29F900D1124E80FF91F868980FD0FC0E3
:1010800087A190A5A1A5B2A5840F951FA61FB71F84
:1010900083A794A7A5A7B6A786898160868B0895A4
:1010A000E0914301F091440190E029E130E0AC018E
:1010B000429FC001439F900D529F900D1124E80F55
:1010C000F91F23A534A545A556A587A190A5A1A5DF
:1010D000B2A5281B390B4A0B5B0B57FF04C020E05D
:1010E00030E040E050E0B901CA010895CF93DF93AA
:1010F000C0914301D0914401682F70E089E190E0F4
:10110000689FF001699FF00D789FF00D1124EC0F9E
:10111000FD1F23A534A545A556A587A190A5A1A58A
:10112000B2A5281B390B4A0B5B0B57FD07C02115D5
:1011300031054105510511F020E012C020E089E1A0
:1011400090E0AC01649FC001659F900D749F900D6D
:101150001124C80FD91F8E8980FF21E081E0282744
:10116000822FDF91CF9108951F93182F0E94760848
:10117000813011F080E016C0E0914301F09144010C
:10118000212F30E089E190E0AC01249FC001259F30
:10119000900D349F900D1124E80FF91F86898E7FE2
:1011A000868B81E01F91089580E00E946306089578
:1011B00080E00E942A050895E0914301F0914401E6
:1011C00090E025E130E0AC01429FC001439F900DCB
:1011D000529F900D1124E80FF91F87A586958F70F7
:1011E0000895E0914301F091440190E025E130E061
:1011F000AC01429FC001439F900D529F900D11245E
:10120000E80FF91F6F70660F87A5817E862B87A771
:101210000895E0914301F091440190E025E130E030
:10122000AC01429FC001439F900D529F900D11242D
:10123000E80FF91FDF01DC9664AD11967C911197E0
:1012400012968C91129713969C910895CF93DF93E9
:10125000C0914301D091440190E025E130E0FC01D0
:10126000E29FC001E39F900DF29F900D1124C80FE3
:10127000D91FCA01DB01B7FF04C080E090E0A0E005
:10128000B0E08CAF9DAFAEAFBFAFDF91CF9108950F
:10129000E0914301F091440190E025E130E0AC01A0
:1012A000429FC001439F900D529F900D1124E80F63
:1012B000F91FDF01D09660A911967C9111971296C3
:1012C0008C91129713969C910895E0914301F091AF
:1012D000440190E025E130E0AC01429FC001439F12
:1012E000900D529F900D1124E80FF91FDF01D09649
:1012F00060A911967C91119712968C911297139672
:101300009C910895E0914301F091440190E025E122
:1013100030E0DC01A29FC001A39F900DB29F900D11
:101320001124E80FF91F40AB51AB62AB73AB0895CA
:10133000E0914301F091440190E025E130E0DC01CF
:10134000A29FC001A39F900DB29F900D1124E80FA2
:10135000F91F40AB51AB62AB73AB0895E091430111
:10136000F091440190E025E130E0AC01429FC001E2
:10137000439F900D529F900D1124E80FF91FDF013C
:10138000D49664A911967C91119712968C9112971C
:1013900013969C910895E0914301F091440190E0EF
:1013A00025E130E0DC01A29FC001A39F900DB29F18
:1013B000900D1124E80FF91F44AB55AB66AB77AB2A
:1013C0000895E0914301F091440190E025E130E07F
:1013D000AC01429FC001439F900D529F900D11247C
:1013E000E80FF91FDF01D89660AD11967C91119737
:1013F00012968C91129713969C910895CF93DF9338
:10140000C0914301D091440190E025E130E0FC011E
:10141000E29FC001E39F900DF29F900D1124C80F31
:10142000D91FCA01DB01B7FF04C080E090E0A0E053
:10143000B0E088AF99AFAAAFBBAFDF91CF9108956D
:10144000E0914301F091440190E025E130E0AC01EE
:10145000429FC001439F900D529F900D1124E80FB1
:10146000F91FE05CFF4F6081718182819381089553
:10147000E0914301F091440190E025E130E0DC018E
:10148000A29FC001A39F900DB29F900D1124E80F61
:10149000F91FE05CFF4F408351836283738308959B
:1014A000E0914301F091440190E025E130E0AC018E
:1014B000429FC001439F900D529F900D1124E80F51
:1014C000F91F87A581700895E0914301F0914401CF
:1014D00090E025E130E0AC01429FC001439F900DB8
:1014E000529F900D1124E80FF91F87A5816087A7EF
:1014F0000895E0914301F091440190E025E130E04E
:10150000AC01429FC001439F900D529F900D11244A
:10151000E80FF91F87A58E7F87A70895E091430103
:10152000F091440190E025E130E0AC01429FC00120
:10153000439F900D529F900D1124E80FF91F87A52E
:1015400014AE15AE16AE17AE10AA11AA12AA13AA9F
:1015500014AA15AA16AA17AA10AE11AE12AE13AE8F
:10156000E05CFF4F1082118212821382E054F0403F
:10157000807E87A708950E948E0A0895E091430116
:10158000F091440190E025E130E0AC01429FC001C0
:10159000439F900D529F900D1124E80FF91F97A5BE
:1015A000892F86958F70813019F0917E926097A770
:1015B0000895E0914301F091440190E025E130E08D
:1015C000AC01429FC001439F900D529F900D11248A
:1015D000E80FF91F97A5892F86958F70823019F033
:1015E000917E946097A70895A0914301B091440122
:1015F00090E025E130E0829FF001839FF00D929F03
:10160000F00D1124EA0FFB1F87A586958F7019F541
:1016100014AE15AE16AE17AE10AE11AE12AE13AEBE
:1016200044AB55AB66AB77AB1A968D919D910D90FF
:10163000BC91A02D840F951FA61FB71F80AB91AB47
:10164000A2ABB3AB97A5892F86958F70813019F027
:10165000917E926097A70895DF92EF92FF920F9389
:101660001F93D82E7A018B010E948E0A8D2DB8010E
:10167000A7010E94F40A1F910F91FF90EF90DF9055
:1016800008950F931F93CF93DF936091430170915F
:101690004401082F10E085E190E0089FF001099FC8
:1016A000F00D189FF00D1124E60FF71F87A5869502
:1016B0008F70813009F073C0EB018A859B85AC8502
:1016C000BD8520A931A942A953A9281B390B4A0B72
:1016D0005B0B57FF04C020E030E040E050E085E1C4
:1016E00090E0089FF001099FF00D189FF00D112464
:1016F000E60FF71F20AF31AF42AF53AF84A995A9D2
:10170000A6A9B7A9821B930BA40BB50BB7FF04C006
:1017100080E090E0A0E0B0E084AF95AFA6AFB7AFB7
:1017200085E190E0089FE001099FD00D189FD00D42
:101730001124C60FD71F88AD99ADAAADBBAD181641
:1017400019061A061B060CF44FC018AA19AA1AAAE1
:101750001BAA18AE19AE1AAE1BAEFE01F4962CA948
:10176000318142815381C901DA01B7FF04C080E0B1
:1017700090E0A0E0B0E08CAF9DAFAEAFBFAF85E131
:1017800090E0089FF001099FF00D189FF00D1124C3
:10179000E60FF71F87A5817E886087A725C0823066
:1017A00019F5EB018A859B85AC85BD8520AD31ADF2
:1017B00042AD53AD820F931FA41FB51F80AB91ABF9
:1017C000A2ABB3AB84A995A9A6A9B7A9821B930B19
:1017D000A40BB50BB7FF04C080E090E0A0E0B0E040
:1017E00084AF95AFA6AFB7AFDF91CF911F910F91A7
:1017F000089540E0E0914301F091440190E025E13B
:1018000030E0BC01629FC001639F900D729F900DFC
:101810001124E80FF91F87A586958F70843009F48D
:1018200041E0842F0895482FE0914301F091440155
:10183000282F30E085E190E0BC01269FC001279F62
:10184000900D369F900D1124E80FF91F87A58695FE
:101850008F70843011F080E00895842F0E948E0AEA
:1018600081E00895E0914301F091440190E025E189
:1018700030E0DC01A29FC001A39F900DB29F900DAC
:101880001124E80FF91F87A580FD13C084AD95AD25
:10189000A6ADB7AD840F951FA61FB71FE05CFF4F25
:1018A00080839183A283B383E054F04087A5816055
:1018B00087A70895E0914301F091440190E025E16C
:1018C00030E0AC01429FC001439F900D529F900DAC
:1018D0001124E80FF91FE05CFF4F20813181428124
:1018E0005381E054F04084AD95ADA6ADB7AD281B53
:1018F000390B4A0B5B0B57FF04C020E030E040E09F
:1019000050E0B901CA010895CF93DF93C09143011C
:10191000D0914401682F70E085E190E0689FF0016C
:10192000699FF00D789FF00D1124EC0FFD1FE05C16
:10193000FF4F2081318142815381E054F04084ADDA
:1019400095ADA6ADB7AD281B390B4A0B5B0B57FD08
:1019500007C0211531054105510511F020E012C0E5
:1019600020E085E190E0AC01649FC001659F900D8F
:10197000749F900D1124C80FD91F8FA580FF21E0FF
:1019800081E02827822FDF91CF9108951F93182F90
:101990000E94840C813011F080E016C0E091430178
:1019A000F0914401212F30E085E190E0AC01249FCB
:1019B000C001259F900D349F900D1124E80FF91F51
:1019C00087A58E7F87A781E01F91089580E00E9400
:1019D000410B089580E00E948E0A0895E091430132
:1019E000F091440190E09C0144E0220F331F4A959E
:1019F000E1F7280F391FE20FF31FEC5BFF4F8081E7
:101A000086958F700895E0914301F091440190E034
:101A10009C0154E0220F331F5A95E1F7280F391F1C
:101A2000E20FF31FEC5BFF4F6F70660F8081817ECA
:101A3000862B80830895E0914301F091440190E06A
:101A40009C0164E0220F331F6A95E1F7280F391FCC
:101A5000E20FF31FE35BFF4F60817181828193810D
:101A60000895E0914301F091440190E09C01A4E0CD
:101A7000220F331FAA95E1F7280F391FE20FF31F3A
:101A8000E35BFF4F40835183628373830895E0914A
:101A90004301F091440190E09C01B4E0220F331F18
:101AA000BA95E1F7280F391FE20FF31FEB5BFF4FE9
:101AB00060817181828193810895E0914301F09169
:101AC000440190E09C0144E0220F331F4A95E1F766
:101AD000280F391FE20FF31FE75BFF4F6081718111
:101AE000828193810895E0914301F091440190E057
:101AF0009C01A4E0220F331FAA95E1F7280F391F9C
:101B0000E20FF31FEB5BFF4F4083518362837383CC
:101B10000895E0914301F091440190E09C01B4E00C
:101B2000220F331FBA95E1F7280F391FE20FF31F79
:101B3000E75BFF4F40835183628373830895E09195
:101B40004301F091440190E09C0144E0220F331FD7
:101B50004A95E1F7280F391FE20FF31FEF5AFF4FA5
:101B600060817181828193810895E0914301F091B8
:101B70004401282F30E077FF11C0C901B4E0880F7D
:101B8000991FBA95E1F7820F931FE80FF91FEF5ADB
:101B9000FF4F10821182128213820895C901A4E0BE
:101BA000880F991FAA95E1F7820F931FE80FF91F7D
:101BB000EF5AFF4F40835183628373830895E0910E
:101BC0004301F091440190E09C0144E0220F331F57
:101BD0004A95E1F7280F391FE20FF31FEC5BFF4F27
:101BE000808181700895E0914301F091440190E07B
:101BF0009C0154E0220F331F5A95E1F7280F391F3B
:101C0000E20FF31FEC5BFF4F8081816080830895BA
:101C1000E0914301F091440190E09C0164E0220FC7
:101C2000331F6A95E1F7280F391FE20FF31FEC5BB2
:101C3000FF4F80818E7F80830895E0914301F09172
:101C4000440190E09C0174E0220F331F7A95E1F784
:101C5000280F391FE20FF31FE75BFF4F108211823D
:101C6000128213821292129212921292389610825B
:101C700011821282138239978081807E8083089539
:101C8000E0914301F091440190E09C01A4E0220F17
:101C9000331FAA95E1F7280F391FE20FF31FE75B07
:101CA000FF4F1082118212821382129212921292AC
:101CB0001292389610821182128213823997808193
:101CC000807E80830895E0914301F091440190E08B
:101CD0009C01B4E0220F331FBA95E1F7280F391F9A
:101CE000E20FF31FEC5BFF4F9081892F86958F7079
:101CF000813019F0917E926090830895E0914301C4
:101D0000F091440190E09C0144E0220F331F4A957A
:101D1000E1F7280F391FE20FF31FEC5BFF4F9081B3
:101D2000892F86958F70823019F0917E9460908310
:101D300008952F923F924F925F926F927F928F926F
:101D40009F92AF92BF92CF92DF92EF92FF920F934A
:101D50001F93DF93CF9300D000D0CDB7DEB74A01F9
:101D60005B0120914301309144013C832B83A82FD8
:101D7000B0E0BA83A983FD0164E0EE0FFF1F6A950E
:101D8000E1F7EA0FFB1FE20FF31FEC5BFF4F8081CF
:101D9000E454F04086958F7009F072C0E35BFF4F0A
:101DA00080829182A282B382F901C084D18422848C
:101DB0003384448455842181328140E050E0C50160
:101DC000B4010E9459187B018C01AB81BC81119632
:101DD0002D913C91129740E050E0C501B4010E9462
:101DE0005918C901DA013C014D015601CC24DD240A
:101DF000AE0CBF1CC01ED11EEB81FC818181928183
:101E0000A0E0B0E0A816B906CA06DB0694F0089474
:101E1000611C711C811C911C2181328140E050E0C9
:101E2000C601B5010E945918AC01CB01DA015C0171
:101E30006D01E981FA8154E0EE0FFF1F5A95E1F739
:101E400029813A81E20FF31F8B819C81E80FF91FF2
:101E5000EB5BFF4F260C371C481C591C219231921A
:101E600041925192A082B182C282D38235979081F1
:101E7000892F86958F70813019F0917E92609083C2
:101E80000F900F900F900F90CF91DF911F910F91B6
:101E9000FF90EF90DF90CF90BF90AF909F908F908A
:101EA0007F906F905F904F903F902F900895E091BA
:101EB0004301F0914401A82FB0E09D0194E0220F6E
:101EC000331F9A95E1F72A0F3B1FE20FF31FE75BE1
:101ED000FF4F10821182128213821292129212927A
:101EE0001292389610821182128213823997908151
:101EF000907E90830E94990E08952F923F924F9268
:101F00005F926F927F928F929F92AF92BF92CF9289
:101F1000DF92EF92FF920F931F93CF93DF93E091A5
:101F20004301F091440190E0EC0144E0CC0FDD1F4F
:101F30004A95E1F7C80FD91FCE0FDF1F34E4C32E37
:101F4000D12CCC0EDD1ED6018C9186958F70813000
:101F500009F04EC0E084F18400E010E062847384F4
:101F60008484958425E4A22EB12CAC0EBD1ED5012F
:101F70002D913D914D915C912619370948095909D8
:101F80006181728180E090E00E9418186E197F09CB
:101F9000800B910BDE01A75BBF4F2D913D914D91C1
:101FA0005C911397620F731F841F951FFE01E35B03
:101FB000FF4F60837183828393831616170618067A
:101FC00019060CF448C01D921D921D921C92139785
:101FD000D5011D921D921D921C92139710821182A1
:101FE00012821382F6018081807E8860808333C0F4
:101FF000823089F560847184E284F38404851585D8
:10200000C35BDF4F288039804A805B802181328129
:10201000A180B280289740E050E0C201B1010E9447
:102020005918E20EF31E041F151FE992F992099345
:102030001993CC24DD24C201B101A60195010E94AF
:10204000591888249924660E771E881E991E688266
:1020500079828A829B82DF91CF911F910F91FF90AD
:10206000EF90DF90CF90BF90AF909F908F907F9038
:102070006F905F904F903F902F90089540E0E091D7
:102080004301F091440190E09C0154E0220F331F82
:102090005A95E1F7280F391FE20FF31FEC5BFF4F52
:1020A000808186958F70843009F441E0842F0895F3
:1020B000E0914301F091440190E09C0164E0220F23
:1020C000331F6A95E1F7280F391FE20FF31FDF0175
:1020D000AC5BBF4F8C9186958F70843011F080E09F
:1020E0000895E75BFF4F10821182128213821292D1
:1020F00012921292129238961082118212821382D8
:102100008C91807E8C9381E00895CF93DF93C09172
:102110004301D0914401282F30E0F901A4E0EE0FF3
:10212000FF1FAA95E1F7E20FF31FEC0FFD1FEC5B19
:10213000FF4F8081E454F04080FD24C0E35BFF4FFB
:1021400081919191A191B191841B950BA60BB70B35
:10215000B7FF05C0108211821282138204C08083EF
:102160009183A283B383F90174E0EE0FFF1F7A9588
:10217000E1F7E20FF31FEC0FFD1FEC5BFF4F8081D7
:1021800081608083DF91CF910895E0914301F091C8
:10219000440190E09C01B4E0220F331FBA95E1F7AF
:1021A000280F391FE20FF31FDF01AF5ABF4FE35B68
:1021B000FF4F20813181428153818D919D910D90FE
:1021C000BC91A02D281B390B4A0B5B0B57FF04C099
:1021D00020E030E040E050E0B901CA010895CF931B
:1021E000DF93C0914301D0914401682F70E0FB015F
:1021F00044E0EE0FFF1F4A95E1F7E60FF71FEC0FE3
:10220000FD1FDF01AF5ABF4FE35BFF4F20813181DC
:10221000428153818D919D910D90BC91A02D281BE1
:10222000390B4A0B5B0B57FD07C0211531054105E2
:10223000510511F020E012C020E0CB0134E0880FFE
:10224000991F3A95E1F7860F971FC80FD91FCC5BEE
:10225000DF4F888180FF21E081E02827822FDF91F6
:10226000CF9108951F93182F0E94EF10813011F025
:1022700080E016C0E0914301F0914401212F30E04D
:10228000C90154E0880F991F5A95E1F7820F931FF7
:10229000E80FF91FEC5BFF4F80818E7F808381E028
:1022A0001F91089580E00E947D0F0895E091430101
:1022B000F0914401E75BFF4F10821182128213827A
:1022C00012921292129212923896108211821282F7
:1022D000138239978081807E80830895E091430145
:1022E000F091440190E02DE030E0AC01429FC0014C
:1022F000439F900D529F900D1124E80FF91FEB5A48
:10230000FF4F808186958F700895E0914301F09191
:10231000440190E02DE030E0AC01429FC001439FBA
:10232000900D529F900D1124E80FF91FEB5AFF4FAB
:102330006F70660F8081817E862B80830895E09187
:102340004301F091440190E02DE030E0AC01429F68
:10235000C001439F900D529F900D1124E80FF91F6B
:10236000E65AFF4F60817181828193810895E091E7
:102370004301F091440190E02DE030E0DC01A29FA8
:10238000C001A39F900DB29F900D1124E80FF91F7B
:10239000E65AFF4F40835183628373830895E0912F
:1023A0004301F091440190E02DE030E0AC01429F08
:1023B000C001439F900D529F900D1124E80FF91F0B
:1023C000EA5AFF4F60817181828193810895E09183
:1023D0004301F091440190E02DE030E0DC01A29F48
:1023E000C001A39F900DB29F900D1124E80FF91F1B
:1023F000EA5AFF4F40835183628373830895E091CB
:102400004301F091440190E02DE030E0AC01429FA7
:10241000C001439F900D529F900D1124E80FF91FAA
:10242000E25AFF4F60817181828193810895E0912A
:102430004301F0914401282F30E077FF13C08DE075
:1024400090E0AC01249FC001259F900D349F900D1A
:102450001124E80FF91FE25AFF4F108211821282F5
:10246000138208958DE090E0DC012A9FC0012B9F2C
:10247000900D3A9F900D1124E80FF91FE25AFF4F7B
:1024800040835183628373830895E0914301F09107
:10249000440190E02DE030E0AC01429FC001439F39
:1024A000900D529F900D1124E80FF91FEB5AFF4F2A
:1024B000808181700895E0914301F091440190E0A2
:1024C0002DE030E0AC01429FC001439F900D529F30
:1024D000900D1124E80FF91FEB5AFF4F80818160A6
:1024E00080830895E0914301F091440190E02DE054
:1024F00030E0AC01429FC001439F900D529F900D70
:102500001124E80FF91FEB5AFF4F80818E7F8083E3
:102510000895E0914301F091440190E02DE030E016
:10252000AC01429FC001439F900D529F900D11241A
:10253000E80FF91FEA5AFF4F11921192119211926E
:10254000108211821282138235978081807E80836F
:102550000895E0914301F091440190E02DE030E0D6
:10256000AC01429FC001439F900D529F900D1124DA
:10257000E80FF91FEA5AFF4F11921192119211922E
:10258000108211821282138235978081807E80832F
:102590000895E0914301F091440190E02DE030E096
:1025A000AC01429FC001439F900D529F900D11249A
:1025B000E80FF91FEB5AFF4F9081892F86958F7096
:1025C000813019F0917E926090830895E0914301EB
:1025D000F091440190E02DE030E0AC01429FC00159
:1025E000439F900D529F900D1124E80FF91FEB5A55
:1025F000FF4F9081892F86958F70823019F0917EE0
:10260000946090830895CF93DF93A0914301B0919C
:10261000440190E02DE030E0829FF001839FF00DB7
:10262000929FF00D1124EA0FFB1FEF01CB5ADF4FF1
:10263000888186958F70E9F4E65AFF4F4083518375
:10264000628373831A968D919D910D90BC91A02DFC
:10265000840F951FA61FB71FB293A29392938293E4
:102660009881892F86958F70813019F0917E9260C4
:102670009883DF91CF910895CF93DF93E091430149
:10268000F0914401A82FB0E02DE030E0E901AC9FCB
:102690009001AD9F300DBC9F300D1124E20FF31F50
:1026A000EA5AFF4F119211921192119210821182E7
:1026B0001282138235979081907E90830E9403133B
:1026C000DF91CF9108950F931F93CF93DF93A09144
:1026D0004301B091440190E02DE030E0829FF00191
:1026E000839FF00D929FF00D1124EA0FFB1F8F01C5
:1026F0000B5A1F4FE801888186958F70813069F5EC
:102700001A962D913D914D915C911D97BF016A5A8A
:102710007F4FEB0188819981AA81BB81821B930B3A
:10272000A40BB50BE65AFF4F80839183A283B3833A
:10273000181619061A061B0634F1DB011D921D92AC
:102740001D921C9213971082118212821382E8014B
:102750008881807E8860888316C08230A1F41A96B2
:102760008D919D910D90BC91A02DE65AFF4F208137
:10277000318142815381820F931FA41FB51FB293F1
:10278000A29392938293DF91CF911F910F9108951D
:1027900040E0E0914301F091440190E02DE030E011
:1027A000BC01629FC001639F900D729F900D112428
:1027B000E80FF91FEB5AFF4F808186958F708430A8
:1027C00009F441E0842F0895E0914301F091440120
:1027D00090E02DE030E0AC01429FC001439F900D9E
:1027E000529F900D1124E80FF91FDF01AB5ABF4F24
:1027F0008C9186958F70843011F080E00895EA5AAC
:10280000FF4F119211921192119210821182128235
:1028100013828C91807E8C9381E00895CF93DF9317
:10282000C0914301D0914401282F30E08DE090E029
:10283000289FF001299FF00D389FF00D1124EC0F17
:10284000FD1FEB5AFF4F8081E555F04080FD25C00C
:10285000E65AFF4F81919191A191B191841B950B03
:10286000A60BB70BB7FF05C010821182128213822C
:1028700004C080839183A283B3838DE090E0289F7E
:10288000F001299FF00D389FF00D1124EC0FFD1F72
:10289000EB5AFF4F808181608083DF91CF91089553
:1028A000E0914301F091440190E02DE030E0AC0173
:1028B000429FC001439F900D529F900D1124E80F3D
:1028C000F91FDF01A25ABF4FE65AFF4F2081318125
:1028D000428153818D919D910D90BC91A02D281B1B
:1028E000390B4A0B5B0B57FF04C020E030E040E09F
:1028F00050E0B901CA010895CF93DF93C09143011D
:10290000D0914401682F70E08DE090E0689FF00165
:10291000699FF00D789FF00D1124EC0FFD1FDF0172
:10292000A25ABF4FE65AFF4F208131814281538125
:102930008D919D910D90BC91A02D281B390B4A0BB8
:102940005B0B57FD07C0211531054105510511F0FD
:1029500020E014C020E08DE090E0AC01649FC00155
:10296000659F900D749F900D1124C80FD91FCB5AED
:10297000DF4F888180FF21E081E02827822FDF91CF
:10298000CF9108951F93182F0E947C14813011F06D
:1029900080E018C0E0914301F0914401212F30E024
:1029A0008DE090E0AC01249FC001259F900D349FE5
:1029B000900D1124E80FF91FEB5AFF4F80818E7F95
:1029C000808381E01F91089580E00E946313089541
:1029D000E0914301F0914401EA5AFF4F11921192A4
:1029E0001192119210821182128213823597808186
:1029F000807E808308950E94EA0C0E9456110E94F6
:102A0000E81408950F931F938C010E94B500C8012C
:102A10000E948C010E94FB141F910F910895E09178
:102A20004301F0914401858982FF0BC00E9493020B
:102A30000E94D408E0914301F091440185898B7F85
:102A4000858BE0914301F0914401858980FF0BC0A3
:102A50000E9493020E94E60CE0914301F091440130
:102A600085898E7F858BE0914301F09144018589B2
:102A700083FF0BC00E9493020E945211E091430118
:102A8000F09144018589877F858BE0914301F09126
:102A90004401858981FF0BC00E9493020E94E414C7
:102AA000E0914301F091440185898D7F858BE09110
:102AB0004301F0914401148A0895E0914301F0919B
:102AC00044018685978501969787868785898460E6
:102AD000858B85898860858B268537858181928164
:102AE0002817390798F080899189A289B3890196BE
:102AF000A11DB11D808B918BA28BB38B178616867F
:102B000085898160858B85898260858B08951F9278
:102B10000F920FB60F9211242F933F934F935F9311
:102B20006F937F938F939F93AF93BF93EF93FF9395
:102B3000E0914301F0914401838186BD0E945D15BF
:102B4000FF91EF91BF91AF919F918F917F916F9185
:102B50005F914F913F912F910F900FBE0F901F905B
:102B6000189510921401E5E1F1E0119281E0ED3148
:102B7000F807D9F71082118280E290E093A382A334
:102B800015A214A220E004C0EC5EFE4F13862F5F56
:102B900080913F0190914001E22FF0E0E817F907A2
:102BA00098F30895089508959B01AC0160E673EED3
:102BB00086E190E00E94371821503040404050405C
:102BC000E0ECF0E0808182608083BB27A52F942F0A
:102BD000832F8093C5002093C4000895E1ECF0E0BA
:102BE00080818860808386E08093C2000895E1EC54
:102BF000F0E080818061808386E08093C200089548
:102C0000E1ECF0E080818068808378940895982FCB
:102C10008091C00085FFFCCF9093C6000895DF939C
:102C2000CF930F92CDB7DEB719828091C00084FF99
:102C300005C08091C600898381E008C08091C000F2
:102C400083FF07C08091C600898382E080931401CE
:102C500005C08091C60089831092140189810F906C
:102C6000CF91DF91089580911E01089510921E0169
:102C700008951F93CF93DF93AB01BC014F3F5105E4
:102C80006105710509F028F4E8E0F0E0C2E0D0E069
:102C900011C0403080E0580781E0680780E0780785
:102CA00028F0E0E2F0E0C8E0D0E004C0E0E1F0E0CD
:102CB000C4E0D0E08091C00085FFFCCF80E380932A
:102CC000C6008091C00085FFFCCF88E78093C600D6
:102CD00010E01FC03497DB01CA010E2E04C0B69568
:102CE000A795979587950A94D2F790E08F7090708A
:102CF0008A30910520F09C01295C3F4F03C09C0164
:102D0000205D3F4F8091C00085FFFCCF2093C6001F
:102D10001F5F812F90E08C179D07E0F2DF91CF912C
:102D20001F910895CF92DF92EF92FF920F931F931E
:102D3000CF93DF93AB01BC014F3F51056105710596
:102D400009F010F497E00BC0403080E0580781E0B4
:102D5000680780E0780710F09FE101C09FE0809154
:102D6000C00085FFFCCF80E38093C6008091C00047
:102D700085FFFCCF82E68093C60020E030E0E92F9B
:102D8000F0E000E311E3EF012196CF01821B930BEA
:102D90006A017B0104C0F694E794D794C7948A959E
:102DA000D2F7D701C60181709070892B39F08091DC
:102DB000C00085FFFCCF1093C60006C08091C00004
:102DC00085FFFCCF0093C6002F5F3F4F2C173D07B8
:102DD000E1F6DF91CF911F910F91FF90EF90DF907F
:102DE000CF900895AC0120E007C08091C00085FF1E
:102DF000FCCFE093C6002F5FFA01E20FF11DE081E6
:102E0000EE2399F708958FE091E00E94F21608955D
:102E100082E191E00E94F2160895BF92CF92DF9274
:102E2000EF92FF920F931F936B017C016115710567
:102E30008105910531F41092150181E080931D0107
:102E400023C0BB240B2D10E00C5E1E4FC701B60142
:102E50002AE030E040E050E00E943718F80161833A
:102E6000C701B6012AE030E040E050E00E94371888
:102E7000C901DA016C017D01B394C114D104E104EC
:102E8000F10401F7B0921D011F910F91FF90EF9097
:102E9000DF90CF90BF900895E0911D010FC02E2FBD
:102EA0002150E22FF0E0EC5EFE4F91818091C00056
:102EB00085FFFCCF905D9093C600E22FEE2379F75B
:102EC00008959B01AC0197FF0EC08091C00085FF63
:102ED000FCCF8DE28093C6005095409530952195AA
:102EE0003F4F4F4F5F4FCA01B9010E940D170E941B
:102EF0004C170895FC01EC5EFE4F838508952091E8
:102F0000410130914201C90108951092140120E05D
:102F100030E006C0F901EC5EFE4F13862F5F3F4F95
:102F200080913F01909140012817390798F3109242
:102F30004201109241010895DF93CF930F92CDB7D4
:102F4000DEB719820E940F168983809114018823AD
:102F500019F5898180931E01E0914101F0914201B0
:102F60008981EC5EFE4F83878091410190914201FF
:102F7000019690934201809341012091410130914B
:102F8000420180913F01909140012817390720F0BC
:102F900010924201109241010F90CF91DF9108955C
:102FA0001F920F920FB60F9211242F933F934F93BE
:102FB0005F936F937F938F939F93AF93BF93EF93A1
:102FC000FF930E949C17FF91EF91BF91AF919F914A
:102FD0008F917F916F915F914F913F912F910F90C2
:102FE0000FBE0F901F901895EF92FF920F931F93B3
:102FF0007B018C010E94B115C801B7010E94D41554
:10300000E1ECF0E0808188608083A2ECB0E096E0A3
:103010009C938081806180839C9380818068808381
:1030200078940E9485171F910F91FF90EF9008955B
:10303000629FD001739FF001829FE00DF11D649F9C
:10304000E00DF11D929FF00D839FF00D749FF00D28
:10305000659FF00D9927729FB00DE11DF91F639FC9
:10306000B00DE11DF91FBD01CF0111240895A1E2AA
:103070001A2EAA1BBB1BFD010DC0AA1FBB1FEE1FF2
:10308000FF1FA217B307E407F50720F0A21BB30B3D
:10309000E40BF50B661F771F881F991F1A9469F7B9
:1030A00060957095809590959B01AC01BD01CF0115
:1030B000089597FB092E05260ED057FD04D0D7DFC3
:1030C0000AD0001C38F450954095309521953F4F1B
:1030D0004F4F5F4F0895F6F79095809570956195E5
:0C30E0007F4F8F4F9F4F0895F894FFCF53
:1030EC002C000D0A00010008004000000100040D36
:0430FC000A002000A6
:00000001FF
