:100000000C9434000C9451000C9451000C94510049
:100010000C9451000C9451000C945D1E0C945100F2
:100020000C9451000C9451000C9451000C9451000C
:100030000C9451000C9451000C9451000C945100FC
:100040000C94111E0C9451000C9451000C9451000E
:100050000C9451000C9451000C9451000C945100DC
:100060000C9451000C94510011241FBECFEFD8E026
:10007000DEBFCDBF11E0A0E0B1E0E6E5F1E402C0F3
:1000800005900D92A432B107D9F711E0A4E2B1E0D6
:1000900001C01D92AB3BB107E1F70E9453000C94E5
:1000A000A9200C94000060E071EE80E090E00E94D6
:1000B000342088EE93E00E947A1D509A589888E880
:1000C00093E12CE231E0F9013197F1F70197D9F78B
:1000D00080E040E25EE460E070E00E94F80680E0CC
:1000E00042E150E060E070E00E94D90C80E040E026
:1000F00051E762E070E00E945D1180E04EE050E068
:1001000060E070E00E94921680E045E050E060E020
:1001100070E00E94B01A8AE090E00E94CA030E9438
:100120006A1D90E0A0E0B0E0BC01CD010E94F21E8B
:1001300080E091E00E94AB1F0E9445040E941A20BB
:1001400080E091E00E94AB1F80E00E9428190E948D
:100150001A2080E091E00E94AB1F0E941A030E94C7
:100160001A2080E091E00E94AB1F0E941203A0E0E1
:10017000B0E0BC01CD010E941A2080E091E00E9415
:10018000AB1F80E00E94D3040E941A2080E091E01F
:100190000E94AB1F80E00E94BC0A0E941A2080E0EF
:1001A00091E00E94AB1F80E00E947B0F0E941A200A
:1001B00080E091E00E94AB1F80E00E940A150E943F
:1001C0001A2082E091E00E94AB1F80E00E940D1C8B
:1001D000882359F080E045E050E060E070E00E9444
:1001E000B01A85E091E00E94AB1F589A0E948D1DC5
:1001F000589891CF80E391E090932F0180932E0146
:1002000081E090E0909331018093300110923501AC
:10021000109234011092410110924001109242015B
:1002200010924301109244011092450110923B013B
:1002300010923A0110923C0110923D0110923E0141
:1002400010923F0110924601109236011092370130
:100250001092380110923901109248011092470112
:100260001092490110924A0110924B0110924C01D8
:10027000909333018093320110924D0110926B01E3
:1002800010926C0110926D0110926E0110926F012C
:10029000109270011092710110927201109273010C
:1002A00010927401109275011092760110927701EC
:1002B000109278011092790110927A0110927B01CC
:1002C00010927C0110927D0110927E0110927F01AC
:1002D000109280011092810110928201109283018C
:1002E00010924E0110924F01109250011092510144
:1002F0001092520110925301109254011092550124
:100300001092560110925701109258011092590103
:1003100010925A0110925B0110925C0110925D01E3
:1003200010925E0110925F011092600110926101C3
:1003300010926201109263011092640110926501A3
:100340001092660110926701109268011092690183
:1003500010926A011092990110929A0110929B01D9
:1003600010929C0110929D0110929E0110929F018B
:100370001092A0011092A1011092A2011092A3016B
:100380001092A4011092A5011092A6011092A7014B
:100390001092A8011092A901109284011092850177
:1003A00010928601109287011092880110928901A3
:1003B00010928A0110928B0110928C0110928D0183
:1003C00010928E0110928F01109290011092910163
:1003D0001092920110929301109294011092950143
:1003E0001092960110929701109298011092AA0112
:1003F0001092AB011092AC011092AD011092AE01BF
:100400001092AF011092B0011092B1011092B2019E
:100410001092B3011092B4011092B5011092B6017E
:100420001092B7011092B8011092B9011092BA015E
:1004300008958F929F92BF92CF92DF92EF92FF9298
:100440000F931F93DF93CF93CDB7DEB72A970FB6E5
:10045000F894DEBF0FBECDBF4C01DE011196E5E181
:10046000F1E08AE001900D928150E1F7940140E0C3
:1004700050E060E07BE187EB90E00E948E20B22E9E
:10048000C32ED42E052F7E010894E11CF11CC90156
:10049000DA019C01AD0110E013C0F7012191319107
:1004A0007F0140E050E06B2D7C2D8D2D902F0E9420
:1004B0008E20C901DA019C01AD011F5F153031F0BA
:1004C0002F3F31054105510509F03CF7812F81503F
:1004D00014BC15BC10926E0015BA17BC18BC16BC23
:1004E00017BC882311F481E00FC0813011F482E041
:1004F0000BC0823011F483E007C0833011F484E034
:1005000003C0843011F485E085BDE0912E01F091A7
:100510002F018FEF90E0821B930B9583848384815E
:10052000958186BD81E080936E007894918280826F
:100530002A960FB6F894DEBF0FBECDBFCF91DF91E4
:100540001F910F91FF90EF90DF90CF90BF909F9001
:100550008F90089514BC15BC10926E0087E085BB87
:1005600017BC18BC16BC08959C018130910511F48C
:1005700096E019C08230910511F495E014C08430E2
:10058000910511F494E00FC08830910511F493E0C7
:100590000AC08031910511F492E005C090E020324C
:1005A000310509F491E0F89484B7877F84BF809186
:1005B0006000806880936000809160008861809313
:1005C00060009064909360007894E0912E01F09127
:1005D0002F01338322830895F89484B7877F84BFE3
:1005E000E0E6F0E08081806880838081886180839C
:1005F000108278940895F894089578940895E0917D
:100600002E01F0912F0120893189C9010895E091CF
:100610002E01F0912F012289338944895589B9012E
:10062000CA010895E0912E01F0912F0122853385B2
:10063000C9010895E0912E01F0912F01248535859F
:1006400046855785B901CA010895E0912E01F091C0
:100650002F01938782870895E0912E01F0912F0159
:1006600064877587868797870895E0912E01F091BA
:100670002F01208931898089918928173907C9F785
:10068000C9010895E0912E01F0912F01228933894B
:100690004489558982899389A489B589281739079E
:1006A0004A075B0799F7B901CA010895E0912E0145
:1006B000F0912F018689882381F4F89480899189AB
:1006C0009387828782899389A489B589848795874E
:1006D000A687B787789481E0868B08956F927F9282
:1006E0008F929F92AF92BF92CF92DF92EF92FF9242
:1006F0000F931F93CF93DF935C01F894C0912E0169
:10070000D0912F01E888F9882A893B894C895D8935
:1007100078946881798180E090E00E944D203B01CF
:100720004C0100E010E06E0C7F1C801E911ECC245A
:10073000DD246A0C7B1C8C1C9D1C60E070E080E05A
:1007400090E014C0F894E888F9882A893B894C899C
:100750005D8978946881798180E090E00E944D20E5
:1007600000E010E06E0D7F1D801F911F661577055C
:10077000880599053CF3DF91CF911F910F91FF9070
:10078000EF90DF90CF90BF90AF909F908F907F9031
:100790006F900895BC01F894E0912E01F0912F0123
:1007A00001C0F894808991897894268137814085A9
:1007B0005185A0E0B0E082179307A407B50789F739
:1007C000F894808991897894A0E0B0E0868397833B
:1007D000A087B1872681378140855185CB01A0E074
:1007E000B0E0820F931FA41FB51F86839783A08755
:1007F000B187268137814085518580819181A0E034
:10080000B0E0281739074A075B0784F02681378153
:100810004085518580819181A0E0B0E0281B390B93
:100820004A0B5B0B26833783408751870895F894E2
:10083000E0912E01F0912F01228933894489558955
:100840007894A0E0B0E0820F931FA41FB51F20E0B2
:1008500030E040E050E006C0F894228933894489B2
:1008600055897894281739074A075B07ACF3089530
:10087000E0912E01F0912F012789308D8789908D8D
:1008800028173907C9F7C9010895E0912E01F091A1
:100890002F01218D328D438D548D818D928DA38DAD
:1008A000B48D281739074A075B0799F7B901CA01C0
:1008B0000895E0912E01F0912F01908F878B08957C
:1008C000E0912E01F0912F01618F728F838F948FB1
:1008D0000895EF92FF920F931F93BC01F894E0915B
:1008E0002E01F0912F01218D328D438D548D818DFC
:1008F000928DA38DB48D281739074A075B0799F7A6
:1009000078947B0100E010E0E20EF31E041F151F37
:1009100020E030E040E050E00FC0F894218D328DAF
:10092000438D548D818D928DA38DB48D28173907F9
:100930004A075B0799F778942E153F054007510742
:1009400064F31F910F91FF90EF900895E0912E01B5
:10095000F0912F0190E02DE130E0AC01429FC00109
:10096000439F900D529F900D1124E80FF91F868D23
:1009700086958F700895E0912E01F0912F0190E0FF
:100980002DE130E0AC01429FC001439F900D529F8A
:10099000900D1124E80FF91F6F70660F868D817E10
:1009A000862B868F0895E0912E01F0912F0190E023
:1009B0002DE130E0AC01429FC001439F900D529F5A
:1009C000900D1124E80FF91FDF019F9667A511967E
:1009D0007C91119712968C91129713969C91089581
:1009E000CF93DF93C0912E01D0912F0190E02DE1A4
:1009F00030E0FC01E29FC001E39F900DF29F900D5B
:100A00001124C80FD91FCA01DB01B7FF04C080E061
:100A100090E0A0E0B0E08FA798ABA9ABBAABDF91B4
:100A2000CF910895E0912E01F0912F0190E02DE1FA
:100A300030E0AC01429FC001439F900D529F900D4A
:100A40001124E80FF91FDF015F96678D11967C91E5
:100A5000119712968C91129713969C910895E0919C
:100A60002E01F0912F0190E02DE130E0AC01429F8A
:100A7000C001439F900D529F900D1124E80FF91F64
:100A8000DF01939663A111967C91119712968C9138
:100A9000129713969C910895E0912E01F0912F01E9
:100AA00090E02DE130E0DC01A29FC001A39F900DFA
:100AB000B29F900D1124E80FF91F478F50A361A337
:100AC00072A30895E0912E01F0912F0190E02DE1A5
:100AD00030E0DC01A29FC001A39F900DB29F900D5A
:100AE0001124E80FF91F43A354A365A376A3089527
:100AF000E0912E01F0912F0190E02DE130E0AC016A
:100B0000429FC001439F900D529F900D1124E80F0A
:100B1000F91FDF01979667A111967C9111971296A4
:100B20008C91129713969C910895E0912E01F0916B
:100B30002F0190E02DE130E0DC01A29FC001A39FD6
:100B4000900DB29F900D1124E80FF91F47A350A7F5
:100B500061A772A70895E0912E01F0912F0190E016
:100B60002DE130E0AC01429FC001439F900D529FA8
:100B7000900D1124E80FF91FDF019B9663A51196D4
:100B80007C91119712968C91129713969C910895CF
:100B9000CF93DF93C0912E01D0912F0190E02DE1F2
:100BA00030E0FC01E29FC001E39F900DF29F900DA9
:100BB0001124C80FD91FCA01DB01B7FF04C080E0B0
:100BC00090E0A0E0B0E08BA79CA7ADA7BEA7DF9107
:100BD000CF910895E0912E01F0912F0190E02DE149
:100BE00030E0AC01429FC001439F900D529F900D99
:100BF0001124E80FF91FDF01D39663A911967C91A8
:100C0000119712968C91129713969C910895E091EA
:100C10002E01F0912F0190E02DE130E0DC01A29F48
:100C2000C001A39F900DB29F900D1124E80FF91FF2
:100C300043AB54AB65AB76AB0895E0912E01F091D8
:100C40002F0190E02DE130E0AC01429FC001439FB5
:100C5000900D529F900D1124E80FF91F868D817021
:100C60000895E0912E01F0912F0190E02DE130E008
:100C7000AC01429FC001439F900D529F900D1124E3
:100C8000E80FF91F868D8160868F0895E0912E010F
:100C9000F0912F0190E02DE130E0AC01429FC001C6
:100CA000439F900D529F900D1124E80FF91F868DE0
:100CB0008E7F868F0895E0912E01F0912F0190E0B4
:100CC0002DE130E0AC01429FC001439F900D529F47
:100CD000900D1124E80FF91FDF01D79667A911962F
:100CE0007C91119712968C91129713969C9108956E
:100CF000E0912E01F0912F0190E02DE130E0DC0138
:100D0000A29FC001A39F900DB29F900D1124E80FE8
:100D1000F91F47AB50AF61AF72AF0895E0912E015C
:100D2000F0912F0190E02DE130E0AC01429FC00135
:100D3000439F900D529F900D1124E80FF91F868D4F
:100D400017A610AA11AA12AA178E10A211A212A2F7
:100D500013A214A215A216A217A210A611A612A6DB
:100D600013A614A615A616A613AA14AA15AA16AA9F
:100D7000807E868F17AA10AE11AE12AE08950E9423
:100D80008E060895E0912E01F0912F0190E02DE163
:100D900030E0AC01429FC001439F900D529F900DE7
:100DA0001124E80FF91F968D892F86958F70813059
:100DB00019F0917E9260968F0895E0912E01F09146
:100DC0002F0190E02DE130E0AC01429FC001439F34
:100DD000900D529F900D1124E80FF91F968D892FC9
:100DE00086958F70823019F0917E9460968F089569
:100DF0002F923F924F925F926F927F928F929F922B
:100E0000AF92BF92CF92DF92EF92FF920F931F9318
:100E1000DF93CF93CDB7DEB728970FB6F894DEBF38
:100E20000FBECDBF1A012B0120912E0130912F0151
:100E300038872F83A82FB0E0BA83A9838DE190E093
:100E4000A89FF001A99FF00DB89FF00D1124E20FAB
:100E5000F31F868D86958F7009F088C017A610AA9B
:100E600011AA12AA13A614A615A616A647A350A740
:100E700061A772A7F901C284D384D9011C968D9110
:100E80009D910D90BC91A02D8B839C83AD83BE83DF
:100E90002081318140E050E0C201B1010E948E20EA
:100EA0007B018C01EF81F8852081318140E050E0A9
:100EB000C201B1010E948E20C901DA013C014D013D
:100EC0005601CC24DD24AE0CBF1CC01ED11EAF8148
:100ED000B8858D919C91A0E0B0E0A816B906CA062D
:100EE000DB06A4F00894611C711C811C911CEF812D
:100EF000F8852081318140E050E0C601B5010E94B3
:100F00008E20AC01CB01DA015C016D018DE190E036
:100F100029813A81289FA001299F500D389F500DAB
:100F200011248F819885480F591F8B819C81AD8139
:100F3000BE81860D971DA81DB91DFA01878F90A34C
:100F4000A1A3B2A3DA019396AD92BD92CD92DC92A9
:100F5000969727AA30AE41AE52AE968D892F8695D0
:100F60008F70813019F0917E9260968F28960FB61F
:100F7000F894DEBF0FBECDBFCF91DF911F910F91CF
:100F8000FF90EF90DF90CF90BF90AF909F908F90A9
:100F90007F906F905F904F903F902F900895CF92E9
:100FA000DF92EF92FF920F931F93082F6A017B014C
:100FB0000E948E06802FB701A6010E94F806E091DC
:100FC0002E01F0912F0110E08DE190E09C01029F35
:100FD000C001039F900D129F900D1124E80FF91F7F
:100FE000C7AAD0AEE1AEF2AE1F910F91FF90EF9085
:100FF000DF90CF9008952F923F924F925F926F9221
:101000007F928F929F92AF92BF92CF92DF92EF9298
:10101000FF920F931F93DF93CF9300D000D000D0A7
:10102000CDB7DEB720902E0130902F01282F30E071
:101030003E832D838DE190E0289F5001299FB00CC5
:10104000389FB00C1124A20CB31CD5015E968C9174
:1010500086958F70813009F09FC0F1018485958558
:10106000A685B785E284F38400E010E0F501278DC2
:1010700030A141A152A1281B390B4A0B5B0BD101B6
:101080006D917C9180E090E00E944D209B01AC012D
:101090002E193F09400B510BF50183A194A1A5A185
:1010A000B6A1280F391F4A1F5B1F57FF04C020E05D
:1010B00030E040E050E08DE190E06D817E81689FFE
:1010C000F001699FF00D789FF00D1124E20DF31DE2
:1010D00023A734A745A756A787A190A5A1A5B2A588
:1010E000821B930BA40BB50BB7FF04C080E090E00C
:1010F000A0E0B0E087A790ABA1ABB2AB8DE190E0F0
:10110000AD81BE81A89FB001A99F700DB89F700DE1
:101110001124620D731DFB0183A594A5A5A5B6A599
:10112000181619061A061B060CF4C2C0DB015F96DE
:101130001D921D921D921C92929713A214A215A2A9
:1011400016A29B961D921D921D921C929E97B79679
:1011500097962C91318142815381C901DA01B7FF01
:1011600004C080E090E0A0E0B0E0FB0187A790AB76
:10117000A1ABB2AB8DE190E02D813E81289FF001C3
:10118000299FF00D389FF00D1124E20DF31D868D7F
:10119000817E8860868F8CC0823009F089C0D10141
:1011A0001C966D917D918D919C911F9769837A8397
:1011B0008B839C831A968D909C901B97F501A3A41A
:1011C000B4A4C5A4D6A42D913C9140E050E0C60142
:1011D000B5010E948E207B018C01D1012D913C91A3
:1011E00040E050E0C601B5010E948E20C901DA013D
:1011F0002C013D01AA24BB248E0C9F1CA01EB11EF5
:10120000F10180819181A0E0B0E088169906AA06DC
:10121000BB0694F00894411C511C611C711C208178
:10122000318140E050E0C501B4010E948E20AC0144
:10123000CB01DA014C015D018DE190E02D813E8111
:10124000289FB001299F700D389F700D1124620DE9
:10125000731D89819A81AB81BC81840D951DA61D6A
:10126000B71DFB01878F90A3A1A3B2A3DB019396C7
:101270008D929D92AD92BC92969797962D913D91AD
:101280004D915C919A979B968D919D910D90BC91FB
:10129000A02D281B390B4A0B5B0B57FF04C020E025
:1012A00030E040E050E0FB0127A730AB41AB52AB50
:1012B00026960FB6F894DEBF0FBECDBFCF91DF915B
:1012C0001F910F91FF90EF90DF90CF90BF90AF9064
:1012D0009F908F907F906F905F904F903F902F9056
:1012E000089540E0E0912E01F0912F0190E02DE172
:1012F00030E0BC01629FC001639F900D729F900D12
:101300001124E80FF91F868D86958F70843009F4BB
:1013100041E0842F0895482FE0912E01F0912F0194
:10132000282F30E08DE190E0BC01269FC001279F6F
:10133000900D369F900D1124E80FF91F868D86952C
:101340008F70843011F080E00895842F0E948E0603
:1013500081E008950E948B090895DF92EF92FF9239
:101360000F931F93D82EE0912E01F0912F01282F7B
:1013700030E08DE190E0AC01249FC001259F900DED
:10138000349F900D1124E80FF91F868D86958F707C
:10139000843011F080E00DC0E7A8F0AC01AD12ADD3
:1013A0008D2D0E948E068D2DB801A7010E94F80692
:1013B00081E01F910F91FF90EF90DF900895E091F1
:1013C0002E01F0912F0190E02DE130E0DC01A29F91
:1013D000C001A39F900DB29F900D1124E80FF91F3B
:1013E000868D80FD0FC087A590A9A1A9B2A9840F01
:1013F000951FA61FB71F83AB94ABA5ABB6AB868D6D
:101400008160868F0895E0912E01F0912F0190E088
:101410002DE130E0AC01429FC001439F900D529FEF
:10142000900D1124E80FF91F23A934A945A956A945
:1014300087A590A9A1A9B2A9281B390B4A0B5B0B60
:1014400057FF04C020E030E040E050E0B901CA019D
:101450000895CF93DF93C0912E01D0912F01682F73
:1014600070E08DE190E0689FF001699FF00D789F3A
:10147000F00D1124EC0FFD1F23A934A945A956A98D
:1014800087A590A9A1A9B2A9281B390B4A0B5B0B10
:1014900057FD07C0211531054105510511F020E028
:1014A00012C020E08DE190E0AC01649FC001659F17
:1014B000900D749F900D1124C80FD91F8E8D80FF41
:1014C00021E081E02827822FDF91CF9108951F939B
:1014D000182F0E94290A813011F080E016C0E09197
:1014E0002E01F0912F01212F30E08DE190E0AC0131
:1014F000249FC001259F900D349F900D1124E80F6B
:10150000F91F868D8E7F868F81E01F91089580E080
:101510000E94FB07089580E00E948E060895E091E6
:101520002E01F0912F0190E029E130E0AC01429FC3
:10153000C001439F900D529F900D1124E80FF91F99
:1015400083AD86958F700895E0912E01F0912F0163
:1015500090E029E130E0AC01429FC001439F900D33
:10156000529F900D1124E80FF91F6F70660F83AD25
:10157000817E862B83AF0895E0912E01F0912F019B
:1015800090E029E130E0AC01429FC001439F900D03
:10159000529F900D1124E80FF91FE85BFF4F608107
:1015A0007181828193810895CF93DF93C0912E0141
:1015B000D0912F0190E029E130E0FC01E29FC001D1
:1015C000E39F900DF29F900D1124C80FD91FC85BA7
:1015D000DF4FCA01DB01B7FF04C080E090E0A0E06C
:1015E000B0E088839983AA83BB83DF91CF9108956C
:1015F000E0912E01F0912F0190E029E130E0AC0163
:10160000429FC001439F900D529F900D1124E80FFF
:10161000F91FDF01DC9664AD11967C91119712964B
:101620008C91129713969C910895E0912E01F09160
:101630002F0190E029E130E0AC01429FC001439FBF
:10164000900D529F900D1124E80FF91FDF01DC96D9
:1016500064AD11967C91119712968C911297139606
:101660009C910895E0912E01F0912F0190E029E1E5
:1016700030E0DC01A29FC001A39F900DB29F900DAE
:101680001124E80FF91F44AF55AF66AF77AF089547
:10169000E0912E01F0912F0190E029E130E0DC0192
:1016A000A29FC001A39F900DB29F900D1124E80F3F
:1016B000F91F44AF55AF66AF77AF0895E0912E01A3
:1016C000F0912F0190E029E130E0AC01429FC00190
:1016D000439F900D529F900D1124E80FF91FE05C7D
:1016E000FF4F60817181828193810895E0912E0185
:1016F000F0912F0190E029E130E0DC01A29FC001D0
:10170000A39F900DB29F900D1124E80FF91FE05C8C
:10171000FF4F40835183628373830895E0912E01CC
:10172000F0912F0190E029E130E0AC01429FC0012F
:10173000439F900D529F900D1124E80FF91FEC5B11
:10174000FF4F60817181828193810895CF93DF93F0
:10175000C0912E01D0912F0190E029E130E0FC01F1
:10176000E29FC001E39F900DF29F900D1124C80FDE
:10177000D91FCC5BDF4FCA01DB01B7FF04C080E09B
:1017800090E0A0E0B0E088839983AA83BB83DF91D7
:10179000CF910895E0912E01F0912F0190E029E181
:1017A00030E0AC01429FC001439F900D529F900DCD
:1017B0001124E80FF91FE45BFF4F60817181828182
:1017C00093810895E0912E01F0912F0190E029E19D
:1017D00030E0DC01A29FC001A39F900DB29F900D4D
:1017E0001124E80FF91FE45BFF4F408351836283AC
:1017F00073830895E0912E01F0912F0190E029E18B
:1018000030E0AC01429FC001439F900D529F900D6C
:101810001124E80FF91F83AD81700895E0912E0126
:10182000F0912F0190E029E130E0AC01429FC0012E
:10183000439F900D529F900D1124E80FF91F83AD27
:10184000816083AF0895E0912E01F0912F0190E027
:1018500029E130E0AC01429FC001439F900D529FAF
:10186000900D1124E80FF91F83AD8E7F83AF08958B
:10187000E0912E01F0912F0190E029E130E0AC01E0
:10188000429FC001439F900D529F900D1124E80F7D
:10189000F91FE05BFF4F6081718182819381089520
:1018A000E0912E01F0912F0190E029E130E0DC0180
:1018B000A29FC001A39F900DB29F900D1124E80F2D
:1018C000F91FE05BFF4F4083518362837383089568
:1018D000E0912E01F0912F0190E029E130E0AC0180
:1018E000429FC001439F900D529F900D1124E80F1D
:1018F000F91F83ADE85BFF4F1082118212821382C1
:10190000E854F04014AE15AE16AE17AEE05CFF4FD3
:1019100011921192119211921082118212821382ED
:1019200038961082118212821382EC54F040807E2D
:1019300083AFE05BFF4F1082118212821382089501
:101940000E94680C0895E0912E01F0912F0190E023
:1019500029E130E0AC01429FC001439F900D529FAE
:10196000900D1124E80FF91F93AD892F86958F7084
:10197000813019F0917E926093AF0895E0912E012D
:10198000F0912F0190E029E130E0AC01429FC001CD
:10199000439F900D529F900D1124E80FF91F93ADB6
:1019A000892F86958F70823019F0917E946093AF65
:1019B0000895A0912E01B0912F0190E029E130E02F
:1019C000829FF001839FF00D929FF00D1124EA0F8A
:1019D000FB1F83AD86958F7079F5E85BFF4F108212
:1019E00011821282138212921292129212927293A6
:1019F000629352934293E054F0401C968D919D91D6
:101A00000D90BC91A02D840F951FA61FB71F84AF0A
:101A100095AFA6AFB7AFE05BFF4F408351836283C2
:101A20007383E055F04093AD892F86958F70813098
:101A300019F0917E926093AF0895CF92DF92EF926A
:101A4000FF920F931F93082F6A017B010E94680C7D
:101A5000802FB701A6010E94D90CE0912E01F091D0
:101A60002F0110E089E190E09C01029FC001039FDB
:101A7000900D129F900D1124E80FF91FE05BFF4FAE
:101A8000C082D182E282F3821F910F91FF90EF908A
:101A9000DF90CF9008950F931F93CF93DF936091C2
:101AA0002E0170912F01082F10E089E190E0089F2E
:101AB000F001099FF00D189FF00D1124E60FF71F9C
:101AC00083AD86958F70813009F07CC0EB018C85E9
:101AD0009D85AE85BF8524AD35AD46AD57AD281B80
:101AE000390B4A0B5B0B57FF04C020E030E040E0AD
:101AF00050E089E190E0089FF001099FF00D189FE8
:101B0000F00D1124E60FF71FEC5BFF4F20833183AC
:101B100042835383B291A291929182913896821B13
:101B2000930BA40BB50BB7FF04C080E090E0A0E0DE
:101B3000B0E080839183A283B38389E190E0089F22
:101B4000E001099FD00D189FD00D1124C60FD71F9B
:101B5000FE01EC5BFF4F80819181A281B381181659
:101B600019061A061B060CF459C01CAE1DAE1EAE9B
:101B70001FAE1082118212821382FE01E05CFF4FC1
:101B8000C85BDF4F2081318142815381C901DA0175
:101B9000B7FF04C080E090E0A0E0B0E088839983C4
:101BA000AA83BB8389E190E0089FF001099FF00DB3
:101BB000189FF00D1124E60FF71F83AD817E88601A
:101BC00083AF2CC0823051F5EB018C859D85AE85AD
:101BD000BF85EC5BFF4F2081318142815381E4540A
:101BE000F040820F931FA41FB51F84AF95AFA6AF1F
:101BF000B7AFE05CFF4F80819181A281B3813896BD
:101C0000821B930BA40BB50BB7FF04C080E090E0E0
:101C1000A0E0B0E080839183A283B383DF91CF9172
:101C20001F910F91089540E0E0912E01F0912F0156
:101C300090E029E130E0BC01629FC001639F900DFC
:101C4000729F900D1124E80FF91F83AD86958F7058
:101C5000843009F441E0842F0895482FE0912E014B
:101C6000F0912F01282F30E089E190E0BC01269F00
:101C7000C001279F900D369F900D1124E80FF91F8A
:101C800083AD86958F70843011F080E00895842FA5
:101C90000E94680C81E008950E942D0E0895DF9245
:101CA000EF92FF920F931F93D82EE0912E01F091A7
:101CB0002F01282F30E089E190E0AC01249FC00182
:101CC000259F900D349F900D1124E80FF91F83ADCF
:101CD00086958F70843011F080E00FC0E05BFF4F7D
:101CE000E080F180028113818D2D0E94680C8D2D82
:101CF000B801A7010E94D90C81E01F910F91FF90BC
:101D0000EF90DF900895CF93DF93C0912E01D09193
:101D10002F0190E029E130E0FC01E29FC001E39F48
:101D2000900DF29F900D1124C80FD91F8BAD80FD2F
:101D300016C0FE01E45BFF4FC85BDF4F88819981CD
:101D4000AA81BB81C854D040840F951FA61FB71F1E
:101D500080839183A283B3838BAD81608BAFDF914E
:101D6000CF910895E0912E01F0912F0190E029E1AB
:101D700030E0AC01429FC001439F900D529F900DF7
:101D80001124E80FF91FDF01A85BBF4FE45BFF4F91
:101D900020813181428153818D919D910D90BC9123
:101DA000A02D281B390B4A0B5B0B57FF04C020E00A
:101DB00030E040E050E0B901CA010895CF93DF93CD
:101DC000C0912E01D0912F01682F70E089E190E041
:101DD000689FF001699FF00D789FF00D1124EC0FC2
:101DE000FD1FDF01A85BBF4FE45BFF4F2081318106
:101DF000428153818D919D910D90BC91A02D281B06
:101E0000390B4A0B5B0B57FD07C021153105410506
:101E1000510511F020E012C020E089E190E0AC0112
:101E2000649FC001659F900D749F900D1124C80F91
:101E3000D91F8BAD80FF21E081E02827822FDF9121
:101E4000CF9108951F93182F0E94DE0E813011F05C
:101E500080E016C0E0912E01F0912F01212F30E09B
:101E600089E190E0AC01249FC001259F900D349F33
:101E7000900D1124E80FF91F83AD8E7F83AF81E0B1
:101E80001F91089580E00E944B0D089580E00E940C
:101E9000680C0895E0912E01F0912F0190E025E16A
:101EA00030E0AC01429FC001439F900D529F900DC6
:101EB0001124E80FF91FEC5AFF4F808186958F702F
:101EC0000895E0912E01F0912F0190E025E130E09E
:101ED000AC01429FC001439F900D529F900D112471
:101EE000E80FF91FEC5AFF4F6F70660F8081817EFB
:101EF000862B80830895E0912E01F0912F0190E0D0
:101F000025E130E0AC01429FC001439F900D529FFC
:101F1000900D1124E80FF91FE35AFF4F6081718182
:101F2000828193810895E0912E01F0912F0190E03C
:101F300025E130E0DC01A29FC001A39F900DB29F7C
:101F4000900D1124E80FF91FE35AFF4F408351838E
:101F5000628373830895E0912E01F0912F0190E048
:101F600025E130E0AC01429FC001439F900D529F9C
:101F7000900D1124E80FF91FEB5AFF4F608171811A
:101F8000828193810895E0912E01F0912F0190E0DC
:101F900025E130E0AC01429FC001439F900D529F6C
:101FA000900D1124E80FF91FE75AFF4F60817181EE
:101FB000828193810895E0912E01F0912F0190E0AC
:101FC00025E130E0DC01A29FC001A39F900DB29FEC
:101FD000900D1124E80FF91FEB5AFF4F40835183F6
:101FE000628373830895E0912E01F0912F0190E0B8
:101FF00025E130E0DC01A29FC001A39F900DB29FBC
:10200000900D1124E80FF91FE75AFF4F40835183C9
:10201000628373830895E0912E01F0912F0190E087
:1020200025E130E0AC01429FC001439F900D529FDB
:10203000900D1124E80FF91FEF59FF4F6081718156
:10204000828193810895E0912E01F0912F01282F34
:1020500030E077FF13C085E190E0AC01249FC00120
:10206000259F900D349F900D1124E80FF91FEF5913
:10207000FF4F1082118212821382089585E190E051
:10208000DC012A9FC0012B9F900D3A9F900D1124D7
:10209000E80FF91FEF59FF4F408351836283738329
:1020A0000895E0912E01F0912F0190E025E130E0BC
:1020B000AC01429FC001439F900D529F900D11248F
:1020C000E80FF91FEC5AFF4F808181700895E0916D
:1020D0002E01F0912F0190E025E130E0AC01429F0C
:1020E000C001439F900D529F900D1124E80FF91FDE
:1020F000EC5AFF4F8081816080830895E0912E012A
:10210000F0912F0190E025E130E0AC01429FC00149
:10211000439F900D529F900D1124E80FF91FEC5A28
:10212000FF4F80818E7F80830895E0912E01F09192
:102130002F0190E025E130E0AC01429FC001439FB8
:10214000900D529F900D1124E80FF91FEB59FF4F8E
:1021500060817181828193810895E0912E01F091D7
:102160002F0190E025E130E0DC01A29FC001A39F98
:10217000900DB29F900D1124E80FF91FEB59FF4FFE
:1021800040835183628373830895E0912E01F0911F
:102190002F0190E025E130E0AC01429FC001439F58
:1021A000900D529F900D1124E80FF91FE75AFF4F31
:1021B0001082118212821382129212921292129241
:1021C00038961082118212821382ED55F040DF01A1
:1021D000AC5ABF4F8C91807E8C93EB59FF4F10828D
:1021E0001182128213820895E0912E01F0912F0145
:1021F00090E025E130E0AC01429FC001439F900D8B
:10220000529F900D1124E80FF91FE75AFF4F1082DB
:1022100011821282138212921292129212923896A4
:102220001082118212821382ED55F040DF01AC5A08
:10223000BF4F8C91807E8C93EB59FF4F108211829F
:10224000128213820895E0912E01F0912F0190E007
:1022500025E130E0AC01429FC001439F900D529FA9
:10226000900D1124E80FF91FEC5AFF4F9081892F30
:1022700086958F70813019F0917E926090830895D9
:10228000E0912E01F0912F0190E025E130E0AC01CA
:10229000429FC001439F900D529F900D1124E80F63
:1022A000F91FEC5AFF4F9081892F86958F708230ED
:1022B00019F0917E9460908308952F923F924F92EF
:1022C0005F926F927F928F929F92AF92BF92CF92C6
:1022D000DF92EF92FF920F931F93DF93CF93CDB7CF
:1022E000DEB728970FB6F894DEBF0FBECDBF4B8385
:1022F0005C836D837E8320912E0130912F0138877E
:102300002F83A82FB0E0BA83A98385E190E0A89F2E
:10231000F001A99FF00DB89FF00D1124E20FF31FFB
:10232000EC5AFF4F8081E455F04086958F7009F09C
:102330007DC0E35AFF4F4083518362837383F90169
:10234000C284D38424843584468457842081318197
:1023500040E050E06B817C818D819E810E948E20C7
:102360007B018C01AF81B8852D913C9140E050E01C
:102370006B817C818D819E810E948E20C901DA0152
:102380003C014D015601CC24DD24AE0CBF1CC01E07
:10239000D11EEF81F88580819181A0E0B0E0A81680
:1023A000B906CA06DB0694F00894611C711C811CF6
:1023B000911C2081318140E050E0C601B5010E94AE
:1023C0008E20AC01CB01DA015C016D0185E190E06A
:1023D00029813A81289FF001299FF00D389FF00D47
:1023E00011248F819885E80FF91FEB5AFF4F260CB7
:1023F000371C481C591C2192319241925192A08263
:10240000B182C282D3823C968B819C81AD81BE8198
:1024100080839183A283B38371979081892F86955E
:102420008F70813019F0917E9260908328960FB65C
:10243000F894DEBF0FBECDBFCF91DF911F910F91FA
:10244000FF90EF90DF90CF90BF90AF909F908F90D4
:102450007F906F905F904F903F902F900895CF9214
:10246000DF92EF92FF920F931F937A018B01E0911D
:102470002E01F0912F01482F50E025E130E0429FDE
:102480006001439FD00C529FD00C1124EC0DFD1D18
:10249000E75AFF4F10821182128213821292129217
:1024A0001292129238961082118212821382ED5586
:1024B000F040DF01AC5ABF4F9C91907E9C93EB594A
:1024C000FF4F1082118212821382B801A7010E946D
:1024D0005D11E0912E01F0912F01EC0DFD1DEB59E6
:1024E000FF4FE082F182028313831F910F91FF90CF
:1024F000EF90DF90CF9008952F923F924F925F928E
:102500006F927F928F929F92AF92BF92CF92DF9203
:10251000EF92FF920F931F93CF93DF93E0912E01E1
:10252000F0912F0190E025E130E0829FE001839F50
:10253000D00D929FD00D1124CE0FDF1F94E5C92E30
:10254000D12CCC0EDD1ED6018C9186958F708130FA
:1025500009F057C0E284F38400E010E064847584DD
:102560008684978485E5A82EB12CAC0EBD1ED501BE
:102570002D913D914D915C912619370948095909D2
:102580006081718180E090E00E944D206E197F098A
:10259000800B910BDE01A75ABF4F2D913D914D91BC
:1025A0005C911397620F731F841F951FFE01E35AFE
:1025B000FF4F608371838283938316161706180674
:1025C00019060CF451C01D921D921D921C92139776
:1025D000D5011D921D921D921C921397108211829B
:1025E00012821382F60180818E7F8083CB59DF4F68
:1025F000188219821A821B828081817E8860808382
:1026000033C0823089F562847384E484F58406855E
:102610001785C35ADF4F288039804A805B8020812C
:102620003181A080B180289740E050E0C201B10123
:102630000E948E20E20EF31E041F151FE992F992EC
:1026400009931993CC24DD24C201B101A60195019F
:102650000E948E2088249924660E771E881E991E5B
:10266000688279828A829B82DF91CF911F910F913C
:10267000FF90EF90DF90CF90BF90AF909F908F90A2
:102680007F906F905F904F903F902F90089540E023
:10269000E0912E01F0912F0190E025E130E0BC01A6
:1026A000629FC001639F900D729F900D1124E80FEF
:1026B000F91FEC5AFF4F808186958F70843009F4A2
:1026C00041E0842F0895E0912E01F0912F0190E0D8
:1026D00025E130E0AC01429FC001439F900D529F25
:1026E000900D1124E80FF91FDF01AC5ABF4F8C91F8
:1026F00086958F70843011F080E00895E75AFF4F7F
:1027000010821182128213821292129212921292EB
:10271000389610821182128213828C91807E8C9363
:102720003896108211821282138281E008950E94ED
:10273000631308951F93CF93DF93182FA0912E0159
:10274000B0912F01282F30E085E190E0AC01249F6B
:10275000C001259F900D349F900D1124A80FB91F23
:10276000ED01CC5ADF4F888186958F70843011F04F
:1027700080E023C0FD01EB59FF4F40815181628110
:102780007381A75ABF4F1D921D921D921C921397E1
:102790001E921E921E921E9218961D921D921D92BE
:1027A0001C9213978881807E888310821182128206
:1027B0001382812F0E945D1181E0DF91CF911F91E3
:1027C0000895CF93DF93C0912E01D0912F01282F30
:1027D00030E085E190E0289FF001299FF00D389FBF
:1027E000F00D1124EC0FFD1FEC5AFF4F8081E455D2
:1027F000F04080FD25C0E35AFF4F81919191A19156
:10280000B191841B950BA60BB70BB7FF05C01082C7
:1028100011821282138204C080839183A283B383C6
:1028200085E190E0289FF001299FF00D389FF00D81
:102830001124EC0FFD1FEC5AFF4F808181608083D3
:10284000DF91CF910895E0912E01F0912F0190E05A
:1028500025E130E0AC01429FC001439F900D529FA3
:10286000900D1124E80FF91FDF01AF59BF4FE35A54
:10287000FF4F20813181428153818D919D910D9037
:10288000BC91A02D281B390B4A0B5B0B57FF04C0D2
:1028900020E030E040E050E0B901CA010895CF9354
:1028A000DF93C0912E01D0912F01682F70E085E158
:1028B00090E0689FF001699FF00D789FF00D112462
:1028C000EC0FFD1FDF01AF59BF4FE35AFF4F2081CF
:1028D0003181428153818D919D910D90BC91A02DAC
:1028E000281B390B4A0B5B0B57FD07C0211531051F
:1028F0004105510511F020E014C020E085E190E091
:10290000AC01649FC001659F900D749F900D1124D0
:10291000C80FD91FCC5ADF4F888180FF21E081E0AA
:102920002827822FDF91CF9108951F93182F0E949F
:102930004F14813011F080E018C0E0912E01F09129
:102940002F01212F30E085E190E0AC01249FC001F0
:10295000259F900D349F900D1124E80FF91FEC5A1C
:10296000FF4F80818E7F808381E01F91089580E0FA
:102970000E947C120895E0912E01F0912F01E75AF8
:10298000FF4F1082118212821382129212921292BF
:10299000129238961082118212821382ED55F04005
:1029A000DF01AC5ABF4F8C91807E8C93EB59FF4F67
:1029B00010821182128213820895E0912E01F0910B
:1029C0002F0190E09C0144E0220F331F4A95E1F76C
:1029D000280F391FE20FF31FE759FF4F80818695BB
:1029E0008F700895E0912E01F0912F0190E09C01ED
:1029F00054E0220F331F5A95E1F7280F391FE20FD9
:102A0000F31FE759FF4F6F70660F8081817E862B21
:102A100080830895E0912E01F0912F0190E09C01B8
:102A200064E0220F331F6A95E1F7280F391FE20F88
:102A3000F31FE259FF4F6081718182819381089574
:102A4000E0912E01F0912F0190E09C01A4E0220F73
:102A5000331FAA95E1F7280F391FE20FF31FE25940
:102A6000FF4F40835183628373830895E0912E0169
:102A7000F0912F0190E09C01B4E0220F331FBA9532
:102A8000E1F7280F391FE20FF31FE659FF4F60816E
:102A90007181828193810895E0912E01F0912F013F
:102AA00090E09C01A4E0220F331FAA95E1F7280FC4
:102AB000391FE20FF31FE659FF4F408351836283B2
:102AC00073830895E0912E01F0912F0190E09C0115
:102AD000B4E0220F331FBA95E1F7280F391FE20F38
:102AE000F31FEE58FF4F60817181828193810895B9
:102AF000E0912E01F0912F01282F30E077FF11C0D7
:102B0000C901B4E0880F991FBA95E1F7820F931FAE
:102B1000E80FF91FEE58FF4F1082118212821382C4
:102B20000895C901A4E0880F991FAA95E1F7820FC3
:102B3000931FE80FF91FEE58FF4F408351836283C4
:102B400073830895E0912E01F0912F0190E09C0194
:102B500044E0220F331F4A95E1F7280F391FE20F97
:102B6000F31FE759FF4F808181700895E0912E0196
:102B7000F0912F0190E09C0154E0220F331F5A95F1
:102B8000E1F7280F391FE20FF31FE759FF4F80814C
:102B9000816080830895E0912E01F0912F0190E0F3
:102BA0009C0164E0220F331F6A95E1F7280F391F5B
:102BB000E20FF31FE759FF4F80818E7F80830895D6
:102BC000E0912E01F0912F0190E09C0174E0220F22
:102BD000331F7A95E1F7280F391FE20FF31FEA58E8
:102BE000FF4F60817181828193810895E0912E0170
:102BF000F0912F0190E09C01A4E0220F331FAA95D1
:102C0000E1F7280F391FE20FF31FEA58FF4F408307
:102C10005183628373830895E0912E01F0912F0117
:102C200090E09C01B4E0220F331FBA95E1F7280F22
:102C3000391FE20FF31FE659FF4F119211921192C3
:102C400011921082118212821382EE56F040DF013F
:102C5000A759BF4F8C91807E8C93EA58FF4F10820A
:102C60001182128213820895E0912E01F0912F01BA
:102C700090E09C0144E0220F331F4A95E1F7280FB2
:102C8000391FE20FF31FE659FF4F11921192119273
:102C900011921082118212821382EE56F040DF01EF
:102CA000A759BF4F8C91807E8C93EA58FF4F1082BA
:102CB0001182128213820895E0912E01F0912F016A
:102CC00090E09C0154E0220F331F5A95E1F7280F42
:102CD000391FE20FF31FE759FF4F9081892F869527
:102CE0008F70813019F0917E926090830895E09109
:102CF0002E01F0912F0190E09C0164E0220F331F20
:102D00006A95E1F7280F391FE20FF31FE759FF4FCC
:102D10009081892F86958F70823019F0917E946012
:102D200090830895CF93DF93A0912E01B0912F014E
:102D300090E0FC0124E0EE0FFF1F2A95E1F7E80F79
:102D4000F91FEA0FFB1FEF01C759DF4F88818695F6
:102D50008F7011F5E259FF4F408351836283738373
:102D60001C968D919D910D90BC91A02D840F951F67
:102D7000A61FB71FB293A293929382933C9640836F
:102D80005183628373839881892F86958F708130F8
:102D900019F0917E92609883DF91CF910895CF9240
:102DA000DF92EF92FF920F931F936A017B01E091F4
:102DB0002E01F0912F01282F30E0890144E0000F0F
:102DC000111F4A95E1F7020F131FE00FF11FE6599B
:102DD000FF4F119211921192119210821182128260
:102DE0001382EE56F040DF01A759BF4F9C91907EB1
:102DF0009C93EA58FF4F1082118212821382B7010E
:102E0000A6010E949216E0912E01F0912F01E00F91
:102E1000F11FEA58FF4FC082D182E282F3821F91F4
:102E20000F91FF90EF90DF90CF9008950F931F9335
:102E3000CF93DF93A0912E01B0912F0190E0FC0180
:102E400054E0EE0FFF1F5A95E1F7E80FF91FEA0F64
:102E5000FB1FBF0167597F4FEB01888186958F70FB
:102E60008130B9F51C962D913D914D915C911F9744
:102E70008F0106591F4FE80188819981AA81BB8182
:102E8000821B930BA40BB50BEF01C259DF4F888354
:102E90009983AA83BB83181619061A061B067CF1B0
:102EA000D8011D921D921D921C92139718821982AF
:102EB0001A821B82EB0188818E7F8883EA58FF4F3C
:102EC00010821182128213828881817E88608883B9
:102ED00016C08230A1F41C968D919D910D90BC91ED
:102EE000A02DE259FF4F2081318142815381820F11
:102EF000931FA41FB51FB293A29392938293DF9165
:102F0000CF911F910F91089540E0E0912E01F09133
:102F10002F0190E09C0164E0220F331F6A95E1F7D6
:102F2000280F391FE20FF31FE759FF4F8081869565
:102F30008F70843009F441E0842F0895E0912E01D0
:102F4000F0912F0190E09C0174E0220F331F7A95DD
:102F5000E1F7280F391FE20FF31FDF01A759BF4F19
:102F60008C9186958F70843011F080E00895E65939
:102F7000FF4F1192119211921192108211821282BE
:102F800013828C91807E8C933896108211821282EB
:102F9000138281E00895CF93DF93C0912E01D091E9
:102FA0002F01282F30E0F901B4E0EE0FFF1FBA9592
:102FB000E1F7E20FF31FEC0FFD1FE759FF4F808190
:102FC000E956F04080FD24C0E259FF4F8191919174
:102FD000A191B191841B950BA60BB70BB7FF05C050
:102FE000108211821282138204C080839183A28393
:102FF000B383F901A4E0EE0FFF1FAA95E1F7E20FFA
:10300000F31FEC0FFD1FE759FF4F80818160808324
:10301000DF91CF910895E0912E01F0912F0190E082
:103020009C0144E0220F331F4A95E1F7280F391F16
:10303000E20FF31FDF01AE58BF4FE259FF4F20816F
:103040003181428153818D919D910D90BC91A02D34
:10305000281B390B4A0B5B0B57FF04C020E030E004
:1030600040E050E0B901CA010895CF93DF93C091C9
:103070002E01D0912F01682F70E0FB01A4E0EE0F2C
:10308000FF1FAA95E1F7E60FF71FEC0FFD1FDF0109
:10309000AE58BF4FE259FF4F2081318142815381A9
:1030A0008D919D910D90BC91A02D281B390B4A0B41
:1030B0005B0B57FD07C0211531054105510511F086
:1030C00020E012C020E0CB0154E0880F991F5A95F0
:1030D000E1F7860F971FC80FD91FC759DF4F8881A7
:1030E00080FF21E081E02827822FDF91CF91089592
:1030F0001F93182F0E943518813011F080E016C000
:10310000E0912E01F0912F01212F30E0C901B4E0B0
:10311000880F991FBA95E1F7820F931FE80FF91FE7
:10312000E759FF4F80818E7F808381E01F91089552
:103130000E949E1708951F93CF93DF93182FE0915D
:103140002E01F0912F0190E09C0144E0220F331FEB
:103150004A95E1F7280F391FE20FF31FEF01C75916
:10316000DF4F888186958F70843011F080E01EC01B
:10317000DF01AA58BF4F4D915D916D917C911397DE
:10318000E659FF4F11921192119211921082118201
:10319000128213828881807E88831D921D921D92E7
:1031A0001C921397812F0E94921681E0DF91CF919C
:1031B0001F91089580E00E9416170895E0912E0156
:1031C000F0912F01E659FF4F119211921192119235
:1031D0001082118212821382EE56F040DF01A7594D
:1031E000BF4F8C91807E8C93EA58FF4F10821182E2
:1031F000128213820895E0912E01F0912F0190E048
:103200009C0154E0220F331F5A95E1F7280F391F14
:10321000E20FF31FE658FF4F808186958F70089567
:10322000E0912E01F0912F0190E09C0174E0220FBB
:10323000331F7A95E1F7280F391FE20FF31FE65885
:10324000FF4F6F70660F8081817E862B808308958B
:10325000E0912E01F0912F0190E09C01A4E0220F5B
:10326000331FAA95E1F7280F391FE20FF31FE1582A
:10327000FF4F60817181828193810895E0912E01D9
:10328000F0912F0190E09C01B4E0220F331FBA951A
:10329000E1F7280F391FE20FF31FE158FF4F40837A
:1032A0005183628373830895E0912E01F0912F0181
:1032B00090E09C0144E0220F331F4A95E1F7280F6C
:1032C000391FE20FF31FE558FF4F60817181828142
:1032D00093810895E0912E01F0912F0190E09C01DF
:1032E000A4E0220F331FAA95E1F7280F391FE20F40
:1032F000F31FE558FF4F4083518362837383089522
:10330000E0912E01F0912F0190E09C01B4E0220F9A
:10331000331FBA95E1F7280F391FE20FF31FED575E
:10332000FF4F60817181828193810895E0912E0128
:10333000F0912F01282F30E077FF11C0C901B4E0D0
:10334000880F991FBA95E1F7820F931FE80FF91FB5
:10335000ED57FF4F10821182128213820895C90126
:10336000A4E0880F991FAA95E1F7820F931FE80F39
:10337000F91FED57FF4F4083518362837383089594
:10338000E0912E01F0912F0190E09C0144E0220F8A
:10339000331F4A95E1F7280F391FE20FF31FE65854
:1033A000FF4F808181700895E0912E01F0912F01EF
:1033B00090E09C0154E0220F331F5A95E1F7280F4B
:1033C000391FE20FF31FE658FF4F80818160808331
:1033D0000895E0912E01F0912F0190E09C0164E0AE
:1033E000220F331F6A95E1F7280F391FE20FF31FF1
:1033F000E658FF4F80818E7F80830895E0912E01F3
:10340000F0912F0190E09C0174E0220F331F7A9518
:10341000E1F7280F391FE20FF31FE957FF4F6081D3
:103420007181828193810895E0912E01F0912F01A5
:1034300090E09C01A4E0220F331FAA95E1F7280F2A
:10344000391FE20FF31FE957FF4F40835183628317
:1034500073830895E0912E01F0912F0190E09C017B
:10346000B4E0220F331FBA95E1F7280F391FE20F9E
:10347000F31FE558FF4F1192119211921192108291
:10348000118212821382EF57F040DF01A658BF4F1E
:103490008C91807E8C93E957FF4F108211821282AB
:1034A00013820895E0912E01F0912F0190E09C018C
:1034B00044E0220F331F4A95E1F7280F391FE20F2E
:1034C000F31FE558FF4F1192119211921192108241
:1034D000118212821382EF57F040DF01A658BF4FCE
:1034E0008C91807E8C93E957FF4F1082118212825B
:1034F00013820895E0912E01F0912F0190E09C013C
:1035000054E0220F331F5A95E1F7280F391FE20FBD
:10351000F31FE658FF4F9081892F86958F70813079
:1035200019F0917E926090830895E0912E01F091C0
:103530002F0190E09C0164E0220F331F6A95E1F7B0
:10354000280F391FE20FF31FE658FF4F9081892F94
:1035500086958F70823019F0917E946090830895E3
:10356000EF92FF920F931F93CF93DF937A018B011A
:10357000C0912E01D0912F01682F70E0FB01B4E0C3
:10358000EE0FFF1FBA95E1F7E60FF71FEC0FFD1FD7
:10359000E658FF4F8081EA57F04086958F70B1F56D
:1035A000E158FF4FE082F18202831383298D3A8D27
:1035B0004B8D5C8D898D9A8DAB8DBC8D281739070D
:1035C0004A075B0799F7FB01A4E0EE0FFF1FAA95DE
:1035D000E1F7E60FF71FEC0FFD1FE558FF4F2E0D2B
:1035E0003F1D401F511F20833183428353833C96EC
:1035F000E082F182028313833D979081892F869523
:103600008F70813019F0917E92609083DF91CF911D
:103610001F910F91FF90EF900895CF92DF92EF925C
:10362000FF920F931F936A017B01E0912E01F091AD
:103630002F01282F30E0890194E0000F111F9A9587
:10364000E1F7020F131FE00FF11FE558FF4F119232
:103650001192119211921082118212821382EF57ED
:10366000F040DF01A658BF4F9C91907E9C93E95794
:10367000FF4F10821182128213820E94B01AE091D1
:103680002E01F0912F01E00FF11FE957FF4FC0828B
:10369000D182E282F3821F910F91FF90EF90DF9031
:1036A000CF900895CF92DF92EF92FF920F931F93E6
:1036B000CF93DF9360912E0170912F01C82EDD24EE
:1036C000F601A4E0EE0FFF1FAA95E1F7EC0DFD1D3A
:1036D000E60FF71FE658FF4F8081EA57F0408695C6
:1036E0008F70813009F04BC0E558FF4FE080F180CA
:1036F00002811381FB01218D328D438D548D818D8B
:10370000928DA38DB48D281739074A075B0791F76F
:10371000D801C701821B930BA40BB50BE601F4E0A3
:10372000CC0FDD1FFA95E1F7CC0DDD1DC60FD71FBD
:10373000FE01E158FF4F80839183A283B383181663
:1037400019061A061B060CF445C0C558DF4F18822F
:1037500019821A821B82CB57D040108211821282AA
:103760001382FE01E658FF4F8081C957DF4F188250
:1037700019821A821B82807E886080832BC08230EF
:1037800049F5E158FF4FE080F18002811381FB0190
:10379000218D328D438D548D818D928DA38DB48D6D
:1037A000281739074A075B0791F7C601E4E0880F3D
:1037B000991FEA95E1F78C0D9D1D680F791F6558DB
:1037C0007F4F2E0D3F1D401F511FFB012083318372
:1037D00042835383DF91CF911F910F91FF90EF9020
:1037E000DF90CF90089540E0E0912E01F0912F01FD
:1037F00090E09C01B4E0220F331FBA95E1F7280F47
:10380000391FE20FF31FE658FF4F808186958F70B6
:10381000843009F441E0842F0895E0912E01F09165
:103820002F0190E09C0144E0220F331F4A95E1F7FD
:10383000280F391FE20FF31FDF01A658BF4F8C91ED
:1038400086958F70843011F080E00895E558FF4F21
:10385000119211921192119210821182128213828E
:103860008C91807E8C933896108211821282138202
:1038700081E008950E940D1C08951F93CF93DF935C
:10388000182FE0912E01F0912F0190E09C0154E05F
:10389000220F331F5A95E1F7280F391FE20FF31F4C
:1038A000EF01C658DF4F888186958F70843011F004
:1038B00080E01EC0DF01A957BF4F4D915D916D9112
:1038C0007C911397E558FF4F11921192119211922A
:1038D00010821182128213828881807E88831D92D9
:1038E0001D921D921C921397812F0E94B01A81E0A5
:1038F000DF91CF911F910895CF93DF93C0912E0157
:10390000D0912F01282F30E0F901A4E0EE0FFF1F26
:10391000AA95E1F7E20FF31FEC0FFD1FE658FF4FEA
:103920008081EA57F04080FD24C0E158FF4F81912B
:103930009191A191B191841B950BA60BB70BB7FF89
:1039400005C0108211821282138204C08083918389
:10395000A283B383F90164E0EE0FFF1F6A95E1F7DC
:10396000E20FF31FEC0FFD1FE658FF4F80818160CF
:103970008083DF91CF910895E0912E01F0912F0186
:1039800090E09C01B4E0220F331FBA95E1F7280FB5
:10399000391FE20FF31FDF01AD57BF4FE158FF4F53
:1039A00020813181428153818D919D910D90BC91F7
:1039B000A02D281B390B4A0B5B0B57FF04C020E0DE
:1039C00030E040E050E0B901CA010895CF93DF93A1
:1039D000C0912E01D0912F01682F70E0FB0144E0CF
:1039E000EE0FFF1F4A95E1F7E60FF71FEC0FFD1FE3
:1039F000DF01AD57BF4FE158FF4F20813181428138
:103A000053818D919D910D90BC91A02D281B390B58
:103A10004A0B5B0B57FD07C02115310541055105C8
:103A200011F020E012C020E0CB0134E0880F991F94
:103A30003A95E1F7860F971FC80FD91FC658DF4F79
:103A4000888180FF21E081E02827822FDF91CF91BC
:103A500008951F93182F0E94E61C813011F080E01A
:103A600016C0E0912E01F0912F01212F30E0C90105
:103A700054E0880F991F5A95E1F7820F931FE80FC2
:103A8000F91FE658FF4F80818E7F808381E01F9170
:103A9000089580E00E94521B0895E0912E01F0915C
:103AA0002F01E558FF4F119211921192119210823D
:103AB000118212821382EF57F040DF01A658BF4FE8
:103AC0008C91807E8C93E957FF4F10821182128275
:103AD00013820895E0912E01F0912F01858D0895B4
:103AE0000E94460F0E94BB140E94DE1808950E9497
:103AF0004D1D08950F931F938C010E94FA00C80179
:103B00000E9419020E94701D81E090E00E94B402A0
:103B10000E944D1D1F910F910895E0912E01F0918B
:103B20002F01858D82FF0BC00E9456030E94870AD9
:103B3000E0912E01F0912F01858D8B7F858FE09193
:103B40002E01F0912F01858D80FF0BC00E9456033E
:103B50000E94420FE0912E01F0912F01858D8E7F02
:103B6000858FE0912E01F0912F01858D83FF0BC091
:103B70000E9456030E94B714E0912E01F0912F018C
:103B8000858D877F858FE0912E01F0912F01858DA6
:103B900081FF0BC00E9456030E94DA18E0912E01AB
:103BA000F0912F01858D8D7F858FE0912E01F09111
:103BB0002F01168A858D85FF09C00E94491DE0915D
:103BC0002E01F0912F01858D8F7D858F0895E091D5
:103BD0002E01F0912F01808991890196918B808B24
:103BE000858D8460858F858D8860858F208931895A
:103BF000808191812817390798F0118A108A82896B
:103C00009389A489B5890196A11DB11D828B938BDF
:103C1000A48BB58B858D8160858F858D8260858F26
:103C200008951F920F920FB60F9211242F933F9376
:103C30004F935F936F937F938F939F93AF93BF93B4
:103C4000EF93FF93E0912E01F0912F0184819581F4
:103C500086BD0E94E71DFF91EF91BF91AF919F91AB
:103C60008F917F916F915F914F913F912F910F9025
:103C70000FBE0F901F901895E0912E01F0912F012B
:103C80008789908D0196908F878B2789308D8281CF
:103C900093812817390768F0108E178A818D928DCD
:103CA000A38DB48D0196A11DB11D818F928FA38F1D
:103CB000B48F858D8062858F08951F920F920FB605
:103CC0000F9211242F933F934F935F936F937F93A2
:103CD0008F939F93AF93BF93EF93FF93E0E6F0E052
:103CE0008081806480830E943C1EFF91EF91BF9190
:103CF000AF919F918F917F916F915F914F913F9184
:103D00002F910F900FBE0F901F90189510922401C5
:103D1000E5E2F1E0119281E0ED32F807D9F7108287
:103D20000895089508959B01AC0160E673EE86E165
:103D300090E00E946C202150304040405040E0EC28
:103D4000F0E0808182608083BB27A52F942F832F92
:103D50008093C5002093C4000895E1ECF0E08081D9
:103D60008860808386E08093C2000895E1ECF0E0F3
:103D700080818061808386E08093C2000895E1ECB9
:103D8000F0E080818068808378940895982F8091F6
:103D9000C00085FFFCCF9093C6000895DF93CF93BA
:103DA0000F92CDB7DEB719828091C00084FF05C0A5
:103DB0008091C600898381E008C08091C00083FFA4
:103DC00007C08091C600898382E08093240105C0EA
:103DD0008091C60089831092240189810F90CF9130
:103DE000DF9108951F93CF93DF93AB01BC014F3F49
:103DF00051056105710509F028F4E8E0F0E0C2E042
:103E0000D0E011C0403080E0580781E0680780E0D2
:103E1000780728F0E0E2F0E0C8E0D0E004C0E0E19C
:103E2000F0E0C4E0D0E08091C00085FFFCCF80E3EB
:103E30008093C6008091C00085FFFCCF88E7809307
:103E4000C60010E01FC03497DB01CA010E2E04C06B
:103E5000B695A795979587950A94D2F790E08F70BD
:103E600090708A30910520F09C01295C3F4F03C07F
:103E70009C01205D3F4F8091C00085FFFCCF2093C7
:103E8000C6001F5F812F90E08C179D07E0F2DF9145
:103E9000CF911F910895CF92DF92EF92FF920F93EF
:103EA0001F93CF93DF93AB01BC014F3F51056105D9
:103EB000710509F010F497E00BC0403080E058071E
:103EC00081E0680780E0780710F09FE101C09FE083
:103ED0008091C00085FFFCCF80E38093C600809175
:103EE000C00085FFFCCF82E68093C60020E030E072
:103EF000E92FF0E000E311E3EF012196CF01821BEF
:103F0000930B6A017B0104C0F694E794D794C7949D
:103F10008A95D2F7D701C60181709070892B39F04C
:103F20008091C00085FFFCCF1093C60006C0809131
:103F3000C00085FFFCCF0093C6002F5F3F4F2C17BA
:103F40003D07E1F6DF91CF911F910F91FF90EF9028
:103F5000DF90CF900895AC0120E007C08091C000B1
:103F600085FFFCCFE093C6002F5FFA01E20FF11D41
:103F7000E081EE2399F708958FE191E00E94AB1F55
:103F8000089582E291E00E94AB1F0895BF92CF9204
:103F9000DF92EF92FF920F931F936B017C016115EB
:103FA00071058105910531F41092250181E080931E
:103FB0002D0123C0BB240B2D10E00C5D1E4FC7014B
:103FC000B6012AE030E040E050E00E946C20F801A9
:103FD0006183C701B6012AE030E040E050E00E9472
:103FE0006C20C901DA016C017D01B394C114D104C4
:103FF000E104F10401F7B0922D011F910F91FF90A0
:10400000EF90DF90CF90BF900895E0912D010FC009
:104010002E2F2150E22FF0E0EC5DFE4F9181809138
:10402000C00085FFFCCF905D9093C600E22FEE2389
:1040300079F708959B01AC0197FF0EC08091C000F5
:1040400085FFFCCF8DE28093C6005095409530955A
:1040500021953F4F4F4F5F4FCA01B9010E94C61FC4
:104060000E94052008950895EF92FF920F931F93E9
:104070007B018C010E94861EC801B7010E94931E1D
:10408000E1ECF0E080818860808386E08093C2006C
:104090001F910F91FF90EF900895629FD001739F41
:1040A000F001829FE00DF11D649FE00DF11D929FD4
:1040B000F00D839FF00D749FF00D659FF00D992713
:1040C000729FB00DE11DF91F639FB00DE11DF91F37
:1040D000BD01CF0111240895A1E21A2EAA1BBB1B1A
:1040E000FD010DC0AA1FBB1FEE1FFF1FA217B307C4
:1040F000E407F50720F0A21BB30BE40BF50B661FDA
:10410000771F881F991F1A9469F76095709580959D
:1041100090959B01AC01BD01CF01089597FB092E3D
:1041200005260ED057FD04D0D7DF0AD0001C38F486
:1041300050954095309521953F4F4F4F5F4F0895D3
:10414000F6F790958095709561957F4F8F4F9F4FB3
:064150000895F894FFCF72
:104156002C000D0A004C5054494D20457870697268
:1041660065640D0A00010008004000000100040D0E
:044176000A0020001B
:00000001FF
