:100000000C9434000C9451000C9451000C94510049
:100010000C9451000C9451000C9451000C9451001C
:100020000C9451000C9451000C9451000C9451000C
:100030000C9451000C9451000C9451000C945100FC
:100040000C948A100C9451000C94A0020C94510052
:100050000C9451000C9451000C9451000C945100DC
:100060000C9451000C94510011241FBECFEFD8E026
:10007000DEBFCDBF11E0A0E0B1E0E4E4F2E202C0F7
:1000800005900D92AC31B107D9F711E0ACE1B1E0C8
:1000900001C01D92A93AB107E1F70E9453000C94E8
:1000A00020110C940000CF93DF9360E07BE480E0AC
:1000B00090E00E94C40288EE93E00E945410559A8A
:1000C0005D98C8ECD0E080E091E00E94C2010E94FF
:1000D000AA040E9431028AE091E00E94C2010E94BB
:1000E000A204A0E0B0E0BC01CD010E9431020E9458
:1000F000D30188EE93E0FE013197F1F70197D9F72C
:10010000E2CF10921C01EDE1F1E0119281E0E532C5
:10011000F807D9F71082118280E290E093A382A3BE
:1001200015A214A220E004C0E45EFE4F13862F5FE8
:100130008091470190914801E22FF0E0E817F9071C
:1001400098F30895089508959B01AC0160E472E46A
:100150008FE090E00E94E31021503040404050403A
:10016000E0ECF0E0808182608083BB27A52F942F94
:10017000832F8093C5002093C4000895E1ECF0E044
:1001800080818860808386E08093C2000895E1ECDE
:10019000F0E080818061808386E08093C2000895D2
:1001A000E1ECF0E080818068808378940895982F56
:1001B0008091C00085FFFCCF9093C6000895DF9327
:1001C000CF930F92CDB7DEB719828091C00084FF24
:1001D00005C08091C600898381E008C08091C0007D
:1001E00083FF07C08091C600898382E080931C0151
:1001F00005C08091C600898310921C0189810F90EF
:10020000CF91DF91089580912601089510922601E3
:1002100008951F93CF93DF93AB01BC014F3F51056E
:100220006105710509F028F4E8E0F0E0C2E0D0E0F3
:1002300011C0403080E0580781E0680780E078070F
:1002400028F0E0E2F0E0C8E0D0E004C0E0E1F0E057
:10025000C4E0D0E08091C00085FFFCCF80E38093B4
:10026000C6008091C00085FFFCCF88E78093C60060
:1002700010E01FC03497DB01CA010E2E04C0B695F2
:10028000A795979587950A94D2F790E08F70907014
:100290008A30910520F09C01295C3F4F03C09C01EE
:1002A000205D3F4F8091C00085FFFCCF2093C600AA
:1002B0001F5F812F90E08C179D07E0F2DF91CF91B7
:1002C0001F910895CF92DF92EF92FF920F931F93A9
:1002D000CF93DF93AB01BC014F3F51056105710521
:1002E00009F010F497E00BC0403080E0580781E03F
:1002F000680780E0780710F09FE101C09FE08091DF
:10030000C00085FFFCCF80E38093C6008091C000D1
:1003100085FFFCCF82E68093C60020E030E0E92F25
:10032000F0E000E311E3EF012196CF01821B930B74
:100330006A017B0104C0F694E794D794C7948A9528
:10034000D2F7D701C60181709070892B39F0809166
:10035000C00085FFFCCF1093C60006C08091C0008E
:1003600085FFFCCF0093C6002F5F3F4F2C173D0742
:10037000E1F6DF91CF911F910F91FF90EF90DF9009
:10038000CF900895AC0120E007C08091C00085FFA8
:10039000FCCFE093C6002F5FFA01E20FF11DE08170
:1003A000EE2399F708958CE091E00E94C201089530
:1003B0008FE091E00E94C2010895BF92CF92DF9238
:1003C000EF92FF920F931F936B017C0161157105F2
:1003D0008105910531F410921D0181E08093250182
:1003E00023C0BB240B2D10E0045E1E4FC701B601D5
:1003F0002AE030E040E050E00E94E310F801618321
:10040000C701B6012AE030E040E050E00E94E3106E
:10041000C901DA016C017D01B394C114D104E10476
:10042000F10401F7B09225011F910F91FF90EF9019
:10043000DF90CF90BF900895E09125010FC02E2F3F
:100440002150E22FF0E0E45EFE4F91818091C000E8
:1004500085FFFCCF905D9093C600E22FEE2379F7E5
:1004600008959B01AC0197FF0EC08091C00085FFED
:10047000FCCF8DE28093C600509540953095219534
:100480003F4F4F4F5F4FCA01B9010E94DD010E94EB
:100490001C020895FC01E45EFE4F838508952091BF
:1004A000490130914A01C901089510921C0120E0D0
:1004B00030E006C0F901E45EFE4F13862F5F3F4F28
:1004C00080914701909148012817390798F31092BD
:1004D0004A01109249010895DF93CF930F92CDB74F
:1004E000DEB719820E94DF00898380911C01882376
:1004F00019F5898180932601E0914901F0914A0123
:100500008981E45EFE4F83878091490190914A0181
:10051000019690934A0180934901209149013091BD
:100520004A0180914701909148012817390720F02E
:1005300010924A01109249010F90CF91DF910895D6
:100540001F920F920FB60F9211242F933F934F9348
:100550005F936F937F938F939F93AF93BF93EF932B
:10056000FF930E946C02FF91EF91BF91AF919F9119
:100570008F917F916F915F914F913F912F910F904C
:100580000FBE0F901F901895EF92FF920F931F933D
:100590007B018C010E948100C801B7010E94A40068
:1005A000E1ECF0E0808188608083A2ECB0E096E02E
:1005B0009C938081806180839C938081806880830C
:1005C00078940E9455021F910F91FF90EF9008952B
:1005D0008DE491E090934C0180934B0110924D017A
:1005E00080914D01846080934D0180914D01877011
:1005F00080934D0181E090E090934F0180934E01F4
:10060000109250011092560110925501109257010C
:10061000109258011092590110925A0110925101F2
:1006200010925201109253011092540110925B01EA
:1006300010925C0110925D0110925E0110925F01B8
:100640001092600110926101109262011092630198
:100650001092640110926501109266011092670178
:10066000109268011092690110926A0110926B0158
:1006700010926C0110926D0110926E0110926F0138
:100680001092700110927101109272011092730118
:1006900010927401109275011092760110927701F8
:1006A000109278011092790110927A0110927B01D8
:1006B00010927C0110927D0110927E0110927F01B8
:1006C0001092800110928101109282011092830198
:1006D0001092840110928501109286011092870178
:1006E000109288011092890110928A0110928B0158
:1006F00010928C0110928D0110928E0110928F0138
:100700001092900110929101109292011092930117
:1007100010929401109295011092960110929701F7
:10072000109298011092990110929A0110929B01D7
:1007300010929C0110929D0110929E0110929F01B7
:100740001092A0011092A1011092A2011092A30197
:100750001092A4011092A5011092A6011092A70177
:100760001092A80108957F928F929F92AF92BF92AC
:10077000CF92DF92EF92FF920F931F93DF93CF936D
:10078000CDB7DEB72A970FB6F894DEBF0FBECDBF48
:100790008C01C0904B01D0904C01F601808180FF0C
:1007A00031C00130110511F496E019C00230110575
:1007B00011F495E014C00430110511F494E00FC059
:1007C0000830110511F493E00AC00031110511F44D
:1007D00092E005C090E00032110509F491E0F89430
:1007E00084B7877F84BF80916000806880936000B9
:1007F00080916000886180936000906490936000B5
:10080000789467C081FD65C082FF63C0DE011196E8
:10081000E1E1F1E08AE001900D928150E1F7980169
:1008200040E050E060E072E18AE790E00E9405114C
:10083000722E832E942EE52E5E010894A11CB11C0D
:10084000C901DA019C01AD01FF2414C0F501219119
:1008500031915F0140E050E0672D782D892D9E2D6C
:100860000E940511C901DA019C01AD01F394F5E084
:10087000FF1631F02F3F31054105510509F034F7DE
:100880008F2D815014BC15BC10926E0015BA17BC88
:1008900018BC16BC17BC882311F481E00FC081304E
:1008A00011F482E00BC0823011F483E007C0833082
:1008B00011F484E003C0843011F485E085BD822FFB
:1008C0008095F6018383838186BD81E080936E00ED
:1008D0007894F601128301832A960FB6F894DEBF4E
:1008E0000FBECDBFCF91DF911F910F91FF90EF9081
:1008F000DF90CF90BF90AF909F908F907F900895A2
:10090000E0914B01F0914C0187890895E0914B01F2
:10091000F0914C0187898F3318F487898F5F878B1B
:100920000895E0914B01F0914C018789882319F0DB
:1009300087898150878B0895E0914B01F0914C019C
:10094000178A0895E0914B01F0914C012085318583
:10095000C9010895E0914B01F0914C012285338546
:1009600044855585B901CA010895E0914B01F09184
:100970004C01918780870895E0914B01F0914C01E3
:10098000628773878487958708959C01E0914B0166
:10099000F0914C0187898F3318F487898F5F878B9B
:1009A00080859185A0E0B0E040E050E0280F391F3D
:1009B0004A1F5B1F80859185A0E0B0E082179307F6
:1009C000A407B507BCF38789882319F0878981506C
:1009D000878B0895BC01E0914B01F0914C0180851B
:1009E00091852481358146815781A0E0B0E082174E
:1009F0009307A407B50799F780859185860F971F00
:100A0000A0E0B0E084839583A683B78324813581F9
:100A10004681578181819281A0E0B0E02817390793
:100A20004A075B0784F024813581468157818181A3
:100A30009281A0E0B0E0281B390B4A0B5B0B2483AA
:100A40003583468357830895EF92FF920F931F9348
:100A5000E0914B01F0914C01228533854485558509
:100A60007C0100E010E0E20EF31E041F151F8285DA
:100A70009385A485B5858E159F05A007B107BCF3A6
:100A80001F910F91FF90EF900895E0914B01F0912D
:100A90004C0116861786108A118A128A138A148AC4
:100AA000158A168A0895E0914B01F0914C018689D0
:100AB000882391F482859385A485B5858687978759
:100AC000A08BB18B80859185A0E0B0E0828B938B69
:100AD000A48BB58B81E0868B0895EF92FF920F93E4
:100AE0001F93CF93DF93C0914B01D0914C018E891E
:100AF000813021F0EE24FF24870123C02A853B8525
:100B00004C855D85888599857C0100E010E08E85A7
:100B10009F85A889B989281B390B4A0B5B0B698112
:100B20007A8180E090E00E94B0102A893B894C894C
:100B30005D89E21AF30A040B150BE60EF71E081F77
:100B4000191FB701C801DF91CF911F910F91FF903D
:100B5000EF9008950E946D05282FE0914B01F091D0
:100B60004C018689813049F416861786108A118ACD
:100B7000128A138A148A158A168A822F0895E091A0
:100B80004B01F0914C0190E02AE230E0AC01429F31
:100B9000C001439F900D529F900D1124E80FF91F43
:100BA000808D86958F700895E0914B01F0914C01F6
:100BB00090E02AE230E0AC01429FC001439F900DDB
:100BC000529F900D1124E80FF91F6F70660F808DF2
:100BD000817E862B808F0895E0914B01F0914C012E
:100BE00090E02AE230E0AC01429FC001439F900DAB
:100BF000529F900D1124E80FF91FDF01959665A112
:100C000011967C91119712968C91129713969C9144
:100C10000895E0914B01F0914C0190E02AE230E020
:100C2000DC01A29FC001A39F900DB29F900D1124E3
:100C3000E80FF91F45A356A367A370A70895E09195
:100C40004B01F0914C0190E02AE230E0AC01429F70
:100C5000C001439F900D529F900D1124E80FF91F82
:100C6000DF015996618D11967C91119712968C91A6
:100C7000129713969C910895E0914B01F0914C01CD
:100C800090E02AE230E0DC01A29FC001A39F900D1A
:100C9000B29F900D1124E80FF91F418F528F638F7F
:100CA000748F0895E0914B01F0914C0190E02AE29D
:100CB00030E0AC01429FC001439F900D529F900DC8
:100CC0001124E80FF91FDF015D96658D11967C9167
:100CD000119712968C91129713969C910895E0911A
:100CE0004B01F0914C0190E02AE230E0DC01A29F40
:100CF000C001A39F900DB29F900D1124E80FF91F22
:100D0000458F568F678F70A30895E0914B01F09146
:100D10004C0190E02AE230E0AC01429FC001439FC9
:100D2000900D529F900D1124E80FF91FDF0191964D
:100D300061A111967C91119712968C91129713963E
:100D40009C910895E0914B01F0914C0190E02AE2D2
:100D500030E0DC01A29FC001A39F900DB29F900DD7
:100D60001124E80FF91F41A352A363A374A30895AC
:100D7000E0914B01F0914C0190E02AE230E0AC01AF
:100D8000429FC001439F900D529F900D1124E80F88
:100D9000F91FDF01999661A511967C911197129622
:100DA0008C91129713969C910895E0914B01F091CC
:100DB0004C0190E02AE230E0DC01A29FC001A39F39
:100DC000900DB29F900D1124E80FF91F41A752A773
:100DD00063A774A70895E0914B01F0914C0190E056
:100DE0002AE230E0AC01429FC001439F900D529F28
:100DF000900D1124E80FF91F808D81700895E09106
:100E00004B01F0914C0190E02AE230E0AC01429FAE
:100E1000C001439F900D529F900D1124E80FF91FC0
:100E2000808D8160808F0895E0914B01F0914C019D
:100E300090E02AE230E0AC01429FC001439F900D58
:100E4000529F900D1124E80FF91F808D8E7F808FA7
:100E50000895E0914B01F0914C0190E02AE230E0DE
:100E6000AC01429FC001439F900D529F900D1124F1
:100E7000E80FF91F808D15A216A217A210A6118ED9
:100E8000128E138E148E158E168E178E10A211A22E
:100E900012A213A214A211A612A613A614A6807E53
:100EA000808F08950E9429070895E0914B01F091E9
:100EB0004C0190E02AE230E0AC01429FC001439F28
:100EC000900D529F900D1124E80FF91F908D892FDE
:100ED00086958F70813019F0917E9260908F089581
:100EE000E0914B01F0914C0190E02AE230E0AC013E
:100EF000429FC001439F900D529F900D1124E80F17
:100F0000F91F908D892F86958F70823019F0917E10
:100F10009460908F0895A0914B01B0914C0190E0A6
:100F20002AE230E0829FF001839FF00D929FF00D46
:100F30001124EA0FFB1F808D86958F7019F515A27D
:100F400016A217A210A611A212A213A214A2458FD4
:100F5000568F678F70A31A968D919D910D90BC91BD
:100F6000A02D840F951FA61FB71F818F928FA38F6F
:100F7000B48F908D892F86958F70813019F0917E76
:100F80009260908F0895DF92EF92FF920F931F93DC
:100F9000D82E7A018B010E9429078D2DB801A70157
:100FA0000E948B071F910F91FF90EF90DF900895A3
:100FB000EF92FF920F931F93A0914B01B0914C01C0
:100FC00090E02AE230E0829FF001839FF00D929F33
:100FD000F00D1124EA0FFB1F808D86958F708130F4
:100FE000B1F51A968D919D910D90BC91A02D218DFA
:100FF000328D438D548D281B390B4A0B5B0B21A37B
:1010000032A343A354A3E58CF68C078D10A1D8011D
:10101000C701821B930BA40BB50B85A396A3A7A3B3
:10102000B0A712161306140615068CF1118E128E37
:10103000138E148E11A212A213A214A2E5A2F6A27C
:1010400007A310A7808D817E8860808F20C08230AA
:10105000F1F41A968D919D910D90BC91A02D21A136
:1010600032A143A154A1820F931FA41FB51F818FEA
:10107000928FA38FB48F858D968DA78DB0A1821B83
:10108000930BA40BB50B85A396A3A7A3B0A71F91A1
:101090000F91FF90EF90089540E0E0914B01F091A7
:1010A0004C0190E02AE230E0BC01629FC001639FE6
:1010B000900D729F900D1124E80FF91F808D869579
:1010C0008F70843009F441E0842F0895482FE09117
:1010D0004B01F0914C01282F30E08AE290E0BC01F6
:1010E000269FC001279F900D369F900D1124E80F79
:1010F000F91F808D86958F70843011F080E00895FF
:10110000842F0E94290781E00895E0914B01F0911E
:101110004C0190E02AE230E0DC01A29FC001A39FD5
:10112000900DB29F900D1124E80FF91F808D80FD66
:101130000FC085A196A1A7A1B0A5840F951FA61FDA
:10114000B71F81A792A7A3A7B4A7808D8160808FC6
:101150000895E0914B01F0914C0190E02AE230E0DB
:10116000AC01429FC001439F900D529F900D1124EE
:10117000E80FF91F21A532A543A554A585A196A185
:10118000A7A1B0A5281B390B4A0B5B0B57FF04C066
:1011900020E030E040E050E0B901CA010895CF936B
:1011A000DF93C0914B01D0914C01682F70E08AE22F
:1011B00090E0689FF001699FF00D789FF00D112479
:1011C000EC0FFD1F21A532A543A554A585A196A12D
:1011D000A7A1B0A5281B390B4A0B5B0B57FD07C015
:1011E000211531054105510511F020E012C020E024
:1011F0008AE290E0AC01649FC001659F900D749FEE
:10120000900D1124C80FD91F888D80FF21E081E047
:101210002827822FDF91CF9108951F93182F0E94C6
:10122000CF08813011F080E016C0E0914B01F091C1
:101230004C01212F30E08AE290E0AC01249FC001F4
:10124000259F900D349F900D1124E80FF91F808D7C
:101250008E7F808F81E01F91089580E00E94D807E3
:10126000089580E00E9429070895E0914B01F091D4
:101270004C0190E02AE130E0AC01429FC001439F65
:10128000900D529F900D1124E80FF91FEE5BFF4F58
:10129000808186958F700895E0914B01F0914C010B
:1012A00090E02AE130E0AC01429FC001439F900DE5
:1012B000529F900D1124E80FF91FEE5BFF4F6F70E6
:1012C000660F8081817E862B80830895E0914B019B
:1012D000F0914C0190E02AE130E0AC01429FC00166
:1012E000439F900D529F900D1124E80FF91FE95B69
:1012F000FF4F60817181828193810895E0914B015C
:10130000F0914C0190E02AE130E0DC01A29FC001A5
:10131000A39F900DB29F900D1124E80FF91FE95B78
:10132000FF4F40835183628373830895E0914B01A3
:10133000F0914C0190E02AE130E0AC01429FC00105
:10134000439F900D529F900D1124E80FF91FED5B04
:10135000FF4F60817181828193810895E0914B01FB
:10136000F0914C0190E02AE130E0DC01A29FC00145
:10137000A39F900DB29F900D1124E80FF91FED5B14
:10138000FF4F40835183628373830895E0914B0143
:10139000F0914C0190E02AE130E0AC01429FC001A5
:1013A000439F900D529F900D1124E80FF91FE55BAC
:1013B000FF4F60817181828193810895E0914B019B
:1013C000F0914C01282F30E077FF13C08AE190E0C4
:1013D000AC01249FC001259F900D349F900D1124D6
:1013E000E80FF91FE55BFF4F108211821282138212
:1013F00008958AE190E0DC012A9FC0012B9F900DA7
:101400003A9F900D1124E80FF91FE55BFF4F4083D1
:101410005183628373830895E0914B01F0914C01F5
:1014200090E02AE130E0AC01429FC001439F900D63
:10143000529F900D1124E80FF91FEE5BFF4F808142
:1014400081700895E0914B01F0914C0190E02AE108
:1014500030E0AC01429FC001439F900D529F900D20
:101460001124E80FF91FEE5BFF4F808181608083BC
:101470000895E0914B01F0914C0190E02AE130E0B9
:10148000AC01429FC001439F900D529F900D1124CB
:10149000E80FF91FEE5BFF4F80818E7F80830895F8
:1014A000E0914B01F0914C0190E02AE130E0AC0179
:1014B000429FC001439F900D529F900D1124E80F51
:1014C000F91FED5BFF4F1192119211921192108250
:1014D00011821282138235978081807E80830895E5
:1014E000E0914B01F0914C0190E02AE130E0AC0139
:1014F000429FC001439F900D529F900D1124E80F11
:10150000F91FED5BFF4F119211921192119210820F
:1015100011821282138235978081807E80830895A4
:10152000E0914B01F0914C0190E02AE130E0AC01F8
:10153000429FC001439F900D529F900D1124E80FD0
:10154000F91FEE5BFF4F9081892F86958F70813058
:1015500019F0917E926090830895E0914B01F09193
:101560004C0190E02AE130E0AC01429FC001439F72
:10157000900D529F900D1124E80FF91FEE5BFF4F65
:101580009081892F86958F70823019F0917E9460BA
:1015900090830895CF93DF93A0914B01B0914C01BC
:1015A00090E02AE130E0829FF001839FF00D929F4E
:1015B000F00D1124EA0FFB1FEF01CE5BDF4F888196
:1015C00086958F70E9F4E95BFF4F40835183628316
:1015D00073831A968D919D910D90BC91A02D840FCF
:1015E000951FA61FB71FB293A293929382939881DF
:1015F000892F86958F70813019F0917E9260988343
:10160000DF91CF910895CF93DF93E0914B01F0915B
:101610004C01A82FB0E02AE130E0E901AC9F900135
:10162000AD9F300DBC9F300D1124E20FF31FED5B19
:10163000FF4F119211921192119210821182128217
:10164000138235979081907E90830E94CA0ADF9121
:10165000CF9108950F931F93CF93DF93A0914B01E8
:10166000B0914C0190E02AE130E0829FF001839F2D
:10167000F00D929FF00D1124EA0FFB1F8F010E5BFE
:101680001F4FE801888186958F70813069F51A9621
:101690002D913D914D915C911D97BF016D5B7F4FE9
:1016A000EB0188819981AA81BB81821B930BA40BDA
:1016B000B50BE95BFF4F80839183A283B383181638
:1016C00019061A061B0634F1DB011D921D921D92AC
:1016D0001C9213971082118212821382E801888172
:1016E000807E8860888316C08230A1F41A968D911E
:1016F0009D910D90BC91A02DE95BFF4F2081318120
:1017000042815381820F931FA41FB51FB293A293EE
:1017100092938293DF91CF911F910F91089540E0B2
:10172000E0914B01F0914C0190E02AE130E0BC01E6
:10173000629FC001639F900D729F900D1124E80F6E
:10174000F91FEE5BFF4F808186958F70843009F41E
:1017500041E0842F0895E0914B01F0914C0190E01D
:101760002AE130E0AC01429FC001439F900D529F9F
:10177000900D1124E80FF91FDF01AE5BBF4F8C9174
:1017800086958F70843011F080E00895ED5BFF4FF7
:10179000119211921192119210821182128213826F
:1017A0008C91807E8C9381E00895CF93DF93C091DC
:1017B0004B01D0914C01282F30E08AE190E0289F26
:1017C000F001299FF00D389FF00D1124EC0FFD1F43
:1017D000EE5BFF4F8081E254F04080FD25C0E95B65
:1017E000FF4F81919191A191B191841B950BA60B13
:1017F000B70BB7FF05C0108211821282138204C09A
:1018000080839183A283B3838AE190E0289FF001D3
:10181000299FF00D389FF00D1124EC0FFD1FEE5B9A
:10182000FF4F808181608083DF91CF910895E091A7
:101830004B01F0914C0190E02AE130E0AC01429F75
:10184000C001439F900D529F900D1124E80FF91F86
:10185000DF01A55BBF4FE95BFF4F208131814281F2
:1018600053818D919D910D90BC91A02D281B390B1A
:101870004A0B5B0B57FF04C020E030E040E050E033
:10188000B901CA010895CF93DF93C0914B01D09164
:101890004C01682F70E08AE190E0689FF001699F39
:1018A000F00D789FF00D1124EC0FFD1FDF01A55BFB
:1018B000BF4FE95BFF4F20813181428153818D9180
:1018C0009D910D90BC91A02D281B390B4A0B5B0BF1
:1018D00057FD07C0211531054105510511F020E0E4
:1018E00014C020E08AE190E0AC01649FC001659FD4
:1018F000900D749F900D1124C80FD91FCE5BDF4F40
:10190000888180FF21E081E02827822FDF91CF911D
:1019100008951F93182F0E94430C813011F080E02E
:1019200018C0E0914B01F0914C01212F30E08AE189
:1019300090E0AC01249FC001259F900D349F900D35
:101940001124E80FF91FEE5BFF4F80818E7F8083AB
:1019500081E01F91089580E00E942A0B0895E09194
:101960004B01F0914C01ED5BFF4F119211921192DE
:101970001192108211821282138235978081807EAB
:1019800080830895E0914B01F0914C0190E02AE1B1
:1019900030E0AC01429FC001439F900D529F900DDB
:1019A0001124E80FF91FE15BFF4F808186958F704E
:1019B0000895E0914B01F0914C0190E02AE130E074
:1019C000AC01429FC001439F900D529F900D112486
:1019D000E80FF91FE15BFF4F6F70660F8081817E1A
:1019E000862B80830895E0914B01F0914C0190E0AB
:1019F0002AE130E0AC01429FC001439F900D529F0D
:101A0000900D1124E80FF91FEC5AFF4F608171818E
:101A1000828193810895E0914B01F0914C0190E017
:101A20002AE130E0DC01A29FC001A39F900DB29F8C
:101A3000900D1124E80FF91FEC5AFF4F408351839A
:101A4000628373830895E0914B01F0914C0190E023
:101A50002AE130E0AC01429FC001439F900D529FAC
:101A6000900D1124E80FF91FE05BFF4F6081718139
:101A7000828193810895E0914B01F0914C0190E0B7
:101A80002AE130E0DC01A29FC001A39F900DB29F2C
:101A9000900D1124E80FF91FE05BFF4F4083518345
:101AA000628373830895E0914B01F0914C0190E0C3
:101AB0002AE130E0AC01429FC001439F900D529F4C
:101AC000900D1124E80FF91FE85AFF4F60817181D2
:101AD000828193810895E0914B01F0914C01282F70
:101AE00030E077FF13C08AE190E0AC01249FC00191
:101AF000259F900D349F900D1124E80FF91FE85A8F
:101B0000FF4F108211821282138208958AE190E0C1
:101B1000DC012A9FC0012B9F900D3A9F900D11244C
:101B2000E80FF91FE85AFF4F4083518362837383A4
:101B30000895E0914B01F0914C0190E02AE130E0F2
:101B4000AC01429FC001439F900D529F900D112404
:101B5000E80FF91FE15BFF4F808181700895E091EC
:101B60004B01F0914C0190E02AE130E0AC01429F42
:101B7000C001439F900D529F900D1124E80FF91F53
:101B8000E15BFF4F8081816080830895E0914B018C
:101B9000F0914C0190E02AE130E0AC01429FC0019D
:101BA000439F900D529F900D1124E80FF91FE15BA8
:101BB000FF4F80818E7F80830895E0914B01F091EB
:101BC0004C0190E02AE130E0AC01429FC001439F0C
:101BD000900D529F900D1124E80FF91FE05BFF4F0D
:101BE000119211921192119210821182128213821B
:101BF00035978081807E80830895E0914B01F0913C
:101C00004C0190E02AE130E0AC01429FC001439FCB
:101C1000900D529F900D1124E80FF91FE05BFF4FCC
:101C200011921192119211921082118212821382DA
:101C300035978081807E80830895E0914B01F091FB
:101C40004C0190E02AE130E0AC01429FC001439F8B
:101C5000900D529F900D1124E80FF91FE15BFF4F8B
:101C60009081892F86958F70813019F0917E9260D6
:101C700090830895E0914B01F0914C0190E02AE1AE
:101C800030E0AC01429FC001439F900D529F900DE8
:101C90001124E80FF91FE15BFF4F9081892F869592
:101CA0008F70823019F0917E946090830895CF9365
:101CB000DF93A0914B01B0914C0190E02AE130E01C
:101CC000829FF001839FF00D929FF00D1124EA0F87
:101CD000FB1FEF01C15BDF4F888186958F70E9F4B0
:101CE000EC5AFF4F40835183628373831A968D9120
:101CF0009D910D90BC91A02D840F951FA61FB71F1D
:101D0000B293A293929382939881892F86958F7034
:101D1000813019F0917E92609883DF91CF91089580
:101D2000CF93DF93E0914B01F0914C01A82FB0E0ED
:101D30002AE130E0E901AC9F9001AD9F300DBC9FDE
:101D4000300D1124E20FF31FE05BFF4F119211924F
:101D50001192119210821182128213823597908112
:101D6000907E90830E94570EDF91CF9108950F933C
:101D70001F93CF93DF93A0914B01B0914C0190E062
:101D80002AE130E0829FF001839FF00D929FF00DD9
:101D90001124EA0FFB1F8F01015B1F4FE8018881AF
:101DA00086958F70813069F51A962D913D914D91F0
:101DB0005C911D97BF01605B7F4FEB01888199812A
:101DC000AA81BB81821B930BA40BB50BEC5AFF4F6E
:101DD00080839183A283B383181619061A061B0603
:101DE00034F1DB011D921D921D921C9213971082FB
:101DF000118212821382E8018881807E8860888344
:101E000016C08230A1F41A968D919D910D90BC91CF
:101E1000A02DEC5AFF4F2081318142815381820FE6
:101E2000931FA41FB51FB293A29392938293DF9145
:101E3000CF911F910F91089540E0E0914B01F091F7
:101E40004C0190E02AE130E0BC01629FC001639F39
:101E5000900D729F900D1124E80FF91FE15BFF4F69
:101E6000808186958F70843009F441E0842F089535
:101E7000E0914B01F0914C0190E02AE130E0AC019F
:101E8000429FC001439F900D529F900D1124E80F77
:101E9000F91FDF01A15BBF4F8C9186958F70843055
:101EA00011F080E00895E05BFF4F119211921192C2
:101EB000119210821182128213828C91807E8C93F7
:101EC00081E00895CF93DF93C0914B01D0914C01F5
:101ED000282F30E08AE190E0289FF001299FF00D43
:101EE000389FF00D1124EC0FFD1FE15BFF4F808147
:101EF000EF54F04080FD25C0EC5AFF4F8191919145
:101F0000A191B191841B950BA60BB70BB7FF05C030
:101F1000108211821282138204C080839183A28373
:101F2000B3838AE190E0289FF001299FF00D389F4C
:101F3000F00D1124EC0FFD1FE15BFF4F80818160EC
:101F40008083DF91CF910895E0914B01F0914C0196
:101F500090E02AE130E0AC01429FC001439F900D28
:101F6000529F900D1124E80FF91FDF01A85ABF4FAF
:101F7000EC5AFF4F20813181428153818D919D9197
:101F80000D90BC91A02D281B390B4A0B5B0B57FF02
:101F900004C020E030E040E050E0B901CA010895FB
:101FA000CF93DF93C0914B01D0914C01682F70E02B
:101FB0008AE190E0689FF001699FF00D789FF00D35
:101FC0001124EC0FFD1FDF01A85ABF4FEC5AFF4F41
:101FD00020813181428153818D919D910D90BC91E1
:101FE000A02D281B390B4A0B5B0B57FD07C0211591
:101FF00031054105510511F020E014C020E08AE1CF
:1020000090E0AC01649FC001659F900D749F900D9E
:102010001124C80FD91FC15BDF4F888180FF21E0E9
:1020200081E02827822FDF91CF9108951F93182FE9
:102030000E94D00F813011F080E018C0E0914B0178
:10204000F0914C01212F30E08AE190E0AC01249F17
:10205000C001259F900D349F900D1124E80FF91FAA
:10206000E15BFF4F80818E7F808381E01F91089527
:1020700080E00E94B70E0895E0914B01F0914C0171
:10208000E05BFF4F11921192119211921082118216
:102090001282138235978081807E808308950E940A
:1020A00031090E94AF0C08950F931F938C010E9479
:1020B000E802C8010E94B3030E944F101F910F91C4
:1020C00008950E942D090E94AB0C0895E0914B01E8
:1020D000F0914C018085918501969187808783815D
:1020E00086BD80859185618172810E94CF10892B88
:1020F00081F482859385A485B5850196A11DB11DC6
:1021000082879387A487B5878789882311F41186EE
:10211000108608951F920F920FB60F9211242F93DD
:102120003F934F935F936F937F938F939F93AF935F
:10213000BF93EF93FF935D9A0E9466105D98FF91A5
:10214000EF91BF91AF919F918F917F916F915F912F
:102150004F913F912F910F900FBE0F901F901895A8
:10216000629FD001739FF001829FE00DF11D649F7B
:10217000E00DF11D929FF00D839FF00D749FF00D07
:10218000659FF00D9927729FB00DE11DF91F639FA8
:10219000B00DE11DF91FBD01CF0111240895AA1B47
:1021A000BB1B51E107C0AA1FBB1FA617B70710F042
:1021B000A61BB70B881F991F5A95A9F78095909574
:1021C000BC01CD010895A1E21A2EAA1BBB1BFD0183
:1021D0000DC0AA1FBB1FEE1FFF1FA217B307E40706
:1021E000F50720F0A21BB30BE40BF50B661F771F5E
:1021F000881F991F1A9469F760957095809590953E
:102200009B01AC01BD01CF01089597FB092E052666
:102210000ED057FD04D0D7DF0AD0001C38F45095FB
:102220004095309521953F4F4F4F5F4F0895F6F7FA
:1022300090958095709561957F4F8F4F9F4F089532
:04224000F894FFCF40
:1022440054696D6562617365200020000D0A0020E9
:0C22540000010008004000000100040030
:00000001FF
