:100000000C9434000C9451000C9451000C94510049
:100010000C9451000C9451000C9451000C9451001C
:100020000C9451000C94780D0C9451000C945100D8
:100030000C9451000C9451000C9451000C945100FC
:100040000C947F080C9451000C94D10C0C9451002A
:100050000C9451000C9451000C9451000C945100DC
:100060000C9451000C94510011241FBECFEFD8E026
:10007000DEBFCDBF11E0A0E0B1E0ECE8F2E202C0EB
:1000800005900D92A639B107D9F712E0A6E9B1E0C3
:1000900001C01D92AB31B107E1F70E9453000C94EF
:1000A00044110C94000088EE93E00E9439080E94ED
:1000B0007E000E945E000E944608FBCF0E94300C2A
:1000C0008823D9F00E94380CAC0160E070E080E039
:1000D00091E00E949F0B0E94900C482F50E060E03E
:1000E00070E088E091E00E949F0B0E94760C0E94D5
:1000F000170C0E944A0C0E944D0C089560E071EEAE
:1001000080E090E00E949C0D80E042E350E060E0DF
:1001100070E00E941205089580EF91E09093EF0146
:100120008093EE0181E090E09093F1018093F001E3
:100130001092F3011092F2011092FF011092FE0151
:100140001092000210920102109202021092030219
:100150001092F9011092F8011092FA011092FB012D
:100160001092FC011092FD01109204021092F40111
:100170001092F5011092F6011092F701109205020B
:1001800010920602109207021092080210920902C1
:1001900010920A0210920B0210920C0210920D02A1
:1001A00010920E0210920F02109210021092110281
:1001B0001092120210921302109214021092150261
:1001C0001092160210921702109218021092190241
:1001D00010921A0208958F929F92BF92CF92DF924F
:1001E000EF92FF920F931F93DF93CF93CDB7DEB7BC
:1001F0002A970FB6F894DEBF0FBECDBF4C01DE01CB
:100200001196E2E1F1E08AE001900D928150E1F770
:10021000940140E050E060E07BE187EB90E00E94D9
:100220002911B22EC32ED42E052F7E010894E11C75
:10023000F11CC901DA019C01AD0110E013C0F70106
:10024000219131917F0140E050E06B2D7C2D8D2D6F
:10025000902F0E942911C901DA019C01AD011F5F95
:10026000153031F02F3F31054105510509F03CF7BC
:10027000812F815014BC15BC10926E0015BA17BCAA
:1002800018BC16BC17BC882311F481E00FC0813064
:1002900011F482E00BC0823011F483E007C0833098
:1002A00011F484E003C0843011F485E085BDE09151
:1002B000EE01F091EF018FEF90E0821B930B93839F
:1002C00082838281938186BD81E080936E007894E1
:1002D000918280822A960FB6F894DEBF0FBECDBF02
:1002E000CF91DF911F910F91FF90EF90DF90CF9012
:1002F000BF909F908F90089514BC15BC10926E0013
:1003000087E085BB17BC18BC16BC0895F894089507
:1003100078940895E091EE01F091EF0126853785FC
:10032000C9010895E091EE01F091EF012089318932
:1003300042895389B901CA010895E091EE01F09113
:10034000EF0120853185C9010895E091EE01F0911A
:10035000EF012285338544855585B901CA01089589
:10036000E091EE01F091EF01918780870895E0918F
:10037000EE01F091EF016287738784879587089576
:10038000E091EE01F091EF0126853785868597850E
:1003900028173907C9F7C9010895E091EE01F091D6
:1003A000EF01208931894289538980899189A28905
:1003B000B389281739074A075B0799F7B901CA01BA
:1003C0000895E091EE01F091EF0184898823E1F432
:1003D000268537858685978528173907C9F7318798
:1003E0002087208931894289538980899189A2890E
:1003F000B389281739074A075B0799F7228733879C
:100400004487558781E0848B08958F929F92AF92A5
:10041000BF92CF92DF92EF92FF920F931F93CF93F1
:10042000DF935C01C091EE01D091EF01CE84DF84B7
:100430008E859F85C816D906C9F7E888F9880A8984
:100440001B8988899989AA89BB89E816F9060A0750
:100450001B0799F72881398140E050E0C801B701B6
:100460000E94E810760100E010E0950140E050E0C5
:10047000E20EF31E041F151FE60EF71E081F191FBC
:1004800020E030E040E050E025C08E849F848E85DF
:100490009F8588169906C9F7A888B988CA88DB8815
:1004A00088899989AA89BB89A816B906CA06DB0674
:1004B00099F72881398140E050E0C601B5010E94DA
:1004C000E8109B01AC01C401A0E0B0E0280F391F87
:1004D0004A1F5B1F2E153F0540075107B4F2DF91FD
:1004E000CF911F910F91FF90EF90DF90CF90BF9031
:1004F000AF909F908F900895CF93DF93EC01E091A0
:10050000EE01F091EF0166857785868597856817FE
:100510007907C9F707C06685778586859785681747
:100520007907C9F72481358146815781CB01A0E045
:10053000B0E082179307A407B50769F726853785CA
:100540008685978528173907C9F7C901A0E0B0E06B
:1005500084839583A683B78324813581468157811F
:10056000CE01A0E0B0E0820F931FA41FB51F8483CB
:100570009583A683B7832481358146815781808105
:100580009181A0E0B0E0281739074A075B0784F0A3
:10059000248135814681578180819181A0E0B0E03E
:1005A000281B390B4A0B5B0B248335834683578307
:1005B000DF91CF910895EF92FF920F931F93BC01AB
:1005C000E091EE01F091EF01208931894289538950
:1005D00080899189A289B389281739074A075B075F
:1005E00099F77B0100E010E0E20EF31E041F151FD7
:1005F00020E030E040E050E00DC0208931894289A0
:10060000538980899189A289B389281739074A07B4
:100610005B0799F72E153F054007510774F31F91AB
:100620000F91FF90EF900895E091EE01F091EF01AE
:1006300090E025E130E0AC01429FC001439F900D66
:10064000529F900D1124E80FF91F868986958F70AF
:100650000895E091EE01F091EF0190E025E130E0A6
:10066000AC01429FC001439F900D529F900D1124F9
:10067000E80FF91F6F70660F8689817E862B868B47
:100680000895E091EE01F091EF0190E025E130E076
:10069000AC01429FC001439F900D529F900D1124C9
:1006A000E80FF91FDF015F96678D11967C91119716
:1006B00012968C91129713969C910895E091EE01F9
:1006C000F091EF0190E025E130E0DC01A29FC00154
:1006D000A39F900DB29F900D1124E80FF91F478F33
:1006E00050A361A372A30895E091EE01F091EF0190
:1006F00090E025E130E0AC01429FC001439F900DA6
:10070000529F900D1124E80FF91FDF01579667895A
:1007100011967C91119712968C91129713969C9139
:100720000895E091EE01F091EF0190E025E130E0D5
:10073000AC01429FC001439F900D529F900D112428
:10074000E80FF91FDF015B96638D11967C9111977D
:1007500012968C91129713969C910895E091EE0158
:10076000F091EF0190E025E130E0DC01A29FC001B3
:10077000A39F900DB29F900D1124E80FF91F478B96
:10078000508F618F728F0895E091EE01F091EF012B
:1007900090E025E130E0DC01A29FC001A39F900D15
:1007A000B29F900D1124E80FF91F438F548F658F6E
:1007B000768F0895E091EE01F091EF0190E025E150
:1007C00030E0AC01429FC001439F900D529F900DBD
:1007D0001124E80FF91FDF01939663A111967C9114
:1007E000119712968C91129713969C910895E0910F
:1007F000EE01F091EF01282F30E077FF11C085E185
:1008000090E0AC01249FC001259F900D349F900D76
:100810001124E80FF91F13A214A215A216A208951D
:1008200085E190E0DC012A9FC0012B9F900D3A9F4B
:10083000900D1124E80FF91F43A354A365A376A3D9
:100840000895E091EE01F091EF0190E025E130E0B4
:10085000AC01429FC001439F900D529F900D112407
:10086000E80FF91F868981700895E091EE01F091FB
:10087000EF0190E025E130E0AC01429FC001439FD1
:10088000900D529F900D1124E80FF91F8689816009
:10089000868B0895E091EE01F091EF0190E025E163
:1008A00030E0AC01429FC001439F900D529F900DDC
:1008B0001124E80FF91F86898E7F868B0895E091B9
:1008C000EE01F091EF0190E025E130E0AC01429FB4
:1008D000C001439F900D529F900D1124E80FF91F06
:1008E000DF01979667A111967C91119712968C91D2
:1008F000129713969C910895E091EE01F091EF010B
:1009000090E025E130E0DC01A29FC001A39F900DA3
:10091000B29F900D1124E80FF91F47A350A761A7BC
:1009200072A70895E091EE01F091EF0190E025E1CA
:1009300030E0AC01429FC001439F900D529F900D4B
:100940001124E80FF91F138E148E158E168E178A38
:10095000108E118E128E178E10A211A212A28689ED
:10096000807E868B17A210A611A612A60895E0918C
:10097000EE01F091EF0190E025E130E0AC01429F03
:10098000C001439F900D529F900D1124E80FF91F55
:10099000138E148E158E168E178A108E118E128E4F
:1009A000178E10A211A212A28689807E868B17A2B2
:1009B00010A611A612A60895E091EE01F091EF01A4
:1009C00090E025E130E0AC01429FC001439F900DD3
:1009D000529F900D1124E80FF91F9689892F869553
:1009E0008F70813019F0917E9260968B0895E0911E
:1009F000EE01F091EF0190E025E130E0AC01429F83
:100A0000C001439F900D529F900D1124E80FF91FD4
:100A10009689892F86958F70823019F0917E946027
:100A2000968B08952F923F924F925F926F927F9292
:100A30008F929F92AF92BF92CF92DF92EF92FF92EE
:100A40000F931F93DF93CF93CDB7DEB728970FB6E1
:100A5000F894DEBF0FBECDBF1A012B012091EE012D
:100A60003091EF0138872F83A82FB0E0BA83A98394
:100A700085E190E0A89FF001A99FF00DB89FF00DCF
:100A80001124E20FF31F868986958F7009F080C0CC
:100A9000478F50A361A372A3F901C084D184D90107
:100AA0001A968D919D910D90BC91A02D8B839C8366
:100AB000AD83BE832081318140E050E0C201B101AD
:100AC0000E9429117B018C01EF81F8852081318101
:100AD00040E050E0C201B1010E942911C901DA01D0
:100AE0003C014D015601CC24DD24AE0CBF1CC01EC0
:100AF000D11EAF81B8858D919C91A0E0B0E0A81681
:100B0000B906CA06DB06A4F00894611C711C811C9E
:100B1000911CEF81F8852081318140E050E0C601D1
:100B2000B5010E942911AC01CB01DA015C016D0114
:100B300085E190E029813A81289FA001299F500DED
:100B4000389F500D11248F819885480F591F8B8134
:100B50009C81AD81BE81860D971DA81DB91DFA012E
:100B6000878B908FA18FB28FDA015B96AD92BD9289
:100B7000CD92DC925E9727A230A641A652A6968916
:100B8000892F86958F70813019F0917E9260968BB7
:100B900028960FB6F894DEBF0FBECDBFCF91DF9180
:100BA0001F910F91FF90EF90DF90CF90BF90AF908B
:100BB0009F908F907F906F905F904F903F902F907D
:100BC0000895CF92DF92EF92FF920F931F937A01D5
:100BD0008B01E091EE01F091EF01482F50E025E10B
:100BE00030E0429F6001439FD00C529FD00C1124F3
:100BF000EC0DFD1D138E148E158E168E178A108E19
:100C0000118E128E178E10A211A212A29689907EBA
:100C1000968B17A210A611A612A6B801A7010E94D2
:100C20001205E091EE01F091EF01EC0DFD1DE7A240
:100C3000F0A601A712A71F910F91FF90EF90DF90F0
:100C4000CF9008952F923F924F925F926F927F9232
:100C50008F929F92AF92BF92CF92DF92EF92FF92CC
:100C60000F931F93CF93DF93E091EE01F091EF018B
:100C700090E025E130E0829FE001839FD00D929FBC
:100C8000D00D1124CE0FDF1F8E8986958F70813095
:100C900009F048C0E084F18400E010E0828593858B
:100CA000A485B5852F89388D498D5A8D281B390B20
:100CB0004A0B5B0B6081718180E090E00E94E8103C
:100CC0006E197F09800B910B2B8D3C8D4D8D5E8DA8
:100CD000620F731F841F951F6F8F78A389A39AA338
:100CE00016161706180619060CF44CC08FA198A505
:100CF000A9A5BAA51B8E1C8E1D8E1E8E1F8A188E4E
:100D0000198E1A8E1F8E18A219A21AA22E892E7F52
:100D10002E8B8FA398A7A9A7BAA78E89817E8860FA
:100D20008E8B30C0823071F560847184E284F384EC
:100D3000048515852F8C38A049A05AA020813181C7
:100D4000A080B18040E050E0C201B1010E942911B1
:100D5000E20EF31E041F151FEF8AF88E098F1A8FFB
:100D6000CC24DD24C201B101A60195010E94291104
:100D700088249924660E771E881E991E6B8E7C8EA1
:100D80008D8E9E8EDF91CF911F910F91FF90EF90EE
:100D9000DF90CF90BF90AF909F908F907F906F909B
:100DA0005F904F903F902F90089540E0E091EE01CA
:100DB000F091EF0190E025E130E0BC01629FC001BD
:100DC000639F900D729F900D1124E80FF91F868983
:100DD00086958F70843009F441E0842F0895E09166
:100DE000EE01F091EF0190E025E130E0AC01429F8F
:100DF000C001439F900D529F900D1124E80FF91FE1
:100E0000868986958F70843011F080E00895138E66
:100E1000148E158E168E178A108E118E128E178EC6
:100E200010A211A212A28689807E868B17A210A61C
:100E300011A612A681E008950E94EF060895A82F3A
:100E4000E091EE01F091EF01282F30E085E190E094
:100E5000AC01249FC001259F900D349F900D11245B
:100E6000E80FF91F868986958F70843011F080E035
:100E7000089547A150A561A572A5138E148E158EF5
:100E8000168E178A108E118E128E178E10A211A236
:100E900012A28689807E868B17A210A611A612A6A2
:100EA0008A2F0E94120581E00895CF93DF93C091AD
:100EB000EE01D091EF01282F30E085E190E0289FEE
:100EC000F001299FF00D389FF00D1124EC0FFD1F4C
:100ED000868980FD21C0878D90A1A1A1B2A1841B2C
:100EE000950BA60BB70BB7FF05C013A214A215A252
:100EF00016A204C083A394A3A5A3B6A385E190E0A2
:100F0000289FF001299FF00D389FF00D1124EC0F60
:100F1000FD1F86898160868BDF91CF910895E091D6
:100F2000EE01F091EF0190E025E130E0AC01429F4D
:100F3000C001439F900D529F900D1124E80FF91F9F
:100F4000278D30A141A152A183A194A1A5A1B6A151
:100F5000281B390B4A0B5B0B57FF04C020E030E025
:100F600040E050E0B901CA010895CF93DF93C091EA
:100F7000EE01D091EF01682F70E085E190E0689F6D
:100F8000F001699FF00D789FF00D1124EC0FFD1F0B
:100F9000278D30A141A152A183A194A1A5A1B6A101
:100FA000281B390B4A0B5B0B57FD07C02115310578
:100FB0004105510511F020E012C020E085E190E0EC
:100FC000AC01649FC001659F900D749F900D11242A
:100FD000C80FD91F8E8980FF21E081E02827822F4A
:100FE000DF91CF9108951F93182F0E94B50781308C
:100FF00011F080E016C0E091EE01F091EF01212F99
:1010000030E085E190E0AC01249FC001259F900D68
:10101000349F900D1124E80FF91F86898E7F868BEF
:1010200081E01F91089580E00E9422060895E091DA
:10103000EE01F091EF01138E148E158E168E178A25
:10104000108E118E128E178E10A211A212A28689F6
:10105000807E868B17A210A611A612A60895E09195
:10106000EE01F091EF01858908950E941708089517
:1010700008950F931F938C010E948C00C8010E9459
:10108000EB000E9417081F910F910895E091EE0167
:10109000F091EF01858983FF0BC00E94E1010E945E
:1010A0001308E091EE01F091EF018589877F858B30
:1010B000E091EE01F091EF01148A0895E091EE01C4
:1010C000F091EF01868597850196978786878589B8
:1010D0008860858B2685378580819181281739071F
:1010E00068F01786168680899189A289B38901964E
:1010F000A11DB11D808B918BA28BB38B08951F9284
:101100000F920FB60F9211242F933F934F935F933B
:101110006F937F938F939F93AF93BF93EF93FF93BF
:10112000E091EE01F091EF018281938186BD0E94F2
:101130005E08FF91EF91BF91AF919F918F917F9149
:101140006F915F914F913F912F910F900FBE0F9034
:101150001F901895089510929601E7E9F1E0119219
:1011600081E0EF39F807D9F71082118280E490E02E
:101170009093E2018093E1011092E4011092E30167
:1011800020E004C0EA56FE4F13862F5F8091E101F4
:101190009091E201E22FF0E0E817F90798F3089543
:1011A0001092E8011092E7011092EA011092E90111
:1011B0001092EB011092EC0181E08093ED01089513
:1011C000089508959B01AC0160E673EE86E190E01E
:1011D0000E9407112150304040405040E0ECF0E0C8
:1011E000808182608083BB27A52F942F832F8093DB
:1011F000C5002093C4000895E1ECF0E08081886090
:10120000808386E08093C2000895E1ECF0E0808165
:101210008061808386E08093C2000895E1ECF0E075
:1012200080818068808378940895982F8091C00091
:1012300085FFFCCF9093C6000895DF93CF930F9264
:10124000CDB7DEB719828091C00084FF05C08091C0
:10125000C600898381E008C08091C00083FF07C079
:101260008091C600898382E08093960105C08091B9
:10127000C60089831092960189810F90CF91DF91EA
:1012800008951092E5011092E601089584E080939C
:10129000E6018BEF8093E6011092B6001092B00049
:1012A0001092B100E0E7F0E010821092B2008FEFF0
:1012B00087BB81E080837894089587E08093B100B4
:1012C00008951092B10008958091E50108958091EC
:1012D000B20090E008958091E6018093B2000895F5
:1012E000AC0120E030E070E00CC0FA01E20FF31F27
:1012F000E0818091C00085FFFCCFE093C6002F5FA6
:101300003F4F2617370788F308958091C00085FF67
:10131000FCCF8DE08093C6008091C00085FFFCCF9C
:101320008AE08093C60008958091C00085FFFCCFBD
:1013300080E28093C60008958091C00085FFFCCFB5
:101340008CE28093C6000895AC0120E007C0809134
:10135000C00085FFFCCFE093C6002F5FFA01E20FCB
:10136000F11DE081EE2399F708950E94A4090E94DF
:10137000850908950E94A4098091C00085FFFCCFD3
:1013800080E28093C60008950E94A4098091C00065
:1013900085FFFCCF8CE28093C6000895BF92CF9268
:1013A000DF92EF92FF920F931F936B017C01611507
:1013B00071058105910531F41092970181E08093C8
:1013C0009F0123C0BB240B2D10E00A561E4FC701FE
:1013D000B6012AE030E040E050E00E940711F80139
:1013E0006183C701B6012AE030E040E050E00E948E
:1013F0000711C901DA016C017D01B394C114D10454
:10140000E104F10401F7B0929F011F910F91FF9049
:10141000EF90DF90CF90BF900895E0919F010FC0B3
:101420002E2F2150E22FF0E0EA56FE4F918180915D
:10143000C00085FFFCCF905D9093C600E22FEE23A5
:1014400079F708959B01AC0197FF0EC08091C00011
:1014500085FFFCCF8DE28093C60050954095309576
:1014600021953F4F4F4F5F4FCA01B9010E94CE09EE
:101470000E940D0A08951F93CF93DF93AB01BC0127
:101480004F3F51056105710509F028F4E8E0F0E0EF
:10149000C2E0D0E011C0403080E0580781E068072A
:1014A00080E0780728F0E0E2F0E0C8E0D0E004C097
:1014B000E0E1F0E0C4E0D0E08091C00085FFFCCF27
:1014C00080E38093C6008091C00085FFFCCF88E751
:1014D0008093C60010E01FC03497DB01CA010E2EB6
:1014E00004C0B695A795979587950A94D2F790E092
:1014F0008F7090708A30910520F09C01295C3F4FDD
:1015000003C09C01205D3F4F8091C00085FFFCCF50
:101510002093C6001F5F812F90E08C179D07E0F29B
:10152000DF91CF911F910895CF92DF92EF92FF92BA
:101530000F931F93CF93DF93AB01BC014F3F510536
:101540006105710509F010F497E00BC0403080E0B0
:10155000580781E0680780E0780710F09FE101C03C
:101560009FE08091C00085FFFCCF80E38093C600A0
:101570008091C00085FFFCCF82E68093C60020E00A
:1015800030E0E92FF0E000E311E3EF012196CF0115
:10159000821B930B6A017B0104C0F694E794D794F5
:1015A000C7948A95D2F7D701C60181709070892BB4
:1015B00039F08091C00085FFFCCF1093C60006C0B3
:1015C0008091C00085FFFCCF0093C6002F5F3F4F86
:1015D0002C173D07E1F6DF91CF911F910F91FF90FE
:1015E000EF90DF90CF9008950E94220A0E94850913
:1015F00008950E94220A8091C00085FFFCCF80E2FE
:101600008093C60008950E94220A8091C00085FF41
:10161000FCCF8CE28093C60008950E943B0A0E9492
:10162000850908950E943B0A8091C00085FFFCCF88
:1016300080E28093C60008950E943B0A8091C0001A
:1016400085FFFCCF8CE28093C60008950E94940A27
:101650000E94850908950E94940A8091C00085FF28
:10166000FCCF80E28093C60008950E94940A809186
:10167000C00085FFFCCF8CE28093C6000895EF92F6
:10168000FF920F931F937A018B010E94A40980910E
:10169000C00085FFFCCF80E28093C600C801B7017F
:1016A0000E94F40A1F910F91FF90EF900895EF921E
:1016B000FF920F931F937A018B010E94A4098091DE
:1016C000C00085FFFCCF80E28093C600C801B7014F
:1016D0000E94F90A1F910F91FF90EF900895EF92E9
:1016E000FF920F931F937A018B010E94A4098091AE
:1016F000C00085FFFCCF80E28093C600C801B7011F
:101700000E94030B1F910F91FF90EF900895EF92AD
:10171000FF920F931F937A018B010E94A40980917D
:10172000C00085FFFCCF80E28093C600C801B701EE
:101730000E940D0B1F910F91FF90EF900895EF9273
:10174000FF920F931F937A018B010E94A40980914D
:10175000C00085FFFCCF80E28093C600C801B701BE
:101760000E94120B1F910F91FF90EF900895EF923E
:10177000FF920F931F937A018B010E94A40980911D
:10178000C00085FFFCCF80E28093C600C801B7018E
:101790000E941C0B1F910F91FF90EF900895EF9204
:1017A000FF920F931F937A018B010E94A4098091ED
:1017B000C00085FFFCCF80E28093C600C801B7015E
:1017C0000E94260B1F910F91FF90EF900895EF92CA
:1017D000FF920F931F937A018B010E94A4098091BD
:1017E000C00085FFFCCF80E28093C600C801B7012E
:1017F0000E942B0B1F910F91FF90EF900895EF9295
:10180000FF920F931F937A018B010E94A40980918C
:10181000C00085FFFCCF80E28093C600C801B701FD
:101820000E94350B1F910F91FF90EF90089580E07B
:1018300090E0FC01EA56FE4F138601968034910534
:10184000C1F71092E4011092E3010895FC01EA56F9
:10185000FE4F838508958091E3019091E4010895FE
:101860008091EC0108958091E3019091E401089545
:101870002091E7013091E801C90108952091E90123
:101880003091EA01C90108958091EB01089580919A
:10189000ED0108951092EC01089580E090E0FC01C4
:1018A000EA56FE4F1386019680349105C1F71092D7
:1018B000E4011092E30181E08093ED010895AC0111
:1018C00020E030E00AC0F901EA56FE4F8385FA01B4
:1018D000E20FF31F80832F5F3F4F8091E3019091D0
:1018E000E40190E02817390770F3089520E030E014
:1018F0000CC0F901EA56FE4F93858091C00085FF28
:10190000FCCF9093C6002F5F3F4F8091E3019091F1
:10191000E40190E02817390760F30E9485090895D3
:101920008091960108951092960108950E941D09D4
:101930008093A00180919601882311F5E091E30145
:10194000F091E4018091A001EA56FE4F83878091D7
:10195000E3019091E40101969093E4018093E30107
:101960002091E3013091E4018091E1019091E20145
:101970002817390738F01092E4011092E30102C0F1
:101980001092A0018091E6018093B2008091E50160
:10199000882331F487E08093B10081E08093E501F2
:1019A00008951F920F920FB60F9211242F933F9319
:1019B0004F935F936F937F938F939F93AF93BF9357
:1019C000EF93FF930E94960CFF91EF91BF91AF911F
:1019D0009F918F917F916F915F914F913F912F9147
:1019E0000F900FBE0F901F901895362F20E02827DC
:1019F000392740E061E270E1C901880F991F37FF84
:101A000004C09C012627372701C09C014F5F483046
:101A100099F7C90108950F931F93CF93DF93062F72
:101A2000EC0120E030E010E006C0C90169910E949D
:101A3000F50C9C011F5F1017C0F3C901DF91CF9116
:101A40001F910F9108956091E3017091E40162503C
:101A500081EA91E00E940B0DE091E301F091E40135
:101A6000F0E0EC56FE4F2385522F40E0E091E30179
:101A7000F091E401F0E0EB56FE4F238530E0422B7D
:101A8000532B9093E8018093E7015093EA01409330
:101A9000E9012091E7013091E8018091E9019091FD
:101AA000EA012817390721F481E08093EB010895BA
:101AB0001092EB0108958091E501813021F410929C
:101AC000B1001092E5018091E3019091E401882337
:101AD00071F08091ED01882319F480E180939601E3
:101AE0000E94230D81E08093EC011092ED01089596
:101AF0001F920F920FB60F9211242F933F934F9383
:101B00005F936F937F938F939F93AF93BF93EF9365
:101B1000FF930E945B0DFF91EF91BF91AF919F9159
:101B20008F917F916F915F914F913F912F910F9086
:101B30000FBE0F901F901895EF92FF920F931F9377
:101B40007B018C010E94AB081092E8011092E70122
:101B50001092EA011092E9011092EB011092EC014F
:101B600081E08093ED011092E5011092E601C80139
:101B7000B7010E94E2088091C10088608093C10093
:101B800096E09093C2008091C10080618093C10073
:101B90009093C2008091C10080688093C1007894C6
:101BA0000E94460980E090E0FC01EA56FE4F138651
:101BB000019680349105C1F71092E4011092E3017F
:101BC0001F910F91FF90EF90089510921C011092B9
:101BD0001D0110921E0110921F01109220011092FF
:101BE00021011092220110922301109224011092DF
:101BF00025011092260110922701109228011092BF
:101C0000290110922A0110922B0110922C0110929E
:101C10002D0110922E0110922F011092300110927E
:101C2000310110923201109233011092340110925E
:101C3000350110923601109237011092380110923E
:101C4000390110923A0110923B0110923C0110921E
:101C50003D0110923E0110923F01109240011092FE
:101C600041011092420110924301109244011092DE
:101C700045011092460110924701109248011092BE
:101C8000490110924A0110924B0110924C0110929E
:101C90004D0110924E0110924F011092500110927E
:101CA000510110925201109253011092540110925E
:101CB000550110925601109257011092580110923E
:101CC000590110925A0110925B01089560931C0112
:101CD00070931D0180931E0190931F0108956093DE
:101CE0002001709321018093220190932301089594
:101CF000609324017093250180932601909327011E
:101D00000895EF92FF920F931F9360931C017093BD
:101D10001D0180931E0190931F0120932001309399
:101D200021014093220150932301E0922401F0927B
:101D3000250100932601109327011F910F91FF9019
:101D4000EF900895609328017093290180932A01F0
:101D500090932B01089560932C0170932D01809333
:101D60002E0190932F01089560933C0170933D01E3
:101D700080933E0190933F010895609350017093CA
:101D800051018093520190935301089510923801AC
:101D90001092390110923A0110923B010895EF928E
:101DA000FF920F931F9320912801309129014091B8
:101DB0002A0150912B0180912C0190912D01A0912D
:101DC0002E01B0912F01281B390B4A0B5B0B20937E
:101DD00030013093310140933201509333018091AF
:101DE000400190914101A0914201B09143017901DC
:101DF0008A01E81AF90A0A0B1B0BE0923401F092EF
:101E00003501009336011093370120934001309340
:101E100041014093420150934301E0903801F0901A
:101E2000390100913A0110913B01E20EF31E041FAB
:101E3000151FE0923801F092390100933A01109396
:101E40003B0180913C0190913D01A0913E01B091F8
:101E50003F018E159F05A007B1074CF48093380110
:101E600090933901A0933A01B0933B0114C022270B
:101E70003327A901281B390B4A0B5B0BE216F3062B
:101E80000407150744F42093380130933901409337
:101E90003A0150933B011F910F91FF90EF900895ED
:101EA0006F927F928F929F92AF92BF92CF92DF926A
:101EB000EF92FF920F931F93609120017091210187
:101EC00080912201909123012091380130913901B4
:101ED00040913A0150913B010E94E8103B014C01B6
:101EE0006091240170912501809126019091270134
:101EF00020913401309135014091360150913701E4
:101F00000E94E8105B016C01E0905001F0905101DB
:101F1000009152011091530160911C0170911D01BB
:101F200080911E0190911F0120913001309131016B
:101F300040913201509133010E94E810A8019701AD
:101F40000E9429112093440130934501409346019A
:101F500050934701C401B301A80197010E942911C0
:101F6000209348013093490140934A0150934B011B
:101F7000C601B501A80197010E94291120934C01C7
:101F800030934D0140934E0150934F011F910F919B
:101F9000FF90EF90DF90CF90BF90AF909F908F9089
:101FA0007F906F9008950E94CF0E0E94500F209155
:101FB0004401309145014091460150914701809183
:101FC000480190914901A0914A01B0914B01280F1D
:101FD000391F4A1F5B1F80914C0190914D01A091C8
:101FE0004E01B0914F01280F391F4A1F5B1F2093EC
:101FF000540130935501409356015093570157FFB8
:1020000009C0109258011092590110925A01109271
:102010005B010895209358013093590140935A0170
:1020200050935B01089560911C0170911D01809196
:102030001E0190911F01089560912001709121016E
:102040008091220190912301089560912401709163
:102050002501809126019091270108956091280122
:102060007091290180912A0190912B01089560912E
:102070002C0170912D0180912E0190912F010895D6
:102080006091300170913101809132019091330162
:102090000895609138017091390180913A019091D1
:1020A0003B010895609134017091350180913601B2
:1020B00090913701089560913C0170913D018091AC
:1020C0003E0190913F010895609144017091450156
:1020D0008091460190914701089560914801709167
:1020E000490180914A0190914B01089560914C0102
:1020F00070914D0180914E0190914F010895609132
:1021000050017091510180915201909153010895B5
:102110006091540170915501809156019091570141
:102120000895609158017091590180915A019091E0
:102130005B0108950E94E50D0895AF92BF92CF9282
:10214000DF92EF92FF920F931F93DF93CF93CDB760
:10215000DEB760931C0170931D0180931E01909364
:102160001F012093200130932101409322015093BD
:102170002301E0922401F09225010093260110939F
:102180002701A0923C01B0923D01C0923E01D09245
:102190003F018D859E85AF85B889809350019093CE
:1021A0005101A0935201B093530110923801109243
:1021B000390110923A0110923B01CF91DF911F91AA
:1021C0000F91FF90EF90DF90CF90BF90AF90089568
:1021D000629FD001739FF001829FE00DF11D649F0B
:1021E000E00DF11D929FF00D839FF00D749FF00D97
:1021F000659FF00D9927729FB00DE11DF91F639F38
:10220000B00DE11DF91FBD01CF0111240895A1E218
:102210001A2EAA1BBB1BFD010DC0AA1FBB1FEE1F60
:10222000FF1FA217B307E407F50720F0A21BB30BAB
:10223000E40BF50B661F771F881F991F1A9469F727
:1022400060957095809590959B01AC01BD01CF0183
:10225000089597FB092E05260ED057FD04D0D7DF31
:102260000AD0001C38F450954095309521953F4F89
:102270004F4F5F4F0895F6F7909580957095619553
:0C2280007F4F8F4F9F4F0895F894FFCFC1
:10228C0043616C63435243004572726F72436F64D7
:10229C00650001000800400000010004000000007F
:1022AC000000000000000000000000000000000022
:1022BC000000000000000000000000000000000012
:1022CC000000000000000000000000000000000002
:1022DC00000000000000000000000000660E6F0E01
:1022EC00780E810EA20EAB0EB40EBD0EC60ECF0E26
:1022FC00500FD30F13101C1025102E103710401038
:10230C00401052105B1064106D1076107F10881006
:06231C0091109A109D10C3
:00000001FF
