:100000000C9434000C9451000C9451000C94510049
:100010000C9451000C9451000C9451000C9451001C
:100020000C9451000C9451000C9451000C9451000C
:100030000C9451000C9451000C94BF080C94510086
:100040000C9451000C9451000C94010C0C94510030
:100050000C9451000C9451000C9451000C945100DC
:100060000C9451000C94510011241FBECFEFD8E026
:10007000DEBFCDBF11E0A0E0B1E0EEE1FAE102C0E9
:1000800005900D92A430B107D9F711E0A4E0B1E0DA
:1000900001C01D92A938B107E1F70E9453000C94EA
:1000A0000D0D0C94000088EE93E00E94780860E843
:1000B00075E280E090E00E9474090E94C90CFFCFB5
:1000C0008CE391E090933B0180933A0110923C01C4
:1000D00080913C01846080933C0180913C01877059
:1000E00080933C0181E090E090933E0180933D013C
:1000F0001092430110924401109245011092460162
:1001000010924701109248011092490110924A0141
:1001100010923F0110924001109241011092420151
:1001200010924B0110924C0110924D0110924E0111
:1001300010924F01109250011092510110925201F1
:1001400010925301109254011092550110925601D1
:1001500010925701109258011092590110925A01B1
:1001600010925B0110925C0110925D0110925E0191
:1001700010925F0110926001109261011092620171
:100180001092630110926401109265011092660151
:1001900010926701109268011092690110926A0131
:1001A00010926B0110926C0110926D0108959C01E8
:1001B000E0913A01F0913B01808180FF31C0213014
:1001C000310511F496E019C02230310511F495E0A3
:1001D00014C02430310511F494E00FC028303105EB
:1001E00011F493E00AC02031310511F492E005C00A
:1001F00090E02032310509F491E0F89484B7877FCC
:1002000084BF80916000806880936000809160006E
:10021000886180936000906490936000789415C02A
:1002200081FD13C082FF11C014BC15BC10926E007A
:1002300015BA17BC18BC16BC8AEF87BD92E094BDF6
:1002400083E085BD90936E00789432832183089576
:10025000E0913A01F0913B0187850895E0913A01E0
:10026000F0913B0187858F3318F487858F5F8787EF
:100270000895E0913A01F0913B018785882319F0B8
:100280008785815087870895E0913A01F0913B017D
:1002900017860895E0913A01F0913B01278130855E
:1002A00041855285B901CA010895E0913A01F09162
:1002B0003B012385348545855685B901CA010895DA
:1002C000E0913A01F0913B016783708781879287C3
:1002D0000895E0913A01F0913B0163877487858727
:1002E000968708959C01E0913A01F0913B01878542
:1002F0008F3318F487858F5F878787819085A185E5
:10030000B28540E050E0280F391F4A1F5B1F8781EC
:100310009085A185B28582179307A407B507B8F326
:100320008785882319F08785815087870895EF9204
:10033000FF920F931F93E0913A01F0913B012385C7
:100340003485458556857C0100E010E0E20EF31E01
:10035000041F151F87819085A185B2858E159F0585
:10036000A007B107B8F31F910F91FF90EF90089588
:10037000E0913A01F0913B0190E025E130E0AC01E1
:10038000429FC001439F900D529F900D1124E80F92
:10039000F91F808986958F700895E0913A01F09158
:1003A0003B0190E025E130E0AC01429FC001439F5A
:1003B000900D529F900D1124E80FF91F6F70660F7A
:1003C0008089817E862B808B0895E0913A01F0919F
:1003D0003B0190E025E130E0AC01429FC001439F2A
:1003E000900D529F900D1124E80FF91FDF015D96CB
:1003F000658D11967C91119712968C911297139698
:100400009C910895E0913A01F0913B0190E025E143
:1004100030E0DC01A29FC001A39F900DB29F900D20
:100420001124E80FF91F458F568F678F70A3089529
:10043000E0913A01F0913B0190E025E130E0AC0120
:10044000429FC001439F900D529F900D1124E80FD1
:10045000F91FDF015196618911967C9111971296CF
:100460008C91129713969C910895E0913A01F09126
:100470003B0190E025E130E0DC01A29FC001A39F99
:10048000900DB29F900D1124E80FF91F418B528BF4
:10049000638B748B0895E0913A01F0913B0190E0F9
:1004A000019625E130E0AC01429FC001439F900DD1
:1004B000529F900D1124E80FF91F60817181828194
:1004C00093810895E0913A01F0913B0190E001960B
:1004D00025E130E0DC01A29FC001A39F900DB29FF7
:1004E000900D1124E80FF91F4083518362837383B9
:1004F0000895E0913A01F0913B0190E025E130E070
:10050000AC01429FC001439F900D529F900D11245A
:10051000E80FF91FDF015996618D11967C911197B3
:1005200012968C91129713969C910895E0913A013E
:10053000F0913B0190E025E130E0DC01A29FC00199
:10054000A39F900DB29F900D1124E80FF91F418FCA
:10055000528F638F748F0895E0913A01F0913B01BF
:1005600090E025E130E0AC01429FC001439F900D37
:10057000529F900D1124E80FF91FDF01919661A1A0
:1005800011967C91119712968C91129713969C91CB
:100590000895E0913A01F0913B0190E025E130E0CF
:1005A000DC01A29FC001A39F900DB29F900D11246A
:1005B000E80FF91F41A352A363A374A30895E09128
:1005C0003A01F0913B0190E025E130E0AC01429F1F
:1005D000C001439F900D529F900D1124E80FF91F09
:1005E000808981700895E0913A01F0913B0190E09B
:1005F00025E130E0AC01429FC001439F900D529F26
:10060000900D1124E80FF91F80898160808B089577
:10061000E0913A01F0913B0190E025E130E0AC013E
:10062000429FC001439F900D529F900D1124E80FEF
:10063000F91F80898E7F808B0895A0913A01B09137
:100640003B0190E045E150E0849FF001859FF00D73
:10065000949FF00D1124EA0FFB1F2089217E208B2F
:10066000158E168E178E10A2118A128A138A148A7A
:1006700001969C01249FC001259F900D349F900DF1
:100680001124A80FB91F1D921D921D921C92139741
:10069000118E128E138E148E11A212A213A214A206
:1006A00080898E7F808B08950E941D030895E091BC
:1006B0003A01F0913B0190E025E130E0AC01429F2E
:1006C000C001439F900D529F900D1124E80FF91F18
:1006D0009089892F86958F70813019F0917E926074
:1006E000908B0895E0913A01F0913B0190E025E173
:1006F00030E0AC01429FC001439F900D529F900D8E
:100700001124E80FF91F9089892F86958F70823008
:1007100019F0917E9460908B08950F931F93CF935F
:10072000DF93A0913A01B0913B01282F30E005E121
:1007300010E0209FE001219FD00D309FD00D1124AB
:10074000CA0FDB1F888986958F7071F51D8E1E8EEE
:100750001F8E18A2198E1A8E1B8E1C8E2F5F3F4F74
:10076000209FF001219FF00D309FF00D1124EA0F22
:10077000FB1F40835183628373831B968D919D91F0
:100780000D90BC91A02D840F951FA61FB71F898BBC
:100790009A8BAB8BBC8B9889892F86958F70813013
:1007A00019F0917E9260988BDF91CF911F910F91FC
:1007B0000895DF92EF92FF920F931F93D82E7A0144
:1007C0008B010E941D038D2DB801A7010E948D038E
:1007D0001F910F91FF90EF90DF900895EF92FF929D
:1007E0000F931F93CF93DF93C0913A01D0913B01B8
:1007F000682F70E005E110E0609FF001619FF00D4F
:10080000709FF00D1124EC0FFD1F808986958F706D
:10081000813009F03FC08B859C85AD85BE852189DF
:10082000328943895489281B390B4A0B5B0B218F72
:10083000328F438F548F6F5F7F4F609FC001619FE6
:10084000900D709F900D1124C80FD91FE880F9807A
:100850000A811B81D801C701821B930BA40BB50B26
:10086000858F968FA78FB0A32115310541055105BE
:10087000D1F5118A128A138A148A118E128E138E60
:10088000148EE58EF68E078F10A38089817E886096
:10089000808B29C0823039F58B859C85AD85BE85DE
:1008A000218D328D438D548D820F931FA41FB51F50
:1008B000818B928BA38BB48B6F5F7F4F609FC00146
:1008C000619F900D709F900D1124C80FD91F8881D2
:1008D0009981AA81BB81821B930BA40BB50B858FD9
:1008E000968FA78FB0A3DF91CF911F910F91FF90AB
:1008F000EF90089540E0E0913A01F0913B0190E0E3
:1009000025E130E0BC01629FC001639F900D729FA2
:10091000900D1124E80FF91F808986958F7084301F
:1009200009F441E0842F0895482FE0913A01F091B5
:100930003B01282F30E085E190E0BC01269FC001FB
:10094000279F900D369F900D1124E80FF91F808985
:1009500086958F70843011F080E00895842F0E9476
:100960001D0381E00895E0913A01F0913B0190E090
:1009700025E130E0DC01A29FC001A39F900DB29F52
:10098000900D1124E80FF91F808980FD0FC0858D1F
:10099000968DA78DB0A1840F951FA61FB71F81A3A9
:1009A00092A3A3A3B4A380898160808B0895E09172
:1009B0003A01F0913B0190E025E130E0AC01429F2B
:1009C000C001439F900D529F900D1124E80FF91F15
:1009D00021A132A143A154A1858D968DA78DB0A1EF
:1009E000281B390B4A0B5B0B57FF04C020E030E09B
:1009F00040E050E0B901CA010895CF93DF93C09160
:100A00003A01D0913B01682F70E085E190E0689F4A
:100A1000F001699FF00D789FF00D1124EC0FFD1F80
:100A200021A132A143A154A1858D968DA78DB0A19E
:100A3000281B390B4A0B5B0B57FD07C021153105ED
:100A40004105510511F020E012C020E085E190E061
:100A5000AC01649FC001659F900D749F900D11249F
:100A6000C80FD91F888980FF21E081E02827822FC5
:100A7000DF91CF9108951F93182F0E94FD048130BC
:100A800011F080E016C0E0913A01F0913B01212F76
:100A900030E085E190E0AC01249FC001259F900DDE
:100AA000349F900D1124E80FF91F80898E7F808B71
:100AB00081E01F91089580E00E94EE03089580E098
:100AC0000E941D030895E0913A01F0913B0190E0EE
:100AD0002DE030E0AC01429FC001439F900D529F3A
:100AE000900D1124E80FF91F85A186958F70089548
:100AF000E0913A01F0913B0190E02DE030E0AC0153
:100B0000429FC001439F900D529F900D1124E80F0A
:100B1000F91F6F70660F85A1817E862B85A30895CE
:100B2000E0913A01F0913B0190E02DE030E0AC0122
:100B3000429FC001439F900D529F900D1124E80FDA
:100B4000F91FDF019A9662A511967C911197129672
:100B50008C91129713969C910895E0913A01F0912F
:100B60003B0190E02DE030E0DC01A29FC001A39F9B
:100B7000900DB29F900D1124E80FF91F42A753A7C3
:100B800064A775A70895E0913A01F0913B0190E0C8
:100B90002DE030E0AC01429FC001439F900D529F79
:100BA000900D1124E80FF91FDF01969666A11196AA
:100BB0007C91119712968C91129713969C9108959F
:100BC000E0913A01F0913B0190E02DE030E0DC0152
:100BD000A29FC001A39F900DB29F900D1124E80F1A
:100BE000F91F46A357A360A771A70895E0913A01A2
:100BF000F0913B0190E02DE030E0AC01429FC0015C
:100C0000439F900D529F900D1124E80FF91FDF01B3
:100C10009E9666A511967C91119712968C911297CB
:100C200013969C910895E0913A01F0913B0190E078
:100C30002DE030E0DC01A29FC001A39F900DB29F88
:100C4000900D1124E80FF91F46A757A760AB71ABB1
:100C50000895E0913A01F0913B0190E02DE030E001
:100C6000AC01429FC001439F900D529F900D1124F3
:100C7000E80FF91F85A181700895E0913A01F09184
:100C80003B0190E02DE030E0AC01429FC001439F6A
:100C9000900D529F900D1124E80FF91F85A18160DE
:100CA00085A30895E0913A01F0913B0190E02DE099
:100CB00030E0AC01429FC001439F900D529F900DC8
:100CC0001124E80FF91F85A18E7F85A30895E09177
:100CD0003A01F0913B0190E02DE030E0AC01429F01
:100CE000C001439F900D529F900D1124E80FF91FF2
:100CF00016A217A210A611A612A613A614A615A630
:100D000085A1807E85A30895E0913A01F0913B0191
:100D100090E02DE030E0AC01429FC001439F900D78
:100D2000529F900D1124E80FF91F16A217A210A6CA
:100D300011A612A613A614A615A685A1807E85A3CA
:100D40000895E0913A01F0913B0190E02DE030E010
:100D5000AC01429FC001439F900D529F900D112402
:100D6000E80FF91F95A1892F86958F70813019F0B2
:100D7000917E926095A30895E0913A01F0913B0134
:100D800090E02DE030E0AC01429FC001439F900D08
:100D9000529F900D1124E80FF91F95A1892F869578
:100DA0008F70823019F0917E946095A30895A09180
:100DB0003A01B0913B0190E02DE030E0829FF001DC
:100DC000839FF00D929FF00D1124EA0FFB1F85A168
:100DD00086958F70D9F442A753A764A775A71B9671
:100DE0008D919D910D90BC91A02D840F951FA61FF4
:100DF000B71F86A397A3A0A7B1A795A1892F869512
:100E00008F70813019F0917E926095A30895CF93F1
:100E1000DF93E0913A01F0913B01A82FB0E02DE083
:100E200030E0E901AC9F9001AD9F300DBC9F300DCB
:100E30001124E20FF31F16A217A210A611A612A6E4
:100E400013A614A615A695A1907E95A30E94D70679
:100E5000DF91CF910895A0913A01B0913B0190E0CC
:100E60002DE030E0829FF001839FF00D929FF00D06
:100E70001124EA0FFB1F85A186958F70813019F52B
:100E80001B962D913D914D915C911E9786A197A146
:100E9000A0A5B1A5821B930BA40BB50B82A793A7AA
:100EA000A4A7B5A70097A105B10509F516A217A239
:100EB00010A611A612A613A614A615A685A1807EBB
:100EC000886085A30895823091F41B962D913D9101
:100ED0004D915C911E9782A593A5A4A5B5A5820FFF
:100EE000931FA41FB51F86A397A3A0A7B1A708951A
:100EF00040E0E0913A01F0913B0190E02DE030E0DC
:100F0000BC01629FC001639F900D729F900D1124E0
:100F1000E80FF91F85A186958F70843009F441E0B0
:100F2000842F0895E0913A01F0913B0190E02DE08B
:100F300030E0AC01429FC001439F900D529F900D45
:100F40001124E80FF91F85A186958F70843011F068
:100F500080E0089516A217A210A611A612A613A645
:100F600014A615A685A1807E85A381E00895E09151
:100F70003A01F0913B0190E02DE030E0DC01A29FCE
:100F8000C001A39F900DB29F900D1124E80FF91F8F
:100F900085A180FD0FC082A593A5A4A5B5A5841B3E
:100FA000950BA60BB70B86A797A7A0ABB1AB85A1F6
:100FB000816085A30895E0913A01F0913B0190E0B2
:100FC0002DE030E0AC01429FC001439F900D529F45
:100FD000900D1124E80FF91F22A533A544A555A5AE
:100FE00086A597A5A0A9B1A9281B390B4A0B5B0BB5
:100FF00057FF04C020E030E040E050E0B901CA01F2
:101000000895CF93DF93C0913A01D0913B01682FAF
:1010100070E08DE090E0689FF001699FF00D789F8F
:10102000F00D1124EC0FFD1F22A533A544A555A5F5
:1010300086A597A5A0A9B1A9281B390B4A0B5B0B64
:1010400057FD07C0211531054105510511F020E07C
:1010500012C020E08DE090E0AC01649FC001659F6C
:10106000900D749F900D1124C80FD91F8DA180FF82
:1010700021E081E02827822FDF91CF9108951F93EF
:10108000182F0E940108813011F080E016C0E09115
:101090003A01F0913B01212F30E08DE090E0AC016E
:1010A000249FC001259F900D349F900D1124E80FBF
:1010B000F91F85A18E7F85A381E01F91089580E0AF
:1010C0000E942B070895E0913A01F0913B0116A28E
:1010D00017A210A611A612A613A614A615A685A1DE
:1010E000807E85A308950E945F050E94630808958D
:1010F0000F931F938C010E946000C8010E94D700CB
:101100000E9473081F910F9108950E945B050E9431
:101110005F080895CF93DF93C0913A01D0913B01CE
:101120008F819885A985BA850196A11DB11D8F83F0
:101130009887A987BA876F81788589859A8529815B
:101140003A8140E050E00E94EB0C61157105810589
:10115000910591F48B859C85AD85BE850196A11D79
:10116000B11D8B879C87AD87BE878F85882321F42F
:101170001F82188619861A86DF91CF9108951F92D3
:101180000F920FB60F9211242F933F934F935F93BB
:101190006F937F938F939F93AF93BF93EF93FF933F
:1011A0000E948A08FF91EF91BF91AF919F918F911B
:1011B0007F916F915F914F913F912F910F900FBE53
:1011C0000F901F901895089508959B01AC0160E45D
:1011D00072E48FE090E00E94EB0C215030404040E0
:1011E0005040E0ECF0E0808182608083BB27A52F37
:1011F000942F832F8093C5002093C4000895E1ECC1
:10120000F0E080818860808386E08093C20008954A
:10121000E1ECF0E080818061808386E08093C20011
:101220000895E1ECF0E080818068808378940895EF
:10123000982F8091C00085FFFCCF9093C600089541
:10124000DF93CF930F92CDB7DEB719828091C000A4
:1012500084FF05C08091C600898381E008C0809129
:10126000C00083FF07C08091C600898382E080931D
:10127000040105C08091C600898310920401898110
:101280000F90CF91DF91089510920401E5E0F1E015
:10129000119281E0ED30F807D9F7108280E290E0FA
:1012A00092A381A314A213A220E004C0EC5FFE4F1E
:1012B00012862F5F80912E0190912F01E22FF0E096
:1012C000E817F90798F31092330110923201109247
:1012D00035011092340110923601109237011092AC
:1012E00038011092390108950E94E508E1ECF0E020
:1012F000808188608083A2ECB0E096E09C9380813E
:10130000806180839C938081806880837894089535
:101310001F93CF93DF93AB01BC014F3F5105610594
:10132000710509F028F4E8E0F0E0C2E0D0E011C077
:10133000403080E0580781E0680780E0780728F0B7
:10134000E0E2F0E0C8E0D0E004C0E0E1F0E0C4E0BA
:10135000D0E08091C00085FFFCCF80E38093C60081
:101360008091C00085FFFCCF88E78093C60010E025
:101370001FC03497DB01CA010E2E04C0B695A79595
:10138000979587950A94D2F790E08F7090708A3085
:10139000910520F09C01295C3F4F03C09C01205D1A
:1013A0003F4F8091C00085FFFCCF2093C6001F5F98
:1013B000812F90E08C179D07E0F2DF91CF911F9174
:1013C0000895CF92DF92EF92FF920F931F93CF93E6
:1013D000DF93AB01BC014F3F51056105710509F079
:1013E00010F497E00BC0403080E0580781E06807B8
:1013F00080E0780710F09FE101C09FE08091C0007D
:1014000085FFFCCF80E38093C6008091C00085FFFC
:10141000FCCF82E68093C60020E030E0E92FF0E0C8
:1014200000E311E3EF012196CF01821B930B6A01C8
:101430007B0104C0F694E794D794C7948A95D2F7B9
:10144000D701C60181709070892B39F08091C0005E
:1014500085FFFCCF1093C60006C08091C00085FFB9
:10146000FCCF0093C6002F5F3F4F2C173D07E1F6DE
:10147000DF91CF911F910F91FF90EF90DF90CF9070
:101480000895AC0120E007C08091C00085FFFCCF2B
:10149000E093C6002F5FFA01E20FF11DE081EE2319
:1014A00099F70895BF92CF92DF92EF92FF920F9338
:1014B0001F936B017C01611571058105910531F464
:1014C0001092050181E080930D0123C0BB240B2DF8
:1014D00010E00C5F1E4FC701B6012AE030E040E08B
:1014E00050E00E94EB0CF8016183C701B6012AE0CD
:1014F00030E040E050E00E94EB0CC901DA016C01E1
:101500007D01B394C114D104E104F10401F7B09258
:101510000D011F910F91FF90EF90DF90CF90BF9042
:101520000895E0910D010FC02E2F2150E22FF0E021
:10153000EC5FFE4F91818091C00085FFFCCF905DF4
:101540009093C600E22FEE2379F708959B01AC013A
:1015500097FF0EC08091C00085FFFCCF8DE2809385
:10156000C60050954095309521953F4F4F4F5F4FA6
:10157000CA01B9010E94520A0E94910A0895FF927D
:101580000F931F938B019C01F42E97FF0EC0809147
:10159000C00085FFFCCF8DE28093C600309520957A
:1015A000109501951F4F2F4F3F4FC901B8010E9461
:1015B000520A4F2D50E080910D01481B510920E047
:1015C00030E090E308C08091C00085FFFCCF90938D
:1015D000C6002F5F3F4F24173507ACF30E94910AD6
:1015E0001F910F91FF900895EF92FF920F931F9319
:1015F000CF93DF937C018C01C1E0D0E00FC0F801F4
:1016000060817181882777FD8095982F44E00E9442
:10161000BF0A80E091E00E94410A21960E5F1F4FB1
:10162000F701808191818C179D074CF7DF91CF9155
:101630001F910F91FF90EF900895FC01EC5FFE4F1A
:10164000828508952091300130913101C9010895BA
:101650002091340130913501C90108952091320162
:1016600030913301C9010895E0913401F0913501C1
:10167000EC5FFE4F428580913401909135010196D7
:1016800090933501809334012091340130913501DC
:1016900080912E0190912F012817390720F0109288
:1016A0003501109234018091320190913301892BE0
:1016B00049F0809132019091330101979093330169
:1016C00080933201842F08951092040120E030E0CD
:1016D00006C0F901EC5FFE4F12862F5F3F4F8091ED
:1016E0002E0190912F012817390798F3109231019C
:1016F0001092300110923501109234011092330192
:1017000010923201089520913601309137014091B5
:10171000380150913901B901CA0108950E944A0166
:101720000895DF93CF930F92CDB7DEB719820E9451
:101730002009898380910401882309F05EC0E0912B
:101740003001F09131018981EC5FFE4F82878091F9
:1017500030019091310101969093310180933001D5
:1017600080913201909133010196909333018093DF
:101770003201209132013091330180912E019091FC
:101780002F018217930700F580912E0190912F0170
:10179000909333018093320180913401909135010F
:1017A000019690933501809334012091340130915A
:1017B000350180912E0190912F012817390720F0D3
:1017C0001092350110923401209130013091310195
:1017D00080912E0190912F012817390720F0109247
:1017E0003101109230010E944A01609336017093DA
:1017F000370180933801909339010F90CF91DF9199
:1018000008951F920F920FB60F9211242F933F93BA
:101810004F935F936F937F938F939F93AF93BF93F8
:10182000EF93FF930E94910BFF91EF91BF91AF91C6
:101830009F918F917F916F915F914F913F912F91E8
:101840000F900FBE0F901F90189510926E0110927E
:101850006F0110927001109271011092720110923A
:10186000730110927401109275011092760110921A
:101870007701109278011092790110927A011092FA
:101880007B0110927C0110927D0110927E011092DA
:101890007F011092800110928101109282011092BA
:1018A000830110928401109285011092860110929A
:1018B000870110928801089590E0FC0123E0EE0F6B
:1018C000FF1F2A95E1F7E80FF91FE259FE4F6083E9
:1018D000089590E0FC0133E0EE0FFF1F3A95E1F729
:1018E000E80FF91FE259FE4F808108954F925F92F1
:1018F0006F927F928F929F92AF92BF92CF92DF9220
:10190000EF92FF920F931F932A013B0190E06C012D
:1019100043E0CC0CDD1C4A95E1F7C80ED91E8EE6DB
:1019200091E0C80ED91EF6012081822E9924AA24A6
:10193000BB2464E670E0621B7109882777FD8095FF
:10194000982F25813681478150850E94CC0C7B01E0
:101950008C01C301B201A50194010E94CC0CE60EDA
:10196000F71E081F191FF601E582F682078310870C
:10197000B701C8011F910F91FF90EF90DF90CF90BA
:10198000BF90AF909F908F907F906F905F904F909F
:1019900008950E94250C0895629FD001739FF00165
:1019A000829FE00DF11D649FE00DF11D929FF00DEF
:1019B000839FF00D749FF00D659FF00D9927729F26
:1019C000B00DE11DF91F639FB00DE11DF91FBD01B1
:1019D000CF0111240895A1E21A2EAA1BBB1BFD0101
:1019E0000DC0AA1FBB1FEE1FFF1FA217B307E407FE
:1019F000F50720F0A21BB30BE40BF50B661F771F56
:101A0000881F991F1A9469F7609570958095909535
:0E1A10009B01AC01BD01CF010895F894FFCFFA
:041A1E002020000084
:00000001FF
