:100000000C9434000C9451000C9451000C94510049
:100010000C9451000C9451000C9451000C9451001C
:100020000C9451000C9451000C9451000C9451000C
:100030000C9451000C9451000C9451000C945100FC
:100040000C94A7020C9451000C9451000C94510094
:100050000C9451000C9451000C9451000C945100DC
:100060000C9451000C94510011241FBECFEFD8E026
:10007000DEBFCDBF11E0A0E0B1E0EEEEF9E002C0DE
:1000800005900D92A031B107D9F711E0A0E1B1E0E0
:1000900001C01D92A133B107E1F70E9453000C94F7
:1000A000F5040C94000060E071EE80E090E00E94A6
:1000B000800488EE93E00E947802509A589888E86D
:1000C00093E12CE231E0F9013197F1F70197D9F78B
:1000D000FFCF8CE191E090931B0180931A0181E0A6
:1000E00090E090931D0180931C0110921E011092CC
:1000F0002A011092290110922B0110922C011092CA
:100100002D0110922E0110922401109223011092C1
:1001100025011092260110922701109228011092B9
:100120002F0110921F0110922001109221011092B4
:1001300022011092300108958F929F92BF92CF9228
:10014000DF92EF92FF920F931F93DF93CF93CDB780
:10015000DEB72A970FB6F894DEBF0FBECDBF4C01B5
:10016000DE011196E0E0F1E08AE001900D9281500D
:10017000E1F7940140E050E060E07BE187EB90E044
:100180000E94DA04B22EC32ED42E052F7E010894CD
:10019000E11CF11CC901DA019C01AD0110E013C0A2
:1001A000F701219131917F0140E050E06B2D7C2DD2
:1001B0008D2D902F0E94DA04C901DA019C01AD0156
:1001C0001F5F153031F02F3F31054105510509F012
:1001D0003CF7812F815014BC15BC10926E0015BAEB
:1001E00017BC18BC16BC17BC882311F481E00FC0E3
:1001F000813011F482E00BC0823011F483E007C03B
:10020000833011F484E003C0843011F485E085BDAF
:10021000E0911A01F0911B01822F809582838281E7
:1002200086BD81E080936E007894918280822A96C8
:100230000FB6F894DEBF0FBECDBFCF91DF911F91F7
:100240000F91FF90EF90DF90CF90BF909F908F9095
:10025000089514BC15BC10926E0087E085BB17BCD6
:1002600018BC16BC0895F894089578940895E09108
:100270001A01F0911B0125853685C9010895E09189
:100280001A01F0911B012785308941895289B901F2
:10029000CA010895E0911A01F0911B012781308570
:1002A000C9010895E0911A01F0911B012185328561
:1002B00043855485B901CA010895E0911A01F0916E
:1002C0001B01908787830895E0911A01F0911B012B
:1002D00061877287838794870895E0911A01F0916E
:1002E0001B01258536858585968528173907C9F729
:1002F000C9010895E0911A01F0911B012785308909
:100300004189528987859089A189B289281739073F
:100310004A075B0799F7B901CA010895E0911A01EC
:10032000F0911B018389882381F4F8948585968553
:100330009087878387859089A189B28981879287F1
:10034000A387B487789481E0838B08956F927F921E
:100350008F929F92AF92BF92CF92DF92EF92FF92D5
:100360000F931F93CF93DF935C01F894C0911A0110
:10037000D0911B01ED84FE842F85388949895A89E3
:1003800078946881798180E090E00E9499043B0133
:100390004C0100E010E06E0C7F1C801E911ECC24EE
:1003A000DD246A0C7B1C8C1C9D1C60E070E080E0EE
:1003B00090E014C0F894ED84FE842F853889498933
:1003C0005A8978946881798180E090E00E9499044C
:1003D00000E010E06E0D7F1D801F911F66157705F0
:1003E000880599053CF3DF91CF911F910F91FF9004
:1003F000EF90DF90CF90BF90AF909F908F907F90C5
:100400006F900895BC01F894E0911A01F0911B01DE
:1004100001C0F8948585968578942381348145813F
:100420005681A0E0B0E082179307A407B50789F7CB
:10043000F894858596857894A0E0B0E083839483D2
:10044000A583B6832381348145815681CB01A0E009
:10045000B0E0820F931FA41FB51F83839483A583ED
:10046000B683238134814581568180819181A0E0CA
:10047000B0E0281739074A075B0784F023813481ED
:100480004581568180819181A0E0B0E0281B390B25
:100490004A0B5B0B23833483458356830895F8947A
:1004A000E0911A01F0911B01278530894189528919
:1004B0007894A0E0B0E0820F931FA41FB51F20E046
:1004C00030E040E050E006C0F8942785308941894B
:1004D00052897894281739074A075B07ACF30895C7
:1004E000E0911A01F0911B018489089508950895FF
:1004F0000F931F938C010E946900C8010E949C0009
:100500001F910F910895E0911A01F0911B01138A38
:100510000895E0911A01F0911B0185859685019659
:1005200096878587258536858081918128173907AB
:1005300068F01686158687859089A189B28901960B
:10054000A11DB11D8787908BA18BB28B08951F923F
:100550000F920FB60F9211242F933F934F935F93F7
:100560006F937F938F939F93AF93BF93EF93FF937B
:10057000E0911A01F0911B01828186BD0E948902DF
:10058000FF91EF91BF91AF919F918F917F916F916B
:100590005F914F913F912F910F900FBE0F901F9041
:1005A0001895089510921001E1E1F1E0119281E0B7
:1005B000E931F807D9F710820895089508959B014D
:1005C000AC0160E673EE86E190E00E94B804215031
:1005D000304040405040E0ECF0E080818260808319
:1005E000BB27A52F942F832F8093C5002093C40091
:1005F0000895E1ECF0E080818860808386E080935C
:10060000C2000895E1ECF0E080818061808386E0A3
:100610008093C2000895E1ECF0E0808180688083DF
:1006200078940895982F8091C00085FFFCCF909317
:10063000C6000895DF93CF930F92CDB7DEB719822E
:100640008091C00084FF05C08091C600898381E04D
:1006500008C08091C00083FF07C08091C6008983D5
:1006600082E08093100105C08091C60089831092BA
:10067000100189810F90CF91DF9108951F93CF933F
:10068000DF93AB01BC014F3F51056105710509F0D6
:1006900028F4E8E0F0E0C2E0D0E011C0403080E0B3
:1006A000580781E0680780E0780728F0E0E2F0E092
:1006B000C8E0D0E004C0E0E1F0E0C4E0D0E0809128
:1006C000C00085FFFCCF80E38093C6008091C0000E
:1006D00085FFFCCF88E78093C60010E01FC03497E9
:1006E000DB01CA010E2E04C0B695A7959795879594
:1006F0000A94D2F790E08F7090708A30910520F0C4
:100700009C01295C3F4F03C09C01205D3F4F8091BD
:10071000C00085FFFCCF2093C6001F5F812F90E0B3
:100720008C179D07E0F2DF91CF911F910895CF9232
:10073000DF92EF92FF920F931F93CF93DF93AB0162
:10074000BC014F3F51056105710509F010F497E0B8
:100750000BC0403080E0580781E0680780E07807F0
:1007600010F09FE101C09FE08091C00085FFFCCFA9
:1007700080E38093C6008091C00085FFFCCF82E6B5
:100780008093C60020E030E0E92FF0E000E311E3C1
:10079000EF012196CF01821B930B6A017B0104C0FC
:1007A000F694E794D794C7948A95D2F7D701C601F7
:1007B00081709070892B39F08091C00085FFFCCF4B
:1007C0001093C60006C08091C00085FFFCCF009347
:1007D000C6002F5F3F4F2C173D07E1F6DF91CF9109
:1007E0001F910F91FF90EF90DF90CF900895AC0193
:1007F00020E007C08091C00085FFFCCFE093C600D9
:100800002F5FFA01E20FF11DE081EE2399F70895C1
:100810008AE091E00E94F70308958DE091E00E9444
:10082000F7030895BF92CF92DF92EF92FF920F935A
:100830001F936B017C01611571058105910531F4F0
:100840001092110181E08093190123C0BB240B2D6C
:1008500010E0005F1E4FC701B6012AE030E040E023
:1008600050E00E94B804F8016183C701B6012AE094
:1008700030E040E050E00E94B804C901DA016C01A8
:100880007D01B394C114D104E104F10401F7B092E5
:1008900019011F910F91FF90EF90DF90CF90BF90C3
:1008A0000895E09119010FC02E2F2150E22FF0E0A2
:1008B000E05FFE4F91818091C00085FFFCCF905D8D
:1008C0009093C600E22FEE2379F708959B01AC01C7
:1008D00097FF0EC08091C00085FFFCCF8DE2809312
:1008E000C60050954095309521953F4F4F4F5F4F33
:1008F000CA01B9010E9412040E945104089508958A
:10090000EF92FF920F931F937B018C010E94D20202
:10091000C801B7010E94DF02E1ECF0E0808188604D
:10092000808386E08093C2001F910F91FF90EF902B
:100930000895629FD001739FF001829FE00DF11D29
:10094000649FE00DF11D929FF00D839FF00D749F49
:10095000F00D659FF00D9927729FB00DE11DF91FF5
:10096000639FB00DE11DF91FBD01CF011124089552
:10097000A1E21A2EAA1BBB1BFD010DC0AA1FBB1FA3
:10098000EE1FFF1FA217B307E407F50720F0A21B15
:10099000B30BE40BF50B661F771F881F991F1A9482
:1009A00069F760957095809590959B01AC01BD01AC
:1009B000CF01089597FB092E05260ED057FD04D0D0
:1009C000D7DF0AD0001C38F450954095309521951A
:1009D0003F4F4F4F5F4F0895F6F790958095709574
:0E09E00061957F4F8F4F9F4F0895F894FFCF82
:1009EE00010008004000000100040D0A0020000074
:00000001FF
