:100000000C9434000C9451000C9451000C94510049
:100010000C9451000C9451000C94941A0C945100BF
:100020000C9451000C9451000C9451000C9451000C
:100030000C9451000C9451000C9451000C945100FC
:100040000C94491A0C9451000C9451000C945100DA
:100050000C9451000C9451000C9451000C945100DC
:100060000C9451000C94510011241FBECFEFD8E026
:10007000DEBFCDBF11E0A0E0B1E0E4ECF9E302C0E7
:1000800005900D92A432B107D9F711E0A4E2B1E0D6
:1000900001C01D92A63AB107E1F70E9453000C94EB
:1000A000E01C0C94000060E071EE80E090E00E94A3
:1000B0006B1C88EE93E00E94B219509A589888E819
:1000C00093E12CE231E0F9013197F1F70197D9F78B
:1000D00080E040E25EE460E070E00E94590680E06B
:1000E00042E150E060E070E00E949D0B80E040E063
:1000F00051E762E070E00E94640F80E04EE050E063
:1001000060E070E00E94CC1380E045E050E060E0E9
:1001100070E00E9459178AE090E00E9462030E94FA
:10012000A21990E0A0E0B0E0BC01CD010E94291B23
:1001300080E091E00E94E21B0E94DD030E94511CBE
:1001400080E091E00E94E21B80E00E94F5150E9491
:10015000511C80E091E00E94E21B0E94D3020E94A9
:10016000511C80E091E00E94E21B0E94CB02A0E0C3
:10017000B0E0BC01CD010E94511C80E091E00E94E2
:10018000E21B80E00E946B040E94511C80E091E021
:100190000E94E21B80E00E94B6090E94511C80E090
:1001A00091E00E94E21B80E00E94E60D0E94511C3B
:1001B00080E091E00E94E21B80E00E9468120E94B1
:1001C000511C82E091E00E94E21B80E00E948B18AB
:1001D000882359F080E045E050E060E070E00E9444
:1001E000591785E091E00E94E21B589A0E94C519B8
:1001F000589891CF80E391E090932F0180932E0146
:1002000081E090E0909331018093300110923401AD
:100210001092400110923F01109241011092420150
:10022000109243011092440110923A011092390148
:1002300010923B0110923C0110923D0110923E0140
:10024000109245011092350110923601109237013B
:100250001092380110924701109246011092480105
:100260001092490110924A0110924B019093330170
:100270008093320110924C01109266011092670136
:10028000109268011092690110926A0110926B013C
:1002900010926C0110926D0110926E0110926F011C
:1002A00010927001109271011092720110927301FC
:1002B00010927401109275011092760110927701DC
:1002C000109278011092790110927A0110924D01EA
:1002D00010924E0110924F01109250011092510154
:1002E0001092520110925301109254011092550134
:1002F0001092560110925701109258011092590114
:1003000010925A0110925B0110925C0110925D01F3
:1003100010925E0110925F011092600110926101D3
:1003200010926201109263011092640110926501B3
:1003300010928C0110928D0110928E0110928F01FB
:1003400010929001109291011092920110929301DB
:1003500010929401109295011092960110929701BB
:100360001092980110927B0110927C0110927D01F5
:1003700010927E0110927F011092800110928101F3
:1003800010928201109283011092840110928501D3
:1003900010928601109287011092880110928901B3
:1003A00010928A0110928B011092990110929A0179
:1003B00010929B0110929C0110929D0110929E013F
:1003C00010929F011092A0011092A1011092A2011F
:1003D0001092A3011092A4011092A50108958F928A
:1003E0009F92BF92CF92DF92EF92FF920F931F9353
:1003F000DF93CF93CDB7DEB72A970FB6F894DEBF61
:100400000FBECDBF4C01DE011196E5E1F1E08AE0BF
:1004100001900D928150E1F7940140E050E060E0DE
:100420007BE187EB90E00E94C51CB22EC32ED42E38
:10043000052F7E010894E11CF11CC901DA019C0121
:10044000AD0110E013C0F701219131917F0140E02F
:1004500050E06B2D7C2D8D2D902F0E94C51CC90165
:10046000DA019C01AD011F5F153031F02F3F3105DE
:100470004105510509F03CF7812F815014BC15BC92
:1004800010926E0015BA17BC18BC16BC17BC882396
:1004900011F481E00FC0813011F482E00BC0823092
:1004A00011F483E007C0833011F484E003C084308A
:1004B00011F485E085BDE0912E01F0912F01822F8E
:1004C00080958483848186BD81E080936E007894DA
:1004D000918280822A960FB6F894DEBF0FBECDBF00
:1004E000CF91DF911F910F91FF90EF90DF90CF9010
:1004F000BF909F908F9008959C018130910511F4D9
:1005000096E019C08230910511F495E014C0843052
:10051000910511F494E00FC08830910511F493E037
:100520000AC08031910511F492E005C090E02032BC
:10053000310509F491E0F89484B7877F84BF8091F6
:100540006000806880936000809160008861809383
:1005500060009064909360007894E0912E01F09197
:100560002F01338322830895F89408957894089591
:10057000E0912E01F0912F0127853089C90108955E
:10058000E0912E01F0912F0121893289438954890C
:10059000B901CA010895E0912E01F0912F01218542
:1005A0003285C9010895E0912E01F0912F01238534
:1005B000348545855685B901CA010895E0912E011B
:1005C000F0912F01928781870895E0912E01F0919B
:1005D0002F0163877487858796870895E0912E01A0
:1005E000F0912F018589882381F4F894878590897B
:1005F0009287818781899289A389B4898387948727
:10060000A587B687789481E0858B08956F927F9255
:100610008F929F92AF92BF92CF92DF92EF92FF9212
:100620000F931F93CF93DF935C01F894C0912E0139
:10063000D0912F01EF84F88829893A894B895C8908
:1006400078946881798180E090E00E94841C3B016D
:100650004C0100E010E06E0C7F1C801E911ECC242B
:10066000DD246A0C7B1C8C1C9D1C60E070E080E02B
:1006700090E014C0F894EF84F88829893A894B896E
:100680005C8978946881798180E090E00E94841C84
:1006900000E010E06E0D7F1D801F911F661577052D
:1006A000880599053CF3DF91CF911F910F91FF9041
:1006B000EF90DF90CF90BF90AF909F908F907F9002
:1006C0006F900895BC01F894E0912E01F0912F01F4
:1006D00001C0F89487859089789425813681478177
:1006E0005085A0E0B0E082179307A407B50789F70B
:1006F000F894878590897894A0E0B0E0858396830C
:10070000A783B0872581368147815085CB01A0E042
:10071000B0E0820F931FA41FB51F85839683A78324
:10072000B087258136814781508580819181A0E005
:10073000B0E0281739074A075B0784F02581368126
:100740004781508580819181A0E0B0E0281B390B62
:100750004A0B5B0B25833683478350870895F894B3
:10076000E0912E01F0912F0121893289438954892A
:100770007894A0E0B0E0820F931FA41FB51F20E083
:1007800030E040E050E006C0F89421893289438986
:1007900054897894281739074A075B07ACF3089502
:1007A000E0912E01F0912F0126893789868997895A
:1007B00028173907C9F7C9010895E0912E01F09172
:1007C0002F01208D318D428D538D808D918DA28D85
:1007D000B38D281739074A075B0799F7B901CA0192
:1007E0000895E0912E01F0912F01978B868B08954B
:1007F000E0912E01F0912F01608F718F828F938F86
:100800000895EF92FF920F931F93BC01F894E0912B
:100810002E01F0912F01208D318D428D538D808DD1
:10082000918DA28DB38D281739074A075B0799F779
:1008300078947B0100E010E0E20EF31E041F151F08
:1008400020E030E040E050E00FC0F894208D318D82
:10085000428D538D808D918DA28DB38D28173907D0
:100860004A075B0799F778942E153F054007510713
:1008700064F31F910F91FF90EF900895E0912E0186
:10088000F0912F0190E029E130E0AC01429FC001DE
:10089000439F900D529F900D1124E80FF91F858DF5
:1008A00086958F700895E0912E01F0912F0190E0D0
:1008B00029E130E0AC01429FC001439F900D529F5F
:1008C000900D1124E80FF91F6F70660F858D817EE2
:1008D000862B858F0895E0912E01F0912F0190E0F5
:1008E00029E130E0AC01429FC001439F900D529F2F
:1008F000900D1124E80FF91FDF019E9666A5119651
:100900007C91119712968C91129713969C91089551
:10091000CF93DF93C0912E01D0912F0190E029E178
:1009200030E0FC01E29FC001E39F900DF29F900D2B
:100930001124C80FD91FCA01DB01B7FF04C080E032
:1009400090E0A0E0B0E08EA79FA7A8ABB9ABDF9185
:10095000CF910895E0912E01F0912F0190E029E1CF
:1009600030E0AC01429FC001439F900D529F900D1B
:100970001124E80FF91FDF015E96668D11967C91B8
:10098000119712968C91129713969C910895E0916D
:100990002E01F0912F0190E029E130E0AC01429F5F
:1009A000C001439F900D529F900D1124E80FF91F35
:1009B000DF01929662A111967C91119712968C910B
:1009C000129713969C910895E0912E01F0912F01BA
:1009D00090E029E130E0DC01A29FC001A39F900DCF
:1009E000B29F900D1124E80FF91F468F578F60A317
:1009F00071A30895E0912E01F0912F0190E029E17B
:100A000030E0DC01A29FC001A39F900DB29F900D2A
:100A10001124E80FF91F42A353A364A375A30895FB
:100A2000E0912E01F0912F0190E029E130E0AC013E
:100A3000429FC001439F900D529F900D1124E80FDB
:100A4000F91FDF01969666A111967C911197129677
:100A50008C91129713969C910895E0912E01F0913C
:100A60002F0190E029E130E0DC01A29FC001A39FAB
:100A7000900DB29F900D1124E80FF91F46A357A3C4
:100A800060A771A70895E0912E01F0912F0190E0E9
:100A900029E130E0AC01429FC001439F900D529F7D
:100AA000900D1124E80FF91FDF019A9662A51196A7
:100AB0007C91119712968C91129713969C910895A0
:100AC000CF93DF93C0912E01D0912F0190E029E1C7
:100AD00030E0FC01E29FC001E39F900DF29F900D7A
:100AE0001124C80FD91FCA01DB01B7FF04C080E081
:100AF00090E0A0E0B0E08AA79BA7ACA7BDA7DF91DC
:100B0000CF910895E0912E01F0912F0190E029E11D
:100B100030E0AC01429FC001439F900D529F900D69
:100B20001124E80FF91FDF01D29662A911967C917A
:100B3000119712968C91129713969C910895E091BB
:100B40002E01F0912F0190E029E130E0DC01A29F1D
:100B5000C001A39F900DB29F900D1124E80FF91FC3
:100B600042AB53AB64AB75AB0895E0912E01F091AD
:100B70002F0190E029E130E0AC01429FC001439F8A
:100B8000900D529F900D1124E80FF91F858D8170F3
:100B90000895E0912E01F0912F0190E029E130E0DD
:100BA000AC01429FC001439F900D529F900D1124B4
:100BB000E80FF91F858D8160858F0895E0912E01E2
:100BC000F0912F0190E029E130E0AC01429FC0019B
:100BD000439F900D529F900D1124E80FF91F858DB2
:100BE0008E7F858F0895E0912E01F0912F0190E086
:100BF00029E130E0AC01429FC001439F900D529F1C
:100C0000900D1124E80FF91F858D16A617A610AABE
:100C100011AA168E178E10A211A212A213A214A24C
:100C200015A216A217A210A611A612A613A614A604
:100C300015A612AA13AA14AA15AA807E858F089554
:100C40000E94F3050895E0912E01F0912F0190E0AC
:100C500029E130E0AC01429FC001439F900D529FBB
:100C6000900D1124E80FF91F958D892F86958F70AF
:100C7000813019F0917E9260958F0895E0912E0158
:100C8000F0912F0190E029E130E0AC01429FC001DA
:100C9000439F900D529F900D1124E80FF91F958DE1
:100CA000892F86958F70823019F0917E9460958F90
:100CB00008952F923F924F925F926F927F928F9200
:100CC0009F92AF92BF92CF92DF92EF92FF920F93DB
:100CD0001F93DF93CF9300D000D0CDB7DEB74A018A
:100CE0005B0120912E0130912F013C832B83A82F93
:100CF000B0E0BA83A98389E190E0A89FF001A99FA1
:100D0000F00DB89FF00D1124E20FF31F858D86952D
:100D10008F7009F073C016A617A610AA11AA12A602
:100D200013A614A615A646A357A360A771A7F90199
:100D3000C184D284238434844584568420813181C3
:100D400040E050E0C501B4010E94C51C7B018C014C
:100D5000AB81BC812D913C9140E050E0C501B401D4
:100D60000E94C51CC901DA013C014D015601CC2489
:100D7000DD24AE0CBF1CC01ED11EEB81FC81808126
:100D80009181A0E0B0E0A816B906CA06DB0694F08F
:100D90000894611C711C811C911C2081318140E0F0
:100DA00050E0C601B5010E94C51CAC01CB01DA01BF
:100DB0005C016D0189E190E029813A81289FF00171
:100DC000299FF00D389FF00D11248B819C81E80F35
:100DD000F91F260C371C481C591C268E378E40A242
:100DE00051A2A2A2B3A2C4A2D5A2958D892F8695A5
:100DF0008F70813019F0917E9260958F0F900F90D7
:100E00000F900F90CF91DF911F910F91FF90EF9076
:100E1000DF90CF90BF90AF909F908F907F906F901A
:100E20005F904F903F902F900895DF92EF92FF9246
:100E30000F931F93D82E7A018B010E94F3058D2DFD
:100E4000B801A7010E9459061F910F91FF90EF90E2
:100E5000DF9008952F923F924F925F926F927F9210
:100E60008F929F92AF92BF92CF92DF92EF92FF92BA
:100E70000F931F93DF93CF9300D000D000D0CDB756
:100E8000DEB720902E0130902F01282F30E03E83D6
:100E90002D8389E190E0289F5001299FB00C389F55
:100EA000B00C1124A20CB31CD5015D968C918695D3
:100EB0008F70813009F09FC0F10183859485A585ED
:100EC000B685E184F28400E010E0F501268D378DCF
:100ED00040A151A1281B390B4A0B5B0BD1016D912D
:100EE0007C9180E090E00E94841C9B01AC012E1953
:100EF0003F09400B510BF50182A193A1A4A1B5A11B
:100F0000280F391F4A1F5B1F57FF04C020E030E045
:100F100040E050E089E190E06D817E81689FF001C2
:100F2000699FF00D789FF00D1124E20DF31D22A7AB
:100F300033A744A755A786A197A1A0A5B1A5821B59
:100F4000930BA40BB50BB7FF04C080E090E0A0E0CA
:100F5000B0E086A797A7A0ABB1AB89E190E0AD81E7
:100F6000BE81A89FB001A99F700DB89F700D11247C
:100F7000620D731DFB0182A593A5A4A5B5A5181646
:100F800019061A061B060CF4C2C0DB015E961D9200
:100F90001D921D921C92919712A213A214A215A247
:100FA0009A961D921D921D921C929D97B6969696AA
:100FB0002C91318142815381C901DA01B7FF04C00C
:100FC00080E090E0A0E0B0E0FB0186A797A7A0AB8F
:100FD000B1AB89E190E02D813E81289FF001299FEE
:100FE000F00D389FF00D1124E20DF31D858D817EEB
:100FF0008860858F8CC0823009F089C0D1011B9632
:101000006D917D918D919C911E9769837A838B83DD
:101010009C8319968D909C901A97F501A2A4B3A475
:10102000C4A4D5A42D913C9140E050E0C601B50187
:101030000E94C51C7B018C01D1012D913C9140E0A7
:1010400050E0C601B5010E94C51CC901DA012C019E
:101050003D01AA24BB248E0C9F1CA01EB11EF101D1
:1010600080819181A0E0B0E088169906AA06BB06AF
:1010700094F00894411C511C611C711C2081318129
:1010800040E050E0C501B4010E94C51CAC01CB0199
:10109000DA014C015D0189E190E02D813E81289FBC
:1010A000B001299F700D389F700D1124620D731DC2
:1010B00089819A81AB81BC81840D951DA61DB71DC8
:1010C000FB01868F978FA0A3B1A3DB0192968D922F
:1010D0009D92AD92BC92959796962D913D914D9192
:1010E0005C9199979A968D919D910D90BC91A02DB0
:1010F000281B390B4A0B5B0B57FF04C020E030E084
:1011000040E050E0FB0126A737A740AB51AB269645
:101110000FB6F894DEBF0FBECDBFCF91DF911F9108
:101120000F91FF90EF90DF90CF90BF90AF909F9086
:101130008F907F906F905F904F903F902F90089589
:1011400040E0E0912E01F0912F0190E029E130E0A4
:10115000BC01629FC001639F900D729F900D11248E
:10116000E80FF91F858D86958F70843009F441E072
:10117000842F0895482FE0912E01F0912F01282F00
:1011800030E089E190E0BC01269FC001279F900DCF
:10119000369F900D1124E80FF91F858D86958F706D
:1011A000843011F080E00895842F0E94F30581E0DF
:1011B0000895E0912E01F0912F0190E029E130E0B7
:1011C000DC01A29FC001A39F900DB29F900D11243E
:1011D000E80FF91F858D80FD0FC086A597A5A0A9F2
:1011E000B1A9840F951FA61FB71F82AB93ABA4AB09
:1011F000B5AB858D8160858F0895E0912E01F091CA
:101200002F0190E029E130E0AC01429FC001439FF3
:10121000900D529F900D1124E80FF91F22A933A9B8
:1012200044A955A986A597A5A0A9B1A9281B390B42
:101230004A0B5B0B57FF04C020E030E040E050E079
:10124000B901CA010895CF93DF93C0912E01D091C7
:101250002F01682F70E089E190E0689FF001699F9D
:10126000F00D789FF00D1124EC0FFD1F22A933A97A
:1012700044A955A986A597A5A0A9B1A9281B390BF2
:101280004A0B5B0B57FD07C0211531054105510580
:1012900011F020E012C020E089E190E0AC01649FF1
:1012A000C001659F900D749F900D1124C80FD91F28
:1012B0008D8D80FF21E081E02827822FDF91CF9163
:1012C00008951F93182F0E942309813011F080E0A8
:1012D00016C0E0912E01F0912F01212F30E089E11D
:1012E00090E0AC01249FC001259F900D349F900D8C
:1012F0001124E80FF91F858D8E7F858F81E01F9166
:10130000089580E00E942A07089580E00E94F30576
:101310000895E0912E01F0912F0190E025E130E059
:10132000AC01429FC001439F900D529F900D11242C
:10133000E80FF91F86A986958F700895E0912E0118
:10134000F0912F0190E025E130E0AC01429FC00117
:10135000439F900D529F900D1124E80FF91F6F705D
:10136000660F86A9817E862B86AB0895E0912E01BB
:10137000F0912F0190E025E130E0AC01429FC001E7
:10138000439F900D529F900D1124E80FF91FED5BC4
:10139000FF4F60817181828193810895CF93DF93A4
:1013A000C0912E01D0912F0190E025E130E0FC01A9
:1013B000E29FC001E39F900DF29F900D1124C80F92
:1013C000D91FCD5BDF4FCA01DB01B7FF04C080E04E
:1013D00090E0A0E0B0E088839983AA83BB83DF918B
:1013E000CF910895E0912E01F0912F0190E025E139
:1013F00030E0AC01429FC001439F900D529F900D81
:101400001124E80FF91FDF01D79667A911967C9187
:10141000119712968C91129713969C910895E091D2
:101420002E01F0912F0190E025E130E0AC01429FC8
:10143000C001439F900D529F900D1124E80FF91F9A
:10144000DF01D79667A911967C91119712968C911E
:10145000129713969C910895E0912E01F0912F011F
:1014600090E025E130E0DC01A29FC001A39F900D38
:10147000B29F900D1124E80FF91F47AB50AF61AF39
:1014800072AF0895E0912E01F0912F0190E025E1D7
:1014900030E0DC01A29FC001A39F900DB29F900D90
:1014A0001124E80FF91F47AB50AF61AF72AF089539
:1014B000E0912E01F0912F0190E025E130E0AC01A8
:1014C000429FC001439F900D529F900D1124E80F41
:1014D000F91FDF01DB9663AD11967C91119712968F
:1014E0008C91129713969C910895E0912E01F091A2
:1014F0002F0190E025E130E0DC01A29FC001A39F15
:10150000900DB29F900D1124E80FF91F43AF54AF17
:1015100065AF76AF0895E0912E01F0912F0190E034
:1015200025E130E0AC01429FC001439F900D529FE6
:10153000900D1124E80FF91FFF966081718182815F
:1015400093810895CF93DF93C0912E01D0912F0105
:1015500090E025E130E0FC01E29FC001E39F900DA7
:10156000F29F900D1124C80FD91FEF96CA01DB011D
:10157000B7FF04C080E090E0A0E0B0E088839983EA
:10158000AA83BB83DF91CF910895E0912E01F09162
:101590002F0190E025E130E0AC01429FC001439F64
:1015A000900D529F900D1124E80FF91FE95BFF4F3A
:1015B00060817181828193810895E0912E01F09183
:1015C0002F0190E025E130E0DC01A29FC001A39F44
:1015D000900DB29F900D1124E80FF91FE95BFF4FAA
:1015E00040835183628373830895E0912E01F091CB
:1015F0002F0190E025E130E0AC01429FC001439F04
:10160000900D529F900D1124E80FF91F86A981704B
:101610000895E0912E01F0912F0190E025E130E056
:10162000AC01429FC001439F900D529F900D112429
:10163000E80FF91F86A9816086AB0895E0912E011D
:10164000F0912F0190E025E130E0AC01429FC00114
:10165000439F900D529F900D1124E80FF91F86A90A
:101660008E7F86AB0895E0912E01F0912F0190E0DE
:1016700025E130E0AC01429FC001439F900D529F95
:10168000900D1124E80FF91F86A9ED5BFF4F108222
:10169000118212821382E354F04017AA10AE11AEE9
:1016A00012AE13AE14AE15AE16AEFF9610821182B6
:1016B0001282138238961082118212821382E754AA
:1016C000F040807E86AB08950E94330B0895E09130
:1016D0002E01F0912F0190E025E130E0AC01429F16
:1016E000C001439F900D529F900D1124E80FF91FE8
:1016F00096A9892F86958F70813019F0917E92601E
:1017000096AB0895E0912E01F0912F0190E025E134
:1017100030E0AC01429FC001439F900D529F900D5D
:101720001124E80FF91F96A9892F86958F708230B2
:1017300019F0917E946096AB0895A0912E01B0911E
:101740002F0190E025E130E0829FF001839FF00DB2
:10175000929FF00D1124EA0FFB1F86A986958F70CA
:1017600031F5ED5BFF4F10821182128213821292CB
:10177000129212921292FF9743AF54AF65AF76AFB9
:101780001B968D919D910D90BC91A02D840F951F5E
:10179000A61FB71F87AB90AFA1AFB2AF96A9892F95
:1017A00086958F70813019F0917E926096AB089586
:1017B000DF92EF92FF920F931F93D82E7A018B0145
:1017C0000E94330B8D2DB801A7010E949D0B1F9124
:1017D0000F91FF90EF90DF900895EF92FF920F939B
:1017E0001F93CF93DF9360912E0170912F01082FEB
:1017F00010E085E190E0089FF001099FF00D189F2F
:10180000F00D1124E60FF71F86A986958F708130A1
:1018100009F07FC0EB018B859C85AD85BE8527A92E
:1018200030AD41AD52AD281B390B4A0B5B0B57FF56
:1018300004C020E030E040E050E085E190E0089F07
:10184000F001099FF00D189FF00D1124E60FF71F0E
:10185000FF962083318342835383FF9783AD94ADFA
:10186000A5ADB6ADED5BFF4F821B930BA40BB50B83
:10187000B7FF04C080E090E0A0E0B0E080839183F7
:10188000A283B38385E190E0089FE001099FD00D1A
:10189000189FD00D1124C60FD71FFE01FF9680811F
:1018A0009181A281B381181619061A061B060CF441
:1018B00059C01FAA18AE19AE1AAE10821182128238
:1018C0001382FE01FB9683E4E82EF12CEC0EFD1E44
:1018D0002BAD318142815381C901DA01B7FF04C0C8
:1018E00080E090E0A0E0B0E0F70180839183A283E4
:1018F000B38385E190E0089FF001099FF00D189FE8
:10190000F00D1124E60FF71F86A9817E886086AB53
:1019100029C0823039F5EB018B859C85AD85BE856C
:10192000FF962081318142815381FF97820F931F5F
:10193000A41FB51F87AB90AFA1AFB2AF83AD94AD7D
:10194000A5ADB6ADED5BFF4F821B930BA40BB50BA2
:10195000B7FF04C080E090E0A0E0B0E08083918316
:10196000A283B383DF91CF911F910F91FF90EF90EE
:10197000089540E0E0912E01F0912F0190E025E1E3
:1019800030E0BC01629FC001639F900D729F900D7B
:101990001124E80FF91F86A986958F70843009F409
:1019A00041E0842F0895482FE0912E01F0912F01FE
:1019B000282F30E085E190E0BC01269FC001279FE1
:1019C000900D369F900D1124E80FF91F86A986957A
:1019D0008F70843011F080E00895842F0E94330BC3
:1019E00081E00895CF93DF93C0912E01D0912F0114
:1019F00090E025E130E0FC01E29FC001E39F900D03
:101A0000F29F900D1124C80FD91F8EA980FD16C01A
:101A1000FE01E95BFF4FCD5BDF4F88819981AA8191
:101A2000BB81C354D040840F951FA61FB71F80836E
:101A30009183A283B3838EA981608EABDF91CF9116
:101A40000895E0912E01F0912F0190E025E130E022
:101A5000AC01429FC001439F900D529F900D1124F5
:101A6000E80FF91FDF01AD5BBF4FE95BFF4F20813E
:101A70003181428153818D919D910D90BC91A02D1A
:101A8000281B390B4A0B5B0B57FF04C020E030E0EA
:101A900040E050E0B901CA010895CF93DF93C091AF
:101AA0002E01D0912F01682F70E085E190E0689FB2
:101AB000F001699FF00D789FF00D1124EC0FFD1FD0
:101AC000DF01AD5BBF4FE95BFF4F20813181428178
:101AD00053818D919D910D90BC91A02D281B390BA8
:101AE0004A0B5B0B57FD07C0211531054105510518
:101AF00011F020E012C020E085E190E0AC01649F8D
:101B0000C001659F900D749F900D1124C80FD91FBF
:101B10008EA980FF21E081E02827822FDF91CF91DD
:101B200008951F93182F0E944D0D813011F080E011
:101B300016C0E0912E01F0912F01212F30E085E1B8
:101B400090E0AC01249FC001259F900D349F900D23
:101B50001124E80FF91F86A98E7F86AB81E01F91C3
:101B6000089580E00E94ED0B089580E00E94330B01
:101B70000895E0912E01F0912F0190E09C0144E046
:101B8000220F331F4A95E1F7280F391FE20FF31F89
:101B9000E55BFF4F808186958F700895E0912E015F
:101BA000F0912F0190E09C0154E0220F331F5A95D1
:101BB000E1F7280F391FE20FF31FE55BFF4F6F704E
:101BC000660F8081817E862B80830895E0912E01AF
:101BD000F0912F0190E09C0164E0220F331F6A9581
:101BE000E1F7280F391FE20FF31FEC5AFF4F608116
:101BF0007181828193810895E0912E01F0912F01EE
:101C000090E09C01A4E0220F331FAA95E1F7280F72
:101C1000391FE20FF31FEC5AFF4F40835183628359
:101C200073830895E0912E01F0912F0190E09C01C3
:101C3000B4E0220F331FBA95E1F7280F391FE20FE6
:101C4000F31FE45BFF4F608171818281938108956E
:101C5000E0912E01F0912F0190E09C0144E0220FD1
:101C6000331F4A95E1F7280F391FE20FF31FE05B9E
:101C7000FF4F60817181828193810895E0912E01EF
:101C8000F0912F0190E09C01A4E0220F331FAA9550
:101C9000E1F7280F391FE20FF31FE45BFF4F40838A
:101CA0005183628373830895E0912E01F0912F0197
:101CB00090E09C01B4E0220F331FBA95E1F7280FA2
:101CC000391FE20FF31FE05BFF4F408351836283B4
:101CD00073830895E0912E01F0912F0190E09C0113
:101CE00044E0220F331F4A95E1F7280F391FE20F16
:101CF000F31FE85AFF4F60817181828193810895BB
:101D0000E0912E01F0912F01282F30E077FF11C0D4
:101D1000C901B4E0880F991FBA95E1F7820F931FAC
:101D2000E80FF91FE85AFF4F1082118212821382C6
:101D30000895C901A4E0880F991FAA95E1F7820FC1
:101D4000931FE80FF91FE85AFF4F408351836283C6
:101D500073830895E0912E01F0912F0190E09C0192
:101D600044E0220F331F4A95E1F7280F391FE20F95
:101D7000F31FE55BFF4F808181700895E0912E0194
:101D8000F0912F0190E09C0154E0220F331F5A95EF
:101D9000E1F7280F391FE20FF31FE55BFF4F80814A
:101DA000816080830895E0912E01F0912F0190E0F1
:101DB0009C0164E0220F331F6A95E1F7280F391F59
:101DC000E20FF31FE55BFF4F80818E7F80830895D4
:101DD000E0912E01F0912F0190E09C0174E0220F20
:101DE000331F7A95E1F7280F391FE20FF31FE05BED
:101DF000FF4F10821182128213821292129212925B
:101E00001292389610821182128213823997808141
:101E1000807E80830895E0912E01F0912F0190E063
:101E20009C01A4E0220F331FAA95E1F7280F391F68
:101E3000E20FF31FE05BFF4F1082118212821382C8
:101E4000129212921292129238961082118212827B
:101E5000138239978081807E80830895E0912E01DE
:101E6000F0912F0190E09C01B4E0220F331FBA954E
:101E7000E1F7280F391FE20FF31FE55BFF4F908159
:101E8000892F86958F70813019F0917E92609083B2
:101E90000895E0912E01F0912F0190E09C0144E023
:101EA000220F331F4A95E1F7280F391FE20FF31F66
:101EB000E55BFF4F9081892F86958F70823019F0F6
:101EC000917E9460908308952F923F924F925F92FB
:101ED0006F927F928F929F92AF92BF92CF92DF923A
:101EE000EF92FF920F931F93DF93CF9300D000D018
:101EF000CDB7DEB74A015B0120912E0130912F0151
:101F00003C832B83A82FB0E0BA83A983FD0164E052
:101F1000EE0FFF1F6A95E1F7EA0FFB1FE20FF31FB9
:101F2000E55BFF4F8081EB54F04086958F7009F0A0
:101F300070C0EC5AFF4F80829182A282B382F90175
:101F4000C184D284238434844584568420813181A1
:101F500040E050E0C501B4010E94C51C7B018C012A
:101F6000AB81BC812D913C9140E050E0C501B401B2
:101F70000E94C51CC901DA013C014D015601CC2467
:101F8000DD24AE0CBF1CC01ED11EEB81FC81808104
:101F90009181A0E0B0E0A816B906CA06DB0694F06D
:101FA0000894611C711C811C911C2081318140E0CE
:101FB00050E0C601B5010E94C51CAC01CB01DA019D
:101FC0005C016D01E981FA8154E0EE0FFF1F5A9523
:101FD000E1F729813A81E20FF31F8B819C81E80FA1
:101FE000F91FE45BFF4F260C371C481C591C21923B
:101FF000319241925192A082B182C282D3823597AE
:102000009081892F86958F70813019F0917E926032
:1020100090830F900F900F900F90CF91DF911F91B1
:102020000F91FF90EF90DF90CF90BF90AF909F9077
:102030008F907F906F905F904F903F902F9008957A
:10204000E0912E01F0912F01A82FB0E09D0194E0C6
:10205000220F331F9A95E1F72A0F3B1FE20FF31F60
:10206000E05BFF4F10821182128213821292129251
:10207000129212923896108211821282138239972C
:102080009081907E90830E94640F08952F923F92DA
:102090004F925F926F927F928F929F92AF92BF9278
:1020A000CF92DF92EF92FF920F931F93CF93DF9324
:1020B000E0912E01F0912F0190E0EC0144E0CC0F73
:1020C000DD1F4A95E1F7C80FD91FCE0FDF1F3BE494
:1020D000C32ED12CCC0EDD1ED6018C9186958F702F
:1020E000813009F04EC0E184F28400E010E06384A6
:1020F0007484858496842CE4A22EB12CAC0EBD1E73
:10210000D5012D913D914D915C91261937094809D2
:1021100059096081718180E090E00E94841C6E19F1
:102120007F09800B910BDE01A05BBF4F2D913D918C
:102130004D915C911397620F731F841F951FFE01D1
:10214000EC5AFF4F608371838283938316161706C0
:10215000180619060CF448C01D921D921D921C927F
:102160001397D5011D921D921D921C9213971082F8
:10217000118212821382F6018081807E88608083C2
:1021800033C0823089F561847284E384F4840585E8
:102190001685CC5ADF4F288039804A805B802081A9
:1021A0003181A080B180289740E050E0C201B101A8
:1021B0000E94C51CE20EF31E041F151FE992F9923E
:1021C00009931993CC24DD24C201B101A601950124
:1021D0000E94C51C88249924660E771E881E991EAD
:1021E000688279828A829B82DF91CF911F910F91C1
:1021F000FF90EF90DF90CF90BF90AF909F908F9027
:102200007F906F905F904F903F902F90089540E0A7
:10221000E0912E01F0912F0190E09C0154E0220FFB
:10222000331F5A95E1F7280F391FE20FF31FE55BC3
:10223000FF4F808186958F70843009F441E0842FB0
:102240000895E0912E01F0912F0190E09C0164E04F
:10225000220F331F6A95E1F7280F391FE20FF31F92
:10226000DF01A55BBF4F8C9186958F70843011F094
:1022700080E00895E05BFF4F10821182128213828A
:102280001292129212921292389610821182128237
:1022900013828C91807E8C9381E00895CF93DF939D
:1022A000C0912E01D0912F01282F30E0F901A4E038
:1022B000EE0FFF1FAA95E1F7E20FF31FEC0FFD1FD2
:1022C000E55BFF4F8081EB54F04080FD24C0EC5A69
:1022D000FF4F81919191A191B191841B950BA60B18
:1022E000B70BB7FF05C0108211821282138204C09F
:1022F00080839183A283B383F90174E0EE0FFF1F03
:102300007A95E1F7E20FF31FEC0FFD1FE55BFF4F3E
:10231000808181608083DF91CF910895E0912E01CB
:10232000F0912F0190E09C01B4E0220F331FBA9589
:10233000E1F7280F391FE20FF31FDF01A85ABF4F43
:10234000EC5AFF4F20813181428153818D919D91C3
:102350000D90BC91A02D281B390B4A0B5B0B57FF2E
:1023600004C020E030E040E050E0B901CA01089527
:10237000CF93DF93C0912E01D0912F01682F70E091
:10238000FB0144E0EE0FFF1F4A95E1F7E60FF71F50
:10239000EC0FFD1FDF01A85ABF4FEC5AFF4F208101
:1023A0003181428153818D919D910D90BC91A02DE1
:1023B000281B390B4A0B5B0B57FD07C02115310554
:1023C0004105510511F020E012C020E0CB0134E0BE
:1023D000880F991F3A95E1F7860F971FC80FD91FED
:1023E000C55BDF4F888180FF21E081E02827822FB5
:1023F000DF91CF9108951F93182F0E94B81181305B
:1024000011F080E016C0E0912E01F0912F01212FF4
:1024100030E0C90154E0880F991F5A95E1F7820F07
:10242000931FE80FF91FE55BFF4F80818E7F80834C
:1024300081E01F91089580E00E9446100895E09188
:102440002E01F0912F01E05BFF4F1082118212826A
:102450001382129212921292129238961082118264
:102460001282138239978081807E80830895E09163
:102470002E01F0912F0190E02DE030E0AC01429F61
:10248000C001439F900D529F900D1124E80FF91F3A
:10249000E45AFF4F808186958F700895E0912E0158
:1024A000F0912F0190E02DE030E0AC01429FC0019F
:1024B000439F900D529F900D1124E80FF91FE45A8D
:1024C000FF4F6F70660F8081817E862B8083089519
:1024D000E0912E01F0912F0190E02DE030E0AC0171
:1024E000429FC001439F900D529F900D1124E80F11
:1024F000F91FEF59FF4F60817181828193810895A7
:10250000E0912E01F0912F0190E02DE030E0DC0110
:10251000A29FC001A39F900DB29F900D1124E80FC0
:10252000F91FEF59FF4F40835183628373830895EE
:10253000E0912E01F0912F0190E02DE030E0AC0110
:10254000429FC001439F900D529F900D1124E80FB0
:10255000F91FE35AFF4F6081718182819381089551
:10256000E0912E01F0912F0190E02DE030E0DC01B0
:10257000A29FC001A39F900DB29F900D1124E80F60
:10258000F91FE35AFF4F4083518362837383089599
:10259000E0912E01F0912F0190E02DE030E0AC01B0
:1025A000429FC001439F900D529F900D1124E80F50
:1025B000F91FEB59FF4F60817181828193810895EA
:1025C000E0912E01F0912F01282F30E077FF13C00A
:1025D0008DE090E0AC01249FC001259F900D349FB9
:1025E000900D1124E80FF91FEB59FF4F1082118253
:1025F0001282138208958DE090E0DC012A9FC001D1
:102600002B9F900D3A9F900D1124E80FF91FEB5965
:10261000FF4F40835183628373830895E0912E01BD
:10262000F0912F0190E02DE030E0AC01429FC0011D
:10263000439F900D529F900D1124E80FF91FE45A0B
:10264000FF4F808181700895E0912E01F0912F015C
:1026500090E02DE030E0AC01429FC001439F900D1F
:10266000529F900D1124E80FF91FE45AFF4F80810B
:10267000816080830895E0912E01F0912F0190E018
:102680002DE030E0AC01429FC001439F900D529F6E
:10269000900D1124E80FF91FE45AFF4F80818E7FBF
:1026A00080830895E0912E01F0912F0190E02DE0BC
:1026B00030E0AC01429FC001439F900D529F900DAE
:1026C0001124E80FF91FE35AFF4F11921192119252
:1026D0001192108211821282138235978081807E3E
:1026E00080830895E0912E01F0912F0190E02DE07C
:1026F00030E0AC01429FC001439F900D529F900D6E
:102700001124E80FF91FE35AFF4F11921192119211
:102710001192108211821282138235978081807EFD
:1027200080830895E0912E01F0912F0190E02DE03B
:1027300030E0AC01429FC001439F900D529F900D2D
:102740001124E80FF91FE45AFF4F9081892F8695D5
:102750008F70813019F0917E926090830895E0919E
:102760002E01F0912F0190E02DE030E0AC01429F6E
:10277000C001439F900D529F900D1124E80FF91F47
:10278000E45AFF4F9081892F86958F70823019F01F
:10279000917E946090830895CF93DF93A0912E0152
:1027A000B0912F0190E02DE030E0829FF001839FF7
:1027B000F00D929FF00D1124EA0FFB1FEF01C45A98
:1027C000DF4F888186958F70E9F4EF59FF4F408382
:1027D0005183628373831B968D919D910D90BC9163
:1027E000A02D840F951FA61FB71FB293A29392939B
:1027F00082939881892F86958F70813019F0917E10
:1028000092609883DF91CF910895CF93DF93E09109
:102810002E01F0912F01A82FB0E02DE030E0E9016A
:10282000AC9F9001AD9F300DBC9F300D1124E20F85
:10283000F31FE35AFF4F11921192119211921082DD
:1028400011821282138235979081907E90830E942C
:10285000CC13DF91CF9108950F931F93CF93DF9304
:10286000A0912E01B0912F0190E02DE030E0829FE9
:10287000F001839FF00D929FF00D1124EA0FFB1FD2
:102880008F01045A1F4FE801888186958F7081302F
:1028900069F51B962D913D914D915C911E97BF015D
:1028A000635A7F4FEB0188819981AA81BB81821B8A
:1028B000930BA40BB50BEF59FF4F80839183A28339
:1028C000B383181619061A061B0634F1DB011D9294
:1028D0001D921D921C9213971082118212821382F4
:1028E000E8018881807E8860888316C08230A1F4E8
:1028F0001B968D919D910D90BC91A02DEF59FF4F8E
:102900002081318142815381820F931FA41FB51F03
:10291000B293A29392938293DF91CF911F910F91E3
:10292000089540E0E0912E01F0912F0190E02DE01C
:1029300030E0BC01629FC001639F900D729F900DBB
:102940001124E80FF91FE45AFF4F808186958F709C
:10295000843009F441E0842F0895E0912E01F09134
:102960002F0190E02DE030E0AC01429FC001439F79
:10297000900D529F900D1124E80FF91FDF01A45A0A
:10298000BF4F8C9186958F70843011F080E0089550
:10299000E35AFF4F119211921192119210821182FB
:1029A000128213828C91807E8C9381E00895CF9364
:1029B000DF93C0912E01D0912F01282F30E08DE0C0
:1029C00090E0289FF001299FF00D389FF00D112411
:1029D000EC0FFD1FE45AFF4F8081EC55F04080FD65
:1029E00025C0EF59FF4F81919191A191B191841B25
:1029F000950BA60BB70BB7FF05C010821182128290
:102A0000138204C080839183A283B3838DE090E01E
:102A1000289FF001299FF00D389FF00D1124EC0F35
:102A2000FD1FE45AFF4F808181608083DF91CF9149
:102A30000895E0912E01F0912F0190E02DE030E01B
:102A4000AC01429FC001439F900D529F900D1124F5
:102A5000E80FF91FDF01AB59BF4FEF59FF4F20813E
:102A60003181428153818D919D910D90BC91A02D1A
:102A7000281B390B4A0B5B0B57FF04C020E030E0EA
:102A800040E050E0B901CA010895CF93DF93C091AF
:102A90002E01D0912F01682F70E08DE090E0689FAB
:102AA000F001699FF00D789FF00D1124EC0FFD1FD0
:102AB000DF01AB59BF4FEF59FF4F20813181428178
:102AC00053818D919D910D90BC91A02D281B390BA8
:102AD0004A0B5B0B57FD07C0211531054105510518
:102AE00011F020E014C020E08DE090E0AC01649F84
:102AF000C001659F900D749F900D1124C80FD91FC0
:102B0000C45ADF4F888180FF21E081E02827822F8F
:102B1000DF91CF9108951F93182F0E9445158130A2
:102B200011F080E018C0E0912E01F0912F01212FCB
:102B300030E08DE090E0AC01249FC001259F900D16
:102B4000349F900D1124E80FF91FE45AFF4F808144
:102B50008E7F808381E01F91089580E00E942C1475
:102B60000895E0912E01F0912F01E35AFF4F119249
:102B70001192119211921082118212821382359752
:102B80008081807E80830895E0912E01F0912F0155
:102B900090E02DE030E0AC01429FC001439F900DDA
:102BA000529F900D1124E80FF91FE759FF4F8081C4
:102BB00086958F700895E0912E01F0912F0190E09D
:102BC0002DE030E0AC01429FC001439F900D529F29
:102BD000900D1124E80FF91FE759FF4F6F70660F32
:102BE0008081817E862B80830895E0912E01F09173
:102BF0002F0190E02DE030E0AC01429FC001439FE7
:102C0000900D529F900D1124E80FF91FE259FF4FCC
:102C100060817181828193810895E0912E01F0910C
:102C20002F0190E02DE030E0DC01A29FC001A39FC6
:102C3000900DB29F900D1124E80FF91FE259FF4F3C
:102C400040835183628373830895E0912E01F09154
:102C50002F0190E02DE030E0AC01429FC001439F86
:102C6000900D529F900D1124E80FF91FE659FF4F68
:102C700060817181828193810895E0912E01F091AC
:102C80002F0190E02DE030E0DC01A29FC001A39F66
:102C9000900DB29F900D1124E80FF91FE659FF4FD8
:102CA00040835183628373830895E0912E01F091F4
:102CB0002F0190E02DE030E0AC01429FC001439F26
:102CC000900D529F900D1124E80FF91FEE58FF4F01
:102CD00060817181828193810895E0912E01F0914C
:102CE0002F01282F30E077FF13C08DE090E0AC017A
:102CF000249FC001259F900D349F900D1124E80F53
:102D0000F91FEE58FF4F108211821282138208952C
:102D10008DE090E0DC012A9FC0012B9F900D3A9F2F
:102D2000900D1124E80FF91FEE58FF4F4083518397
:102D3000628373830895E0912E01F0912F0190E05A
:102D40002DE030E0AC01429FC001439F900D529FA7
:102D5000900D1124E80FF91FE759FF4F8081817012
:102D60000895E0912E01F0912F0190E02DE030E0E8
:102D7000AC01429FC001439F900D529F900D1124C2
:102D8000E80FF91FE759FF4F808181608083089524
:102D9000E0912E01F0912F0190E02DE030E0AC01A8
:102DA000429FC001439F900D529F900D1124E80F48
:102DB000F91FE759FF4F80818E7F80830895E0914E
:102DC0002E01F0912F0190E02DE030E0AC01429F08
:102DD000C001439F900D529F900D1124E80FF91FE1
:102DE000E659FF4F119211921192119210821182A5
:102DF0001282138235978081807E80830895E091CE
:102E00002E01F0912F0190E02DE030E0AC01429FC7
:102E1000C001439F900D529F900D1124E80FF91FA0
:102E2000E659FF4F11921192119211921082118264
:102E30001282138235978081807E80830895E0918D
:102E40002E01F0912F0190E02DE030E0AC01429F87
:102E5000C001439F900D529F900D1124E80FF91F60
:102E6000E759FF4F9081892F86958F70813019F037
:102E7000917E926090830895E0912E01F0912F0150
:102E800090E02DE030E0AC01429FC001439F900DE7
:102E9000529F900D1124E80FF91FE759FF4F9081C1
:102EA000892F86958F70823019F0917E946090837F
:102EB0000895EF92FF920F931F93CF93DF937A01C0
:102EC0008B01C0912E01D0912F01682F70E08DE011
:102ED00090E0689FF001699FF00D789FF00D11243C
:102EE000EC0FFD1FE759FF4F8081E956F0408695B2
:102EF0008F7089F5E259FF4FE082F18202831383DC
:102F0000288D398D4A8D5B8D888D998DAA8DBB8DCD
:102F1000281739074A075B0799F78DE090E0689F0B
:102F2000F001699FF00D789FF00D1124EC0FFD1F4B
:102F3000E659FF4F2E0D3F1D401F511F2083318347
:102F4000428353839291892F86958F70813019F037
:102F5000917E92609083DF91CF911F910F91FF90AE
:102F6000EF900895CF93DF93E0912E01F0912F0120
:102F7000A82FB0E02DE030E0E901AC9F9001AD9FBB
:102F8000300DBC9F300D1124E20FF31FE659FF4FA7
:102F90001192119211921192108211821282138257
:102FA00035979081907E90830E945917DF91CF9141
:102FB0000895EF92FF920F931F93CF93DF93C091E9
:102FC0002E01D0912F01682F70E08DE090E0689F76
:102FD000F001699FF00D789FF00D1124EC0FFD1F9B
:102FE000E759FF4F8081E956F04086958F70813018
:102FF00009F043C0E659FF4FE080F1800281138160
:10300000288D398D4A8D5B8D888D998DAA8DBB8DCC
:10301000281739074A075B0799F7D801C701821BB0
:10302000930BA40BB50B9C01AD018DE090E0689F64
:10303000F001699FF00D789FF00D1124EC0FFD1F3A
:10304000DF01A259BF4F2D933D934D935C9313978E
:103050001216130614061506DCF1E659FF4F10820E
:103060001182128213821D921D921D921C9213973F
:103070008291807E886080832BC0823049F5E2593E
:10308000FF4FE080F18002811381288D398D4A8DB8
:103090005B8D888D998DAA8DBB8D281739074A07BE
:1030A0005B0799F78DE090E0DC016A9FC0016B9FA0
:1030B000900D7A9F900D1124C80FD91FC659DF4F6C
:1030C0002E0D3F1D401F511F288339834A835B8388
:1030D000DF91CF911F910F91FF90EF90089540E005
:1030E000E0912E01F0912F0190E02DE030E0BC0145
:1030F000629FC001639F900D729F900D1124E80F95
:10310000F91FE759FF4F808186958F70843009F44D
:1031100041E0842F0895E0912E01F0912F0190E07D
:103120002DE030E0AC01429FC001439F900D529FC3
:10313000900D1124E80FF91FDF01A759BF4F8C91A3
:1031400086958F70843011F080E00895E659FF4F26
:103150001192119211921192108211821282138295
:103160008C91807E8C9381E00895CF93DF93C09102
:103170002E01D0912F01282F30E08DE090E0289F84
:10318000F001299FF00D389FF00D1124EC0FFD1F69
:10319000E759FF4F8081E956F04080FD25C0E25994
:1031A000FF4F81919191A191B191841B950BA60B39
:1031B000B70BB7FF05C0108211821282138204C0C0
:1031C00080839183A283B3838DE090E0289FF001F8
:1031D000299FF00D389FF00D1124EC0FFD1FE759CA
:1031E000FF4F808181608083DF91CF910895E091CE
:1031F0002E01F0912F0190E02DE030E0AC01429FD4
:10320000C001439F900D529F900D1124E80FF91FAC
:10321000DF01AE58BF4FE259FF4F2081318142811B
:1032200053818D919D910D90BC91A02D281B390B40
:103230004A0B5B0B57FF04C020E030E040E050E059
:10324000B901CA010895CF93DF93C0912E01D091A7
:103250002F01682F70E08DE090E0689FF001699F7A
:10326000F00D789FF00D1124EC0FFD1FDF01AE581B
:10327000BF4FE259FF4F20813181428153818D91AF
:103280009D910D90BC91A02D281B390B4A0B5B0B17
:1032900057FD07C0211531054105510511F020E00A
:1032A00014C020E08DE090E0AC01649FC001659FF8
:1032B000900D749F900D1124C80FD91FC759DF4F6F
:1032C000888180FF21E081E02827822FDF91CF9144
:1032D00008951F93182F0E942319813011F080E068
:1032E00018C0E0912E01F0912F01212F30E08DE0E8
:1032F00090E0AC01249FC001259F900D349F900D5C
:103300001124E80FF91FE759FF4F80818E7F8083DA
:1033100081E01F91089580E00E94D9170895E091FF
:103320002E01F0912F01E659FF4F11921192119247
:103330001192108211821282138235978081807ED1
:1033400080830895E0912E01F0912F01848D0895DE
:103350000E94B50D0E941F120E94B11508950E948F
:103360008F1908950F931F938C010E94FA00C801D2
:103370000E94EF010E94A81981E090E00E947C0267
:103380000E948F191F910F910895E0912E01F091E5
:103390002F01848D82FF0BC00E94EE020E948109E2
:1033A000E0912E01F0912F01848D8B7F848FE0912D
:1033B0002E01F0912F01848D80FF0BC00E94EE0240
:1033C0000E94B10DE0912E01F0912F01848D8E7F2E
:1033D000848FE0912E01F0912F01848D83FF0BC02B
:1033E0000E94EE020E941B12E0912E01F0912F012B
:1033F000848D877F848FE0912E01F0912F01848D41
:1034000081FF0BC00E94EE020E94AD15E0912E01DB
:10341000F0912F01848D8D7F848FE0912E01F091AA
:103420002F01158A848D85FF09C00E948B19E091B8
:103430002E01F0912F01848D8F7D848F0895E0916E
:103440002E01F0912F01878590890196908B8787B7
:10345000848D8460848F848D8860848F27853089F3
:10346000808191812817390798F0108A1786818901
:103470009289A389B4890196A11DB11D818B928B7C
:10348000A38BB48B848D8160848F848D8260848FC4
:1034900008951F920F920FB60F9211242F933F930E
:1034A0004F935F936F937F938F939F93AF93BF934C
:1034B000EF93FF93E0912E01F0912F01848186BD5F
:1034C0000E941F1AFF91EF91BF91AF919F918F9131
:1034D0007F916F915F914F913F912F910F900FBE10
:1034E0000F901F901895E0912E01F0912F01868981
:1034F00097890196978B868B26893789828193815C
:103500002817390768F0178A168A808D918DA28D49
:10351000B38D0196A11DB11D808F918FA28FB38FA6
:10352000848D8062848F08951F920F920FB60F9240
:1035300011242F933F934F935F936F937F938F93B8
:103540009F93AF93BF93EF93FF93E0E6F0E080810A
:10355000806480830E94731AFF91EF91BF91AF91B5
:103560009F918F917F916F915F914F913F912F919B
:103570000F900FBE0F901F90189510922401E5E256
:10358000F1E0119281E0ED32F807D9F71082089549
:10359000089508959B01AC0160E673EE86E190E02A
:1035A0000E94A31C2150304040405040E0ECF0E02D
:1035B000808182608083BB27A52F942F832F8093E7
:1035C000C5002093C4000895E1ECF0E0808188609C
:1035D000808386E08093C2000895E1ECF0E0808172
:1035E0008061808386E08093C2000895E1ECF0E082
:1035F00080818068808378940895982F8091C0009E
:1036000085FFFCCF9093C6000895DF93CF930F9270
:10361000CDB7DEB719828091C00084FF05C08091CC
:10362000C600898381E008C08091C00083FF07C085
:103630008091C600898382E08093240105C0809137
:10364000C60089831092240189810F90CF91DF9168
:1036500008951F93CF93DF93AB01BC014F3F5105FA
:103660006105710509F028F4E8E0F0E0C2E0D0E07F
:1036700011C0403080E0580781E0680780E078079B
:1036800028F0E0E2F0E0C8E0D0E004C0E0E1F0E0E3
:10369000C4E0D0E08091C00085FFFCCF80E3809340
:1036A000C6008091C00085FFFCCF88E78093C600EC
:1036B00010E01FC03497DB01CA010E2E04C0B6957E
:1036C000A795979587950A94D2F790E08F709070A0
:1036D0008A30910520F09C01295C3F4F03C09C017A
:1036E000205D3F4F8091C00085FFFCCF2093C60036
:1036F0001F5F812F90E08C179D07E0F2DF91CF9143
:103700001F910895CF92DF92EF92FF920F931F9334
:10371000CF93DF93AB01BC014F3F510561057105AC
:1037200009F010F497E00BC0403080E0580781E0CA
:10373000680780E0780710F09FE101C09FE080916A
:10374000C00085FFFCCF80E38093C6008091C0005D
:1037500085FFFCCF82E68093C60020E030E0E92FB1
:10376000F0E000E311E3EF012196CF01821B930B00
:103770006A017B0104C0F694E794D794C7948A95B4
:10378000D2F7D701C60181709070892B39F08091F2
:10379000C00085FFFCCF1093C60006C08091C0001A
:1037A00085FFFCCF0093C6002F5F3F4F2C173D07CE
:1037B000E1F6DF91CF911F910F91FF90EF90DF9095
:1037C000CF900895AC0120E007C08091C00085FF34
:1037D000FCCFE093C6002F5FFA01E20FF11DE081FC
:1037E000EE2399F708958FE191E00E94E21B08957E
:1037F00082E291E00E94E21B0895BF92CF92DF9295
:10380000EF92FF920F931F936B017C01611571057D
:103810008105910531F41092250181E080932D01FD
:1038200023C0BB240B2D10E00C5D1E4FC701B60159
:103830002AE030E040E050E00E94A31CF8016183E0
:10384000C701B6012AE030E040E050E00E94A31C2E
:10385000C901DA016C017D01B394C114D104E10402
:10386000F10401F7B0922D011F910F91FF90EF909D
:10387000DF90CF90BF900895E0912D010FC02E2FC3
:103880002150E22FF0E0EC5DFE4F91818091C0006D
:1038900085FFFCCF905D9093C600E22FEE2379F771
:1038A00008959B01AC0197FF0EC08091C00085FF79
:1038B000FCCF8DE28093C6005095409530952195C0
:1038C0003F4F4F4F5F4FCA01B9010E94FD1B0E943D
:1038D0003C1C08950895EF92FF920F931F937B0174
:1038E0008C010E94BD1AC801B7010E94CA1AE1ECFE
:1038F000F0E080818860808386E08093C2001F9121
:103900000F91FF90EF900895629FD001739FF00197
:10391000829FE00DF11D649FE00DF11D929FF00D5F
:10392000839FF00D749FF00D659FF00D9927729F96
:10393000B00DE11DF91F639FB00DE11DF91FBD0121
:10394000CF0111240895A1E21A2EAA1BBB1BFD0171
:103950000DC0AA1FBB1FEE1FFF1FA217B307E4076E
:10396000F50720F0A21BB30BE40BF50B661F771FC6
:10397000881F991F1A9469F76095709580959095A6
:103980009B01AC01BD01CF01089597FB092E0526CF
:103990000ED057FD04D0D7DF0AD0001C38F4509564
:1039A0004095309521953F4F4F4F5F4F0895F6F763
:1039B00090958095709561957F4F8F4F9F4F08959B
:0439C000F894FFCFA9
:1039C4002C000D0A004C5054494D20457870697202
:1039D40065640D0A00010008004000000100040DA8
:0439E4000A002000B5
:00000001FF
