:100000000C9434000C9451000C9451000C94510049
:100010000C9451000C9451000C9451000C9451001C
:100020000C9451000C9451000C9451000C9451000C
:100030000C9451000C9451000C9451000C945100FC
:100040000C9451000C9451000C9451000C945100EC
:100050000C9451000C9451000C9451000C945100DC
:100060000C9451000C94510011241FBECFEFD8E026
:10007000DEBFCDBF11E0A0E0B1E0ECEFF2E002C0E6
:1000800005900D92A231B107D9F711E0A2E1B1E0DC
:1000900001C01D92AF33B107E1F70E9453000C94E9
:1000A0007C010C940000CF93DF930E947501CCE299
:1000B000D1E08AEA0E941A0180E197E2FE013197BD
:1000C000F1F70197D9F7F5CF1092120110921301B1
:1000D00081E08093140180E090E0FC01EE5EFE4F31
:1000E0001382019680329105C1F710923501E6E343
:1000F000F1E0119281E0EE33F807D9F7108208950C
:1001000010928000109281001092820010926F0075
:100110008FEF86BBE8E6F0E0808184608083EDE6C7
:10012000F0E0808180628083DA9A789408958FEF7E
:1001300086BBEFE6F0E0108288E09FEC90938500AC
:100140008093840081E08093810086BB8083089542
:1001500010926F001092810010928500109284001E
:100160000895569A5E9A55985D9A08955E9A0895F4
:100170005E980895813011F45E9A08955E9808950E
:1001800089B190E025E0969587952A95E1F78170F1
:1001900008959C01109285001092840081E0809364
:1001A0008100809184009091850082179307C8F3A5
:1001B00010928100089520910C0130910D01109250
:1001C00085001092840081E08093810080918400FA
:1001D0009091850082179307C8F3109281000895CB
:1001E00020910E0130910F01109285001092840031
:1001F00081E0809381008091840090918500821736
:100200009307C8F310928100089520911001309156
:100210001101109285001092840081E0809381008A
:10022000809184009091850082179307C8F3109203
:1002300081000895DF93CF93CDB7DEB72A970FB62D
:10024000F894DEBF0FBECDBFFE0131969AE0DF010C
:100250001D929A95E9F791E09A87FE01329620E087
:1002600030E0482F50E061E0CA01022E02C09595AF
:1002700087950A94E2F780FF02C0608301C0108274
:100280002F5F3F4F31962830310571F76FB7F894E3
:1002900020910C0130910D01FE01319671E0AE010B
:1002A000455F5F4F8081813011F45E9A01C05E9896
:1002B00010928500109284007093810080918400D8
:1002C0009091850082179307C8F3109281003196B0
:1002D000E417F50739F76FBF2A960FB6F894DEBF1B
:1002E0000FBECDBFCF91DF9108950E9464000E94A0
:0C02F00080000E94B1000895F894FFCF38
:1002FC00CE049C044E024E023A02E600180118018C
:02030C004600A9
:00000001FF
