:100000000C9434000C9451000C9451000C94510049
:100010000C9451000C9451000C9451000C9451001C
:100020000C9451000C9451000C9451000C9451000C
:100030000C9451000C9451000C9451000C945100FC
:100040000C94ED0D0C9451000C94A9020C945100E9
:100050000C9451000C9451000C9451000C945100DC
:100060000C9451000C94510011241FBECFEFD8E026
:10007000DEBFCDBF11E0A0E0B1E0EAE0FDE102C0EB
:1000800005900D92A031B107D9F711E0A0E1B1E0E0
:1000900001C01D92AF3EB107E1F70E9453000C94DE
:1000A000830E0C940000CF93DF9360E076E980E04C
:1000B00090E00E94CD0288EE93E00E94BA0D8AB1D2
:1000C00080668AB98BB18F798BB988E893E12CE28D
:1000D00031E0F9013197F1F70197D9F780E040E17C
:1000E00057E260E070E00E94DB0ACCE2D1E080E001
:1000F0000E9465090E943A020E94DC0188EE93E0AA
:10010000FE013197F1F70197D9F75E9A0E94C70D6A
:100110005E98EDCF10921001E1E1F1E0119281E0E3
:10012000E931F807D9F71082118280E290E093A3B9
:1001300082A315A214A220E004C0E05FFE4F138644
:100140002F5F80913B0190913C01E22FF0E0E81796
:10015000F90798F30895089508959B01AC0160E6AE
:1001600073EE86E190E00E94460E21503040404000
:100170005040E0ECF0E0808182608083BB27A52FB7
:10018000942F832F8093C5002093C4000895E1EC41
:10019000F0E080818860808386E08093C2000895CB
:1001A000E1ECF0E080818061808386E08093C20092
:1001B0000895E1ECF0E08081806880837894089570
:1001C000982F8091C00085FFFCCF9093C6000895C2
:1001D000DF93CF930F92CDB7DEB719828091C00025
:1001E00084FF05C08091C600898381E008C08091AA
:1001F000C00083FF07C08091C600898382E080939E
:10020000100105C08091C600898310921001898178
:100210000F90CF91DF91089580911A010895109267
:100220001A0108951F93CF93DF93AB01BC014F3F99
:1002300051056105710509F028F4E8E0F0E0C2E03D
:10024000D0E011C0403080E0580781E0680780E0CE
:10025000780728F0E0E2F0E0C8E0D0E004C0E0E198
:10026000F0E0C4E0D0E08091C00085FFFCCF80E3E7
:100270008093C6008091C00085FFFCCF88E7809303
:10028000C60010E01FC03497DB01CA010E2E04C067
:10029000B695A795979587950A94D2F790E08F70B9
:1002A00090708A30910520F09C01295C3F4F03C07B
:1002B0009C01205D3F4F8091C00085FFFCCF2093C3
:1002C000C6001F5F812F90E08C179D07E0F2DF9141
:1002D000CF911F910895CF92DF92EF92FF920F93EB
:1002E0001F93CF93DF93AB01BC014F3F51056105D5
:1002F000710509F010F497E00BC0403080E058071A
:1003000081E0680780E0780710F09FE101C09FE07E
:100310008091C00085FFFCCF80E38093C600809170
:10032000C00085FFFCCF82E68093C60020E030E06D
:10033000E92FF0E000E311E3EF012196CF01821BEA
:10034000930B6A017B0104C0F694E794D794C79499
:100350008A95D2F7D701C60181709070892B39F048
:100360008091C00085FFFCCF1093C60006C080912D
:10037000C00085FFFCCF0093C6002F5F3F4F2C17B6
:100380003D07E1F6DF91CF911F910F91FF90EF9024
:10039000DF90CF900895AC0120E007C08091C000AD
:1003A00085FFFCCFE093C6002F5FFA01E20FF11D3D
:1003B000E081EE2399F7089580E091E00E94CB015F
:1003C000089583E091E00E94CB010895BF92CF92FF
:1003D000DF92EF92FF920F931F936B017C016115E7
:1003E00071058105910531F41092110181E080932E
:1003F000190123C0BB240B2D10E0005F1E4FC70165
:10040000B6012AE030E040E050E00E94460EF801DC
:100410006183C701B6012AE030E040E050E00E946D
:10042000460EC901DA016C017D01B394C114D104F7
:10043000E104F10401F7B09219011F910F91FF90AF
:10044000EF90DF90CF90BF900895E09119010FC019
:100450002E2F2150E22FF0E0E05FFE4F918180913E
:10046000C00085FFFCCF905D9093C600E22FEE2385
:1004700079F708959B01AC0197FF0EC08091C000F1
:1004800085FFFCCF8DE28093C60050954095309556
:1004900021953F4F4F4F5F4FCA01B9010E94E601BE
:1004A0000E9425020895FC01E05FFE4F83850895B8
:1004B00020913D0130913E01C90108951092100133
:1004C00020E030E006C0F901E05FFE4F13862F5FA9
:1004D0003F4F80913B0190913C012817390798F3D9
:1004E00010923E0110923D010895DF93CF930F9239
:1004F000CDB7DEB719820E94E80089838091100190
:10050000882319F5898180931A01E0913D01F091CA
:100510003E018981E05FFE4F838780913D0190918C
:100520003E01019690933E0180933D0120913D0153
:1005300030913E0180913B0190913C012817390791
:1005400020F010923E0110923D010F90CF91DF916B
:1005500008951F920F920FB60F9211242F933F937D
:100560004F935F936F937F938F939F93AF93BF93BB
:10057000EF93FF930E947502FF91EF91BF91AF91AE
:100580009F918F917F916F915F914F913F912F91AB
:100590000F900FBE0F901F901895EF92FF920F9340
:1005A0001F937B018C010E948A00C801B7010E9441
:1005B000AD00E1ECF0E0808188608083A2ECB0E0E7
:1005C00096E09C938081806180839C938081806889
:1005D000808378940E945E021F910F91FF90EF90AC
:1005E000089581E491E09093400180933F0110923F
:1005F00041018091410184608093410180914101DA
:1006000087708093410181E090E090934301809353
:1006100042011092440110924A0110924901109235
:100620004B0110924C0110924D0110924E0110920C
:100630004501109246011092470110924801109214
:100640004F011092500110925101109252011092DC
:1006500053011092540110925501109256011092BC
:10066000570110925801AFEAB1E080E090E02DE030
:1006700030E0829FF001839FF00D929FF00D1124D6
:10068000E255FE4F10821D921D921D921C921397EF
:1006900014961D921D921D921C92179718961D92EA
:1006A0001D921D921C921B9701961D9685309105F7
:1006B00001F7AAE5B1E080E090E0FC0124E0EE0F54
:1006C000FF1F2A95E1F7E80FF91FEF5BFE4F108E31
:1006D0001D921D921D921C92139714961D921D92AD
:1006E0001D921C92179718961D921D921D921C9296
:1006F0001B971C961D921D921D921C921F9701968E
:10070000519685309105C9F608957F928F929F92F8
:10071000AF92BF92CF92DF92EF92FF920F931F930F
:10072000DF93CF93CDB7DEB72A970FB6F894DEBF2D
:100730000FBECDBF8C01C0903F01D0904001F601AB
:10074000808180FF31C00130110511F496E019C09D
:100750000230110511F495E014C00430110511F4B4
:1007600094E00FC00830110511F493E00AC0003185
:10077000110511F492E005C090E00032110509F472
:1007800091E0F89484B7877F84BF8091600080688F
:100790008093600080916000886180936000906425
:1007A00090936000789467C081FD65C082FF63C04C
:1007B000DE011196E5E0F1E08AE001900D928150B2
:1007C000E1F7980140E050E060E07BE187EB90E0EA
:1007D0000E94680E722E832E942EE52E5E010894E0
:1007E000A11CB11CC901DA019C01AD01FF2414C098
:1007F000F501219131915F0140E050E0672D782DA6
:10080000892D9E2D0E94680EC901DA019C01AD015F
:10081000F394F5E0FF1631F02F3F31054105510506
:1008200009F034F78F2D815014BC15BC10926E0066
:1008300015BA17BC18BC16BC17BC882311F481E08C
:100840000FC0813011F482E00BC0823011F483E0DC
:1008500007C0833011F484E003C0843011F485E0D4
:1008600085BD822F8095F6018383838186BD81E0DB
:1008700080936E007894F601128301832A960FB656
:10088000F894DEBF0FBECDBFCF91DF911F910F91C6
:10089000FF90EF90DF90CF90BF90AF909F908F90A0
:1008A0007F900895E0913F01F0914001878908957C
:1008B000E0913F01F091400187898F3318F48789D7
:1008C0008F5F878B0895E0913F01F0914001878908
:1008D000882319F087898150878B0895E0913F0123
:1008E000F0914001178A0895E0913F01F091400195
:1008F00020853185C9010895E0913F01F0914001C3
:100900002285338544855585B901CA010895E09152
:100910003F01F0914001918780870895E0913F0168
:10092000F0914001628773878487958708959C01C1
:10093000E0913F01F091400187898F3318F4878956
:100940008F5F878B80859185A0E0B0E040E050E02C
:10095000280F391F4A1F5B1F80859185A0E0B0E0FA
:1009600082179307A407B507BCF38789882319F07A
:1009700087898150878B0895BC01E0913F01F091F8
:100980004001808591852481358146815781A0E091
:10099000B0E082179307A407B50799F78085918582
:1009A000860F971FA0E0B0E084839583A683B7836A
:1009B000248135814681578181819281A0E0B0E018
:1009C000281739074A075B0784F02481358146815F
:1009D000578181819281A0E0B0E0281B390B4A0B3E
:1009E0005B0B24833583468357830895EF92FF92F0
:1009F0000F931F93E0913F01F091400122853385D1
:100A0000448555857C0100E010E0E20EF31E041FD2
:100A1000151F82859385A485B5858E159F05A00732
:100A2000B107BCF31F910F91FF90EF900895E091F3
:100A30003F01F091400116861786108A118A128AAA
:100A4000138A148A158A168A0895E0913F01F0915D
:100A500040018689882391F482859385A485B58594
:100A600086879787A08BB18B80859185A0E0B0E0C9
:100A7000828B938BA48BB58B81E0868B0895EF924C
:100A8000FF920F931F93CF93DF93C0913F01D091BB
:100A900040018E89813021F0EE24FF24870123C09C
:100AA0002A853B854C855D85888599857C0100E09C
:100AB00010E08E859F85A889B989281B390B4A0BC0
:100AC0005B0B69817A8180E090E00E94130E2A8995
:100AD0003B894C895D89E21AF30A040B150BE60E7B
:100AE000F71E081F191FB701C801DF91CF911F9191
:100AF0000F91FF90EF9008950E943F05282FE091FD
:100B00003F01F09140018689813049F416861786AD
:100B1000108A118A128A138A148A158A168A822FD9
:100B20000895E0913F01F091400190E02DE030E028
:100B3000AC01429FC001439F900D529F900D112424
:100B4000E80FF91FE359FF4F808186958F70089554
:100B5000E0913F01F091400190E02DE030E0AC01E8
:100B6000429FC001439F900D529F900D1124E80FAA
:100B7000F91FE359FF4F6F70660F8081817E862BCE
:100B800080830895E0913F01F091400190E02DE0D5
:100B900030E0AC01429FC001439F900D529F900DE9
:100BA0001124E80FF91FEE58FF4F60817181828197
:100BB00093810895E0913F01F091400190E02DE094
:100BC00030E0DC01A29FC001A39F900DB29F900D69
:100BD0001124E80FF91FEE58FF4F408351836283C1
:100BE00073830895E0913F01F091400190E02DE082
:100BF00030E0AC01429FC001439F900D529F900D89
:100C00001124E80FF91FE259FF4F60817181828141
:100C100093810895E0913F01F091400190E02DE033
:100C200030E0DC01A29FC001A39F900DB29F900D08
:100C30001124E80FF91FE259FF4F4083518362836B
:100C400073830895E0913F01F091400190E02DE021
:100C500030E0AC01429FC001439F900D529F900D28
:100C60001124E80FF91FEA58FF4F608171818281DA
:100C700093810895E0913F01F0914001282F30E0E9
:100C800077FF13C08DE090E0AC01249FC001259F49
:100C9000900D349F900D1124E80FF91FEA58FF4F73
:100CA000108211821282138208958DE090E0DC019F
:100CB0002A9FC0012B9F900D3A9F900D1124E80FA1
:100CC000F91FEA58FF4F408351836283738308956D
:100CD000E0913F01F091400190E02DE030E0AC0167
:100CE000429FC001439F900D529F900D1124E80F29
:100CF000F91FE359FF4F808181700895E0913F0112
:100D0000F091400190E02DE030E0AC01429FC00145
:100D1000439F900D529F900D1124E80FF91FE35946
:100D2000FF4F8081816080830895E0913F01F091C1
:100D3000400190E02DE030E0AC01429FC001439FB4
:100D4000900D529F900D1124E80FF91FE359FF4FAA
:100D500080818E7F80830895E0913F01F091400172
:100D600090E02DE030E0AC01429FC001439F900D28
:100D7000529F900D1124E80FF91FE259FF4F119275
:100D80001192119211921082118212821382359760
:100D90008081807E80830895E0913F01F091400141
:100DA00090E02DE030E0AC01429FC001439F900DE8
:100DB000529F900D1124E80FF91FE259FF4F119235
:100DC0001192119211921082118212821382359720
:100DD0008081807E80830895E0913F01F091400101
:100DE00090E02DE030E0AC01429FC001439F900DA8
:100DF000529F900D1124E80FF91FE359FF4F908186
:100E0000892F86958F70813019F0917E9260908342
:100E10000895E0913F01F091400190E02DE030E035
:100E2000AC01429FC001439F900D529F900D112431
:100E3000E80FF91FE359FF4F9081892F86958F7036
:100E4000823019F0917E946090830895CF93DF9360
:100E5000A0913F01B091400190E02DE030E0829FF1
:100E6000F001839FF00D929FF00D1124EA0FFB1FFC
:100E7000EF01C359DF4F888186958F70E9F4EE58F2
:100E8000FF4F40835183628373831A968D919D91A6
:100E90000D90BC91A02D840F951FA61FB71FB29374
:100EA000A293929382939881892F86958F70813037
:100EB00019F0917E92609883DF91CF910895CF933E
:100EC000DF93E0913F01F0914001A82FB0E02DE0C9
:100ED00030E0E901AC9F9001AD9F300DBC9F300D1B
:100EE0001124E20FF31FE259FF4F11921192119258
:100EF0001192108211821282138235979081907E16
:100F000090830E942607DF91CF9108950F931F933E
:100F1000CF93DF93A0913F01B091400190E02DE08D
:100F200030E0829FF001839FF00D929FF00D11241D
:100F3000EA0FFB1F8F0103591F4FE8018881869537
:100F40008F70813069F51A962D913D914D915C918C
:100F50001D97BF0162597F4FEB0188819981AA815A
:100F6000BB81821B930BA40BB50BEE58FF4F808304
:100F70009183A283B383181619061A061B0634F14F
:100F8000DB011D921D921D921C92139710821182FB
:100F900012821382E8018881807E8860888316C06F
:100FA0008230A1F41A968D919D910D90BC91A02D47
:100FB000EE58FF4F2081318142815381820F931F70
:100FC000A41FB51FB293A29392938293DF91CF9106
:100FD0001F910F91089540E0E0913F01F091400191
:100FE00090E02DE030E0BC01629FC001639F900D56
:100FF000729F900D1124E80FF91FE359FF4F808174
:1010000086958F70843009F441E0842F0895E09133
:101010003F01F091400190E02DE030E0AC01429FB3
:10102000C001439F900D529F900D1124E80FF91FAE
:10103000DF01A359BF4F8C9186958F70843011F0DA
:1010400080E00895E259FF4F11921192119211928E
:1010500010821182128213828C91807E8C9381E0A7
:101060000895CF93DF93C0913F01D0914001282F85
:1010700030E08DE090E0289FF001299FF00D389F2F
:10108000F00D1124EC0FFD1FE359FF4F8081ED5649
:10109000F04080FD25C0EE58FF4F81919191A191C4
:1010A000B191841B950BA60BB70BB7FF05C010823F
:1010B00011821282138204C080839183A283B3833E
:1010C0008DE090E0289FF001299FF00D389FF00DF2
:1010D0001124EC0FFD1FE359FF4F80818160808355
:1010E000DF91CF910895E0913F01F091400190E0B0
:1010F0002DE030E0AC01429FC001439F900D529F14
:10110000900D1124E80FF91FDF01AA58BF4FEE58C8
:10111000FF4F20813181428153818D919D910D90AE
:10112000BC91A02D281B390B4A0B5B0B57FF04C049
:1011300020E030E040E050E0B901CA010895CF93CB
:10114000DF93C0913F01D0914001682F70E08DE0A6
:1011500090E0689FF001699FF00D789FF00D1124D9
:10116000EC0FFD1FDF01AA58BF4FEE58FF4F208143
:101170003181428153818D919D910D90BC91A02D23
:10118000281B390B4A0B5B0B57FD07C02115310596
:101190004105510511F020E014C020E08DE090E001
:1011A000AC01649FC001659F900D749F900D112448
:1011B000C80FD91FC359DF4F888180FF21E081E02C
:1011C0002827822FDF91CF9108951F93182F0E9417
:1011D0009F08813011F080E018C0E0913F01F0914C
:1011E0004001212F30E08DE090E0AC01249FC00150
:1011F000259F900D349F900D1124E80FF91FE3599E
:10120000FF4F80818E7F808381E01F9108951F931F
:1012100010E0812F0E9486071F5F1530D1F71F91C4
:10122000089540913F0150914001DA01A259BF4F0A
:1012300020E030E06DE070E01D921D921D921C9246
:10124000139714961D921D921D921C921797269F1C
:10125000F001279FF00D369FF00D1124E40FF51FCC
:10126000E359FF4F8081807E80832F5F3F4F1D9623
:101270002530310509F70895E0913F01F0914001D3
:1012800090E09C0144E0220F331F4A95E1F7280FBC
:10129000391FE20FF31F808D86958F700895E091BE
:1012A0003F01F091400190E09C0154E0220F331F78
:1012B0005A95E1F7280F391FE20FF31F6F70660F81
:1012C000808D817E862B808F0895E0913F01F09183
:1012D000400190E09C0164E0220F331F6A95E1F722
:1012E000280F391FE20FF31FDF01919661A11196BC
:1012F0007C91119712968C91129713969C91089558
:10130000E0913F01F091400190E09C01A4E0220FA8
:10131000331FAA95E1F7280F391FE20FF31F41A3EE
:1013200052A363A374A30895E0913F01F09140019B
:1013300090E09C01B4E0220F331FBA95E1F7280F2B
:10134000391FE20FF31FDF015996618D11967C91D1
:10135000119712968C91129713969C910895E09193
:101360003F01F091400190E09C0144E0220F331FC7
:101370004A95E1F7280F391FE20FF31FDF015D9651
:10138000658D11967C91119712968C9112971396F8
:101390009C910895E0913F01F091400190E09C0103
:1013A000A4E0220F331FAA95E1F7280F391FE20F9F
:1013B000F31F418F528F638F748F0895E0913F0127
:1013C000F091400190E09C01B4E0220F331FBA95E8
:1013D000E1F7280F391FE20FF31F458F568F678FF4
:1013E00070A30895E0913F01F091400190E09C01CD
:1013F00044E0220F331F4A95E1F7280F391FE20F0F
:10140000F31FDF01959665A111967C9111971296B5
:101410008C91129713969C910895E0913F01F09161
:101420004001282F30E077FF0FC0C901B4E0880FDA
:10143000991FBA95E1F7820F931FE80FF91F15A2C4
:1014400016A217A210A60895C901A4E0880F991F3B
:10145000AA95E1F7820F931FE80FF91F45A356A342
:1014600067A370A70895E0913F01F091400190E0DB
:101470009C0144E0220F331F4A95E1F7280F391FE2
:10148000E20FF31F808D81700895E0913F01F0918C
:10149000400190E09C0154E0220F331F5A95E1F780
:1014A000280F391FE20FF31F808D8160808F089510
:1014B000E0913F01F091400190E09C0164E0220F37
:1014C000331F6A95E1F7280F391FE20FF31F808D54
:1014D0008E7F808F0895E0913F01F091400190E070
:1014E0009C0174E0220F331F7A95E1F7280F391F12
:1014F000E20FF31F158E168E178E10A2118E128E0C
:10150000138E148E11A212A213A214A2808D807EBB
:10151000808F0895E0913F01F091400190E09C019F
:10152000A4E0220F331FAA95E1F7280F391FE20F1D
:10153000F31F158E168E178E10A2118E128E138E1B
:10154000148E11A212A213A214A2808D807E808F0D
:101550000895E0913F01F091400190E09C01B4E0DA
:10156000220F331FBA95E1F7280F391FE20FF31F3F
:10157000908D892F86958F70813019F0917E9260C1
:10158000908F0895E0913F01F091400190E09C011F
:1015900044E0220F331F4A95E1F7280F391FE20F6D
:1015A000F31F908D892F86958F70823019F0917E70
:1015B0009460908F08952F923F924F925F926F9216
:1015C0007F928F929F92AF92BF92CF92DF92EF92D3
:1015D000FF920F931F93DF93CF9300D000D0CDB72E
:1015E000DEB74A015B0120913F01309140013C830D
:1015F0002B83A82FB0E0BA83A983FD0164E0EE0F2E
:10160000FF1F6A95E1F7EA0FFB1FE20FF31F808DC2
:1016100086958F7009F06DC081A292A2A3A2B4A298
:10162000F901C084D1842284338444845584218187
:10163000328140E050E0C501B4010E94680E7B0198
:101640008C01AB81BC8111962D913C91129740E0A9
:1016500050E0C501B4010E94680EC901DA013C01E5
:101660004D015601CC24DD24AE0CBF1CC01ED11E82
:10167000EB81FC8181819281A0E0B0E0A816B906DF
:10168000CA06DB0694F00894611C711C811C911C35
:101690002181328140E050E0C601B5010E94680E10
:1016A000AC01CB01DA015C016D01E981FA8154E002
:1016B000EE0FFF1F5A95E1F729813A81E20FF31FE0
:1016C0008B819C81E80FF91F260C371C481C591C84
:1016D000218E328E438E548EA58EB68EC78ED0A2AA
:1016E000908D892F86958F70813019F0917E926050
:1016F000908F0F900F900F900F90CF91DF911F91CF
:101700000F91FF90EF90DF90CF90BF90AF909F90A0
:101710008F907F906F905F904F903F902F900895A3
:10172000E0913F01F0914001A82FB0E09D0194E0CD
:10173000220F331F9A95E1F72A0F3B1FE20FF31F89
:10174000158E168E178E10A2118E128E138E148E79
:1017500011A212A213A214A2908D907E908F0E94CB
:10176000DB0A08952F923F924F925F926F927F9281
:101770008F929F92AF92BF92CF92DF92EF92FF92A1
:101780000F931F93DF93CF9300D000D0CDB7DEB778
:1017900020913F01309140013C832B83C82EDD24F2
:1017A000C60144E0880F991F4A95E1F78C0D9D1DF5
:1017B000820F931F9A838983FC01808D86958F7099
:1017C000813009F056C0F901808591854C01AA2429
:1017D000BB2482859385A485B585E981FA81E18C56
:1017E000F28C038D148DE81AF90A0A0B1B0B17FFF4
:1017F00003C0EE24FF248701EB81FC81218132812B
:1018000040E050E0C801B7010E94130EF60124E049
:10181000EE0FFF1F2A95E1F7EC0DFD1D2B813C819A
:10182000E20FF31F258D368D478D50A128193909F8
:101830004A095B09260F371F481F591F21A332A3EE
:1018400043A354A312161306140615060CF44BC03A
:10185000158E168E178E10A2118E128E138E148E68
:1018600011A212A213A214A2808D807E8860808FA4
:101870003AC08230C1F5EB81FC8160847184E284DE
:10188000F38404851585E981FA8121A032A043A063
:1018900054A0EB81FC8121813281A180B28040E0A3
:1018A00050E0C201B1010E94680EE20EF31E041F57
:1018B000151FE981FA81E18EF28E038F148FCC24FB
:1018C000DD24C201B101A60195010E94680E8824A1
:1018D0009924660E771E881E991EE981FA81658E0D
:1018E000768E878E90A20F900F900F900F90CF91D1
:1018F000DF911F910F91FF90EF90DF90CF90BF90FD
:10190000AF909F908F907F906F905F904F903F909F
:101910002F90089540E0E0913F01F091400190E068
:101920009C0154E0220F331F5A95E1F7280F391F0D
:10193000E20FF31F808D86958F70843009F441E0AB
:10194000842F0895E0913F01F091400190E09C01C7
:1019500064E0220F331F6A95E1F7280F391FE20F69
:10196000F31F808D86958F70843011F080E008958C
:10197000158E168E178E10A2118E128E138E148E47
:1019800011A212A213A214A2808D807E808F81E00A
:101990000895CF93DF93C0913F01D0914001282F4C
:1019A00030E0F901A4E0EE0FFF1FAA95E1F7E20F86
:1019B000F31FEC0FFD1F808D80FD20C081A192A13F
:1019C000A3A1B4A1841B950BA60BB70BB7FF05C051
:1019D00015A216A217A210A604C085A396A3A7A3BA
:1019E000B0A7F90174E0EE0FFF1F7A95E1F7E20F5F
:1019F000F31FEC0FFD1F808D8160808FDF91CF91F1
:101A00000895E0913F01F091400190E09C01B4E025
:101A1000220F331FBA95E1F7280F391FE20FF31F8A
:101A200021A132A143A154A185A196A1A7A1B0A54E
:101A3000281B390B4A0B5B0B57FF04C020E030E03A
:101A400040E050E0B901CA010895CF93DF93C091FF
:101A50003F01D0914001682F70E0FB0144E0EE0FA0
:101A6000FF1F4A95E1F7E60FF71FEC0FFD1F21A1BD
:101A700032A143A154A185A196A1A7A1B0A5281B7D
:101A8000390B4A0B5B0B57FD07C02115310541058A
:101A9000510511F020E010C020E0CB0134E0880FA8
:101AA000991F3A95E1F7860F971FC80FD91F888DA8
:101AB00080FF21E081E02827822FDF91CF910895D8
:101AC0001F93182F0E94250D813011F080E014C063
:101AD000E0913F01F0914001212F30E0C90154E035
:101AE000880F991F5A95E1F7820F931FE80FF91F8E
:101AF000808D8E7F808F81E01F9108951F9310E06D
:101B0000812F0E94B20B1F5F1530D1F71F910895EE
:101B100040913F0150914001DA01599620E030E0B8
:101B200014961D921D921D921C9217971D921D9244
:101B30001D921C92139718961D921D921D921C9235
:101B40001B97F90164E0EE0FFF1F6A95E1F7E20FC2
:101B5000F31FE40FF51F808D807E808F2F5F3F4F36
:101B6000519625303105E1F608950E94880D0E94B6
:101B7000110908950F931F938C010E94F102C8016F
:101B80000E9485030E94B50D1F910F9108950E9438
:101B90007E0D0E9407090895E0913F01F0914001F8
:101BA00080859185019691878087838186BD808518
:101BB0009185618172810E94320E892B69F4828540
:101BC0009385A485B5850196A11DB11D8287938754
:101BD000A487B5871186108608951F920F920FB6BD
:101BE0000F9211242F933F934F935F936F937F93A3
:101BF0008F939F93AF93BF93EF93FF935D9A0E9450
:101C0000CC0D5D98FF91EF91BF91AF919F918F9116
:101C10007F916F915F914F913F912F910F900FBEE8
:101C20000F901F901895629FD001739FF001829FC3
:101C3000E00DF11D649FE00DF11D929FF00D839F5B
:101C4000F00D749FF00D659FF00D9927729FB00DF8
:101C5000E11DF91F639FB00DE11DF91FBD01CF010B
:101C600011240895AA1BBB1B51E107C0AA1FBB1F6B
:101C7000A617B70710F0A61BB70B881F991F5A9518
:101C8000A9F780959095BC01CD010895A1E21A2E87
:101C9000AA1BBB1BFD010DC0AA1FBB1FEE1FFF1F10
:101CA000A217B307E407F50720F0A21BB30BE40B60
:101CB000F50B661F771F881F991F1A9469F76095A7
:101CC0007095809590959B01AC01BD01CF01089561
:101CD00097FB092E05260ED057FD04D0D7DF0AD07A
:101CE000001C38F450954095309521953F4F4F4F4B
:101CF0005F4F0895F6F790958095709561957F4FA9
:0A1D00008F4F9F4F0895F894FFCF16
:101D0A000D0A002000010008004000000100040044
:00000001FF
